S013000053757065725F436C6F6B6B2E73726563AF
S11300000C94A5010C94C2010C94C2010C94C2017D
S11300100C9493280C94C2010C94C2010C94C20158
S11300200C94C2010C94C2010C9405280C94C201D6
S11300300C94C2010C94C2010C94C2010C94C20130
S11300400C94C2010C94C2010C94C2010C94C20120
S11300500C94C20143033C0335032E0327032003FE
S1130060190312030B030403FD02F602EF02E80274
S1130070E102DA02D302CC02C502BE02B702B00228
S1130080A902A2029B0294028D0286027F027802D8
S113009071026A0263025C0255024E024702400288
S11300A0390232022B0224021D0216020F02080238
S11300B00102FA01F301EC01E501DE01D701D001EF
S11300C0C901C201BB01B401AD01A6019F019801A0
S11300D091018A0183017C0175016E016701600150
S11300E0590152014B01410137013001290122011B
S11300F01B0114010D010601FF00FC007C01FF251A
S113010005FF810081FFA705FF950895FF3A026668
S113011066FFFFFFB0026060FFFFFF2E020303FFD4
S1130120FFFF6005FFFFFFFFFF2A054402120244A0
S11301302405122A7F2A243E0581C3663C18000048
S1130140003C05183C66C3810000003D05141414EE
S113015014142D0508080808082B0508083E08088B
S113016029040081423C002804003C428100260509
S1130170768995620523052040FF4020400504024E
S1130180FF02042101FD000000003F0560808D9006
S11301906039057089898A7C38056E9191916E3732
S11301A005808F90A0C036051E294989863505F241
S11301B09191918E3405182848FF083305428191A6
S11301C0916E3205438589916131040041FF01003C
S11301D030057E8991A17E7A0511131519117905CF
S11301E0003905053E7805110A040A1177051E0138
S11301F00E011E76051C0201021C75051E0101027A
S11302001F740520FE2101027305091515150272DC
S1130210051F081010087105102828183F70053FA5
S1130220242424186F050E1111110E6E053F1020A1
S1130230201F6D053F2018201F6C040081FF010062
S11302406B04FF040A11006A04020121BE00690163
S11302505F000000006805FF0810100F67053049B3
S113026049497E6605087F88804065050E15151589
S11302700C64050E111109FF63051E212121126270
S113028005FF0911110E6105062929291F5A058345
S11302908599A1C15905E0100F10E05805C3241831
S11302A024C35705FF020C02FF5605F00C030CF0A3
S11302B05505FE010101FE54058080FF8080530531
S11302C0619191918E5205FF888C8A7151057E81CE
S11302D085827D5005FF888888704F057E818181E5
S11302E07E4E05FF403008FF4D05FF403040FF4C77
S11302F005FF010101014B05FF182442814A05064F
S1130300010101FE49058181FF81814805FF10102B
S113031010FF47057E8189894E4605FF90909080A5
S11303204505FF919191814405FF8181423C43053C
S11303307E818181424205FF9191916E41053F4842
S113034088483F2003000000000011241FBECFE5B1
S1130350D8E0DEBFCDBF14E0A0E6B0E0E6E9FEE5FC
S113036002C005900D92AE30B107D9F724E0AEE09B
S1130370B4E001C01D92AA3EB207E1F70E945726DD
S11303800C94492F0C94000000C000C000C000C0B1
S113039000C000C000000895A198A098A998A8984A
S11303A00895A19AF1DF1DD00895A09AEDDFA198D8
S11303B0EBDFA098E9DFA19AE7DF13D00895082EB8
S11303C0A19AE2DF802D0DD0882311F002D0F8CF5E
S11303D00895A09AA19AD8DFA098D6DFA198D4DF77
S11303E008950894881F01C0880F59F0A09A18F442
S11303F00000A19802C0A19A00C0C6DFA098C4DF83
S1130400F3CFA09AA198C0DFA098989BFECF88272D
S1130410999981E0B9DF99270895882701C081E07F
S113042071E0A09AA198B0DFA098AEDF989BFECFB0
S1130430889499990894771FA0F7A09A813011F0B5
S1130440A19801C0A19AA0DFA098989BFECF9CDF41
S1130450872F992708950F931F93CF93DF938C01D0
S1130460FC01C081613019F0611113C029C08EEE06
S11304700E94DF018C2F0E94F1010E94E9018FEE9E
S11304800E94DF010E940D02F80180830E94E901AD
S113049017C0DC2FD60F8EEE0E94DF018C2F0E9436
S11304A0F1010E94E9018FEE0E94DF010E940D021A
S11304B0F80181938F010E94E901CF5FDC13EBCF38
S11304C081E0DF91CF911F910F9108950F931F93B6
S11304D0CF93DF931F92CDB7DEB78B01898361E0A1
S11304E0CE0101960E942B02882321F08981F80114
S11304F0808381E00F90DF91CF911F910F91089538
S11305000F931F93CF93DF9300D0CDB7DEB78B014A
S1130510898362E0CE0101960E942B02882351F068
S1130520898190E0982F88272A81822BF801918372
S1130530808381E00F900F90DF91CF911F910F91F5
S113054008950F931F93CF93DF9300D0CDB7DEB7F9
S11305508B01898362E0CE0101960E942B028823DD
S113056059F0898190E0982F88272A81822BF801FD
S11305709183808380E001C081E00F900F90DF9130
S1130580CF911F910F910895CF93DF93EC01BC019C
S11305908AEA0E948002BE016E5F7F4F8CEA0E944D
S11305A08002BE016C5F7F4F8EEA0E948002BE0112
S11305B06A5F7F4F80EB0E94A102BE01685F7F4F9C
S11305C082EB0E94A102BE01665F7F4F84EB0E9412
S11305D0A102BE01645F7F4F86EB0E948002BE01D0
S11305E0625F7F4F88EB0E948002BE01605F7F4F95
S11305F08AEB0E948002BE016E5E7F4F8CEB0E94EC
S11306008002BE016C5E7F4F8EEB0E94800281E00F
S1130610DF91CF910895EF92FF920F931F93CF93A1
S1130620DF93FC01C081662331F18C01FC2EF60EB0
S11306308EEE0E94D101811120C08C2F0E94F10105
S1130640D82FF80181810E94F101E82EFFEF22E505
S113065087E0F15020408040E1F700C00000DE0D4B
S11306600E94E901DE0D59F4CF5F0F5F1F4FFC12AA
S1130670DFCF81E005C081E003C080E001C080E0FD
S1130680DF91CF911F910F91FF90EF900895CF9339
S1130690DF9300D0CDB7DEB789836A8361E0CE01F2
S11306A001960E940B0391E0811101C090E0892F13
S11306B00F900F90DF91CF910895EF92FF920F93D7
S11306C01F93CF93DF931F92CDB7DEB7F82EE42E9E
S11306D069830E94470381110CC017C0BE016F5F7C
S11306E07F4F8F2D0E9466020F5F1F4F811103C041
S11306F00CC000E010E089818E2131F00F3F8FEFB4
S1130700180761F781E001C081E00F90DF91CF917C
S11307101F910F91FF90EF9008950F931F93CF9324
S1130720DF9300D0CDB7DEB78C0140E26EE284EFF8
S11307300E945D03882361F0BE016F5F7F4F86EFE7
S11307400E94800289819A81F8019183808381E0EB
S11307500F900F90DF91CF911F910F9108954F92B9
S11307605F926F927F928F929F92AF92BF92CF923D
S1130770DF92EF92FF921F93CF93DF9300D000D0CC
S113078000D0CDB7DEB788A099A0A12CB12C4AA087
S11307905BA0612C712CCAA4DBA40D2C000CEE0808
S11307A0FF082CA53DA5C901330FAA0BBB0B8B83F6
S11307B09C83AD83BE83CE0101960E948D03182FC6
S11307C029813A81C901A0E0B0E09C01AD0124195E
S11307D0350946095709C501B4010E94E4294B01B2
S11307E05C01072E7FE0B594A794979487947A953B
S11307F0D1F7702DC701B601052E5BE0660F771F98
S1130800881F991F5A95D1F7502D2B813C814D811A
S11308105E81280D391D4A1D5B1D0E942A2A820E05
S1130820931EA41EB51E98E0890E911CA11CB11C38
S1130830689413F8B594A794979487941694D1F771
S1130840EEA9FFA980829182A282B382812F817056
S113085026960FB6F894DEBF0FBECDBFDF91CF91C1
S11308601F91FF90EF90DF90CF90BF90AF909F903B
S11308708F907F906F905F904F900895FF920F93A9
S11308801F93CF93DF9300D01F92CDB7DEB78C01B7
S1130890F62E6295660F660F607C6C5C40E284EF16
S11308A00E945D03882379F1BE016F5F7F4F86EF5D
S11308B00E946602BE016E5F7F4F87EF0E94660250
S11308C0BE016D5F7F4F88EF0E94660229818A8195
S11308D090E0A0E0B0E0BA2FA92F982F8827A22B90
S11308E02B81822B28E030E02F19310904C0B59503
S11308F0A795979587952A95D2F7F80180839183D8
S1130900A283B38381E00F900F900F90DF91CF917A
S11309101F910F91FF9008952F923F924F925F92F3
S11309206F927F928F929F92AF92BF92CF92DF92FB
S1130930EF92FF920F931F93CF93DF93CDB7DEB760
S1130940A8970FB6F894DEBF0FBECDBF1C01062FCB
S1130950DC014D905C9011979201550C440B550BA2
S11309602F83388749875A8712968D919C911397C4
S11309709C01990F440B550B2B873C874D875E8751
S113098014968D909C901597C401990CAA0BBB0BDF
S11309908F87988BA98BBA8BD10116960D90BC9139
S11309A0A02DBC8BAB8BF10140845184920140E0BB
S11309B050E02D8B3E8B4F8B588F828593859C0105
S11309C040E050E0298F3A8F4B8F5C8F62897389A6
S11309D02B01770F66087708248935894901330F7D
S11309E0AA08BB08848595859C01990F440B550B77
S11309F02D8F3E8F4F8F58A3868597859C01990F25
S1130A00440B550B29A33AA34BA35CA3CE01019637
S1130A100E948D03182FC980DA800D2C000CEE087B
S1130A20FF08602FCE0103960E943E048123182FF5
S1130A3011708B819C81AD81BE818DA39EA3AFA3D8
S1130A40B8A7A7019601898D9A8DAB8DBC8D281B03
S1130A50390B4A0B5B0B6D897E898F89988D0E94B7
S1130A60E4296B017C010B2EBFE0F594E794D79445
S1130A70C794BA95D1F7B02DC301B201052E5BE03E
S1130A80660F771F881F991F5A95D1F7502DA5011E
S1130A9094012C0D3D1D4E1D5F1D0E942A2AC20E7D
S1130AA0D31EE41EF51ED701C6010896A11DB11D73
S1130AB0689413F8B595A795979587951694D1F7EB
S1130AC0F101828F938FA48FB58FF0EACF1AFFE0E4
S1130AD0DF0AE108F108A7019601C701B6010E94E7
S1130AE0E4292B013C01032E3CE075946794579450
S1130AF047943A95D1F7302D2F85388949895A89F9
S1130B00C701B6010E94E4294B015C01992334F426
S1130B102FEF820E2FE1921EA11CB11C072E7DE047
S1130B20B594A794979487947A95D1F7702D2D8DC9
S1130B303E8D4F8D58A1C301B2010E94E429BB2709
S1130B4097FDB095AB2F880D991DAA1DBB1D02966C
S1130B50A11DB11DB595A79597958795B595A795B1
S1130B60979587959C01AD0130584F4F5F4FAB89E6
S1130B70BC890E94582A4B015C01072E7FE0B69481
S1130B80A794979487947A95D1F7702D29A13AA1C7
S1130B904BA15CA1C301B2010E94E4292B013C01D9
S1130BA0032E3BE075946794579447943A95D1F794
S1130BB0302D2B853C854D855E85C701B6010E948D
S1130BC0E429DC01CB01072E7BE0B595A795979529
S1130BD087957A95D1F7702D480E591E6A1E7B1E93
S1130BE08F819885A985BA85880F991FAA1FBB1F75
S1130BF0880F991FAA1FBB1F480E591E6A1E7B1E11
S1130C00002E04C0440C551C661C771C0A94D2F7B1
S1130C1032E0430E511C611C711C75946794579407
S1130C20479475946794579447942DA13EA14FA17E
S1130C3058A5241935094609570980E593ECA0E025
S1130C40B0E0BC01CD0104C0959587957795679573
S1130C500A95D2F70E94E42999236CF0660F771F56
S1130C60881F991FA50194010E94082A2B833C83A5
S1130C704D835E830EC0A50194010E94082ADA0107
S1130C80C901880F991FAA1FBB1F8B839C83AD8347
S1130C90BE838B809C80AD80BE809927B7FC9A95DB
S1130CA08B2D7A2D692D9B01AC010E94E4299B01B7
S1130CB0AC01AEEDBBE00E94582A6B017C01A3E4B9
S1130CC0B3EEA50194010E94662ABB2797FDB09557
S1130CD0AB2F6701FF24D7FCF094EF2CC80ED91E6C
S1130CE0EA1EFB1E4FECC40E4EE0D41EE11CF11CA8
S1130CF0689413F8F594E794D794C7941694D1F7AD
S1130D00C80CD91CEA1CFB1CD1015696CD92DD926D
S1130D10ED92FC925997812FA8960FB6F894DEBFF6
S1130D200FBECDBFDF91CF911F910F91FF90EF9038
S1130D30DF90CF90BF90AF909F908F907F906F90F7
S1130D405F904F903F902F90089581E394E00E942C
S1130D50C4020895E6E6F0E091E390838EE2818395
S1130D6022E32283838320E3248339E3358334E33A
S1130D70368327838087918783E3828787E3848709
S1130D801586CF010895CF93DF93CDB7DEB7619772
S1130D900FB6F894DEBF0FBECDBF91E1ECE4F1E0F5
S1130DA0DE01119601900D929A95E1F790E3FB0113
S1130DB0908398E79183982F92959F70E1E0F0E0FB
S1130DC0EC0FFD1FE90FF11D9081FB0192838F70E1
S1130DD0E1E0F0E0EC0FFD1FE80FF11D8081FB0165
S1130DE083831482CB0161960FB6F894DEBF0FBEE5
S1130DF0CDBFDF91CF91089580915604882369F087
S1130E0080915204833049F480915504811105C0C6
S1130E1081E08093550410925604809155040895FE
S1130E2080915604882309F446C08091520481308D
S1130E30B1F490911204E92FE695E695E695F0E079
S1130E40ED5EFB4F3081292F277081E090E002C0D6
S1130E50880F991F2A95E2F7832B808325C0809100
S1130E605204811117C090911204E92FE695E6957A
S1130E70E695F0E0ED5EFB4F3081292F277081E08D
S1130E8090E002C0880F991F2A95E2F7809583238A
S1130E9080830AC080915204833031F4109212048A
S1130EA01092560480E00895809112048F5F80931D
S1130EB0120410925604809112048B3330F0109275
S1130EC012041092550481E0089580E008950F9370
S1130ED01F93CF93DF9385E190E0E82FE695E695A5
S1130EE0E695F0E0ED5EFB4F208130E0482F47703F
S1130EF002C0359527954A95E2F720FD9F5F8F5FE5
S1130F008D3159F790FD6BC2E82FE695E695E6958D
S1130F10F0E0ED5EFB4F208130E0482F477002C0C7
S1130F20359527954A95E2F720FD9F5F8F5F8432C0
S1130F3059F75BC2E82FE695E695E695F0E0ED5E9D
S1130F40FB4F208130E0482F477002C0359527952C
S1130F504A95E2F720FD9F5F8F5F8B3359F790FD31
S1130F6040C2E4E7F0E016821582148210821782F0
S1130F7011821382128280E090E041E050E0682FF9
S1130F809C012B5E3F4FD9010AF41796B595A7959E
S1130F90B595A795B595A795AD5EBB4FAC91B0E05F
S1130FA027703078332334F421503109286F3F6F90
S1130FB02F5F3F4F8D0102C0159507952A95E2F7E3
S1130FC000FF0AC075819A01062E02C0220F331F4A
S1130FD00A94E2F7272B25839C01235E3F4FD90116
S1130FE00AF41796B595A795B595A795B595A795C0
S1130FF0AD5EBB4FAC91B0E027703078332334F44E
S113100021503109286F3F6F2F5F3F4FED0102C020
S1131010D595C7952A95E2F7C0FF0AC074819A0155
S1131020062E02C0220F331F0A94E2F7272B2483D3
S11310309C012C5D3F4FD9010AF41796B595A795ED
S1131040B595A795B595A795AD5EBB4FAC91B0E0AE
S113105027703078332334F421503109286F3F6FDF
S11310602F5F3F4F8D0102C0159507952A95E2F732
S113107000FF0AC070819A01062E02C0220F331F9E
S11310800A94E2F7272B20839C01265D3F4FD90168
S11310900AF41796B595A795B595A795B595A7950F
S11310A0AD5EBB4FAC91B0E027703078332334F49D
S11310B021503109286F3F6F2F5F3F4FED0102C070
S11310C0D595C7952A95E2F7C0FF0CC0833050F43C
S11310D077819A01062E02C0220F331F0A94E2F789
S11310E0272B27839C01235D3F4FD9010AF41796D0
S11310F0B595A795B595A795B595A795AD5EBB4F45
S1131100AC91B0E027703078332334F421503109A6
S1131110286F3F6F2F5F3F4F8D0102C015950795D4
S11311202A95E2F700FF0AC071819A01062E02C0D7
S1131130220F331F0A94E2F7272B21839C012E5C94
S11311403F4FD9010AF41796B595A795B595A7957C
S1131150B595A795AD5EBB4FAC91B0E027703078E4
S1131160332334F421503109286F3F6F2F5F3F4FF1
S1131170ED0102C0D595C7952A95E2F7C0FF0CC0D2
S1131180228133818A0102C0000F111F6A95E2F7A0
S1131190202B312B3383228301968430910509F06F
S11311A0EECE48E250E020E030E0C4E0E4E7F0E0D6
S11311B06AE070E0C9014996DC010AF41796B59516
S11311C0A795B595A795B595A795AD5EBB4FAC9181
S11311D0B0E087709078992324F40197886F9F6F0B
S11311E001968D0102C0159507958A95E2F700FFD7
S11311F00CC0C73050F4A581CB01022E02C0880F69
S1131200991F0A94E2F78A0F8583C9018196DC014C
S11312100AF41796B595A795B595A795B595A7958D
S1131220AD5EBB4FAC91B0E087709078992324F405
S11312300197886F9F6F01968D0102C015950795E0
S11312408A95E2F700FF2DC0C63008F0D1C0A48112
S1131250CB01022E02C0880F991F0A94E2F78A0F6D
S11312608483CA01DA0155230CF41796B595A79522
S1131270B595A795B595A795AD5EBB4FAC91B0E07C
S113128087709078992324F40197886F9F6F019653
S11312908D0102C0159507958A95E2F700FD22C0DD
S11312A02BC0CA01DA0155230CF41796B595A795FE
S11312B0B595A795B595A795AD5EBB4FAC91B0E03C
S11312C087709078992324F40197886F9F6F019613
S11312D08D0102C0159507958A95E2F700FF0CC0B1
S11312E0C63050F4A081CB01022E02C0880F991F92
S11312F00A94E2F78A0F8083C901C196DC010AF4DB
S11313001796B595A795B595A795B595A795AD5E8F
S1131310BB4FAC91B0E087709078992324F4019787
S1131320886F9F6F01968D0102C0159507958A9568
S1131330E2F700FF0CC0C43051F4A181CB01022EAE
S113134002C0880F991F0A94E2F78A0F8183C901AA
S1131350C696DC010AF41796B595A795B595A79599
S1131360B595A795AD5EBB4FAC91B0E08770907812
S1131370992324F40197886F9F6F01968D0102C011
S1131380159507958A95E2F700FF0DC08281938138
S1131390DB01022E02C0AA0FBB1F0A94E2F78A0FD8
S11313A09B1F93838283CF5F2F5F3F4F4F5F5F4FBE
S11313B0C83009F0FFCEE4E7F0E0828193818053E6
S11313C0984F938382838091150481FF04C081E048
S11313D080937C001CC010927C0081E018C080E0E7
S11313E016C080E014C080E012C090FFA3CDFBCFF4
S11313F0CA0155230CF4079695958795959587957D
S113140095958795DC01AD5EBB4F8C9175CFDF91CF
S1131410CF911F910F910895CF93FC01B29932C0DF
S11314208091100490911104883725E09207E0F030
S1131430218132818217930710F49283818323815F
S113144034812817390710F49483838385818F5F4F
S1131450858381E08093560483E080935204109244
S113146011041092100404C010921104109210047C
S113147080910E0490910F04019690930F04809331
S11314800E044DC080910E0490910F04843B91058D
S1131490D8F0238534858217930710F494878387C3
S11314A0258536852817390710F49687858787851B
S11314B08F5F878781E08093560480935204109253
S11314C00F0410920E0422C080359105D8F02681B5
S11314D037818217930710F497838683208531859B
S11314E02817390710F49187808782858F5F828758
S11314F081E0809356041092520410920F041092CB
S11315000E0404C010920F0410920E048091100473
S113151090911104019690931104809310040E94F9
S1131520FC06C82F8823B1F00E941007882399F085
S11315300E946707C82F882341F081E080935304F9
S1131540109250041092510406C010925304109249
S1131550510401C0C1E08C2FCF9108950097B1F4DC
S113156008950000000000000000000000000000DA
S1131570000000000000000000002150310989F73C
S11315804F5F5F4F8417950719F4089540E050E0CA
S113159028EE33E0E6CFDD980895DD9A08956623BA
S11315A051F0DB98982F962311F0DA9A01C0DA985B
S11315B0DB9A6695B1F70895CF93DF930E94CB0A27
S11315C064E085E00E94CF0A60E480E00E94CF0AD4
S11315D0C0E0D0E0FE01E95AFB4F808168E00E9440
S11315E0CF0A2196C034D105A9F70E94CD0ADF9114
S11315F0CF910895CF93C82F0E94CB0A64E084E072
S11316000E94CF0A60E88C2F0E94CF0A61E081E03B
S11316100E94CF0A0E94CD0ACF910895EF92FF92C3
S11316200F931F93CF93DF9300D000D000D0CDB79A
S1131630DEB791E0998393E09A8398E09B8398E1E5
S11316409C8390E29D838E838E010F5F1F4F7E01EA
S113165087E0E80EF11CF80181918F010E94FA0ADB
S11316600E151F05C1F726960FB6F894DEBF0FBE00
S1131670CDBFDF91CF911F910F91FF90EF9008950F
S1131680982F987FE92FF0E0EE0FFF1F82FB2227AF
S113169020F930E0E22BF32B70E0660F771FE62B86
S11316A0F72BE95AFB4F3081282F237088E090E014
S11316B002C0959587952A95E2F7932F982381E0A8
S11316C009F480E00895982F9370A8E0B0E002C078
S11316D0B595A7959A95E2F7982F987F292F30E032
S11316E0220F331F82FBEE27E0F9F0E02E2B3F2B75
S11316F070E0660F771F622B732B442339F0FB01D4
S1131700E95AFB4F8081A82BA0830895FB01E95A75
S1131710FB4F8081A095A823A0830895982F9295CC
S11317209F70990F292F220F220F920F8F70890F0C
S11317300895CF93DF93CBE1D4E092E098839DECBE
S1131740499F212D112426952695269530E1239F26
S1131750F0011124220F322F330F330F230F421BBA
S11317604E2B4983699F212D112426952695269574
S113177030E1239FA0011124220F322F330F330FA6
S1131780230F621B642B6A83899F912D11249695E4
S11317909695969540E1949F90011124990F392FC5
S11317A0330F330F930F891B822B8B8382EA0E94A2
S11317B0DF0188810E94F10189810E94F1018A81FF
S11317C00E94F1018B810E94F1010E94E901DF91E5
S11317D0CF9108950F931F93CF93DF93EBE1F4E040
S11317E095E090839DEC899F312D11243695369593
S11317F0369550E1359FD0011124330F532F550FE7
S1131800550F350F831B8A2B8183699F812D1124EA
S113181086958695869530E1839FD0011124880FA3
S1131820382F330F330F830F681B6A2B6283499F52
S1131830812D112486958695869550E1859FB0016A
S11318401124880F382F330F330F830F481B462B77
S11318504383205D299F912D112496959695969505
S113186080E1989FA0011124990F892F880F880F78
S1131870980F291B242B248382EA0E94DF01CBE1E9
S1131880D4E000E214E089910E94F101C017D1076D
S1131890D1F70E94E901DF91CF911F910F91089533
S11318A0CF93DF93CBE1D4E09DE09883898382EAF0
S11318B00E94DF0188810E94F10189810E94F10167
S11318C00E94E901DF91CF910895EF92FF920F9367
S11318D01F93CF93DF938C01CBE1D4E082E0888324
S11318E082EA0E94D10188810E94F10183EA0E9468
S11318F0D501882319F00E94E90114C0CBE1D4E09A
S11319000F2EF6E2EF2EF4E0FF2EF02D0E940F02D0
S11319108993CE15DF05D1F70E940D02809326042A
S11319200E94E901EBE1F4E0A081E801A883718160
S1131930798362816A8353815C8334813D834581E9
S11319404B83868190E09F838E83278128879085AF
S1131950998781858A87E285AF77A8837F777983A2
S11319606F736A835F735C834F714B8337703D83FE
S11319702F7728879F7799878F778A878E2F8F77FE
S11319808B87DF91CF911F910F91FF90EF90089576
S1131990AC019C01329522952F7023273F70232799
S11319A0AEE3BAE00E94492A20E931E0BC01629F1B
S11319B0C001639F900D729F900D11244817590721
S11319C0D9F09A013695279536952795ABE7B4E17A
S11319D00E94492A9695879564E6689F9001699FBD
S11319E0300D11244217530749F04370552781E005
S11319F0452B29F080E0089581E0089580E0089562
S1131A00CF93DF93CDB7DEB72D970FB6F894DEBF33
S1131A100FBECDBF9DE0E2E3F1E0DE01119601903F
S1131A200D929A95E1F7823041F4CB010E94C80CE3
S1131A3081110DC08CE190E00FC09FEF980F9C3096
S1131A4048F4FE01E80FF11D818190E005C08DE1AD
S1131A5090E002C080E090E02D960FB6F894DEBFCF
S1131A600FBECDBFDF91CF910895AF92BF92CF92B9
S1131A70DF92EF92FF920F931F93CF93DF93CDB733
S1131A80DEB72D970FB6F894DEBF0FBECDBF162F6D
S1131A909DE0EFE3F1E0DE01119601900D929A953D
S1131AA0E1F79FEF960F9C3008F076C09FEF980FF8
S1131AB09F3108F074C04115510509F473C005E263
S1131AC0809F012D1124982F901B9695090F069540
S1131AD00695902F990F990F990F901B082F091BAA
S1131AE0FE01E60FF11DD1805A01B694A794B69475
S1131AF0A7949501ABE7B4E10E94492A969587958E
S1131B0064E6689F9001699F300D1124CA01821B0D
S1131B10930BFC01F695E795F695E795E80FF91F09
S1131B209F01A3E9B4E20E94492A281B390B369588
S1131B3027957C01E20EF31EF694E794F694E7945D
S1131B40C701880F991F880F991F880F991F8E1935
S1131B509F097F01E81AF90A9501ABE7B4E10E94F5
S1131B60492A96958795809590958370C82ECC0CBC
S1131B70133028F4CA010E94C80C81110A5F8D2D0C
S1131B8090E0800F911D8E0D911D8C0D911D67E0CD
S1131B9070E00E94F42908C08FEF9FEF05C08FEF1B
S1131BA09FEF02C08FEF9FEF2D960FB6F894DEBF24
S1131BB00FBECDBFDF91CF911F910F91FF90EF909A
S1131BC0DF90CF90BF90AF900895EF92FF920F9364
S1131BD01F93CF939FEF960F9C3090F4082F10E043
S1131BE0623088F07A01C62FC150B7018C2F0E9451
S1131BF0000D080F191FC130B9F7802F912F04C0B1
S1131C008FEF9FEF01C0912FCF911F910F91FF9004
S1131C10EF900895EF92FF920F931F93CF93DF936A
S1131C207A010E94E50DEC01A70161E081E00E94C8
S1131C30350D8C01059710F007501109C8018C0F60
S1131C409D1F8230910550F4A701415051096CE069
S1131C5070E08FE190E00E940A0E40C0FC013596CE
S1131C609F01A3E9B4E20E94492AE81BF90BF69507
S1131C70E7959C012E0F3F1F36952795369527959E
S1131C8025333105D1F4C7010E94C80C0430110575
S1131C90B9F00D3F9FEF1907B1F00330110529F496
S1131CA0811114C081E090E019C00C3F1F4F89F4EA
S1131CB0882391F085E390E011C0822F932F0EC00A
S1131CC085E390E00BC085E390E008C085E390E0F5
S1131CD005C081E090E002C081E090E0DF91CF9107
S1131CE01F910F91FF90EF9008950F931F93CF933F
S1131CF0DF9310E000E016C0D1E0DC0F612F8D2FE0
S1131D000E94400B482F612F8C2F0E94630BCD2F14
S1131D10DF3191F7402F612F8FE10E94630B1F5F2A
S1131D20183011F0C02FE8CFDF91CF911F910F91A0
S1131D3008950F931F93CF93DF9310E00FC06D2F7F
S1131D408C2F0E94400B482F612F8C2F0E94630B15
S1131D50CF5FC032A1F7D73029F01D2FC0E0D1E00A
S1131D60D10FEDCFC0E040E067E08C2F0E94630B01
S1131D70CF5FC032C1F7DF91CF911F910F910895CA
S1131D80FF920F931F93CF93DF93F62E142F882384
S1131D90B1F0813091F13FC0CF2D01E00D0F602FE4
S1131DA08C2F0E94400B482F6D2F8C2F0E94630BA9
S1131DB0CF5FC117A0F3DF5FD73011F404C0D0E0C8
S1131DC0F11650F3F8CFF11630F540E067E08F2DAF
S1131DD00E94630BF394F116C0F31DC0612F8C2F86
S1131DE00E94400B482F6D2F8C2F0E94630BCF5FF6
S1131DF0C530A1F7D15011F405C0D7E0C0E01FEF02
S1131E001D0FECCFC0E040E060E08C2F0E94630B1C
S1131E10CF5FC032C1F7DF91CF911F910F91FF9037
S1131E200895AF92BF92CF92DF92EF92FF920F93F9
S1131E301F93CF93DF9300D01F92CDB7DEB78B8370
S1131E405B0104E510E00F2EFCEFCF2EF0E0DF2E57
S1131E50F02D42E050E0B801CE0101960E94AD2B76
S1131E60E980FA8041E050E0B701CE0103960E9478
S1131E70A02B892B39F447E050E0B701C5010E943B
S1131E80AD2B09C00E5F1F4F0C151D0511F7B501D1
S1131E908FE30E94110F0F900F900F90DF91CF915D
S1131EA01F910F91FF90EF90DF90CF90BF90AF9074
S1131EB00895CF93DF93CDB7DEB727970FB6F89485
S1131EC0DEBF0FBECDBF1A821982FE01339695E0A4
S1131ED0DF011D929A95E9F7BE016F5F7F4F0E9463
S1131EE0110F8A8127960FB6F894DEBF0FBECDBFBF
S1131EF0DF91CF9108953F924F925F926F927F92BC
S1131F008F929F92AF92BF92CF92DF92EF92FF9205
S1131F100F931F93CF93DF93CDB7DEB729970FB6F7
S1131F20F894DEBF0FBECDBF462EBE016F5F7F4F5C
S1131F300E94110F3A800F2EF7E0AF2EB12CF02D36
S1131F40512C88248394912CCE01019699878887FB
S1131F50632C640CE42CF12CE81AF90A23C0C701A1
S1131F60800F911F809794F4F801828190E08C2176
S1131F709D21892B31F041E0652D872D0E94630B53
S1131F8005C040E0652D872D0E94630B73940F5F9D
S1131F901F4F7610E4CF5394F1E0AF1AB10888E0F4
S1131FA0581671F03320B9F364010A2C02C0CC0C2A
S1131FB0DD1C0A94E2F78E010F5F1F4F742CCFCF04
S1131FC010E0430C40E0612F842D0E94630B1F5FDF
S1131FD01830C1F729960FB6F894DEBF0FBECDBFF7
S1131FE0DF91CF911F910F91FF90EF90DF90CF90F1
S1131FF0BF90AF909F908F907F906F905F904F9025
S11320003F9008950F931F93CF93DF93C62F0E94A1
S11320108E0B082F8C2F0E948E0B182FCDEC0C9F4B
S1132020D12D1124D695D695D69561E080E38D0FF8
S11320300E947B0FDD0F8D2F880F880FD80F802F04
S11320408D1B67E0805D0E947B0F1C9FC12D1124B6
S1132050C695C695C69563E180E38C0F0E947B0FFD
S1132060CC0F8C2F880F880FC80F812F8C1B69E130
S1132070805D0E947B0FDF91CF911F910F91089596
S11320800F931F93CF93DF93082F162FCDEC8C9FC4
S1132090D12D1124D695D695D69561E080E38D0F88
S11320A00E947B0FDD0F8D2F880F880FD80F802F94
S11320B08D1B67E0805D0E947B0F1C9FC12D112446
S11320C0C695C695C69563E180E38C0F0E947B0F8D
S11320D0CC0F8C2F880F880FC80F812F8C1B69E1C0
S11320E0805D0E947B0FDF91CF911F910F91089526
S11320F0EF92FF920F931F93CF93DF937C01D62F20
S1132100FC0181918F010E947B0FF70180810E9465
S1132110590FC1E0C80FF7018181882381F06D2F29
S11321206C0F0E947B0FF80181918F010E94590F5F
S11321308C0FC1E0C80FF80180818111F0CFDF91CD
S1132140CF911F910F91FF90EF9008956FE08AE374
S11321500E947B0F08952091B1043091B20420397C
S1132160314018F40E94401008958091B104909178
S1132170B20481399140F0F08091B1049091B2049D
S113218080329340B8F4442319F0413051F008955B
S113219061E080E60E947B0F67E080E60E947B0F8F
S11321A0089563E180E60E947B0F69E180E60E9466
S11321B07B0F08958091B1049091B20481329340D1
S11321C020F01092B2041092B10408950F931F935B
S11321D0CF93DF938C018091B1049091B204803944
S11321E0914020F4C8010E94781030C08091B1045D
S11321F09091B20481399140F0F08091B1049091B2
S1132200B2048032934040F016C06C2F80E60E94E6
S11322107B0FDF5FCA5F02C0C62FD0E0F8010190D8
S11322200020E9F73197E01BF10B8D2F90E08E171A
S11322309F0758F30BC08091B1049091B20481328E
S1132240934020F01092B2041092B104DF91CF9128
S11322501F910F91089580E090E0FC01E95AFB4F33
S11322601082019680349105C1F708954F925F92D0
S11322706F927F928F929F92AF92BF92CF92DF9292
S1132280EF92FF920F931F93CF93DF93EC01562E9F
S11322900E942B11511004C00F2EFAE55F2EF02D71
S11322A08881882309F4ABC06E018FEFC81AD80A5D
S11322B07E016894772475F880E0C0E0D0E0612C5A
S11322C00F2EF4EA8F2EF4E09F2EF02D4424439435
S11322D0052D10E0F40112829091B70491FF03C020
S11322E01092B704642C882309F473C0C0320CF430
S11322F06BC0C8010E94AE0A0E94750E1C1614F42D
S1132300D150C1506D2F872D0E947B0FC0328CF7A6
S11323105BC06D2F872D0E947B0F872D0E94590F64
S11323208F5FC82FCD0FF5018081811106C0C032A7
S11323306CF1F1E06F120CC051C08FEFC81AD80ACB
S11323409FEFE91AF90A842DE1E06E12C3CF54C05D
S1132350FF24F394052D10E08091B70481FF03C09E
S11323601092B7046F2CC8010E94AE0A0E94750E29
S11323701C1614F4D150C1506D2F872D0E947B0F71
S1132380C03224F0F1E06F12E7CF28C0052D10E031
S1132390C8010E94AE0A81E0681227C007C00E94EB
S11323A0750EC8010E94AE0AC150C9F71092B40458
S11323B01092B3048091A3048F7E8093A30481E0E0
S11323C0611024C080E022C0F70170805601DC2F28
S11323D0A0CFF70170805601DFE19BCF852D90E0FF
S11323E00E94AE0A66246394E1CF0E94750EC80170
S11323F00E94AE0ACFE1D3CFC03244F2EFCF052D15
S113240010E0C8010E94AE0A612CEFCFDF91CF919A
S11324101F910F91FF90EF90DF90CF90BF90AF90FE
S11324209F908F907F906F905F904F90089564E19C
S11324308DE591E00E94361198E088E10FB6F8949A
S1132440A89581BD0FBE91BDFFCF0F931F93CF936E
S1132450DF930E942B118AE090E00E94CB2E082F7C
S1132460D0E6D80F8CB3182F127081FDFBCFCD2F7F
S11324708091B70483FF0CC01092B7040E942B1103
S1132480CF5FC03108F0C0E080EA8C0F0E94FA0AE6
S11324908091B70482FF0BC01092B7040E942B11E5
S11324A0C1500AF4CFE080EA8C0F0E94FA0A8091AE
S11324B0B70484FF21C01092B7040E942B11C056A8
S11324C08C2F0E94FA0AC093C7046C2F8AE090E014
S11324D00E94D92E6AE08AE691E00E943611E4EA6D
S11324E0F4E01282108211821092B7048091A30446
S11324F08F7E8093A30434C08091B70481FD04C00F
S11325008091A30484FF0EC01092B7048091A304A9
S11325108F7E8093A3040E942B11802F0E94FA0ABD
S113252011E01EC0CA3030F461E080E38C0F0E94D9
S11325307B0F09C061E081E30E947B0F67E086E2C4
S11325408C0F0E947B0FCD1306C06BE187EA0E94BB
S11325507B0FCD2F8DCF6BE185E20E947B0F88CF5F
S1132560812FDF91CF911F910F910895CF93DF9326
S1132570CDB7DEB764970FB6F894DEBF0FBECDBFFC
S11325801A821982FE01339682E1DF011D928A9537
S1132590E9F78091B70484FD1BC087E0E2E8F1E02D
S11325A0DE01119601900D928A95E1F70E94AA0628
S11325B0BC01CE0101960E94B62B64E1CE010196C6
S11325C00E9436119091B70494FD02C0813029F71E
S11325D00E942B111092B70480E064960FB6F89411
S11325E0DEBF0FBECDBFDF91CF9108958F929F9232
S11325F0AF92BF92CF92DF92EF92FF920F931F930D
S1132600CF93DF93CDB7DEB7C856D1400FB6F89459
S1132610DEBF0FBECDBF7C011A821982FE01339644
S11326208CE591E0DF019C011D9221503040E1F7DF
S1132630E45AFE4F1192119288E0DF011D928A95AF
S1132640E9F788E0E9E8F1E08E010F5F1F4FD80158
S113265001900D928A95E1F7F7016181728180E022
S113266090E02AE0AE01415A5E4F0E94CC2BBC019F
S1132670C8010E94B62BF80101900020E9F73197B8
S11326800F2EFDE2CF2ED12CF02DD182C082D701A6
S113269013966D917C91149780E090E02AE0AE014E
S11326A0415A5E4F0E94CC2BBC01C8010E94B62B3C
S11326B0F80101900020E9F73197D182C082F80136
S11326C001900020E9F731970F2EFEE68F2EFDE3EF
S11326D09F2EF02D918280821282F70185814AE03B
S11326E0BE01615A7E4F90E00E94C12BBC01C8011B
S11326F00E94B62BF80101900020E9F731970F2EC4
S1132700FCE3AF2EB12CF02DB182A082D8010D9044
S11327100020E9F7119787E0E1E9F1E001900D92DB
S11327208A95E1F7D70116966D917C91179780E011
S113273090E02AE0AE01415A5E4F0E94CC2BBC01CE
S1132740C8010E94B62BF80101900020E9F73197E7
S1132750D182C082F7016085718580E090E02AE033
S1132760AE01415A5E4F0E94CC2BBC01C8010E94AD
S1132770B62BF80101900020E9F73197D182C0828D
S1132780F80101900020E9F731979182808212824A
S1132790D7011A968C914AE0BE01615A7E4F90E0AF
S11327A00E94C12BBC01C8010E94B62BF801019004
S11327B00020E9F73197B182A082D8010D90002062
S11327C0E9F7119788E0E8E9F1E001900D928A9524
S11327D0E1F7F7016385748580E090E02AE0AE01BB
S11327E0415A5E4F0E94CC2BBC01C8010E94B62BFB
S11327F0F80101900020E9F73197D182C082D70116
S11328001D966D917C911E9780E090E02AE0AE01C8
S1132810415A5E4F0E94CC2BBC01C8010E94B62BCA
S1132820F80101900020E9F73197D182C082F801C4
S113283001900020E9F73197918280821282F7019A
S113284087854AE0BE01615A7E4F90E00E94C12B09
S1132850BC01C8010E94B62BF80101900020E9F7E1
S11328603197B182A08268E2C8010E9436110E94A9
S11328702B11C859DE4F0FB6F894DEBF0FBECDBF83
S1132880DF91CF911F910F91FF90EF90DF90CF9048
S1132890BF90AF909F908F900895BF92CF92DF9298
S11328A0EF92FF920F931F93CF93DF93CDB7DEB7D1
S11328B0C254D1090FB6F894DEBF0FBECDBF8C0150
S11328C0C62EFE0133968AE3DF011D928A95E9F74D
S11328D0F8018481982F92959F70905D99838F70F1
S11328E0805D8A839EE29B838381282F22952F70AB
S11328F0205D2C838F70805D8D839E8382E38F8324
S113290080E3888726813781A901529542954F70CB
S113291045275F704527405D4987822F8F70805D12
S11329208A879B8780917C00882319F0813079F015
S11329301BC0DE011C960D900020E9F7119786E07C
S1132940E0EAF1E001900D928A95E1F70DC0DE0115
S11329501C960D900020E9F7119786E0E6EAF1E075
S113296001900D928A95E1F7D80115969C919330C8
S113297049F128F4992351F09130B1F05AC09530BF
S1132980E9F170F1963009F447C053C0DE01519665
S11329900D900020E9F7119788E0ECEAF1E001904E
S11329A00D928A95E1F745C0DE0151960D90002005
S11329B0E9F7119787E0E4EBF1E001900D928A9535
S11329C0E1F737C0DE0151960D900020E9F7119729
S11329D089E0EBEBF1E001900D928A95E1F729C0D3
S11329E0DE0151960D900020E9F711978BE0E4EC9D
S11329F0F1E001900D928A95E1F71BC0DE0151963A
S1132A000D900020E9F7119788E0EFECF1E00190D8
S1132A100D928A95E1F70DC0DE0151960D900020CC
S1132A20E9F7119788E0E7EDF1E001900D928A95BE
S1132A30E1F786E0E9EEF1E0DE01DD9601900D922A
S1132A408A95E1F7FE0131967F01DF010D900020A8
S1132A50E9F711978AE0EFEDF1E001900D928A9584
S1132A60E1F7822F0E948E0BB82ED80113968C9119
S1132A700E948E0BD82EF80184810E948E0B4B2D60
S1132A8050E06D2D70E090E00E940A0E4AE0BE0115
S1132A90635C7F4F0E94C12BBC01C7010E94B62B0F
S1132AA06C2DC7010E9436110E942B11CE5BDF4FA3
S1132AB00FB6F894DEBF0FBECDBFDF91CF911F914B
S1132AC00F91FF90EF90DF90CF90BF900895FF9209
S1132AD00F931F93CF93DF93CDB7DEB7A3970FB6B2
S1132AE0F894DEBF0FBECDBFF82E1A821982FE0104
S1132AF0339681E2DF011D928A95E9F7F8948BE41D
S1132B0094E09F938F938DB79EB74E970FB6F8942A
S1132B109EBF0FBE8DBFADB7BEB711968EE1E1E388
S1132B20F4E001900D928A95E1F70E94AF03789446
S1132B3040914B0450914C0460914D0470914E04AB
S1132B400FB6F894DEBF0FBECDBF141615061606D9
S1132B5017064CF488E1EFEEF1E0DE0111960190E6
S1132B600D928A95E1F77723C4F488E1E7E0F2E077
S1132B70DE01119601900D928A95E1F770956095AA
S1132B80509541955F4F6F4F7F4F40934B04509347
S1132B904C0460934D0470934E0460914B04709107
S1132BA04C0480914D0490914E042AE030E040E0C2
S1132BB050E00E942A2A9F938F937F936F935F9391
S1132BC04F933F932F938FE192E09F938F938E01C6
S1132BD00F5F1F4F1F930F930E94082C6F2DC80186
S1132BE00E9436110E942B110FB6F894DEBF0FBE5F
S1132BF0CDBFA3960FB6F894DEBF0FBECDBFDF9155
S1132C00CF911F910F91FF900895BF92CF92DF92C1
S1132C10EF92FF920F931F93CF93DF93CDB7DEB75D
S1132C20A3970FB6F894DEBF0FBECDBFB82E1A829D
S1132C301982FE01339681E2DF011D928A95E9F73C
S1132C40F89463E081E394E00E948C04789401E3B7
S1132C5014E0F80166897789808D918D0E94EB28B4
S1132C602AE037ED43E25CE30E944F290E94B32837
S1132C706B017C01D80156966D937D938D939C9343
S1132C80599787E1EFE3F2E08E010F5F1F4FD80100
S1132C9001900D928A95E1F7F80101900020E9F77F
S1132CA0BF01615071094AE0C6010E94C12BD801DD
S1132CB00D900020E9F7119785E0E6E5F2E0019038
S1132CC00D928A95E1F76B2DC8010E9436110E947E
S1132CD02B11A3960FB6F894DEBF0FBECDBFDF91C4
S1132CE0CF911F910F91FF90EF90DF90CF90BF9005
S1132CF008951F93CF93DF93D82F162FCDEC8C9F7D
S1132D00C12D1124C695C695C69580E38C0F0E94EB
S1132D107B0F66E0610FCC0F8C2F880F880FC80FD4
S1132D208D2F8C1B805D0E947B0FDF91CF911F91B3
S1132D300895CF93C62F2091B1043091B204203965
S1132D40314018F40E94791622C08091B104909108
S1132D50B2048139914080F08091B1049091B20421
S1132D608032934048F480E60E947B0F66E06C0F4B
S1132D7080E60E947B0F0BC08091B1049091B20455
S1132D808132934020F01092B2041092B104CF919A
S1132D9008958F929F92AF92BF92CF92DF92EF925B
S1132DA0FF920F931F93CF93DF9300D000D000D0F6
S1132DB0CDB7DEB7E4E7F0E0808189838FE18A83D1
S1132DC081818B838CE08C8382819381805D8D8370
S1132DD083E68E831092B7040F2EF8E0CF2EF4E032
S1132DE0DF2EF02D8E010F5F1F4F5E0187E0A80ECE
S1132DF0B11C912C8824839460E0D6018D919D911F
S1132E006D010E94781091103FC078018091B70441
S1132E1083FF0FC01092B704F80180818F5F918106
S1132E20981708F480E0D7018C9365E10E94791625
S1132E3054C18091B70482FF0EC01092B704F80108
S1132E409181808181500AF4892FD7018C9365E1A7
S1132E500E94791642C18091B70484FF03C0109286
S1132E60B70412C08091B70481FD04C08091A3040B
S1132E7084FF33C11092B7048091A3048F7E8093A2
S1132E80A3040E942B11982C0E942B110E5F1F4F3C
S1132E90A016B10609F0B0CFE0917C00F0E0EE0F8F
S1132EA0FF1FEC5FFB4F60E0808191810E947810EE
S1132EB091102DC104E710E0FF24F3948091B7042E
S1132EC083FF19C01092B7040E942B11F80180856A
S1132ED091E0980F90878111F086D8011896EC91B3
S1132EE0F0E0EE0FFF1FEC5FFB4F60E0808191810B
S1132EF00E9478101DC08091B70482FF19C01092FF
S1132F00B7040E942B11F80180859FEF980F9087DA
S1132F10811101C01086D8011896EC91F0E0EE0FF3
S1132F20FF1FEC5FFB4F60E0808191810E9478106D
S1132F308091B70481FD04C08091A30484FF0AC07A
S1132F401092B7048091A3048F7E8093A3040E94FF
S1132F502B11DDC08091B70484FF21C01092B70407
S1132F6064E18BE592E00E9436110E942B1160E02F
S1132F708FE692E00E947810E0917B00F0E0EE0F83
S1132F80FF1FEA50FC4F65E1808191810E94781017
S1132F9004E710E00F2EF6E0FF2EF02D0EC0D8014E
S1132FA01896EC91F0E0EE0FFF1FEC5FFB4F60E032
S1132FB0808191810E94E61081CF8091B70483FFC4
S1132FC01FC01092B7040E942B11F80187818F5FF4
S1132FD0873008F080E0D80117968C9360E08FE684
S1132FE092E00E947810D8011796EC91F0E0EE0F71
S1132FF0FF1FEA50FC4F65E1808191810E947810A7
S11330008091B70482FF1EC01092B7040E942B1156
S1133010F801878181500AF48F2DD80117968C937B
S113302060E08FE692E00E947810D8011796EC9148
S1133030F0E0EE0FFF1FEA50FC4F65E180819181C3
S11330400E9478108091B70484FF1FC01092B704C7
S11330501092A6040E942B1104E710E0F801678186
S11330602D8130E02053384F4B8189810E94EA0B37
S1133070D80118966C9188E090E00E94D92E6AE0FD
S113308084E792E00E94361154C08091B70481FD18
S113309004C08091A30484FF0AC01092B7048091F5
S11330A0A3048F7E8093A3040E942B111CC0D8011B
S11330B01796EC91F0E0EE0FFF1FEA50FC4F65E12C
S11330C0808191810E94E6108091B70481FF75CFC1
S11330D01092B7040E942B1106C065E1F8018081AB
S11330E00E94991693CE04E710E0D80117966C91CC
S11330F02D8130E02053384F4B8189810E94EA0BA7
S1133100F801608588E090E00E94D92E12C060E04A
S11331108FE692E00E947810E0917B00F0E0EE0FE1
S1133120FF1FEA50FC4F65E1808191810E94781075
S1133130DACF1092B70480E026960FB6F894DEBF7B
S11331400FBECDBFDF91CF911F910F91FF90EF90F4
S1133150DF90CF90BF90AF909F908F900895CF93C2
S1133160C82FF89483E00E94FA0A88E00E94FA0AC1
S11331708C2F0E94FA0A7894CF9108953F924F922F
S11331805F926F927F928F929F92AF92BF92CF92F3
S1133190DF92EF92FF920F931F93CF93DF9387E910
S11331A094E00E94650C9091B00480919904981762
S11331B059F0E4EAF4E0938521E0290F2387953060
S11331C018F0848791E095830E948E0BC82F80911C
S11331D098040E948E0B90912C04891709F45BC00B
S11331E080932C0490912B049F5F9B3018F4909350
S11331F02B0451C010922B0410922A04109229041B
S11332004AC09191C91333C09085891330C0D70146
S1133210022E02C0AA0FBB1F0A94E2F76801CA2259
S1133220DB22CD2821F16D01C622D722AC15BD05C4
S113323079F470932A04609329047092BB04D093A8
S1133240BC048091A30450FB82F98093A30440C082
S113325024013501022E04C0440C551C661C771C45
S11332600A94D2F7642975297A2EDB2F532D2F5F08
S11332703F4F2930310529F670932A0460932904BD
S11332807092BB04D093BC048091A30450FB82F9D8
S11332908093A3041DC0E8EBF4E0018112817380E4
S11332A0D4816091290470912A045091A30452FBA3
S11332B0552750F9E2EDF4E020E030E0EE24E39409
S11332C0F12C812C912C540183943324339499CF81
S11332D0DF91CF911F910F91FF90EF90DF90CF90EE
S11332E0BF90AF909F908F907F906F905F904F9022
S11332F03F900895EF92FF920F931F93CF93DF9324
S1133300CDB7DEB727970FB6F894DEBF0FBECDBF9B
S11333108091A30482FFE9C01A821982FE013396C8
S113332085E0DF011D928A95E9F78091BB049091B5
S1133330BC048031910521F168F482309105D1F00B
S113334018F40197A9F026C084309105A9F00897D4
S1133350A9F020C080349105B9F018F4809791F059
S113336019C08038910591F08115914089F012C0FF
S113337081E011C082E00FC083E00DC084E00BC087
S113338085E009C086E007C087E005C088E003C087
S113339089E001C080E0082F10E01F928F9381E83C
S11333A092E09F938F939E012F5F3F4F79013F934C
S11333B02F930E94082C0E942B1160E0C7010E94E9
S11333C0781089E00E94FA0A8091BB049091BC04B1
S11333D00F900F900F900F900F900F9090FD05C0DD
S11333E08091A804811117C061C08091A30480FD5D
S11333F0C39A8091A30481FDC49A94983FEF47EA4D
S113340081E6315040408040E1F700C00000C3989D
S1133410949AC4984BC020E0E4EAF4E08091A304B9
S113342080FDC39A9FEFA3EDB0E39150A040B0405C
S1133430E1F700C00000C3988AE094989091A30437
S113344090FDC39A9091A30491FDC49A3FEF40E785
S113345092E0315040409040E1F700C00000949A5F
S1133460C398C498AFEFB4E33CE0A150B0403040FF
S1133470E1F700C000009A9B0AC09B9B08C09C9B7C
S113348006C09D9B04C09E9B02C08150B1F69A9BCE
S11334900DC09B9B0BC09C9B09C09D9B07C09E9B22
S11334A005C02F5F8481281708F4B8CF0E942B1120
S11334B08091A3048B7E8F7D8093A304E8EBF4E0DA
S11334C00150110981E090E002C0880F991F0A950C
S11334D0E2F780959095238134818223932394830A
S11334E083838091C7040E94AF1827960FB6F8947F
S11334F0DEBF0FBECDBFDF91CF911F910F91FF9023
S1133500EF9008951F93CF93DF93C7E9D4E08A81A6
S11335100E948E0B182F89810E948E0B6CE390E021
S1133520619F800D911D1124E3ECF4E04485268510
S113353030E0649F200D311D11247385458550E0D2
S1133540679F400D511D11242417350730F584174A
S1133550950708F449C02817390720F08217930704
S113356008F047C08091A30485FD43C080EA0E940F
S1133570AF188091A30480628093A3043AC0809121
S1133580A30485FF36C08091C7040E94AF188091C0
S1133590A3048F7D8093A3042CC04217530748F5DE
S11335A08417950780F08217930780F48091A30411
S11335B085FD1FC080EA0E94AF188091A304806239
S11335C08093A30416C08217930798F08091A304F4
S11335D085FF0FC08091C7040E94AF188091A30497
S11335E08F7D8093A30405C08217930708F4BACF94
S11335F0C6CFDF91CF911F910895F894E4EAF4E0E7
S11336009285892392859827928778940895F894CF
S1133610E4EAF4E091858923918598279187789449
S11336200895E4EAF4E0908583B38095282F292750
S113363090912F049223892F809580932F04909149
S11336402E049223982790932E0482238923908515
S113365098279087208592858223892B828780856D
S11336608C7721F481E380932D0411C080912D0483
S1133670815019F080932D040AC08FE080932D04AB
S1133680E4EAF4E0808591858C77892B818784E056
S11336900E94FD1A882359F08091B70481608093B9
S11336A0B704E4EAF4E0108A17861686158688E0E3
S11336B00E94FD1A882359F08091B7048260809398
S11336C0B704E4EAF4E0108A17861686158680E1CA
S11336D00E94FD1A882359F08091B7048460809376
S11336E0B704E4EAF4E0108A17861686158680E1AA
S11336F00E94071B882359F08091B704846080934B
S1133700B704E4EAF4E0108A17861686158680E288
S11337100E94071B882359F08091B7048860809326
S1133720B704E4EAF4E0108A17861686158680E268
S11337300E94FD1A882359F08091B7048860809311
S1133740B704E4EAF4E0108A17861686158680E446
S11337500E94FD1A882359F08091B70480618093F8
S1133760B704E4EAF4E0108A1786168615860895ED
S11337709F92AF92BF92CF92DF92EF92FF920F93FC
S11337801F93CF93DF9300D0CDB7DEB78C01FC013C
S11337908081898381818A838281808383818183FB
S11337A00E94A610F801618180810E9440108091DE
S11337B0A30484FD54C07801CE0101966C01912CC0
S11337C04CC01092B704F70180818F5FF60190819D
S11337D0981708F480E0F50180838091B70482FF94
S11337E00BC01092B704F6019081F70180818150DB
S11337F00AF4892FF50180838091B70484FF07C000
S11338001092B7049394F2E09F121DC028C08091D7
S1133810B70481FD04C08091A30484FF09C0109201
S1133820B7048091A3048F7E8093A30481E02BC00E
S1133830492DF801618180810E94AB108091B70409
S113384083FDBFCFCACFFFEFEF1AFF0A8FEFC81A6D
S1133850D80A8091A30484FD02C05701EFCF809160
S1133860A3048F7E8093A304E4EAF4E0128210920E
S1133870B704A7E9B4E011968C911197818B129645
S11338808C91828B80E00F900F90DF91CF911F91EC
S11338900F91FF90EF90DF90CF90BF90AF909F90EB
S11338A008951F93CF93DF9300D000D0CDB7DEB738
S11338B08BE389838A838FE090E00E94CB2E8B83F5
S11338C080E190E00E94CB2E8C83CE0101960E9471
S11338D0B81B81111DC069818FE090E00E94D92E30
S11338E0E199FECF6A8180E190E00E94D92E8CB3E9
S11338F0182F127081FDFBCFE3ECF4E089818187FE
S11339008A8182876AE089E892E00E94361101C0C8
S113391011E0812F0F900F900F900F90DF91CF91B6
S11339201F9108950F931F93CF93DF9300D000D07E
S1133930CDB7DEB787E994E00E94650C87E18983FF
S11339408BE38A8307E914E0F80182810E948E0BDD
S11339508B83F80181810E948E0B8C83CE010196AA
S11339600E94B81B81110CC040E06A8189810E94C9
S1133970990B6AE089E892E00E94361180E001C068
S113398081E00F900F900F900F90DF91CF911F91D6
S11339900F9108952F923F924F925F926F927F9270
S11339A08F929F92AF92BF92CF92DF92EF92FF924B
S11339B00F931F93CF93DF93CDB7DEB765970FB601
S11339C0F894DEBF0FBECDBF2DB73EB73F872E871D
S11339D09498EDE7F0E0148213828FEF9FEF9283C7
S11339E0818311861086978386831686158694872D
S11339F083871582128617868091E404082F10E0CD
S1133A0037E0839FC00111240E947F2A3C01892B47
S1133A1009F403C2C80182959295907F9827807F0C
S1133A2098270E947F2A4C01892B09F4F8C181E070
S1133A30809351048093500482E00E94FA0A80919A
S1133A40E404811155C0412CD12CB4C0D701119686
S1133A501C9191130F5F80915404882329F03092B4
S1133A605404C6010E940C0A9B9921C0BFEFE1EEE9
S1133A70F4E0B150E040F040E1F700C00000F5018F
S1133A80EE0FFF1FEE0FFF1FEE0FFF1FEA19FB09DA
S1133A90E60DF71D20822182228223822482852D35
S1133AA090E0CC9696838583DD24D394D9C1802F6E
S1133AB090E001970397BCF1F501EE0FFF1FEE0FA5
S1133AC0FF1FEE0FFF1FEA19FB09E60DF71D208209
S1133AD02182228223822482852D90E0CC969683B3
S1133AE085836894DD24D1F8BBC1239443940EC02C
S1133AF00F2EF2E32F2EF02D4424439490E00F2E4A
S1133B00F7E9EF2EF4E0FF2EF02D312C55245A94D2
S1133B10540CA52CB12C640120E1529EC00CD11C84
S1133B20112400E001C0912F8091530481119EC1A2
S1133B308091A30482FF8ACF9FC1F501EE0FFF1F7E
S1133B40EE0FFF1FEE0FFF1FEA19FB09E60DF71D2D
S1133B50A4E7B0E08C91808380917500818380918B
S1133B607800828380917B00838380917C008483AE
S1133B70209176003091770036832583B1E0B093AD
S1133B805104B0935004309253048091E4044816D5
S1133B9008F4ABCFD12C0EC0E1E0E0935104E093E4
S1133BA05004309253048091E404481618F4DD2044
S1133BB009F49BCF8091A30485FF04C080EA0E948E
S1133BC0AF1804C08091C7040E94AF182DB63EB64A
S1133BD02DB73EB7241931090FB6F8943EBF0FBE76
S1133BE02DBF8DB79EB701967C01442009F42FC1E7
S1133BF091E0941508F024C1A301C7010FEF040D4F
S1133C0010E00F5F1F4F0E0D1F1DC12C0F2EFFE381
S1133C10BF2EF02DE4E7F0E00F2EFEE3AF2EF02DE3
S1133C209C01DC01BC927081598B488BDA016C9148
S1133C30761302C0DC01AC927181A889B98911960E
S1133C406C91761304C0D9016C916D7F6C9374816F
S1133C50A889B98912966C91761304C0D9016C9124
S1133C606B7F6C937781A889B98913966C917613CD
S1133C7004C0D9016C91677F6C937085A889B98958
S1133C8014966C91761304C0D9016C916F7E6C9379
S1133C9062817381A889B98915960D90BC91A02D74
S1133CA06A177B0721F4D9016C916F7D6C9301969F
S1133CB0D9012C912111BDC0C394BBC010925004F2
S1133CC04C1078C180917B00873011F410927B00F6
S1133CD004E710E0F8014681658184810E94990B14
S1133CE0D80112962D913C91139711964C911197EE
S1133CF017966C9117978C910E94EA0BF8016085D6
S1133D0088E090E00E94D92EE199FECFEDEBF4E03B
S1133D10628173816F5F7F4F7383628382E090E07F
S1133D200E94EA2E61C0E889F98901900020E9F730
S1133D303197B182A082BE01675F7F4FD8018D9118
S1133D408D010E94C306BC01888999890E94B62B03
S1133D500E151F0541F77EC084010F2EF1E3BF2E1F
S1133D60F02DB40C0F2EF1E3FF2EF02D0F2EFCE3FB
S1133D70CF2EF02D0F2EFEE2EF2EF02DB0E34B0EE2
S1133D800F2EFEE3AF2EF02D6894552455F8C9820A
S1133D90FA82EB82EC824D82AE825F82188663E205
S1133DA088E992E00E94361163E2CE0101960E94F6
S1133DB03611C8010E94F612F394005F1F4FBF1022
S1133DC0E6CFEDEBF4E0608171816F5F7F4F71832B
S1133DD0608380E090E00E94EA2EEC89FD890FB6B2
S1133DE0F894FEBF0FBEEDBF1092B704E4EAF4E00E
S1133DF0118210828091A3048F7D8093A304C30158
S1133E000E94172BC4010E94172B949A0FB6F894A2
S1133E103EBE0FBE2DBE8D2DD2C081E0D0C082E04B
S1133E20CEC081E0809351048093500410925304D7
S1133E30C1CE495F5F4F8017910709F0F1CE3ECFA5
S1133E40109250048091A30482FF24C0CDCF10921D
S1133E50500438CF64E18A899B890E9436117CCF53
S1133E608091A30482FFDDCF912F96CE8091A3048D
S1133E7082FF63CED32C90CEF1E0F0935104F09303
S1133E805004309253048091E404481608F42DCE73
S1133E90D12C90CE2DB73EB73D8B2C8B842D90E04A
S1133EA09C01220F331F220F331F820F931F819611
S1133EB0ADB7BEB7A81BB90B0FB6F894BEBF0FBE03
S1133EC0ADBF8DB79EB701961A861986FE013B9643
S1133ED023E0DF011D922A95E9F72CE0EEE9F2E0F8
S1133EE0DC0101900D922A95E1F764E10E943611FC
S1133EF033CFEDB7FEB7FD8BEC8B842D90E09C01A6
S1133F00220F331F220F331F820F931F81962DB769
S1133F103EB7281B390B0FB6F8943EBF0FBE2DBF1A
S1133F208DB79EB701969B8B8A8B998B888B1A864B
S1133F301986FE013B9683E0DF011D928A95E9F71D
S1133F408CE0EEE9F2E0AA89BB8901900D928A9592
S1133F50E1F7A889B9890D900020E9F711978CE061
S1133F60EAEAF2E001900D928A95E1F7BE01675FFB
S1133F707F4F8D2D0E94C306BC018A899B890E94B4
S1133F80B62BA889B9890D900020E9F7119788E02C
S1133F90E6EBF2E001900D928A95E1F787018FEF4D
S1133FA0840D90E00196E80EF91E6894AA24A5F801
S1133FB0B12CB9CE8091A30482FD16CF9ACFEE85A1
S1133FC0FF850FB6F894FEBF0FBEEDBF65960FB622
S1133FD0F894DEBF0FBECDBFDF91CF911F910F913B
S1133FE0FF90EF90DF90CF90BF90AF909F908F9015
S1133FF07F906F905F904F903F902F900895E1993C
S1134000FECF86E090E00E94CB2E853461F487E0F9
S113401090E00E94CB2E873731F48091A304806412
S11340208093A30408958091A3048F7B8093A304B9
S1134030E199FECF6FEA8AE090E00E94F02EE199C8
S1134040FECF61E08BE090E00E94F02EE199FECF7C
S113405061E08CE090E00E94F02EE199FECF60E0F8
S113406070E084E090E00E94FD2EE199FECF64E1CF
S113407081E190E00E94F02EE199FECF60E083E1BF
S113408090E00E94F02EE199FECF6CE082E190E096
S11340900E94F02EE199FECF60E084E190E00E945E
S11340A0F02EE199FECF63E08DE090E00E94F02EC7
S11340B0E199FECF60E08EE090E00E94F02EE1995D
S11340C0FECF60E088E090E00E94F02EE199FECF00
S11340D065E08FE090E00E94F02EE199FECF60E071
S11340E080E190E00E94F02EE199FECF63E089E048
S11340F090E00E94F02EE199FECF60E070E080E055
S113410090E00E94EA2EE199FECF62E087E290E01F
S11341100E94F02EE199FECF69E085E190E00E94D3
S1134120F02EE199FECF6FE08EE190E00E94F02E38
S1134130E199FECF69E086E190E00E94F02EE199DA
S1134140FECF63E28FE190E00E94F02EE199FECF72
S11341506CE087E190E00E94F02EE199FECF63E2EB
S113416080E290E00E94F02EE199FECF6DE088E1BC
S113417090E00E94F02EE199FECF60E081E290E0B1
S11341800E94F02EE199FECF60E089E190E00E9468
S1134190F02EE199FECF60E082E290E00E94F02EE2
S11341A0E199FECF60E08AE190E00E94F02EE1996F
S11341B0FECF60E083E290E00E94F02EE199FECF12
S11341C060E08BE190E00E94F02EE199FECF60E088
S11341D084E290E00E94F02EE199FECF60E08CE151
S11341E090E00E94F02EE199FECF60E085E290E03D
S11341F00E94F02EE199FECF6FE08DE190E00E94E5
S1134200F02EE199FECF60E086E290E00E94F02E6D
S1134210E199FECF65E486E090E00E94F02EE199FA
S1134220FECF67E787E090E00E94F02EE199FECF91
S11342300895EF92FF920F931F93CF93DF932FEF85
S113424089E698E1215080409040E1F700C00000E9
S11342500E94FF1F8AE090E00E94CB2E8093C70447
S1134260E199FECF8BE090E00E94CB2E9091A304C5
S113427080FB91F99093A304E199FECF8CE090E048
S11342800E94CB2E9091A30480FB90F99093A304F9
S1134290E199FECF84E090E00E94D32E9093BA047B
S11342A08093B904E199FECF81E190E00E94CB2E86
S11342B08093CE04E199FECF83E190E00E94CB2E5F
S11342C08093D004E199FECF82E190E00E94CB2E4E
S11342D08093CF04E199FECF84E190E00E94CB2E3D
S11342E08093D104E199FECF8DE090E00E94CB2E23
S11342F08093CA04E199FECF8EE090E00E94CB2E19
S11343008093CB04E199FECF88E090E00E94CB2E0D
S113431080937C00E199FECF80E190E00E94CB2E57
S11343208093CD04E199FECF8FE090E00E94CB2EE4
S11343308093CC04E199FECF89E090E00E94CB2EDB
S11343408093A804E199FECF80E090E00E94D32EF0
S11343509093BE048093BD04E199FECF82E090E087
S11343600E94D32E9093C0048093BF04E199FECFA2
S113437087E290E00E94CB2E8093E404E199FECF83
S1134380C5E1D0E002ED14E00F2EFEE1EF2EF0E0E7
S1134390FF2EF02DCE010E94CB2EF80181938F01C8
S11343A0E199FECFCE0109960E94CB2EF8018087B9
S11343B0E199FECF2196CE15DF0561F7DF91CF910C
S11343C01F910F91FF90EF900895DF92EF92FF926B
S11343D00F931F93CF93DF938C017B0141155105FC
S11343E019F0FA01D08002C0D09030048091A30467
S11343F088608093A3040E942B11F1E0EF1AF10866
S11344008091A304847169F01092B4041092B304EF
S11344108091A3048F7E8093A3040E942B118FEFBD
S11344204FC08091B70483FF0BC01092B7040E9461
S11344302B118D2D90E08E159F05C0F4D39416C0DA
S11344408091B70482FF08C01092B7040E942B1118
S1134450DD2061F0DA940AC08091B70481FF06C0C0
S11344601092B7040E942B118FEF2AC08D2D90E07B
S1134470EC01CC0FDD1FCC0FDD1F8C0F9D1FE8015D
S1134480C80FD91F60E0888199810E9478108091BB
S1134490B70484FFB5CF1092B7040E942B11109279
S11344A03004EA81FB81309721F009958C81809357
S11344B030040E942B111092B4041092B3048C8126
S11344C0DF91CF911F910F91FF90EF90DF900895AE
S11344D0EF92FF920F931F93CF93DF9300D000D0FE
S11344E01F92CDB7DEB719820F2EF7E1EF2EF02D14
S11344F00F2EFBE3FF2EF02DAE014F5F5F4F63E005
S113450070E080EB90E00E94E521082F89838F3FC3
S113451009F440C0EA82FB82082F10E0C8018F5ED4
S11345209F4F0E94CB2E8C83C8018D5E9F4F0E94AB
S1134530CB2E8D83CE0102960E94B81B811129C017
S1134540898190E06A818F5E9F4F0E94D92EE19904
S1134550FECF898190E06B818D5E9F4F0E94D92EA2
S11345609CB3092F027091FDFBCFE981F0E0ED537C
S1134570FB4F8A8183878B8185870E942B116AE098
S113458089E892E00E94361189818F3F09F0B4CF07
S113459001C0082F802F0F900F900F900F900F9055
S11345A0DF91CF911F910F91FF90EF900895CF93DA
S11345B0DF930E942B118BE090E00E94CB2E817040
S11345C09091A30480FB91F99093A3048823A9F00C
S11345D0C6EAD0E0A881B98186E0EEEBF2E0019072
S11345E00D928A95E1F7AD81BE8186E0E4ECF2E0BC
S11345F001900D928A95E1F714C0C6EAD0E0A88133
S1134600B98186E0EAECF2E001900D928A95E1F737
S1134610AD81BE8186E0E0EDF2E001900D928A95D5
S1134620E1F740E050E062E070E086EA90E00E944A
S1134630E5218F3FF9F0882319F0813039F00BC060
S11346408091A30482608093A30405C08091A30495
S11346508D7F8093A3046091A304669561708BE0C1
S113466090E00E94D92E6AE089E892E00E94361117
S113467080E001C08FEFDF91CF910895CF93DF9356
S11346800E942B118CE090E00E94CB2E81709091BF
S1134690A30480FB90F99093A3048823A9F0C6EAAD
S11346A0D0E0A881B98186E0EEEBF2E001900D92B2
S11346B08A95E1F7AD81BE8186E0E4ECF2E00190F9
S11346C00D928A95E1F714C0C6EAD0E0A881B981B9
S11346D086E0EAECF2E001900D928A95E1F7AD8173
S11346E0BE8186E0E0EDF2E001900D928A95E1F75B
S11346F040E050E062E070E086EA90E00E94E5214C
S11347008F3FF1F0882319F0813039F00BC080918C
S1134710A30481608093A30405C08091A3048E7FC9
S11347208093A3046091A30461708CE090E00E94E4
S1134730D92E6AE089E892E00E94361180E001C037
S11347408FEFDF91CF9108951F93CF93DF9300D024
S113475000D0CDB7DEB787E189838BE38A838DE010
S113476090E00E94CB2E8B838EE090E00E94CB2EB3
S11347708C83CE0101960E94B81B811122C08A81CC
S1134780811102C081E08A8369818DE090E00E94FA
S1134790D92EE199FECF6A818EE090E00E94D92E55
S11347A08CB3182F127081FDFBCFE3ECF4E0898108
S11347B087838A8180876AE089E892E00E943611C3
S11347C001C011E0812F0F900F900F900F90DF9197
S11347D0CF911F9108951F93CF93DF930E942B11C4
S11347E089E090E00E94CB2E8093A80460E086EDDF
S11347F092E00E947810C4EAD4E013E68091B704F2
S113480083FF0DC01092B7048C818F5F843608F04B
S113481080E08C838C8165E10E9479163BC0809195
S1134820B70482FF0CC01092B7048C8181500AF443
S1134830812F8C838C8165E10E9479162BC0809135
S1134840B70484FF14C01092B7048091A3048F7E30
S11348508093A3046091A80489E090E00E94D92E7B
S11348606AE089E892E00E94361180E018C08091E5
S1134870B70481FD04C08091A30484FF0BC010928F
S1134880B7048091A3048F7E8093A3040E942B110C
S113489081E005C08C8165E10E949916AFCFDF915C
S11348A0CF911F9108957F928F929F92AF92BF9262
S11348B0CF92DF92EF92FF920F931F93CF93DF93E8
S11348C000D000D01F92CDB7DEB719820F2EF7E1CA
S11348D0AF2EF02D0F2EFBE3BF2EF02DCC24C3946E
S11348E0D12C0F2EF8EBEF2EF4E0FF2EF02D06EA7C
S11348F010E0AE014F5F5F4F6BE070E08FEB90E034
S11349000E94E52189838F3F09F4AEC00E942B11D8
S1134910AA82BB827980872C912CC4018B5E9F4F25
S11349200E94CB2E8C83C401825E9F4F0E94CB2EAB
S11349308D8389E0781204C00E94EB2380E094C048
S1134940CE0102960E94B81B81118EC09601098087
S113495002C0220F331F0A94E2F7F701818192818A
S113496082239323892BA9F0F801A081B18186E0E9
S1134970EEEBF2E001900D928A95E1F7F801A58142
S1134980B68186E0E4ECF2E001900D928A95E1F7BD
S113499014C0F801A081B18186E0EAECF2E0019054
S11349A00D928A95E1F7F801A581B68186E0E0EDE4
S11349B0F2E001900D928A95E1F740E050E062E068
S11349C070E0C8010E94E5218130A1F020F08F3F02
S11349D009F449C01FC09601098002C0220F331F89
S11349E00A94E2F7F70181819281822B932B9283BF
S11349F0818310C0C601098002C0880F991F0A94E0
S1134A00E2F780959095F7012181328182239323E7
S1134A1092838183898190E06A818B5E9F4F0E949B
S1134A20D92EE199FECF898190E06B81825E9F4F00
S1134A300E94D92EE199FECFF7016181728184E051
S1134A4090E00E94EA2EE199FECFE981F0E0ED5377
S1134A50FB4F8A8187878B81808F6AE089E892E0A7
S1134A600E94361146CF8FEF0F900F900F900F904A
S1134A700F90DF91CF911F910F91FF90EF90DF90F6
S1134A80CF90BF90AF909F908F907F9008951F9389
S1134A90CF93DF930E942B1187E290E00E94CB2EEC
S1134AA08093E40460E086ED92E00E947810C3EC09
S1134AB0D4E01AE08091B70483FF0CC01092B704CD
S1134AC089A18F5F8B3008F080E089A365E10E94A3
S1134AD079163AC08091B70482FF0BC01092B704D4
S1134AE089A181500AF4812F89A365E10E94791676
S1134AF02BC08091B70484FF14C01092B704809136
S1134B00A3048F7E8093A3046091E40487E290E081
S1134B100E94D92E6AE089E892E00E94361180E072
S1134B2018C08091B70481FD04C08091A30484FF60
S1134B300BC01092B7048091A3048F7E8093A304CA
S1134B400E942B1181E005C065E189A10E9499169C
S1134B50B1CFDF91CF911F910895BF92CF92DF9291
S1134B60EF92FF920F931F93CF93DF93CDB7DEB7EE
S1134B7062970FB6F894DEBF0FBECDBF19820F2E19
S1134B80FFE0BF2EF02D6E0184E0C80ED11C8E0113
S1134B900E5F1F4F0F2EFDEBEF2EF4E0FF2EF02DD6
S1134BA0AE014F5F5F4F65E070E08DE890E00E94DA
S1134BB0E52189838F3F09F469C0823091F028F49C
S1134BC0882349F0813051F0EBCF833069F08F3F77
S1134BD009F45CC0E5CF0E94CA1CE2CF0E94A42362
S1134BE0DFCF0E944725DCCF1B821A82F6018B2D72
S1134BF011928A95E9F74AE0B801F701828193811D
S1134C000E94C12BD8010D900020E9F7119789E08B
S1134C10EAEDF2E001900D928A95E1F76EE1C801A8
S1134C200E9436114AE0B801F701808191810E9407
S1134C30C12BD8010D900020E9F711978BE0E3EE2A
S1134C40F2E001900D928A95E1F76EE1C8010E94AD
S1134C5036119A99A5CFF70113821282118210821C
S1134C6060E070E080E090E00E94FD2EE199FECFCC
S1134C7060E070E082E090E00E94FD2EE199FECFBA
S1134C8064E18EEE92E00E9436118ACF8FEF629635
S1134C900FB6F894DEBF0FBECDBFDF91CF911F9149
S1134CA00F91FF90EF90DF90CF90BF90089581B364
S1134CB0826F81BBA09A87B3886187BB85B38C67F9
S1134CC085BBC29A959AD59ADD9AD39AD29A83B71C
S1134CD08D6083BF89B7826889BF8BE98CBF85B536
S1134CE08C6085BD89EF83BD78940E9419210E9450
S1134CF0CC0183E80E94500C0E94A50687E994E049
S1134D000E94650C809199048093B0048091C7043B
S1134D100E940E0B6AE08AEF92E00E9436110E9414
S1134D20AA0664E10E9436110E942B118091A3040B
S1134D3086FD2CC064E180E193E00E943611C0E05E
S1134D406C2F8CE70E947B0F2FEF82E597E02150B8
S1134D5080409040E1F700C00000CF5FC03281F78F
S1134D606C2F80E20E947B0FEFEFF0E722E0E1502E
S1134D70F0402040E1F700C00000C15089F70E94D4
S1134D802B118091A30480648093A3041092510496
S1134D90109253041092B704949AA7E9B4E01196C0
S1134DA08C911197E4EAF4E0818B12968C9112971E
S1134DB0828BE12C8D01EF010F2EFDECBF2EF02D27
S1134DC09A2EA12E0F2EF3ECCF2EF4E0DF2EF02D31
S1134DD003C0E82E01C0E82E0E947A190E94821AAC
S1134DE08091B70481FF09C01092B7048DE790E069
S1134DF00E94F6121092B70440C08091B70482FF5B
S1134E000AC01092B70464E1892D9A2D0E944D14B2
S1134E101092B70432C08091B70483FF08C0109287
S1134E20B70484E10E9467151092B70426C08091EC
S1134E30B70484FF08C01092B70484E10E940516E9
S1134E401092B7041AC08091B70480FF16C0109264
S1134E50B7048091A30482FD0EC040E050E06CE0F2
S1134E6070E086EF90E00E94E5218F3F21F0809171
S1134E70A30482FFF2CF1092B704F801618182810A
S1134E800E9402100E94A6109989F8018181981746
S1134E9009F451C00E948E0B8B9D912D112496957F
S1134EA096959695990F292F220F220F920F891309
S1134EB01FC06894FF24F3F89A89F8018281981737
S1134EC029F04FE060E080E00E94C00E40E262E121
S1134ED080E00E94C00EFFE729EA83E0F150204001
S1134EE08040E1F700C00000FA94F110E5CF1EC045
S1134EF06894FF24F3F89A89F8018281981729F0BD
S1134F004FE068E080E00E94C00E40E268E180E08B
S1134F100E94C00EFFE729EA83E0F1502040804060
S1134F20E1F700C00000FA94F110E5CFF8018181A7
S1134F30898B82818A8BF80180818F839F818E8106
S1134F40981791F08F818E838A818B3320F48A8124
S1134F508F5F8A8309C01A828B818B3320F48B8103
S1134F608F5F8B8301C01B829A81F601828598171B
S1134F7048F19B818185981728F16894FF24F3F800
S1134F801B821A821092B7040E94990EFFEF21EE41
S1134F9084E0F15020408040E1F700C00000FA9422
S1134FA0F110EECF64E1892D9A2D0E944D1484E115
S1134FB00E94671584E10E940516F8018181898B9E
S1134FC082818A8B9981F6018781981768F098818C
S1134FD08085981748F00E94CA1C8DE790E00E94D3
S1134FE0F612F8018181F7CEF8018181E81609F4FF
S1134FF0F2CE98819B3320F498819F5F9883E9CE09
S1135000188299819F5F9983E4CE1F920F920FB605
S11350100F9211242F933F934F935F936F937F933A
S11350208F939F93AF93BF93EF93FF938091280443
S11350308F5F80932804883220F00E94BE1810925B
S1135040280480915004811119C0E4EAF4E08785B2
S113505090899C012F5F3F4F308B2787843F91407D
S113506048F01092B4041092B3048091A3048061B8
S11350708093A3040E94DC0A0E94111B8091A9045E
S1135080882309F43FC08091260490912704019657
S113509090932704809326048091A30481FDC49AED
S11350A080915004811101C09498809126049091BC
S11350B02704059730F0C49880915004811101C0F1
S11350C0949A8091260490912704499748F08091FE
S11350D0A30481FDC49A80915004811101C0949865
S11350E080912604909127044E9760F01092A904B1
S11350F01092270410922604C498809150048111C0
S113510001C0949AFF91EF91BF91AF919F918F91BC
S11351107F916F915F914F913F912F910F900FBEAF
S11351200F901F9018951F920F920FB60F92112493
S11351308F939F93EF93FF9380915004882319F0EA
S113514081E080935404E4EAF4E085859685019631
S113515096878587FF91EF919F918F910F900FBE56
S11351600F901F9018950E94BA286894B1110C945E
S1135170492908950E942E2988F09F5798F0B92F45
S11351809927B751B0F0E1F0660F771F881F991F78
S11351901AF0BA95C9F714C0B13091F00E944829A9
S11351A0B1E008950C944829672F782F8827B85FB9
S11351B039F0B93FCCF3869577956795B395D9F7D0
S11351C03EF490958095709561957F4F8F4F9F4FDA
S11351D00895E89409C097FB3EF4909580957095E6
S11351E061957F4F8F4F9F4F9923A9F0F92F96E92F
S11351F0BB279395F695879577956795B795F111A4
S1135200F8CFFAF4BB0F11F460FF1BC06F5F7F4F40
S11352108F4F9F4F16C0882311F096E911C0772352
S113522021F09EE8872F762F05C0662371F096E85B
S1135230862F70E060E02AF09A95660F771F881F2A
S1135240DAF7880F9695879597F9089557FD905842
S1135250440F551F59F05F3F71F04795880F97FB36
S1135260991F61F09F3F79F08795089512161306F0
S11352701406551FF2CF4695F1DF08C0161617061F
S11352801806991FF1CF8695710561050894089554
S1135290E894BB2766277727CB0197F908950E94E6
S11352A062290C94D3290E94C52938F00E94CC2984
S11352B020F0952311F00C94BC290C94C2291124DC
S11352C00C9449290E94262970F3959FC1F3950FE8
S11352D050E0551F629FF001729FBB27F00DB11D76
S11352E0639FAA27F00DB11DAA1F649F6627B00D06
S11352F0A11D661F829F2227B00DA11D621F739FEF
S1135300B00DA11D621F839FA00D611D221F749FFC
S11353103327A00D611D231F849F600D211D822F43
S1135320762F6A2F11249F5750409AF0F1F088236A
S11353304AF0EE0FFF1FBB1F661F771F881F915097
S11353405040A9F79E3F510580F00C94BC290C9461
S113535049295F3FE4F3983ED4F3869577956795A2
S1135360B795F795E7959F5FC1F7FE2B880F911DC1
S11353709695879597F9089597F99F6780E870E067
S113538060E008959FEF80EC089500240A941616B7
S1135390170618060906089500240A94121613061F
S11353A0140605060895092E0394000C11F48823AD
S11353B052F0BB0F40F4BF2B11F460FF04C06F5FC9
S11353C07F4F8F4F9F4F0895DB018F939F930E94D0
S11353D0582ABF91AF91A29F800D911DA39F900D5C
S11353E0B29F900D1124089597FB072E16F4009494
S11353F007D077FD09D00E946B2A07FC05D03EF444
S1135400909581959F4F0895709561957F4F08956C
S1135410A1E21A2EAA1BBB1BFD010DC0AA1FBB1FB4
S1135420EE1FFF1FA217B307E407F50720F0A21B26
S1135430B30BE40BF50B661F771F881F991F1A9493
S113544069F760957095809590959B01AC01BD01BD
S1135450CF010895052E97FB1EF400940E94412A63
S113546057FD07D00E94082A07FC03D04EF40C9481
S1135470412A50954095309521953F4F4F4F5F4FAE
S1135480089590958095709561957F4F8F4F9F4FAC
S11354900895A29FB001B39FC001A39F700D811D09
S11354A01124911DB29F700D811D1124911D089529
S11354B00E94492AA59F900DB49F900DA49F800D32
S11354C0911D11240895B7FF0C94582A0E94582A5C
S11354D0821B930B0895AA1BBB1B51E107C0AA1F93
S11354E0BB1FA617B70710F0A61BB70B881F991F81
S11354F05A95A9F780959095BC01CD0108950F9315
S11355001F93CF93DF938230910510F482E090E0F3
S1135510E091E804F091E90420E030E0A0E0B0E09C
S1135520309719F14081518102811381481759073D
S1135530C8F08417950769F4109731F012960C930C
S1135540129713961C9327C00093E8041093E90460
S113555022C02115310519F04217530718F49A0196
S1135560BD01EF01DF01F801DBCF21153105F9F0B1
S1135570281B390B2430310580F48A819B81611505
S1135580710521F0FB019383828304C09093E904A5
S11355908093E804FE01329644C0FE01E20FF31F3B
S11355A08193919322503109398328833AC0209101
S11355B0E6043091E704232B41F4209162003091FA
S11355C063003093E7042093E60420916000309157
S11355D061002115310541F42DB73EB740916400B7
S11355E050916500241B350BE091E604F091E7042B
S11355F0E217F307A0F42E1B3F0B2817390778F0A6
S1135600AC014E5F5F4F2417350748F04E0F5F1F04
S11356105093E7044093E6048193919302C0E0E041
S1135620F0E0CF01DF91CF911F910F910895CF93B7
S1135630DF93009709F481C0FC0132971382128230
S1135640A091E804B091E904109781F4208131819C
S1135650820F931F2091E6043091E704281739073D
S113566051F5F093E704E093E60467C0ED0120E010
S113567030E0CE17DF0740F44A815B819E0141157B
S11356805105F1F0EA01F5CFD383C2834081518102
S1135690840F951FC817D90759F488819981840FFD
S11356A0951F0296918380838A819B819383828351
S11356B02115310529F4F093E904E093E8043DC091
S11356C0E901FB83EA8349915991C40FD51FEC1773
S11356D0FD0761F480819181840F951F0296E90191
S11356E099838883828193819B838A83E0E0F0E0BD
S11356F012968D919C911397009719F0FD01DC018E
S1135700F7CF8D919C9111979D012E5F3F4F820F92
S1135710931F2091E6043091E7042817390769F4B0
S1135720309729F41092E9041092E80402C013821D
S11357301282B093E704A093E604DF91CF91089519
S1135740FB01DC0104C08D910590801921F44150C6
S11357505040C8F7881B990B0895FB01DC0102C077
S113576005900D9241505040D8F70895FB01DC019B
S11357700D900020E9F7119701900D920020E1F7B8
S11357800895BB274A3031F4992322F4BDE2909561
S113579081959F4F0C94EF2BBB27FA01A62F62171C
S11357A0710581059105330B30FB66F0AA27660F5E
S11357B0771F881F991FAA1FA21710F0A21B6395B9
S11357C03850A9F7A05DAA3308F0A95DA19336F774
S11357D0B111B1931082CA010C94212EBB27FB0195
S11357E05527AA27880F991FAA1FA41710F0A41BD6
S11357F083955051B9F7A05DAA3308F0A95DA19330
S1135800009779F7B111B1931192CB010C94212E29
S1135810AEE0B0E0EEE0FCE20C94202F0D891E898E
S113582086E08C831A8309838FEF9FE79E838D83A1
S1135830AE01475E5F4F6F89788DCE0101960E945D
S11358402A2CEF81F885E00FF11F10822E96E4E0F8
S11358500C943C2FABE0B0E0E0E3FCE20C94122F9C
S11358606C017B018A01FC0117821682838181FF0E
S1135870CCC1CE0101963C01F6019381F70193FD61
S1135880859193FF81917F01882309F4BAC1853200
S113589039F493FD859193FF81917F01853229F439
S11358A0B60190E00E94312EE7CF912C212C312CAF
S11358B0FFE1F315D8F08B3279F038F4803279F0C7
S11358C08332A1F4232D20611DC08D3261F0803319
S11358D069F4232D216016C0832D8260382EE32DB8
S11358E0E4603E2E2AC0F32DF8601DC037FC2DC0A5
S11358F020ED280F2A3040F08E32B9F436FC81C1F5
S1135900232D2064322E19C036FE06C08AE0989EEC
S1135910200D1124922E11C0EAE02E9E200D112498
S1135920222EF32DF0623F2E08C08C3621F4832DF5
S11359308068382E02C0883641F4F70193FD8591C2
S113594093FF81917F018111B3CF982F9F7D95544F
S1135950933028F40C5F1F4F9FE399830DC0833667
S113596031F0833771F0833509F059C021C0F80153
S1135970808189830E5F1F4F88248394912C530167
S113598013C02801F2E04F0E511CF801A080B18031
S113599036FE03C0692D70E002C06FEF7FEFC501D2
S11359A00E94162E4C018201F32DFF773F2E16C064
S11359B0280122E0420E511CF801A080B18036FE7D
S11359C003C0692D70E002C06FEF7FEFC5010E9434
S11359D00B2E4C01F32DF0683F2E820133FC1BC0CB
S11359E0822D90E088169906B0F4B60180E290E02A
S11359F00E94312E2A94F4CFF50137FC859137FEAD
S1135A0081915F01B60190E00E94312E21102A9409
S1135A1021E0821A91088114910471F7E8C0843658
S1135A2011F0893641F5F80137FE07C060817181B4
S1135A30828193810C5F1F4F08C060817181072EA2
S1135A40000C880B990B0E5F1F4FF32DFF763F2E32
S1135A5097FF09C090958095709561957F4F8F4F02
S1135A609F4FF0683F2E2AE030E0A3010E946D2E84
S1135A70882E861845C0853731F4232D2F7EB22E0B
S1135A802AE030E025C0932D997FB92E8F36C1F0DE
S1135A9018F4883579F0B5C0803719F0883721F0CB
S1135AA0B0C0E92FE061BE2EB4FE0DC0FB2DF46042
S1135AB0BF2E09C034FE0AC0292F2660B22E06C0AC
S1135AC028E030E005C020E130E002C020E132E00F
S1135AD0F801B7FE07C060817181828193810C5FF8
S1135AE01F4F06C06081718180E090E00E5F1F4F00
S1135AF0A3010E946D2E882E8618FB2DFF773F2E62
S1135B0036FE0DC0232D2E7FA22E891458F434FEA8
S1135B100BC032FC09C0832D8E7EA82E05C0B82C84
S1135B20A32C03C0B82C01C0B92CA4FE0FC0FE01E5
S1135B30E80DF11D8081803321F49A2D997EA92EE0
S1135B4009C0A2FE06C0B394B39404C08A2D86781B
S1135B5009F0B394A3FC11C0A0FE06C0B21488F4EB
S1135B60280C922C9B180EC0B21460F4B60180E28B
S1135B7090E00E94312EB394F7CFB21418F42B188E
S1135B8002C0982C212CA4FE10C0B60180E390E042
S1135B900E94312EA2FE17C0A1FC03C088E790E04A
S1135BA002C088E590E0B6010CC08A2D867859F0D1
S1135BB0A1FE02C08BE201C080E2A7FC8DE2B60127
S1135BC090E00E94312E891438F4B60180E390E00D
S1135BD00E94312E9A94F7CF8A94F301E80DF11DB7
S1135BE08081B60190E00E94312E8110F5CF2220F1
S1135BF009F442CEB60180E290E00E94312E2A944C
S1135C00F6CFF6018681978102C08FEF9FEF2B9626
S1135C10E2E10C942E2FFC010590615070400110BC
S1135C20D8F7809590958E0F9F1F0895FC016150C1
S1135C30704001900110D8F7809590958E0F9F1FAA
S1135C400895DC01FC01672F71917723E1F7329706
S1135C5004C07C916D9370836291AE17BF07C8F343
S1135C6008950F931F93CF93DF93FB01238121FDAD
S1135C7003C08FEF9FEF2CC022FF16C046815781CF
S1135C80248135814217530744F4A081B1819D01D9
S1135C902F5F3F4F318320838C93268137812F5F81
S1135CA03F4F3783268314C08B01EC01FB01008432
S1135CB0F185E02D0995892BE1F6D80116968D9191
S1135CC09C911797019617969C938E931697CE01E5
S1135CD0DF91CF911F910F910895FA01AA272830DF
S1135CE051F1203181F1E8946F936E7F6E5F7F4FA5
