:100000000C94A2010C94BF010C94BF010C94BF018D
:100010000C94FD250C94BF010C94BF010C94BF01FE
:100020000C94BF010C94BF010C946F250C94BF017C
:100030000C94BF010C94BF010C94BF010C94BF0140
:100040000C94BF010C94BF010C94BF010C94BF0130
:100050000C94BF013D0336032F03280321031A0329
:1000600013030C030503FE02F702F002E902E202A9
:10007000DB02D402CD02C602BF02B802B102AA025C
:10008000A3029C0295028E0287028002790272020C
:100090006B0264025D0256024F02480241023A02BC
:1000A00033022C0225021E0217021002090202026C
:1000B000FB01F401ED01E601DF01D801D101CA0124
:1000C000C301BC01B501AE01A701A00199019201D4
:1000D0008B0184017D0176016F01680161015A0184
:1000E00053014C0145013E01370130012901220134
:1000F0001B0114010D010601FF00FC007C01FF251E
:1001000005FF810081FFA705FF950895FF3A02666C
:1001100066FFFFFFB0026060FFFFFF2E020303FFD8
:10012000FFFF6005FFFFFFFFFF2A054402120244A4
:100130002405122A7F2A243C05081C2A08083E05AB
:1001400010105438103D0514141414142D0508080B
:100150000808082B0508083E080829040081423CCD
:10016000002804003C42810026057689956205231B
:10017000052040FF402040050402FF02042101FD4C
:10018000000000003F0560808D906039057089890E
:100190008A7C38056E9191916E3705808F90A0C052
:1001A00036051E294989863505F29191918E3405CF
:1001B000182848FF083305428191916E3205438526
:1001C00089916131040041FF010030057E8991A1D0
:1001D0007E7A0511131519117905003905053E7848
:1001E00005110A040A1177051E010E011E76051C71
:1001F0000201021C75051E0101021F740520FE216B
:1002000001027305091515150272051F0810100863
:100210007105102828183F70053F242424186F0505
:100220000E1111110E6E053F1020201F6D053F208D
:1002300018201F6C040081FF01006B04FF040A11E9
:10024000006A04020121BE0069015F00000000682D
:1002500005FF0810100F6705304949497E660508FB
:100260007F88804065050E1515150C64050E11116B
:1002700009FF63051E212121126205FF0911110EDC
:100280006105062929291F5A05838599A1C15905A8
:10029000E0100F10E05805C3241824C35705FF02CF
:1002A0000C02FF5605F00C030CF05505FE01010190
:1002B000FE54058080FF80805305619191918E529C
:1002C00005FF888C8A7151057E8185827D5005FFEE
:1002D000888888704F057E8181817E4E05FF403081
:1002E00008FF4D05FF403040FF4C05FF01010101B3
:1002F0004B05FF182442814A0506010101FE49050C
:100300008181FF81814805FF101010FF47057E8124
:1003100089894E4605FF909090804505FF91919107
:10032000814405FF8181423C43057E8181814242B7
:1003300005FF9191916E41053F4888483F20030099
:100340000000000011241FBECFE5D8E0DEBFCDBF06
:1003500013E0A0E6B0E0E4EEF6E502C005900D92F1
:10036000AC3FB107D9F724E0ACEFB3E001C01D9278
:10037000AF3CB207E1F70E9439240C94702B0C9427
:10038000000000C000C000C000C000C000C00000ED
:100390000895A198A098A998A8980895A19AF1DF26
:1003A0001DD00895A09AEDDFA198EBDFA098E9DFBA
:1003B000A19AE7DF13D00895082EA19AE2DF802DDD
:1003C0000DD0882311F002D0F8CF0895A09AA19AF9
:1003D000D8DFA098D6DFA198D4DF08950894881FAD
:1003E00001C0880F59F0A09A18F40000A19802C02B
:1003F000A19A00C0C6DFA098C4DFF3CFA09AA1984D
:10040000C0DFA098989BFECF8827999981E0B9DF3B
:1004100099270895882701C081E071E0A09AA198EA
:10042000B0DFA098AEDF989BFECF8894999908948E
:10043000771FA0F7A09A813011F0A19801C0A19A6E
:10044000A0DFA098989BFECF9CDF872F9927089567
:100450000F931F93CF93DF938C01FC01C081613018
:1004600019F0611113C029C08EEE0E94DC018C2F9F
:100470000E94EE010E94E6018FEE0E94DC010E94C4
:100480000A02F80180830E94E60117C0DC2FD60F14
:100490008EEE0E94DC018C2F0E94EE010E94E6018C
:1004A0008FEE0E94DC010E940A02F80181938F0105
:1004B0000E94E601CF5FDC13EBCF81E0DF91CF91AB
:1004C0001F910F9108950F931F93CF93DF931F9266
:1004D000CDB7DEB78B01898361E0CE0101960E9422
:1004E0002802882321F08981F801808381E00F9020
:1004F000DF91CF911F910F9108950F931F93CF9389
:10050000DF9300D0CDB7DEB78B01898362E0CE01E7
:1005100001960E942802882351F0898190E0982F4B
:1005200088272A81822BF8019183808381E00F90B4
:100530000F90DF91CF911F910F9108950F931F930B
:10054000CF93DF9300D0CDB7DEB78B01898362E014
:10055000CE0101960E942802882359F0898190E0FB
:10056000982F88272A81822BF8019183808380E04D
:1005700001C081E00F900F90DF91CF911F910F91FB
:100580000895CF93DF93EC01BC018AEA0E947D02BB
:10059000BE016E5F7F4F8CEA0E947D02BE016C5FE0
:1005A0007F4F8EEA0E947D02BE016A5F7F4F80EB23
:1005B0000E949E02BE01685F7F4F82EB0E949E02F6
:1005C000BE01665F7F4F84EB0E949E02BE01645FA6
:1005D0007F4F86EB0E947D02BE01625F7F4F88EBFA
:1005E0000E947D02BE01605F7F4F8AEB0E947D0208
:1005F000BE016E5E7F4F8CEB0E947D02BE016C5E81
:100600007F4F8EEB0E947D0281E0DF91CF910895B4
:10061000EF92FF920F931F93CF93DF93FC01C08162
:10062000662331F18C01FC2EF60E8EEE0E94CE0177
:10063000811120C08C2F0E94EE01D82FF8018181FA
:100640000E94EE01E82EFFEF22E587E0F150204006
:100650008040E1F700C00000DE0D0E94E601DE0DE3
:1006600059F4CF5F0F5F1F4FFC12DFCF81E005C051
:1006700081E003C080E001C080E0DF91CF911F9155
:100680000F91FF90EF900895CF93DF9300D0CDB7F7
:10069000DEB789836A8361E0CE0101960E94080378
:1006A00091E0811101C090E0892F0F900F90DF91B0
:1006B000CF910895EF92FF920F931F93CF93DF9303
:1006C0001F92CDB7DEB7F82EE42E69830E94440353
:1006D00081110CC017C0BE016F5F7F4F8F2D0E942C
:1006E00063020F5F1F4F811103C00CC000E010E0D8
:1006F00089818E2131F00F3F8FEF180761F781E07C
:1007000001C081E00F90DF91CF911F910F91FF9079
:10071000EF9008950F931F93CF93DF9300D0CDB741
:10072000DEB78C0140E26EE284EF0E945A03882318
:1007300061F0BE016F5F7F4F86EF0E947D0289816D
:100740009A81F8019183808381E00F900F90DF916F
:10075000CF911F910F9108954F925F926F927F9268
:100760008F929F92AF92BF92CF92DF92EF92FF92C1
:100770001F93CF93DF9300D000D000D0CDB7DEB76A
:1007800088A099A0A12CB12C4AA05BA0612C712C4F
:10079000CAA4DBA40D2C000CEE08FF082CA53DA577
:1007A000C901330FAA0BBB0B8B839C83AD83BE8324
:1007B000CE0101960E948A03182F29813A81C9012E
:1007C000A0E0B0E09C01AD012419350946095709A4
:1007D000C501B4010E944E274B015C01072E7FE04A
:1007E000B594A794979487947A95D1F7702DC70103
:1007F000B601052E5BE0660F771F881F991F5A957B
:10080000D1F7502D2B813C814D815E81280D391D02
:100810004A1D5B1D0E949427820E931EA41EB51EC6
:1008200098E0890E911CA11CB11C689413F8B59432
:10083000A794979487941694D1F7EEA9FFA9808284
:100840009182A282B382812F817026960FB6F8948E
:10085000DEBF0FBECDBFDF91CF911F91FF90EF9014
:10086000DF90CF90BF90AF909F908F907F906F90D0
:100870005F904F900895FF920F931F93CF93DF9354
:1008800000D01F92CDB7DEB78C01F62E6295660FB1
:10089000660F607C6C5C40E284EF0E945A03882300
:1008A00079F1BE016F5F7F4F86EF0E946302BE0148
:1008B0006E5F7F4F87EF0E946302BE016D5F7F4FC7
:1008C00088EF0E94630229818A8190E0A0E0B0E075
:1008D000BA2FA92F982F8827A22B2B81822B28E0B3
:1008E00030E02F19310904C0B595A79597958795E4
:1008F0002A95D2F7F80180839183A283B38381E0A4
:100900000F900F900F90DF91CF911F910F91FF905B
:1009100008952F923F924F925F926F927F928F92A3
:100920009F92AF92BF92CF92DF92EF92FF920F937E
:100930001F93CF93DF93CDB7DEB7A8970FB6F89488
:10094000DEBF0FBECDBF1C01062FDC014D905C90B9
:1009500011979201550C440B550B2F83388749870B
:100960005A8712968D919C9113979C01990F440B75
:10097000550B2B873C874D875E8714968D909C90F6
:100980001597C401990CAA0BBB0B8F87988BA98B69
:10099000BA8BD10116960D90BC91A02DBC8BAB8B60
:1009A000F10140845184920140E050E02D8B3E8B58
:1009B0004F8B588F828593859C0140E050E0298FB2
:1009C0003A8F4B8F5C8F628973892B01770F660892
:1009D0007708248935894901330FAA08BB08848523
:1009E00095859C01990F440B550B2D8F3E8F4F8F92
:1009F00058A3868597859C01990F440B550B29A315
:100A00003AA34BA35CA3CE0101960E948A03182F40
:100A1000C980DA800D2C000CEE08FF08602FCE0193
:100A200003960E943B048123182F11708B819C81B7
:100A3000AD81BE818DA39EA3AFA3B8A7A7019601E8
:100A4000898D9A8DAB8DBC8D281B390B4A0B5B0BA6
:100A50006D897E898F89988D0E944E276B017C015C
:100A60000B2EBFE0F594E794D794C794BA95D1F7CD
:100A7000B02DC301B201052E5BE0660F771F881F02
:100A8000991F5A95D1F7502DA50194012C0D3D1DAC
:100A90004E1D5F1D0E949427C20ED31EE41EF51E3C
:100AA000D701C6010896A11DB11D689413F8B5952C
:100AB000A795979587951694D1F7F101828F938F1B
:100AC000A48FB58FF0EACF1AFFE0DF0AE108F10842
:100AD000A7019601C701B6010E944E272B013C01D8
:100AE000032E3CE075946794579447943A95D1F758
:100AF000302D2F85388949895A89C701B6010E944E
:100B00004E274B015C01992334F42FEF820E2FE125
:100B1000921EA11CB11C072E7DE0B594A79497945A
:100B200087947A95D1F7702D2D8D3E8D4F8D58A1DC
:100B3000C301B2010E944E27BB2797FDB095AB2F92
:100B4000880D991DAA1DBB1D0296A11DB11DB5954D
:100B5000A79597958795B595A795979587959C01A6
:100B6000AD0130584F4F5F4FAB89BC890E94C227FF
:100B70004B015C01072E7FE0B694A794979487946D
:100B80007A95D1F7702D29A13AA14BA15CA1C3019F
:100B9000B2010E944E272B013C01032E3BE07594CD
:100BA0006794579447943A95D1F7302D2B853C851F
:100BB0004D855E85C701B6010E944E27DC01CB0141
:100BC000072E7BE0B595A795979587957A95D1F7F0
:100BD000702D480E591E6A1E7B1E8F819885A9852F
:100BE000BA85880F991FAA1FBB1F880F991FAA1FBC
:100BF000BB1F480E591E6A1E7B1E002E04C0440CEB
:100C0000551C661C771C0A94D2F732E0430E511C27
:100C1000611C711C759467945794479475946794FC
:100C2000579447942DA13EA14FA158A524193509E9
:100C30004609570980E593ECA0E0B0E0BC01CD0186
:100C400004C095958795779567950A95D2F70E9488
:100C50004E2799236CF0660F771F881F991FA501F7
:100C600094010E9472272B833C834D835E830EC0C8
:100C7000A50194010E947227DA01C901880F991F0A
:100C8000AA1FBB1F8B839C83AD83BE838B809C80FC
:100C9000AD80BE809927B7FC9A958B2D7A2D692D52
:100CA0009B01AC010E944E279B01AC01AEEDBBE065
:100CB0000E94C2276B017C01A3E4B3EEA50194015D
:100CC0000E94D027BB2797FDB095AB2F6701FF246B
:100CD000D7FCF094EF2CC80ED91EEA1EFB1E4FEC79
:100CE000C40E4EE0D41EE11CF11C689413F8F59478
:100CF000E794D794C7941694D1F7C80CD91CEA1C72
:100D0000FB1CD1015696CD92DD92ED92FC92599743
:100D1000812FA8960FB6F894DEBF0FBECDBFDF912E
:100D2000CF911F910F91FF90EF90DF90CF90BF90E8
:100D3000AF909F908F907F906F905F904F903F907B
:100D40002F9008958FE194E00E94C1020895E0E69B
:100D5000F0E081E380839EE2918322E32283938308
:100D6000848320E3258324E3268327E32783908756
:100D7000818786E3828783E384871586CF01089580
:100D8000CF93DF93CDB7DEB761970FB6F894DEBF90
:100D90000FBECDBF91E1EEE3F1E0DE0111960190CF
:100DA0000D929A95E1F790E3FB01908398E7918388
:100DB000982F92959F70E1E0F0E0EC0FFD1FE90F96
:100DC000F11D9081FB0192838F70E1E0F0E0EC0F68
:100DD000FD1FE80FF11D8081FB0183831482CB018D
:100DE00061960FB6F894DEBF0FBECDBFDF91CF91F5
:100DF000089580914604882369F0809140048330EF
:100E000049F480914504811105C081E08093450437
:100E100010924604809145040895809146048823E9
:100E200009F446C0809140048130B1F490910004EF
:100E3000E92FE695E695E695F0E0EF5FFB4F308110
:100E4000292F277081E090E002C0880F991F2A9512
:100E5000E2F7832B808325C080914004811117C065
:100E600090910004E92FE695E695E695F0E0EF5FB6
:100E7000FB4F3081292F277081E090E002C0880F5E
:100E8000991F2A95E2F78095832380830AC0809179
:100E90004004833031F4109200041092460480E044
:100EA0000895809100048F5F80930004109246049F
:100EB000809100048B3330F01092000410924504AE
:100EC00081E0089580E008950F931F93CF93DF93FF
:100ED00085E190E0E82FE695E695E695F0E0EF5F96
:100EE000FB4F208130E0482F477002C03595279591
:100EF0004A95E2F720FD9F5F8F5F8D3159F790FD96
:100F00006BC2E82FE695E695E695F0E0EF5FFB4FC4
:100F1000208130E0482F477002C0359527954A95CB
:100F2000E2F720FD9F5F8F5F843259F75BC2E82FA5
:100F3000E695E695E695F0E0EF5FFB4F208130E027
:100F4000482F477002C0359527954A95E2F720FD56
:100F50009F5F8F5F8B3359F790FD40C2EEE6F0E064
:100F600016821582148210821782118213821282D5
:100F700080E090E041E050E0682F9C012B5E3F4F05
:100F8000D9010AF41796B595A795B595A795B59586
:100F9000A795AF5FBB4FAC91B0E02770307833239B
:100FA00034F421503109286F3F6F2F5F3F4F8D017F
:100FB00002C0159507952A95E2F700FF0AC07581D2
:100FC0009A01062E02C0220F331F0A94E2F7272B44
:100FD00025839C01235E3F4FD9010AF41796B595EE
:100FE000A795B595A795B595A795AF5FBB4FAC9164
:100FF000B0E027703078332334F421503109286F62
:101000003F6F2F5F3F4FED0102C0D595C7952A95E1
:10101000E2F7C0FF0AC074819A01062E02C0220FB7
:10102000331F0A94E2F7272B24839C012C5D3F4F4A
:10103000D9010AF41796B595A795B595A795B595D5
:10104000A795AF5FBB4FAC91B0E0277030783323EA
:1010500034F421503109286F3F6F2F5F3F4F8D01CE
:1010600002C0159507952A95E2F700FF0AC0708126
:101070009A01062E02C0220F331F0A94E2F7272B93
:1010800020839C01265D3F4FD9010AF41796B59540
:10109000A795B595A795B595A795AF5FBB4FAC91B3
:1010A000B0E027703078332334F421503109286FB1
:1010B0003F6F2F5F3F4FED0102C0D595C7952A9531
:1010C000E2F7C0FF0CC0833050F477819A01062EFE
:1010D00002C0220F331F0A94E2F7272B27839C01BB
:1010E000235D3F4FD9010AF41796B595A795B5959D
:1010F000A795B595A795AF5FBB4FAC91B0E02770B2
:101100003078332334F421503109286F3F6F2F5F3B
:101110003F4F8D0102C0159507952A95E2F700FF14
:101120000AC071819A01062E02C0220F331F0A9451
:10113000E2F7272B21839C012E5C3F4FD9010AF453
:101140001796B595A795B595A795B595A795AF5F52
:10115000BB4FAC91B0E027703078332334F421508A
:101160003109286F3F6F2F5F3F4FED0102C0D595CA
:10117000C7952A95E2F7C0FF0CC0228133818A010E
:1011800002C0000F111F6A95E2F7202B312B338329
:10119000228301968430910509F0EECE48E250E0BA
:1011A00020E030E0C4E0EEE6F0E06AE070E0C90183
:1011B0004996DC010AF41796B595A795B595A795BC
:1011C000B595A795AF5FBB4FAC91B0E087709078B5
:1011D000992324F40197886F9F6F01968D0102C0B7
:1011E000159507958A95E2F700FF0CC0C73050F4BB
:1011F000A581CB01022E02C0880F991F0A94E2F745
:101200008A0F8583C9018196DC010AF41796B5958A
:10121000A795B595A795B595A795AF5FBB4FAC9131
:10122000B0E087709078992324F40197886F9F6FBE
:1012300001968D0102C0159507958A95E2F700FF8A
:101240002DC0C63008F0D1C0A481CB01022E02C04F
:10125000880F991F0A94E2F78A0F8483CA01DA0182
:1012600055230CF41796B595A795B595A795B59503
:10127000A795AF5FBB4FAC91B0E087709078992392
:1012800024F40197886F9F6F01968D0102C0159518
:1012900007958A95E2F700FD22C02BC0CA01DA014A
:1012A00055230CF41796B595A795B595A795B595C3
:1012B000A795AF5FBB4FAC91B0E087709078992352
:1012C00024F40197886F9F6F01968D0102C01595D8
:1012D00007958A95E2F700FF0CC0C63050F4A08154
:1012E000CB01022E02C0880F991F0A94E2F78A0FE1
:1012F0008083C901C196DC010AF41796B595A795BC
:10130000B595A795B595A795AF5FBB4FAC91B0E0EC
:1013100087709078992324F40197886F9F6F0196C6
:101320008D0102C0159507958A95E2F700FF0CC064
:10133000C43051F4A181CB01022E02C0880F991F45
:101340000A94E2F78A0F8183C901C696DC010AF488
:101350001796B595A795B595A795B595A795AF5F40
:10136000BB4FAC91B0E087709078992324F401973B
:10137000886F9F6F01968D0102C0159507958A951C
:10138000E2F700FF0DC082819381DB01022E02C0D3
:10139000AA0FBB1F0A94E2F78A0F9B1F93838283D5
:1013A000CF5F2F5F3F4F4F5F5F4FC83009F0FFCED9
:1013B000EEE6F0E0828193818053984F938382839D
:1013C0008091030481FF04C081E0809376001CC0FB
:1013D0001092760081E018C080E016C080E014C052
:1013E00080E012C090FFA3CDFBCFCA0155230CF4BF
:1013F0000796959587959595879595958795DC01A1
:10140000AF5FBB4F8C9175CFDF91CF911F910F9143
:101410000895B29937C08091FE039091FF03823DF9
:1014200025E0920708F12091780030917900821729
:10143000930720F4909379008093780020917A00AC
:1014400030917B002817390720F490937B0080931C
:101450007A0081E08093460483E0809340041092F8
:10146000FF031092FE0304C01092FF031092FE03CC
:101470008091FC039091FD0301969093FD0380936E
:10148000FC0357C08091FC039091FD038F3A9105B6
:1014900000F120918000309181008217930720F4A1
:1014A000909381008093800020918200309183008E
:1014B0002817390720F4909383008093820081E0FD
:1014C00080934604809340041092FD031092FC0325
:1014D00027C08B34910500F120917C0030917D0074
:1014E0008217930720F490937D0080937C002091D5
:1014F0007E0030917F002817390720F490937F00F9
:1015000080937E0081E08093460410924004109204
:10151000FD031092FC0304C01092FD031092FC0323
:101520008091FE039091FF0301969093FF038093B7
:10153000FE030E94F9068823A1F00E940D0788236C
:1015400081F00E946407882341F081E08093410488
:1015500010923E0410923F0408951092410410929C
:101560003F0408950097B1F40895000000000000C2
:10157000000000000000000000000000000000006B
:1015800000002150310989F74F5F5F4F841795079D
:1015900019F4089540E050E028EE33E0E6CFDD98FE
:1015A0000895DD9A0895662351F0DB98982F9623CD
:1015B00011F0DA9A01C0DA98DB9A6695B1F70895CE
:1015C000CF93DF930E94CF0A64E085E00E94D30AA4
:1015D00060E480E00E94D30AC0E0D0E0FE01E95B55
:1015E000FB4F808168E00E94D30A2196C034D10568
:1015F000A9F70E94D10ADF91CF910895CF93C82F08
:101600000E94CF0A64E084E00E94D30A60E88C2F35
:101610000E94D30A61E081E00E94D30A0E94D10AAD
:10162000CF910895EF92FF920F931F93CF93DF9383
:1016300000D000D000D0CDB7DEB7D59ADD9AD39ACE
:10164000D29A91E0998393E09A8398E09B8398E102
:101650009C8390E29D838E838E010F5F1F4F7E01DE
:1016600087E0E80EF11CF80181918F010E94FE0ACB
:101670000E151F05C1F726960FB6F894DEBF0FBEF4
:10168000CDBFDF91CF911F910F91FF90EF90089503
:10169000803240F5683040F5982F9695969596954E
:1016A00070E0660F771F20E1929F600D711D11247D
:1016B00082FB222720F930E0620F731FFB01E95BF8
:1016C000FB4F4081837028E030E0B90102C075957E
:1016D00067958A95E2F7CB01942F982381E029F44E
:1016E00080E0089580E0089580E00895803268F5F4
:1016F000683058F5982F9370E8E0F0E002C0F59557
:10170000E7959A95E2F7982F96959695969570E0BD
:10171000660F771F20E1929F600D711D112482FBDF
:10172000222720F930E0620F731F442339F0DB01D8
:10173000A95BBB4F8C91E82BEC930895DB01A95B6F
:10174000BB4F8C91E095E823EC930895982F9295E8
:101750009F70990F292F220F220F920F8F70890FE0
:1017600008950F931F93CF93DF93E9E0F4E092E0A5
:1017700090839DEC499F212D112426952695269531
:1017800030E1239FD0011124220F322F330F330F6A
:10179000230F421B4A2B4183699F212D112426953B
:1017A0002695269530E1239FA0011124220F322F88
:1017B000330F330F230F621B642B6283899F912D9C
:1017C000112496959695969540E1949F9001112449
:1017D000990F392F330F330F930F891B822B83837C
:1017E00082EA0E94DC01C9E0D4E004E114E08991BE
:1017F0000E94EE01C017D107D1F70E94E601DF91E8
:10180000CF911F910F9108950F931F93CF93DF9363
:10181000E9E0F4E095E090839DEC899F312D11245F
:1018200036953695369550E1359FD0011124330F0A
:10183000532F550F550F350F831B8A2B8183699FBB
:10184000812D112486958695869530E1839FD00160
:101850001124880F382F330F330F830F681B6A2B27
:101860006283499F812D112486958695869550E146
:10187000859FB0011124880F382F330F330F830F4A
:10188000481B462B4383205D299F912D112496955B
:101890009695969580E1989FA0011124990F892F24
:1018A000880F880F980F291B242B248382EA0E941B
:1018B000DC01C9E0D4E004E114E089910E94EE016A
:1018C000C017D107D1F70E94E601DF91CF911F9198
:1018D0000F910895EF92FF920F931F93CF93DF9391
:1018E0008C01C9E0D4E082E0888382EA0E94CE01C4
:1018F00088810E94EE0183EA0E94D201882319F0B8
:101900000E94E60114C0C9E0D4E00F2EF4E1EF2EEE
:10191000F4E0FF2EF02D0E940C028993CE15DF0516
:10192000D1F70E940A02809314040E94E601E9E0C4
:10193000F4E0A081E801A8837181798362816A83E0
:1019400053815C8334813D8345814B83868190E064
:101950009F838E83278128879085998781858A87B1
:10196000E285AF77A8837F7779836F736A835F732C
:101970005C834F714B8337703D832F7728879F7728
:1019800099878F778A878E2F8F778B87DF91CF917B
:101990001F910F91FF90EF900895AC019C0132953B
:1019A00022952F7023273F702327AEE3BAE00E94D1
:1019B000B32720E931E0BC01629FC001639F900D15
:1019C000729F900D112448175907D9F09A01369546
:1019D000279536952795ABE7B4E10E94B3279695F6
:1019E000879564E6689F9001699F300D1124421726
:1019F000530749F04370552781E0452B29F080E0DB
:101A0000089581E0089580E00895CF93DF93CDB7E6
:101A1000DEB72D970FB6F894DEBF0FBECDBF9DE0A9
:101A2000E4E2F1E0DE01119601900D929A95E1F762
:101A3000823041F4CB010E94CD0C81110DC08CE1AC
:101A400090E00FC09FEF980F9C3048F4FE01E80F24
:101A5000F11D818190E005C08DE190E002C080E041
:101A600090E02D960FB6F894DEBF0FBECDBFDF918C
:101A7000CF910895AF92BF92CF92DF92EF92FF92F3
:101A80000F931F93CF93DF93CDB7DEB72D970FB68C
:101A9000F894DEBF0FBECDBF162F9DE0E1E3F1E06D
:101AA000DE01119601900D929A95E1F79FEF960F46
:101AB0009C3008F076C09FEF980F9F3108F074C0FB
:101AC0004115510509F473C005E2809F012D1124D1
:101AD000982F901B9695090F06950695902F990FB4
:101AE000990F990F901B082F091BFE01E60FF11D9E
:101AF000D1805A01B694A794B694A7949501ABE708
:101B0000B4E10E94B3279695879564E6689F90019B
:101B1000699F300D1124CA01821B930BFC01F695BD
:101B2000E795F695E795E80FF91F9F01A3E9B4E261
:101B30000E94B327281B390B369527957C01E20EAE
:101B4000F31EF694E794F694E794C701880F991F63
:101B5000880F991F880F991F8E199F097F01E81A16
:101B6000F90A9501ABE7B4E10E94B32796958795F2
:101B7000809590958370C82ECC0C133028F4CA0140
:101B80000E94CD0C81110A5F8D2D90E0800F911D78
:101B90008E0D911D8C0D911D67E070E00E945E27F7
:101BA00008C08FEF9FEF05C08FEF9FEF02C08FEF50
:101BB0009FEF2D960FB6F894DEBF0FBECDBFDF911D
:101BC000CF911F910F91FF90EF90DF90CF90BF903A
:101BD000AF900895EF92FF920F931F93CF939FEFD3
:101BE000960F9C3090F4082F10E0623088F07A0154
:101BF000C62FC150B7018C2F0E94050D080F191F69
:101C0000C130B9F7802F912F04C08FEF9FEF01C033
:101C1000912FCF911F910F91FF90EF900895EF9228
:101C2000FF920F931F93CF93DF937A010E94EA0DE7
:101C3000EC01A70161E081E00E943A0D8C0105975B
:101C400010F007501109C8018C0F9D1F82309105BB
:101C500050F4A701415051096CE070E08FE190E031
:101C60000E940F0E40C0FC0135969F01A3E9B4E22B
:101C70000E94B327E81BF90BF695E7959C012E0F00
:101C80003F1F369527953695279525333105D1F495
:101C9000C7010E94CD0C04301105B9F00D3F9FEF34
:101CA0001907B1F00330110529F4811114C081E046
:101CB00090E019C00C3F1F4F89F4882391F085E311
:101CC00090E011C0822F932F0EC085E390E00BC0EF
:101CD00085E390E008C085E390E005C081E090E0F6
:101CE00002C081E090E0DF91CF911F910F91FF90B2
:101CF000EF9008950F931F93CF93DF9310E000E0D0
:101D000016C0D1E0DC0F612F8D2F0E94480B482FA9
:101D1000612F8C2F0E94760BCD2FDF3191F7402F52
:101D2000612F8FE10E94760B1F5F183011F0C02FDA
:101D3000E8CFDF91CF911F910F9108950F931F93DB
:101D4000CF93DF9310E00FC06D2F8C2F0E94480BB4
:101D5000482F612F8C2F0E94760BCF5FC032A1F7E6
:101D6000D73029F01D2FC0E0D1E0D10FEDCFC0E07A
:101D700040E067E08C2F0E94760BCF5FC032C1F746
:101D8000DF91CF911F910F910895AF92BF92CF92A3
:101D9000DF92EF92FF920F931F93CF93DF9300D0C8
:101DA0001F92CDB7DEB78B835B0104E510E00F2EE9
:101DB000FCEFCF2EF0E0DF2EF02D42E050E0B80136
:101DC000CE0101960E94F627E980FA8041E050E0BA
:101DD000B701CE0103960E94E927892B39F447E029
:101DE00050E0B701C5010E94F62709C00E5F1F4FE2
:101DF0000C151D0511F7B5018FE30E94C50E0F905C
:101E00000F900F90DF91CF911F910F91FF90EF9066
:101E1000DF90CF90BF90AF900895CF93DF93CDB771
:101E2000DEB727970FB6F894DEBF0FBECDBF1A827C
:101E30001982FE01339695E0DF011D929A95E9F72C
:101E4000BE016F5F7F4F0E94C50E8A8127960FB635
:101E5000F894DEBF0FBECDBFDF91CF9108953F92C2
:101E60004F925F926F927F928F929F92AF92BF92AA
:101E7000CF92DF92EF92FF920F931F93CF93DF9356
:101E8000CDB7DEB729970FB6F894DEBF0FBECDBF32
:101E9000462EBE016F5F7F4F0E94C50E3A800F2E07
:101EA000F7E0AF2EB12CF02D512C88248394912C87
:101EB000CE01019699878887632C640CE42CF12C61
:101EC000E81AF90A23C0C701800F911F809794F484
:101ED000F801828190E08C219D21892B31F041E035
:101EE000652D872D0E94760B05C040E0652D872D5E
:101EF0000E94760B73940F5F1F4F7610E4CF5394BC
:101F0000F1E0AF1AB10888E0581671F03320B9F348
:101F100064010A2C02C0CC0CDD1C0A94E2F78E018D
:101F20000F5F1F4F742CCFCF10E0430C40E0612FA8
:101F3000842D0E94760B1F5F1830C1F729960FB6CB
:101F4000F894DEBF0FBECDBFDF91CF911F910F91EF
:101F5000FF90EF90DF90CF90BF90AF909F908F90C9
:101F60007F906F905F904F903F9008950F931F93D5
:101F7000CF93DF93C62F0E94A60B082F8C2F0E94B1
:101F8000A60B182FCDEC0C9FD12D1124D695D695EC
:101F9000D69561E080E38D0F0E942F0FDD0F8D2F0E
:101FA000880F880FD80F802F8D1B67E0805D0E94FF
:101FB0002F0F1C9FC12D1124C695C695C69563E1B0
:101FC00080E38C0F0E942F0FCC0F8C2F880F880F6F
:101FD000C80F812F8C1B69E1805D0E942F0FDF915C
:101FE000CF911F910F9108950F931F93CF93DF937C
:101FF000082F162FCDEC8C9FD12D1124D695D69578
:10200000D69561E080E38D0F0E942F0FDD0F8D2F9D
:10201000880F880FD80F802F8D1B67E0805D0E948E
:102020002F0F1C9FC12D1124C695C695C69563E13F
:1020300080E38C0F0E942F0FCC0F8C2F880F880FFE
:10204000C80F812F8C1B69E1805D0E942F0FDF91EB
:10205000CF911F910F910895EF92FF920F931F93CD
:10206000CF93DF937C01D62FFC0181918F010E94D9
:102070002F0FF70180810E940D0FC1E0C80FF701FB
:102080008181882381F06D2F6C0F0E942F0FF80142
:1020900081918F010E940D0F8C0FC1E0C80FF801D4
:1020A00080818111F0CFDF91CF911F910F91FF902F
:1020B000EF9008956FE08AE30E942F0F089520911A
:1020C000A1043091A2042039314018F40E94F40F89
:1020D00008958091A1049091A20481399140F0F07B
:1020E0008091A1049091A20480329340B8F44423DB
:1020F00019F0413051F0089561E080E60E942F0F01
:1021000067E080E60E942F0F089563E180E60E9459
:102110002F0F69E180E60E942F0F08958091A1049E
:102120009091A2048132934020F01092A204109268
:10213000A10408950F931F93CF93DF938C01809197
:10214000A1049091A2048039914020F4C8010E941A
:102150002C1030C08091A1049091A204813991404B
:10216000F0F08091A1049091A2048032934040F05D
:1021700016C06C2F80E60E942F0FDF5FCA5F02C07F
:10218000C62FD0E0F80101900020E9F73197E01B5D
:10219000F10B8D2F90E08E179F0758F30BC08091A5
:1021A000A1049091A2048132934020F01092A204E5
:1021B0001092A104DF91CF911F910F91089580E0BB
:1021C00090E0FC01E95BFB4F1082019680349105A1
:1021D000C1F708954F925F926F927F928F929F9274
:1021E000AF92BF92CF92DF92EF92FF920F931F9325
:1021F000CF93DF93EC01562E0E94DF10511004C0E4
:102200000F2EFAE55F2EF02D8881882309F4ABC0EC
:102210006E018FEFC81AD80A7E016894772475F88A
:1022200080E0C0E0D0E0612C0F2EF4E98F2EF4E0C6
:102230009F2EF02D44244394052D10E0F4011282CA
:102240009091A50491FF03C01092A504642C8823EB
:1022500009F473C0C0320CF46BC0C8010E94B20A0A
:102260000E947A0E1C1614F4D150C1506D2F872D88
:102270000E942F0FC0328CF75BC06D2F872D0E94FC
:102280002F0F872D0E940D0F8F5FC82FCD0FF501E7
:102290008081811106C0C0326CF1F1E06F120CC078
:1022A00051C08FEFC81AD80A9FEFE91AF90A842D96
:1022B000E1E06E12C3CF54C0FF24F394052D10E06B
:1022C0008091A50481FF03C01092A5046F2CC80162
:1022D0000E94B20A0E947A0E1C1614F4D150C1500A
:1022E0006D2F872D0E942F0FC03224F0F1E06F1266
:1022F000E7CF28C0052D10E0C8010E94B20A81E096
:10230000681227C007C00E947A0EC8010E94B20A54
:10231000C150C9F71092A4041092A30480919304B1
:102320008F7E8093930481E0611024C080E022C0FE
:10233000F70170805601DC2FA0CFF70170805601A5
:10234000DFE19BCF852D90E00E94B20A6624639462
:10235000E1CF0E947A0EC8010E94B20ACFE1D3CF2A
:10236000C03244F2EFCF052D10E0C8010E94B20A3E
:10237000612CEFCFDF91CF911F910F91FF90EF90E4
:10238000DF90CF90BF90AF909F908F907F906F9095
:102390005F904F90089564E18FE491E00E94EA100D
:1023A00098E088E10FB6F894A89581BD0FBE91BD65
:1023B000FFCF0F931F93CF93DF930E94DF1089E02D
:1023C00090E00E94F22A082FD0E6D80F8CB3182F85
:1023D000127081FDFBCFCD2F8091A50483FF0CC02F
:1023E0001092A5040E94DF10CF5FC03108F0C0E05A
:1023F00080EA8C0F0E94FE0A8091A50482FF0BC028
:102400001092A5040E94DF10C1500AF4CFE080EAC8
:102410008C0F0E94FE0A8091A50484FF21C01092B7
:10242000A5040E94DF10C0568C2F0E94FE0AC093A4
:10243000B2046C2F89E090E00E94002B6AE08CE5EA
:1024400091E00E94EA10E4E9F4E012821082118225
:102450001092A504809193048F7E8093930434C0DE
:102460008091A50481FD04C08091930484FF0EC077
:102470001092A504809193048F7E809393040E9410
:10248000DF10802F0E94FE0A11E01EC0CA3030F417
:1024900061E080E38C0F0E942F0F09C061E081E3AF
:1024A0000E942F0F67E086E28C0F0E942F0FCD1342
:1024B00006C06BE187EA0E942F0FCD2F8DCF6BE115
:1024C00085E20E942F0F88CF812FDF91CF911F913E
:1024D0000F910895CF93DF93CDB7DEB764970FB612
:1024E000F894DEBF0FBECDBF1A821982FE0133966B
:1024F00082E1DF011D928A95E9F78091A50484FDB0
:102500001BC087E0E4E7F1E0DE01119601900D9237
:102510008A95E1F70E94A706BC01CE0101960E94B0
:10252000FF2764E1CE0101960E94EA109091A50474
:1025300094FD02C0813029F70E94DF101092A5049B
:1025400080E064960FB6F894DEBF0FBECDBFDF917A
:10255000CF9108958F929F92AF92BF92CF92DF92C8
:10256000EF92FF920F931F93CF93DF93CDB7DEB718
:10257000C856D1400FB6F894DEBF0FBECDBF7C0168
:102580001A821982FE0133968CE591E0DF019C01ED
:102590001D9221503040E1F78CE0EBE7F1E08E0135
:1025A0000F5F1F4FD80101900D928A95E1F7FE0150
:1025B000E15AFE4F1192119288E0DF011D928A9537
:1025C000E9F7D8010D900020E9F7119789E0E7E8D5
:1025D000F1E001900D928A95E1F74AE0BE01615A5F
:1025E0007E4FF701818192810E940A28BC01C801B7
:1025F0000E94FF27F80101900020E9F731970F2E84
:10260000FDE2CF2ED12CF02DD182C0824AE0BE0156
:10261000615A7E4FD70113968D919C9114970E9419
:102620000A28BC01C8010E94FF27F8010190002080
:10263000E9F731970F2EF0E28F2EFCE79F2EF02D59
:10264000918280826894AA24A5F8B12CB382A282D8
:10265000D8010D900020E9F7119787E0E0E9F1E05B
:1026600001900D928A95E1F74AE0BE01615A7E4FD2
:10267000F701858196810E940A28BC01C8010E9449
:10268000FF27F80101900020E9F73197D182C0823D
:102690004AE0BE01615A7E4FD70117968D919C91F9
:1026A00018970E940A28BC01C8010E94FF27F80160
:1026B00001900020E9F7319791828082B382A28253
:1026C000D8010D900020E9F7119788E0E7E9F1E0E3
:1026D00001900D928A95E1F74AE0BE01615A7E4F62
:1026E000F701818592850E940A28BC01C8010E94D9
:1026F000FF27F80101900020E9F73197D182C082CD
:102700004AE0BE01615A7E4FD7011B968D919C9184
:102710001C970E940A28BC01C8010E94FF276DE295
:10272000C8010E94EA100E94DF10C859DE4F0FB6A0
:10273000F894DEBF0FBECDBFDF91CF911F910F91F7
:10274000FF90EF90DF90CF90BF90AF909F908F90D1
:102750000895BF92CF92DF92EF92FF920F931F9353
:10276000CF93DF93CDB7DEB7C254D1090FB6F8943B
:10277000DEBF0FBECDBF8C01C62EFE0133968AE3AD
:10278000DF011D928A95E9F7F8018481982F9295CF
:102790009F70905D99838F70805D8A839EE29B839A
:1027A0008381282F22952F70205D2C838F70805D70
:1027B0008D839E8382E38F8380E3888726813781A0
:1027C000A901529542954F7045275F704527405D9E
:1027D0004987822F8F70805D8A879B8780917600E2
:1027E000882319F0813079F01BC0DE011C960D9012
:1027F0000020E9F7119786E0EFE9F1E001900D92F2
:102800008A95E1F70DC0DE011C960D900020E9F7D6
:10281000119786E0E5EAF1E001900D928A95E1F7E3
:10282000D80115969C91933049F128F4992351F0E1
:102830009130B1F05AC09530E9F170F1963009F459
:1028400047C053C0DE0151960D900020E9F7119763
:1028500088E0EBEAF1E001900D928A95E1F745C03E
:10286000DE0151960D900020E9F7119787E0E3EB28
:10287000F1E001900D928A95E1F737C0DE015196A3
:102880000D900020E9F7119789E0EAEBF1E0019063
:102890000D928A95E1F729C0DE0151960D90002036
:1028A000E9F711978BE0E3ECF1E001900D928A9546
:1028B000E1F71BC0DE0151960D900020E9F711975A
:1028C00088E0EEECF1E001900D928A95E1F70DC001
:1028D000DE0151960D900020E9F7119788E0E6EDB2
:1028E000F1E001900D928A95E1F786E0E8EEF1E0E3
:1028F000DE01DD9601900D928A95E1F7FE01319699
:102900007F01DF010D900020E9F711978AE0EEEDDD
:10291000F1E001900D928A95E1F7822F0E94A60BBB
:10292000B82ED80113968C910E94A60BD82EF801D0
:1029300084810E94A60B4B2D50E06D2D70E090E03D
:102940000E940F0E4AE0BE01635C7F4F0E940A287E
:10295000BC01C7010E94FF276C2DC7010E94EA102D
:102960000E94DF10CE5BDF4F0FB6F894DEBF0FBEC4
:10297000CDBFDF91CF911F910F91FF90EF90DF902E
:10298000CF90BF900895FF920F931F93CF93DF9343
:10299000CDB7DEB7A3970FB6F894DEBF0FBECDBF9D
:1029A000F82E1A821982FE01339681E2DF011D9210
:1029B0008A95E9F7F89489E394E09F938F938DB714
:1029C0009EB74E970FB6F8949EBF0FBE8DBFADB7A2
:1029D000BEB711968EE1EFE1F4E001900D928A9579
:1029E000E1F70E94AC0378944091390450913A0485
:1029F00060913B0470913C040FB6F894DEBF0FBEAB
:102A0000CDBF14161506160617064CF488E1EEEE37
:102A1000F1E0DE01119601900D928A95E1F777239E
:102A2000C4F488E1E6E0F2E0DE01119601900D9237
:102A30008A95E1F770956095509541955F4F6F4F7E
:102A40007F4F4093390450933A0460933B04709352
:102A50003C046091390470913A0480913B04909158
:102A60003C042AE030E040E050E00E9494279F932D
:102A70008F937F936F935F934F933F932F938EE149
:102A800092E09F938F938E010F5F1F4F1F930F93C1
:102A90000E942F286F2DC8010E94EA100E94DF10AB
:102AA0000FB6F894DEBF0FBECDBFA3960FB6F89455
:102AB000DEBF0FBECDBFDF91CF911F910F91FF9071
:102AC0000895BF92CF92DF92EF92FF920F931F93E0
:102AD000CF93DF93CDB7DEB7A3970FB6F894DEBFE1
:102AE0000FBECDBFB82E1A821982FE01339681E245
:102AF000DF011D928A95E9F7F89463E08FE194E095
:102B00000E94890478940FE114E0F80166897789BE
:102B1000808D918D0E9455262AE037ED43E25CE3DB
:102B20000E94B9260E941D266B017C01D801569691
:102B30006D937D938D939C93599787E1EEE3F2E03B
:102B40008E010F5F1F4FD80101900D928A95E1F71A
:102B5000F80101900020E9F7BF01615071094AE0D6
:102B6000C6010E940A28D8010D900020E9F71197AC
:102B700085E0E5E5F2E001900D928A95E1F76B2D95
:102B8000C8010E94EA100E94DF10A3960FB6F894C5
:102B9000DEBF0FBECDBFDF91CF911F910F91FF9090
:102BA000EF90DF90CF90BF9008951F93CF93DF9366
:102BB000D82F162FCDEC8C9FC12D1124C695C6950C
:102BC000C69580E38C0F0E942F0F66E0610FCC0F3B
:102BD0008C2F880F880FC80F8D2F8C1B805D0E9453
:102BE0002F0FDF91CF911F910895CF93C62F209182
:102BF000A1043091A2042039314018F40E94D51567
:102C000022C08091A1049091A2048139914080F06A
:102C10008091A1049091A2048032934048F480E610
:102C20000E942F0F66E06C0F80E60E942F0F0BC0F2
:102C30008091A1049091A2048132934020F01092DF
:102C4000A2041092A104CF9108958F929F92AF9207
:102C5000BF92CF92DF92EF92FF920F931F93CF9389
:102C6000DF9300D000D000D0CDB7DEB7EEE6F0E0C5
:102C7000808189838FE18A8381818B838CE08C833F
:102C800082819381805D8D8383E68E831092A5047B
:102C90000F2EF5EFCF2EF3E0DF2EF02D8E010F5F1C
:102CA0001F4F5E0187E0A80EB11C912C88248394ED
:102CB00060E0D6018D919D916D010E942C109110C4
:102CC0003FC078018091A50483FF0FC01092A50436
:102CD000F80180818F5F9181981708F480E0D70117
:102CE0008C9365E10E94D51554C18091A50482FFA3
:102CF0000EC01092A504F8019181808181500AF4E0
:102D0000892FD7018C9365E10E94D51542C180912E
:102D1000A50484FF03C01092A50412C08091A504ED
:102D200081FD04C08091930484FF33C11092A504F7
:102D3000809193048F7E809393040E94DF10982CDF
:102D40000E94DF100E5F1F4FA016B10609F0B0CF32
:102D5000E0917600F0E0EE0FFF1FEF50FC4F60E0D7
:102D6000808191810E942C1091102DC10EE610E0FF
:102D7000FF24F3948091A50483FF19C01092A50449
:102D80000E94DF10F801808591E0980F90878111F3
:102D9000F086D8011896EC91F0E0EE0FFF1FEF508F
:102DA000FC4F60E0808191810E942C101DC08091B9
:102DB000A50482FF19C01092A5040E94DF10F8013B
:102DC00080859FEF980F9087811101C01086D801F0
:102DD0001896EC91F0E0EE0FFF1FEF50FC4F60E013
:102DE000808191810E942C108091A50481FD04C0F6
:102DF0008091930484FF0AC01092A50480919304EB
:102E00008F7E809393040E94DF10DDC08091A50423
:102E100084FF21C01092A50464E18AE592E00E943B
:102E2000EA100E94DF1060E08EE692E00E942C1013
:102E3000E0917500F0E0EE0FFF1FED51FC4F65E1F2
:102E4000808191810E942C100EE610E00F2EF6E09A
:102E5000FF2EF02D0EC0D8011896EC91F0E0EE0F89
:102E6000FF1FEF50FC4F60E0808191810E949A101B
:102E700081CF8091A50483FF1FC01092A5040E94FA
:102E8000DF10F80187818F5F873008F080E0D8017C
:102E900017968C9360E08EE692E00E942C10D80189
:102EA0001796EC91F0E0EE0FFF1FED51FC4F65E13E
:102EB000808191810E942C108091A50482FF1EC008
:102EC0001092A5040E94DF10F801878181500AF456
:102ED0008F2DD80117968C9360E08EE692E00E94C9
:102EE0002C10D8011796EC91F0E0EE0FFF1FED517A
:102EF000FC4F65E1808191810E942C108091A50496
:102F000084FF1FC01092A504109296040E94DF1047
:102F10000EE610E0F80167812D8130E02053384F34
:102F20004B8189810E94040CD80118966C9186E02F
:102F300090E00E94002B6AE083E792E00E94EA1092
:102F400054C08091A50481FD04C08091930484FF46
:102F50000AC01092A504809193048F7E80939304FD
:102F60000E94DF101CC0D8011796EC91F0E0EE0F24
:102F7000FF1FED51FC4F65E1808191810E949A1005
:102F80008091A50481FF75CF1092A5040E94DF10E7
:102F900006C065E1F80180810E94F51593CE0EE62A
:102FA00010E0D80117966C912D8130E02053384FF6
:102FB0004B8189810E94040CF801608586E090E0D5
:102FC0000E94002B12C060E08EE692E00E942C105E
:102FD000E0917500F0E0EE0FFF1FED51FC4F65E151
:102FE000808191810E942C10DACF1092A50480E09C
:102FF00026960FB6F894DEBF0FBECDBFDF91CF91FE
:103000001F910F91FF90EF90DF90CF90BF90AF9006
:103010009F908F900895CF93C82FF89483E00E94DB
:10302000FE0A88E00E94FE0A8C2F0E94FE0A789415
:10303000CF9108957F928F929F92AF92BF92CF923D
:10304000DF92EF92FF920F931F93CF93DF9387E866
:1030500094E00E946A0C9091A004809189049817D2
:1030600059F0E4E9F4E0938521E0290F23879530B6
:1030700018F0848791E095830E94A60BC82F809159
:1030800088040E94A60B90911A04891709F45AC06B
:1030900080931A04909119049F5F9B3018F49093C9
:1030A000190450C0109219041092180410921704B9
:1030B00049C09191C91334C09781891331C07B01F4
:1030C000022E02C0F594E7940A94E2F7E0FE28C0CD
:1030D0007801022E02C0EE0CFF1C0A94E2F7670191
:1030E000CA22DB22EC14FD0469F4B0931804A09307
:1030F0001704D093A8048091930450FB82F9809325
:1031000093043BC0DE2D75016401022E04C0CC0C7B
:10311000DD1CEE1CFF1C0A94D2F7AC29BD29572DEB
:103120002F5F3F4F2830310521F6B0931804A0934C
:103130001704D093A8048091930450FB82F98093E4
:1031400093041BC0E6EAF4E0618170E0D281A091B3
:103150001704B09118045091930452FB552750F96D
:10316000EDEBF4E020E030E001E010E0812C912C68
:1031700054018394772473949CCFDF91CF911F9156
:103180000F91FF90EF90DF90CF90BF90AF909F9006
:103190008F907F9008950F931F93CF93DF93CDB7B8
:1031A000DEB727970FB6F894DEBF0FBECDBF809174
:1031B000930482FFA9C01A821982FE01339685E02A
:1031C000DF011D928A95E9F78091A8048830C9F043
:1031D00038F4823091F0843091F08130E1F40BC00A
:1031E000803299F018F4803171F015C0803479F094
:1031F000803879F010C081E00FC082E00DC083E01C
:103200000BC084E009C085E007C086E005C087E008
:1032100003C088E001C080E01F928F9380E892E0B5
:103220009F938F938E010F5F1F4F1F930F930E94E9
:103230002F280E94DF1060E0C8010E942C1089E056
:103240000E94FE0A809198040F900F900F900F90AB
:103250000F900F90882309F44BC020E0E4E9F4E0DC
:103260008091930480FDC39ABFEF33ED40E3B150EA
:1032700030404040E1F700C00000C3988AE09498D5
:103280009091930490FDC39A9091930491FDC49AF8
:103290009FEFA0E7B2E09150A040B040E1F700C03E
:1032A0000000949AC398C4983FEF44E39CE03150E7
:1032B00040409040E1F700C000009A9B0AC09B9BF1
:1032C00008C09C9B06C09D9B04C09E9B02C0815071
:1032D000B1F69A9B0DC09B9B0BC09C9B09C09D9B0C
:1032E00007C09E9B05C02F5F8481281708F4B8CFC4
:1032F0000E94DF10809193048B7E8F7D80939304D6
:103300008091B2040E940B1827960FB6F894DEBF86
:103310000FBECDBFDF91CF911F910F9108951F93E5
:10332000CF93DF93C7E8D4E08A810E94A60B182FC1
:1033300089810E94A60B6CE390E0619F800D911D36
:103340001124EDEAF4E04585278530E0649F200DE7
:10335000311D11247485468550E0679F400D511D35
:1033600011242417350730F58417950708F449C050
:103370002817390720F08217930708F047C080917B
:10338000930485FD43C080EA0E940B18809193044A
:103390008062809393043AC08091930485FF36C085
:1033A0008091B2040E940B18809193048F7D8093CA
:1033B00093042CC04217530748F58417950780F0F3
:1033C0008217930780F48091930485FD1FC080EAE3
:1033D0000E940B188091930480628093930416C01E
:1033E0008217930798F08091930485FF0FC0809116
:1033F000B2040E940B18809193048F7D80939304F4
:1034000005C08217930708F4BACFC6CFDF91CF91DA
:103410001F910895F894E4E9F4E092858923928558
:103420009827928778940895F894E4E9F4E09185D8
:10343000892391859827918778940895E4E9F4E0A9
:10344000908583B38095282F292790911D0492237E
:10345000892F809580931D0490911C0492239827B6
:1034600090931C0482238923908598279087208538
:1034700092858223892B828780858C7721F481E352
:1034800080931B0411C080911B04815019F080931C
:103490001B040AC08FE080931B04E4E9F4E08085FC
:1034A00091858C77892B818784E00E940A1A882372
:1034B00059F08091A50481608093A504E4E9F4E0CB
:1034C000108A17861686158688E00E940A1A8823B5
:1034D00059F08091A50482608093A504E4E9F4E0AA
:1034E000108A17861686158680E10E940A1A88239C
:1034F00059F08091A50484608093A504E4E9F4E088
:10350000108A17861686158680E10E94141A882371
:1035100059F08091A50484608093A504E4E9F4E067
:10352000108A17861686158680E20E94141A882350
:1035300059F08091A50488608093A504E4E9F4E043
:10354000108A17861686158680E20E940A1A88233A
:1035500059F08091A50488608093A504E4E9F4E023
:10356000108A17861686158680E40E940A1A882318
:1035700059F08091A50480618093A504E4E9F4E00A
:10358000108A17861686158608959F92AF92BF926D
:10359000CF92DF92EF92FF920F931F93CF93DF931F
:1035A00000D0CDB7DEB78C01FC0180818983818199
:1035B0008A8382818083838181830E945A10F801EB
:1035C000618180810E94F40F8091930484FD54C036
:1035D0007801CE0101966C01912C4CC01092A5048B
:1035E000F70180818F5FF6019081981708F480E0E1
:1035F000F50180838091A50482FF0BC01092A50481
:10360000F6019081F701808181500AF4892FF5013C
:1036100080838091A50484FF07C01092A504939431
:10362000F2E09F121DC028C08091A50481FD04C056
:103630008091930484FF09C01092A50480919304A3
:103640008F7E8093930481E021C0492DF801618130
:1036500080810E945F108091A50483FDBFCFCACFF7
:10366000FFEFEF1AFF0A8FEFC81AD80A8091930470
:1036700084FD02C05701EFCF809193048F7E809329
:103680009304109296041092A50480E00F900F907E
:10369000DF91CF911F910F91FF90EF90DF90CF902E
:1036A000BF90AF909F9008951F93CF93DF9300D06A
:1036B00000D0CDB7DEB78BE389838A838EE090E0BC
:1036C0000E94F22A8B838FE090E00E94F22A8C8382
:1036D000CE0101960E94C51A81111DC069818EE03C
:1036E00090E00E94002BE199FECF6A818FE090E08C
:1036F0000E94002B8CB3182F127081FDFBCFEDEAD6
:10370000F4E0898182878A8183876AE088E892E091
:103710000E94EA1001C011E0812F0F900F900F90CE
:103720000F90DF91CF911F9108950F931F93CF9327
:10373000DF9300D000D0CDB7DEB787E894E00E94D9
:103740006A0C87E189838BE38A8307E814E0F80138
:1037500082810E94A60B8B83F80181810E94A60BB7
:103760008C83CE0101960E94C51A81110CC040E0E5
:103770006A8189810E94B10B6AE088E892E00E9428
:10378000EA1080E001C081E00F900F900F900F9041
:10379000DF91CF911F910F9108952F923F924F92F9
:1037A0005F926F927F928F929F92AF92BF92CF92D1
:1037B000DF92EF92FF920F931F93CF93DF93CDB7DA
:1037C000DEB729970FB6F894DEBF0FBECDBF2DB779
:1037D0003EB7398728870DEA14E0D80190968C917E
:1037E000EDB7FEB727E0829FE019F10911240FB66B
:1037F000F894FEBF0FBEEDBF8DB79EB701969F83B5
:103800008E834C0181E080933F0480933E0482E0EC
:103810000E94FE0A9498D80190968C91811149C01B
:1038200000E0B0C0F701118191130F5F8091420455
:10383000882341F080913F04882321F05092420474
:103840000E94090A9B991BC0FFEF21EE34E0F15062
:1038500020403040E1F700C00000832D90E0F401EB
:10386000A7E03A9EE00DF11D112460826182628220
:1038700063826482CC9696838583042DC5C1802F94
:1038800090E001970397CCF1832D90E0F401B7E02D
:103890003B9EE00DF11D1124608261826282638291
:1038A0006482CC9696838583022DAEC17394639413
:1038B0001FC00F2EF2E36F2EF02D7724739490E04B
:1038C0000F2EF7E8EF2EF4E0FF2EF02D512C0F2EE7
:1038D000FEE6CF2EF0E0DF2EF02D442443940F2E91
:1038E000FDEAAF2EF4E0BF2EF02D6894222421F8DB
:1038F00033243A94370C00E001C0912F80914104A9
:1039000081117CC18091930482FF8CCF83C1F60129
:103910008081F40127E0329EE00DF11D11248083A7
:10392000D60111968C911197818314968C911497DE
:10393000828317968C911797838318968C9118978A
:10394000848312962D913C91139736832583409260
:103950003F0440923E0450924104F50180A1781644
:1039600008F4A4CF00E00EC040923F0440923E0411
:1039700050924104D50190968C91781618F400234A
:1039800009F494CF8091930485FF04C080EA0E94DB
:103990000B1804C08091B2040E940B18B090CD04A3
:1039A000EDB7FEB7EB19F1090FB6F894FEBF0FBEE5
:1039B000EDBF6DB77EB76F5F7F4F6B01BB2009F422
:1039C0001AC14E815F81CB012FEF2B0D30E02F5FAD
:1039D0003F4F620F731FA12C0F2EFFE39F2EF02D80
:1039E000EEE6F0E00F2EFEE38F2EF02D9C01DC01C1
:1039F0009C92F0803A01DA011C91F11202C0DC01C4
:103A00008C92F180D30111961C91F11204C0D9015E
:103A10001C911D7F1C93F480D30112961C91F1120E
:103A200004C0D9011C911B7F1C93F780D30113960E
:103A30001C91F11204C0D9011C91177F1C93F084D2
:103A4000D30114961C91F11204C0D9011C911F7E60
:103A50001C93E280F380D30115966D907C901697AD
:103A6000E614F70421F4D9011C911F7D1C930196E3
:103A7000D9012C91211101C0A394495F5F4F861792
:103A8000970709F0B3CF10923E04AB1029C0809184
:103A90007500873011F4109275000F2EFEE6EF2EA0
:103AA000F0E0FF2EF02DF7014681658184810E94B0
:103AB000B10BD70112962D913C91139711964C9111
:103AC000119717966C9117978C910E94040CF7012F
:103AD000608586E090E00E94002BE199FECFA8C0AF
:103AE0008091930482FDA4C04DB65EB68B2D90E00C
:103AF0009C01220F331F220F331F820F931F8196C9
:103B00002DB73EB7281B390B0FB6F8943EBF0FBE3A
:103B10002DBF8DB79EB701963C017C011A82198298
:103B2000FE01339683E0DF011D928A95E9F787E174
:103B3000E7E9F2E0D30101900D928A95E1F7BE0129
:103B40006F5F7F4F802F0E94C006BC01C3010E949F
:103B5000FF27D3010D900020E9F7119788E0EEEAE6
:103B6000F2E001900D928A95E1F78091CD048823CF
:103B700021F110E06894AA24A5F8B12C0F2EFDEADB
:103B80008F2EF4E09F2EF02DF70101900020E9F731
:103B90003197B182A082F601E10FF11DBE016F5F86
:103BA0007F4F80810E94C006BC01C7010E94FF2791
:103BB0001F5FF40180A1181738F364E1C3010E946C
:103BC000EA10E9EAF4E0608171816F5F7F4F7183F1
:103BD000608380E090E00E94112B0FB6F8945EBEE7
:103BE0000FBE4DBE25C081E080933F0480933E040C
:103BF00010924104C7CE10923E0449CF80919304A5
:103C000082FF85CE052DB0CE8091930482FFEBCF4D
:103C1000912FAACE40923F0440923E04509241041C
:103C2000D50190968C91781608F440CE00E0AACE8B
:103C3000E7E7F0E014821382128211821086178265
:103C40001682158214861386128611861092A50498
:103C5000E4E9F4E011821082809193048F7D8093D7
:103C60009304949A802FE885F9850FB6F894FEBFE7
:103C70000FBEEDBF29960FB6F894DEBF0FBECDBFC5
:103C8000DF91CF911F910F91FF90EF90DF90CF9038
:103C9000BF90AF909F908F907F906F905F904F906C
:103CA0003F902F900895E199FECF84E090E00E942C
:103CB000F22A813261F485E090E00E94F22A883095
:103CC00031F48091930480648093930408958091EB
:103CD00093048F7B80939304E199FECF6FEA89E090
:103CE00090E00E94172BE199FECF61E08AE090E01E
:103CF0000E94172BE199FECF61E08BE090E00E94DB
:103D0000172BE199FECF60E087E090E00E94172B2F
:103D1000E199FECF64E180E190E00E94172BE199E8
:103D2000FECF60E082E190E00E94172BE199FECF88
:103D30006CE081E190E00E94172BE199FECF60E0FA
:103D400083E190E00E94172BE199FECF63E08CE0C5
:103D500090E00E94172BE199FECF60E08DE090E0AB
:103D60000E94172BE199FECF60E086E090E00E9470
:103D7000172BE199FECF65E08EE090E00E94172BB3
:103D8000E199FECF60E08FE090E00E94172BE1996F
:103D9000FECF63E088E090E00E94172BE199FECF10
:103DA00060E070E080E090E00E94112BE199FECF8E
:103DB00062E084E290E00E94172BE199FECF69E077
:103DC00084E190E00E94172BE199FECF6FE08CE137
:103DD00090E00E94172BE199FECF69E085E190E029
:103DE0000E94172BE199FECF63E28DE190E00E94E3
:103DF000172BE199FECF6CE086E190E00E94172B33
:103E0000E199FECF63E28EE190E00E94172BE199E9
:103E1000FECF6DE087E190E00E94172BE199FECF85
:103E200060E08FE190E00E94172BE199FECF61E204
:103E300084E090E00E94172BE199FECF68E085E0D6
:103E400090E00E94172BE199FECF0895EF92FF9228
:103E50000F931F93CF93DF932FEF89E698E12150C3
:103E600080409040E1F700C000000E94531E89E0AE
:103E700090E00E94F22A8093B204E199FECF8AE09A
:103E800090E00E94F22A9091930480FB91F9909324
:103E90009304E199FECF8BE090E00E94F22A90918A
:103EA000930480FB90F990939304E199FECF87E00F
:103EB00090E00E94F22A8093A704E199FECF80E16E
:103EC00090E00E94F22A8093B904E199FECF82E14A
:103ED00090E00E94F22A8093BB04E199FECF81E139
:103EE00090E00E94F22A8093BA04E199FECF83E128
:103EF00090E00E94F22A8093BC04E199FECF8CE00E
:103F000090E00E94F22A8093B504E199FECF8DE003
:103F100090E00E94F22A8093B604E199FECF86E0F9
:103F200090E00E94F22A80937600E199FECF8FE024
:103F300090E00E94F22A8093B804E199FECF8EE0CF
:103F400090E00E94F22A8093B704E199FECF88E0C6
:103F500090E00E94F22A80939804E199FECF80E0DD
:103F600090E00E94FA2A9093AA048093A904E19910
:103F7000FECF82E090E00E94FA2A9093AC048093F6
:103F8000AB04E199FECF84E290E00E94F22A809394
:103F9000CD04E199FECFC4E1D0E00DEB14E00F2E8B
:103FA000FCE1EF2EF0E0FF2EF02DCE010E94F22A70
:103FB000F80181938F01E199FECFCE0108960E940E
:103FC000F22AF8018783E199FECF2196CE15DF050D
:103FD00061F7DF91CF911F910F91FF90EF900895BE
:103FE000DF92EF92FF920F931F93CF93DF938C0199
:103FF0007B01D0901E048091930488608093930489
:104000000E94DF1081E0E81AF10890919304947106
:1040100069F01092A4041092A304809193048F7EFF
:10402000809393040E94DF108FEF4FC08091A5040E
:1040300083FF0BC01092A5040E94DF108D2D90E02D
:104040008E159F05C0F4D39416C08091A50482FFFD
:1040500008C01092A5040E94DF10DD2061F0DA9400
:104060000AC08091A50481FF06C01092A5040E9499
:10407000DF108FEF2AC02D2D30E0E901CC0FDD1FBE
:10408000CC0FDD1F2C0F3D1FE801C20FD31F60E0D6
:10409000888199810E942C108091A50484FFB5CF5E
:1040A0001092A5040E94DF1010921E04EA81FB8189
:1040B000309721F009958C8180931E040E94DF10B7
:1040C0001092A4041092A3048D2DDF91CF911F9123
:1040D0000F91FF90EF90DF900895AF92BF92CF9233
:1040E000DF92EF92FF920F931F93CF93DF9300D055
:1040F00000D0CDB7DEB763E070E087EA90E00E94C1
:10410000F01F8F3F09F443C097E199839BE39A83A3
:10411000082F10E068018CE0C80ED11CC6018C5F2E
:104120009F4F5C010E94F22A8B8378019EE0E90E8A
:10413000F11C87010C5F1F4FC8010E94F22A8C837B
:10414000CE0101960E94C51A811123C06981C50163
:104150000E94002BE199FECF6A81C8010E94002BCA
:104160009CB3192F127091FDFBCFF601E355FB4F65
:1041700089818083F701E355FB4F8A8180830E9408
:10418000DF106AE088E892E00E94EA1003C01FEFA7
:1041900001C0182F812F0F900F900F900F90DF917B
:1041A000CF911F910F91FF90EF90DF90CF90BF9034
:1041B000AF900895CF93DF930E94DF108AE090E0E4
:1041C0000E94F22A81709091930480FB91F9909360
:1041D00093048823A9F0CDE9D0E0A881B98186E0D5
:1041E000E6EBF2E001900D928A95E1F7AD81BE8198
:1041F00086E0ECEBF2E001900D928A95E1F714C0B5
:10420000CDE9D0E0A881B98186E0E2ECF2E001904E
:104210000D928A95E1F7AD81BE8186E0E8ECF2E08F
:1042200001900D928A95E1F762E070E08DE990E0EF
:104230000E94F01F8F3FF9F0882319F0813039F088
:104240000BC08091930482608093930405C0809199
:1042500093048D7F809393046091930466956170BD
:104260008AE090E00E94002B6AE088E892E00E94D9
:10427000EA1080E001C08FEFDF91CF910895CF93D6
:10428000DF930E94DF108BE090E00E94F22A8170A1
:104290009091930480FB90F9909393048823A9F064
:1042A000CDE9D0E0A881B98186E0E6EBF2E00190AB
:1042B0000D928A95E1F7AD81BE8186E0ECEBF2E0EC
:1042C00001900D928A95E1F714C0CDE9D0E0A88164
:1042D000B98186E0E2ECF2E001900D928A95E1F777
:1042E000AD81BE8186E0E8ECF2E001900D928A9506
:1042F000E1F762E070E08DE990E00E94F01F8F3FEF
:10430000F1F0882319F0813039F00BC080919304CB
:1043100081608093930405C0809193048E7F809385
:1043200093046091930461708BE090E00E94002BF5
:104330006AE088E892E00E94EA1080E001C08FEF16
:10434000DF91CF9108951F93CF93DF9300D000D0DA
:10435000CDB7DEB787E189838BE38A838CE090E079
:104360000E94F22A8B838DE090E00E94F22A8C83D7
:10437000CE0101960E94C51A811122C08A81811145
:1043800002C081E08A8369818CE090E00E94002B6A
:10439000E199FECF6A818DE090E00E94002B8CB302
:1043A000182F127081FDFBCFEDEAF4E08981808740
:1043B0008A8181876AE088E892E00E94EA1001C061
:1043C00011E0812F0F900F900F900F90DF91CF9100
:1043D0001F9108951F93CF93DF930E94DF1088E011
:1043E00090E00E94F22A8093980460E08EEC92E0C4
:1043F0000E942C10C4E9D4E013E68091A50483FF49
:104400000DC01092A5048C818F5F843608F080E087
:104410008C838C8165E10E94D5153BC08091A504F9
:1044200082FF0CC01092A5048C8181500AF4812F68
:104430008C838C8165E10E94D5152BC08091A504E9
:1044400084FF14C01092A504809193048F7E809302
:1044500093046091980488E090E00E94002B6AE049
:1044600088E892E00E94EA1080E018C08091A504DC
:1044700081FD04C08091930484FF0BC01092A504B9
:10448000809193048F7E809393040E94DF1081E0DB
:1044900005C08C8165E10E94F515AFCFDF91CF910A
:1044A0001F9108958F929F92AF92BF92CF92DF9209
:1044B000EF92FF921F93CF93DF9300D000D0CDB740
:1044C000DEB76AE070E086EB90E00E94F01F182FE4
:1044D0008F3F09F4B3C0893009F4B2C00E94DF10E5
:1044E00087E189838BE38A83E12EF12C670180E1E8
:1044F000C80ED11CF601EC5FFF4F5F01CF010E9497
:10450000F22A8B83F8E1EF0EF11CC7018C5F9F4FFD
:104510004C010E94F22A8C83183021F40E94EA2177
:1045200080E091C0CE0101960E94C51A81118BC016
:104530008091A70490E0012E02C0959587950A947A
:10454000E2F780FF17C08DE990E0FC01A081B18106
:1045500026E0E6EBF2E001900D922A95E1F7FC01EE
:10456000A581B68186E0ECEBF2E001900D928A9590
:10457000E1F716C08DE990E0FC01A081B18126E051
:10458000E2ECF2E001900D922A95E1F7FC01A581A1
:10459000B68186E0E8ECF2E001900D928A95E1F7B1
:1045A00062E070E08DE990E00E94F01F813099F0A8
:1045B00020F08F3F09F446C01CC0E6EAF4E081E039
:1045C00090E0012E02C0880F991F0A94E2F79181B2
:1045D000892B81830EC0E6EAF4E081E090E0012EB1
:1045E00002C0880F991F0A94E2F780959181892370
:1045F00081836981C5010E94002BE199FECF6A8108
:10460000C4010E94002BE199FECF6091A70487E0CE
:1046100090E00E94002BE199FECFD601A355BB4F3D
:1046200089818C93F701E355FB4F8A8180836AE08F
:1046300088E892E00E94EA10812F05C08FEF03C046
:1046400089E001C08FEF0F900F900F900F90DF91D6
:10465000CF911F91FF90EF90DF90CF90BF90AF90E0
:104660009F908F9008951F93CF93DF930E94DF1048
:1046700084E290E00E94F22A8093CD0460E08EEC08
:1046800092E00E942C10CDEAD4E01AE08091A504BB
:1046900083FF0CC01092A50488A18F5F8B3008F0B7
:1046A00080E088A365E10E94D5153AC08091A504F9
:1046B00082FF0BC01092A50488A181500AF4812FBB
:1046C00088A365E10E94D5152BC08091A50484FFC5
:1046D00014C01092A504809193048F7E809393045C
:1046E0006091CD0484E290E00E94002B6AE088E8AB
:1046F00092E00E94EA1080E018C08091A50481FD3C
:1047000004C08091930484FF0BC01092A504809193
:1047100093048F7E809393040E94DF1081E005C094
:1047200065E188A10E94F515B1CFDF91CF911F916E
:104730000895EF92FF920F931F93CF93DF93CDB71E
:10474000DEB761970FB6F894DEBF0FBECDBF65E050
:1047500070E084E890E00E94F01F8F3F09F479C078
:104760008230A9F028F4882351F0813061F005C02F
:10477000833089F08F3F09F46EC080E06DC00E94E5
:10478000CD1B80E069C00E94A32180E065C00E942B
:10479000332380E061C01A821982FE0133968FE0D4
:1047A000DF011D928A95E9F70F2EF9EAEF2EF4E06A
:1047B000FF2EF02D4AE08E010F5F1F4FB801F70169
:1047C000828193810E940A28D8010D900020E9F788
:1047D000119789E0E2EDF2E001900D928A95E1F700
:1047E0006EE1C8010E94EA104AE0B801D7018D913C
:1047F0009C910E940A28D8010D900020E9F711979A
:104800008BE0EBEDF2E001900D928A95E1F76EE11D
:10481000C8010E94EA109A991AC0F7011382128205
:104820001182108260E070E080E090E00E94242B12
:10483000E199FECF60E070E082E090E00E94242BDE
:10484000E199FECF64E186EE92E00E94EA1080E0FA
:1048500003C08FEF01C08FEF61960FB6F894DEBFF3
:104860000FBECDBFDF91CF911F910F91FF90EF90C1
:10487000089581B3826F81BBA09A87B3886187BB9B
:1048800085B38C6785BBC29A959A83B78D6083BFC9
:1048900089B7826889BF8BE98CBF85B58C6085BD7F
:1048A00089EF83BD78940E94261F0E94C9010E944F
:1048B000A20687E894E00E946A0C809189048093A4
:1048C000A0048091B2040E94120B6AE082EF92E091
:1048D0000E94EA100E94A70664E10E94EA100E946A
:1048E000DF108091930486FD2CC064E184E093E0A6
:1048F0000E94EA10C0E06C2F8CE70E942F0F2FEF70
:1049000082E597E0215080409040E1F700C0000030
:10491000CF5FC03281F76C2F80E20E942F0FEFEF44
:10492000F0E722E0E150F0402040E1F700C0000055
:10493000C15089F70E94DF108091930480648093B6
:10494000930410923F04109241041092A504949A8B
:10495000D12CC4E9D4E00F2EFDEAEF2EF4E0FF2EB7
:10496000F02D03C0D82E01C0D82E0E94CB180E9473
:104970008F198091A50481FF09C01092A50487E7D3
:1049800090E00E94AA121092A5043EC08091A50456
:1049900082FF0AC01092A50464E187E894E00E94B7
:1049A000A9131092A50430C08091A50483FF08C00C
:1049B0001092A50484E10E94C3141092A50424C09F
:1049C0008091A50484FF08C01092A50484E10E9490
:1049D00061151092A50418C08091A50480FF14C031
:1049E0001092A5048091930482FD0CC06CE070E0ED
:1049F00088EE90E00E94F01F8F3F21F08091930499
:104A000082FFF4CF1092A5040E945A1007E814E028
:104A1000F801618182810E94B60FF80180818F8345
:104A20009F818E81981791F08F818E838A818B333D
:104A300020F48A818F5F8A8309C01A828B818B332D
:104A400020F48B818F5F8B8301C01B829A81F701D9
:104A50008385981728F19B818285981708F118E0C3
:104A60001B821A821092A5040E949E0EFFEF21EE77
:104A700084E0F15020408040E1F700C00000115078
:104A800079F764E187E894E00E94A91384E10E9429
:104A9000C31484E10E94611587E790E00E94AA1286
:104AA0009981F7018085981748F09881818598173A
:104AB00028F00E94CD1B8091880456CF80918804F5
:104AC000D81609F451CF98819B3320F498819F5FC9
:104AD000988348CF188299819F5F998343CF1F9213
:104AE0000F920FB60F9211242F933F934F935F9322
:104AF0006F937F938F939F93AF93BF93EF93FF93A6
:104B0000809116048F5F80931604883220F00E94F3
:104B10001A181092160480913E04811119C0E4E91C
:104B2000F4E0878590899C012F5F3F4F308B27876A
:104B3000843F914048F01092A4041092A304809105
:104B400093048061809393040E94E00A0E941E1ADD
:104B500080919904882309F43FC0809114049091B6
:104B60001504019690931504809314048091930486
:104B700081FDC49A80913E04811101C09498809176
:104B8000140490911504059730F0C49880913E0468
:104B9000811101C0949A8091140490911504499751
:104BA00048F08091930481FDC49A80913E04811164
:104BB00001C0949880911404909115044E9760F070
:104BC000109299041092150410921404C4988091C4
:104BD0003E04811101C0949AFF91EF91BF91AF9172
:104BE0009F918F917F916F915F914F913F912F9105
:104BF0000F900FBE0F901F9018951F920F920FB637
:104C00000F9211248F939F93EF93FF9380913E0413
:104C1000882319F081E080934204E4E9F4E085857B
:104C20009685019696878587FF91EF919F918F9149
:104C30000F900FBE0F901F9018950E942426689425
:104C4000B1110C94B32608950E94982688F09F57BE
:104C500098F0B92F9927B751B0F0E1F0660F771FA0
:104C6000881F991F1AF0BA95C9F714C0B13091F096
:104C70000E94B226B1E008950C94B226672F782FD7
:104C80008827B85F39F0B93FCCF38695779567955B
:104C9000B395D9F73EF490958095709561957F4FC7
:104CA0008F4F9F4F0895E89409C097FB3EF490956D
:104CB0008095709561957F4F8F4F9F4F9923A9F0F5
:104CC000F92F96E9BB279395F69587957795679584
:104CD000B795F111F8CFFAF4BB0F11F460FF1BC0C8
:104CE0006F5F7F4F8F4F9F4F16C0882311F096E95B
:104CF00011C0772321F09EE8872F762F05C0662309
:104D000071F096E8862F70E060E02AF09A95660FC1
:104D1000771F881FDAF7880F9695879597F908957A
:104D200057FD9058440F551F59F05F3F71F047955C
:104D3000880F97FB991F61F09F3F79F08795089541
:104D4000121613061406551FF2CF4695F1DF08C060
:104D5000161617061806991FF1CF8695710561057D
:104D600008940895E894BB2766277727CB0197F925
:104D700008950E94CC260C943D270E942F2738F0DE
:104D80000E94362720F0952311F00C9426270C94CE
:104D90002C2711240C94B3260E94902670F3959F23
:104DA000C1F3950F50E0551F629FF001729FBB2722
:104DB000F00DB11D639FAA27F00DB11DAA1F649FBE
:104DC0006627B00DA11D661F829F2227B00DA11D71
:104DD000621F739FB00DA11D621F839FA00D611DF7
:104DE000221F749F3327A00D611D231F849F600D18
:104DF000211D822F762F6A2F11249F5750409AF041
:104E0000F1F088234AF0EE0FFF1FBB1F661F771FCC
:104E1000881F91505040A9F79E3F510580F00C9497
:104E200026270C94B3265F3FE4F3983ED4F386958F
:104E300077956795B795F795E7959F5FC1F7FE2B37
:104E4000880F911D9695879597F9089597F99F6713
:104E500080E870E060E008959FEF80EC0895002402
:104E60000A941616170618060906089500240A94CF
:104E700012161306140605060895092E0394000C55
:104E800011F4882352F0BB0F40F4BF2B11F460FFE4
:104E900004C06F5F7F4F8F4F9F4F0895DB018F934B
:104EA0009F930E94C227BF91AF91A29F800D911D39
:104EB000A39F900DB29F900D1124089597FB072E8C
:104EC00016F4009407D077FD09D00E94D52707FC7F
:104ED00005D03EF4909581959F4F0895709561950A
:104EE0007F4F0895A1E21A2EAA1BBB1BFD010DC026
:104EF000AA1FBB1FEE1FFF1FA217B307E407F5078A
:104F000020F0A21BB30BE40BF50B661F771F881F65
:104F1000991F1A9469F760957095809590959B01FB
:104F2000AC01BD01CF010895052E97FB1EF400943E
:104F30000E94AB2757FD07D00E94722707FC03D0C1
:104F40004EF40C94AB2750954095309521953F4FEA
:104F50004F4F5F4F089590958095709561957F4F65
:104F60008F4F9F4F0895A29FB001B39FC001A39F91
:104F7000700D811D1124911DB29F700D811D112492
:104F8000911D08950E94B327A59F900DB49F900D89
:104F9000A49F800D911D11240895B7FF0C94C22782
:104FA0000E94C227821B930B0895AA1BBB1B51E1D1
:104FB00007C0AA1FBB1FA617B70710F0A61BB70B89
:104FC000881F991F5A95A9F780959095BC01CD012E
:104FD0000895FB01DC0104C08D910590801921F436
:104FE00041505040C8F7881B990B0895FB01DC0124
:104FF00002C005900D9241505040D8F70895FB0132
:10500000DC010D900020E9F7119701900D9200202E
:10501000E1F70895BB274A3031F4992322F4BDE229
:10502000909581959F4F0C941628BB27FB0155271F
:10503000AA27880F991FAA1FA41710F0A41B8395F5
:105040005051B9F7A05DAA3308F0A95DA19300976C
:1050500079F7B111B1931192CB010C94482AAEE0CB
:10506000B0E0E5E3F8E20C94472B0D891E8986E059
:105070008C831A8309838FEF9FE79E838D83AE0114
:10508000475E5F4F6F89788DCE0101960E9451284F
:10509000EF81F885E00FF11F10822E96E4E00C946A
:1050A000632BABE0B0E0E7E5F8E20C94392B6C0140
:1050B0007B018A01FC0117821682838181FFCCC1AA
:1050C000CE0101963C01F6019381F70193FD859194
:1050D00093FF81917F01882309F4BAC1853239F4A5
:1050E00093FD859193FF81917F01853229F4B6016B
:1050F00090E00E94582AE7CF912C212C312CFFE11F
:10510000F315D8F08B3279F038F4803279F08332AD
:10511000A1F4232D20611DC08D3261F0803369F42C
:10512000232D216016C0832D8260382EE32DE4608C
:105130003E2E2AC0F32DF8601DC037FC2DC020ED97
:10514000280F2A3040F08E32B9F436FC81C1232D6D
:105150002064322E19C036FE06C08AE0989E200DCB
:105160001124922E11C0EAE02E9E200D1124222E31
:10517000F32DF0623F2E08C08C3621F4832D806819
:10518000382E02C0883641F4F70193FD859193FFD4
:1051900081917F018111B3CF982F9F7D95549330DA
:1051A00028F40C5F1F4F9FE399830DC0833631F0C5
:1051B000833771F0833509F059C021C0F80180812F
:1051C00089830E5F1F4F88248394912C530113C051
:1051D0002801F2E04F0E511CF801A080B18036FE8C
:1051E00003C0692D70E002C06FEF7FEFC5010E9420
:1051F0003D2A4C018201F32DFF773F2E16C0280176
:1052000022E0420E511CF801A080B18036FE03C09E
:10521000692D70E002C06FEF7FEFC5010E94322A56
:105220004C01F32DF0683F2E820133FC1BC0822D10
:1052300090E088169906B0F4B60180E290E00E94F2
:10524000582A2A94F4CFF50137FC859137FE8191D5
:105250005F01B60190E00E94582A21102A9421E0B3
:10526000821A91088114910471F7E8C0843611F014
:10527000893641F5F80137FE07C06081718182816E
:1052800093810C5F1F4F08C060817181072E000C55
:10529000880B990B0E5F1F4FF32DFF763F2E97FF64
:1052A00009C090958095709561957F4F8F4F9F4F66
:1052B000F0683F2E2AE030E0A3010E94942A882E55
:1052C000861845C0853731F4232D2F7EB22E2AE073
:1052D00030E025C0932D997FB92E8F36C1F018F498
:1052E000883579F0B5C0803719F0883721F0B0C023
:1052F000E92FE061BE2EB4FE0DC0FB2DF460BF2E81
:1053000009C034FE0AC0292F2660B22E06C028E04C
:1053100030E005C020E130E002C020E132E0F801D9
:10532000B7FE07C060817181828193810C5F1F4F3E
:1053300006C06081718180E090E00E5F1F4FA30185
:105340000E94942A882E8618FB2DFF773F2E36FE6A
:105350000DC0232D2E7FA22E891458F434FE0BC0CD
:1053600032FC09C0832D8E7EA82E05C0B82CA32C3C
:1053700003C0B82C01C0B92CA4FE0FC0FE01E80D7B
:10538000F11D8081803321F49A2D997EA92E09C0C8
:10539000A2FE06C0B394B39404C08A2D867809F0A7
:1053A000B394A3FC11C0A0FE06C0B21488F4280C6C
:1053B000922C9B180EC0B21460F4B60180E290E00B
:1053C0000E94582AB394F7CFB21418F42B1802C0D5
:1053D000982C212CA4FE10C0B60180E390E00E941E
:1053E000582AA2FE17C0A1FC03C088E790E002C0C3
:1053F00088E590E0B6010CC08A2D867859F0A1FEB0
:1054000002C08BE201C080E2A7FC8DE2B60190E011
:105410000E94582A891438F4B60180E390E00E9473
:10542000582A9A94F7CF8A94F301E80DF11D8081F0
:10543000B60190E00E94582A8110F5CF222009F48D
:1054400042CEB60180E290E00E94582A2A94F6CF1C
:10545000F6018681978102C08FEF9FEF2B96E2E1E4
:105460000C94552BFC010590615070400110D8F749
:10547000809590958E0F9F1F0895FC01615070409C
:1054800001900110D8F7809590958E0F9F1F089579
:10549000DC01FC01672F71917723E1F7329704C09B
:1054A0007C916D9370836291AE17BF07C8F3089526
:1054B0000F931F93CF93DF93FB01238121FD03C043
:1054C0008FEF9FEF2CC022FF16C0468157812481A9
:1054D00035814217530744F4A081B1819D012F5FAC
:1054E0003F4F318320838C93268137812F5F3F4F3D
:1054F0003783268314C08B01EC01FB010084F18506
:10550000E02D0995892BE1F6D80116968D919C9195
:105510001797019617969C938E931697CE01DF915D
:10552000CF911F910F910895FA01AA27283051F1C8
:10553000203181F1E8946F936E7F6E5F7F4F8F4FC4
:105540009F4FAF4FB1E03ED0B4E03CD0670F781F23
:10555000891F9A1FA11D680F791F8A1F911DA11D08
:105560006A0F711D811D911DA11D20D009F4689441
:105570003F912AE0269F11243019305D3193DEF6E9
:10558000CF010895462F4770405D4193B3E00FD09F
:10559000C9F7F6CF462F4F70405D4A3318F0495D8A
:1055A00031FD4052419302D0A9F7EACFB4E0A6956D
:1055B0009795879577956795BA95C9F7009761058F
:1055C000710508959B01AC010A2E069457954795E5
:1055D00037952795BA95C9F7620F731F841F951FDA
:1055E000A01D0895E199FECF9FBB8EBBE09A99273D
:1055F0008DB30895A8E1B0E042E050E00C942B2B6D
:10560000262FE199FECF9FBB8EBBE09A01970DB28A
:10561000021631F02DBB0FB6F894E29AE19A0FBE54
:1056200008950196272F0E94012B0C94002B262F02
:10563000E199FECF9FBB8EBB2DBB0FB6F894E29ACB
:10564000E19A0FBE019608950E94172B272F0C9404
:10565000182BDC01CB01FC01E199FECF06C0FFBB9A
:10566000EEBBE09A31960DB20D9241505040B8F722
:1056700008952F923F924F925F926F927F928F92F6
:105680009F92AF92BF92CF92DF92EF92FF920F93D1
:105690001F93CF93DF93CDB7DEB7CA1BDB0B0FB6DB
:1056A000F894DEBF0FBECDBF09942A883988488898
:1056B0005F846E847D848C849B84AA84B984C8842E
:1056C000DF80EE80FD800C811B81AA81B981CE0F25
:1056D000D11D0FB6F894DEBF0FBECDBFED0108950A
:0456E000F894FFCF6C
:1056E4003030303030303030303030303030010114
:1056F400DE070C0500000000FFFF0000FFFF0000B4
:10570400FFFF0000500300000055030000015B038D
:10571400000002600300000366030000FF6B030047
:105724000000720300000179030000007D03000003
:105734000166030000FF82030000008603000001ED
:105744008A030000028E0300000392030000049603
:10575400030000059A030000069E03000007A2034D
:1057640000000866030000FF5603951B00A80325EC
:105774001601AD03522202B403DA2003BA033F2117
:1057840004C003D91105C6036D2006CC03541B07BE
:10579400D103992308D7036A1209DD03CB110A66E2
:1057A400030000FF001F1C1F1E1F1E1F1F1E1F1EA5
:1057B4001F0000030306010406020500030530313F
:1057C4003233343536373839414243444546005242
:1057D40065626F6F74206E6F772E2E0048656C6C57
:1057E40069676B656974206765737065696368656B
:1057F400727421005665722E3A2000202B2B4445EA
:105804004255472B2B20003C53746172743E200098
:105814003C4C6F773E20003C486967683E20004D51
:10582400455A2020004D45535A2000536F6E6E7424
:105834006167004D6F6E746167004D697474776FB2
:10584400636800446F6E6E657273746167004672BC
:1058540065697461670053616D737461670020202A
:105864002020204B573A20002D2D2D2D2D00416B4B
:105874007475656C6C652054656D706572617475C2
:1058840072203A202B00416B7475656C6C65205452
:10589400656D70657261747572203A202D00416BDC
:1058A4007475656C6C652054656D70657261747592
:1058B400723A20256C642E256C6420B04300416B41
:1058C4007475656C6C6572204C756674647275636E
:1058D4006B203A20002068506100456E7465722088
:1058E4003E204E616D65206F6620446179007744E7
:1058F4002E3A0047657370656963686572742100A8
:10590400412E3A20256421004765737065696368F8
:105914006572742E2E210053796E632E20457272A7
:105924006F72202D2053746174652E3A2000204339
:105934006D702E3A20004F6E2020A7004F6666201F
:1059440025004F6E202025004F666620A7006E2E8E
:105954003A00202D205258204F6B00202D20525801
:10596400204572722E0047656C6F65736368742EF0
:105974002E00537461727420537570657220436CE9
:105984006F6B6B0044656661756C74205765727447
:10599400652077657264656E2067656C6164656E09
:1059A4002E2E00536F004D6F004469004D69004472
:1059B4006F004672005361004D657A004D65737A3D
:1059C4000064642E3A006D6D2E3A0079792E3A0007
:1059D4002D476F21002D54696D65002D6E525800BE
:1059E4002D4572722E0045786974004F6E20202078
:1059F40020004F6666202020002D4F6E002D4F663C
:105A040066002D4131002D4132002D4133002D41DE
:105A140034002D4135002D4136002D4137002D41F4
:105A240038004379636C2E004461746500416C61F5
:105A3400726D2E00536F756E6400566962722E008B
:105A4400427269672E0044696D6D2E00446973705B
:105A54000053796E633F00496E666F2E0052657382
:105A64006574002303260329032C032F0332033513
:0C5A74000338033C03410346034B0300CE
:00000001FF
