S013000053757065725F436C6F6B6B2E73726563AF
S11300000C94A5010C94C2010C94C2010C94C2017D
S11300100C94D7260C94C2010C94C2010C94C20116
S11300200C94C2010C94C2010C9449260C94C20194
S11300300C94C2010C94C2010C94C2010C94C20130
S11300400C94C2010C94C2010C94C2010C94C20120
S11300500C94C20143033C0335032E0327032003FE
S1130060190312030B030403FD02F602EF02E80274
S1130070E102DA02D302CC02C502BE02B702B00228
S1130080A902A2029B0294028D0286027F027802D8
S113009071026A0263025C0255024E024702400288
S11300A0390232022B0224021D0216020F02080238
S11300B00102FA01F301EC01E501DE01D701D001EF
S11300C0C901C201BB01B401AD01A6019F019801A0
S11300D091018A0183017C0175016E016701600150
S11300E0590152014B01410137013001290122011B
S11300F01B0114010D010601FF00FC007C01FF251A
S113010005FF810081FFA705FF950895FF3A026668
S113011066FFFFFFB0026060FFFFFF2E020303FFD4
S1130120FFFF6005FFFFFFFFFF2A054402120244A0
S11301302405122A7F2A243E0581C3663C18000048
S1130140003C05183C66C3810000003D05141414EE
S113015014142D0508080808082B0508083E08088B
S113016029040081423C002804003C428100260509
S1130170768995620523052040FF4020400504024E
S1130180FF02042101FD000000003F0560808D9006
S11301906039057089898A7C38056E9191916E3732
S11301A005808F90A0C036051E294989863505F241
S11301B09191918E3405182848FF083305428191A6
S11301C0916E3205438589916131040041FF01003C
S11301D030057E8991A17E7A0511131519117905CF
S11301E0003905053E7805110A040A1177051E0138
S11301F00E011E76051C0201021C75051E0101027A
S11302001F740520FE2101027305091515150272DC
S1130210051F081010087105102828183F70053FA5
S1130220242424186F050E1111110E6E053F1020A1
S1130230201F6D053F2018201F6C040081FF010062
S11302406B04FF040A11006A04020121BE00690163
S11302505F000000006805FF0810100F67053049B3
S113026049497E6605087F88804065050E15151589
S11302700C64050E111109FF63051E212121126270
S113028005FF0911110E6105062929291F5A058345
S11302908599A1C15905E0100F10E05805C3241831
S11302A024C35705FF020C02FF5605F00C030CF0A3
S11302B05505FE010101FE54058080FF8080530531
S11302C0619191918E5205FF888C8A7151057E81CE
S11302D085827D5005FF888888704F057E818181E5
S11302E07E4E05FF403008FF4D05FF403040FF4C77
S11302F005FF010101014B05FF182442814A05064F
S1130300010101FE49058181FF81814805FF10102B
S113031010FF47057E8189894E4605FF90909080A5
S11303204505FF919191814405FF8181423C43053C
S11303307E818181424205FF9191916E41053F4842
S113034088483F2003000000000011241FBECFE5B1
S1130350D8E0DEBFCDBF14E0A0E6B0E0EEE1FBE5FF
S113036002C005900D92A230B107D9F724E0A2E0B3
S1130370B4E001C01D92A73DB207E1F70E94112528
S11303800C948D2D0C94000000C000C000C000C06F
S113039000C000C000000895A198A098A998A8984A
S11303A00895A19AF1DF1DD00895A09AEDDFA198D8
S11303B0EBDFA098E9DFA19AE7DF13D00895082EB8
S11303C0A19AE2DF802D0DD0882311F002D0F8CF5E
S11303D00895A09AA19AD8DFA098D6DFA198D4DF77
S11303E008950894881F01C0880F59F0A09A18F442
S11303F00000A19802C0A19A00C0C6DFA098C4DF83
S1130400F3CFA09AA198C0DFA098989BFECF88272D
S1130410999981E0B9DF99270895882701C081E07F
S113042071E0A09AA198B0DFA098AEDF989BFECFB0
S1130430889499990894771FA0F7A09A813011F0B5
S1130440A19801C0A19AA0DFA098989BFECF9CDF41
S1130450872F992708950F931F93CF93DF938C01D0
S1130460FC01C081613019F0611113C029C08EEE06
S11304700E94DF018C2F0E94F1010E94E9018FEE9E
S11304800E94DF010E940D02F80180830E94E901AD
S113049017C0DC2FD60F8EEE0E94DF018C2F0E9436
S11304A0F1010E94E9018FEE0E94DF010E940D021A
S11304B0F80181938F010E94E901CF5FDC13EBCF38
S11304C081E0DF91CF911F910F9108950F931F93B6
S11304D0CF93DF931F92CDB7DEB78B01898361E0A1
S11304E0CE0101960E942B02882321F08981F80114
S11304F0808381E00F90DF91CF911F910F91089538
S11305000F931F93CF93DF9300D0CDB7DEB78B014A
S1130510898362E0CE0101960E942B02882351F068
S1130520898190E0982F88272A81822BF801918372
S1130530808381E00F900F90DF91CF911F910F91F5
S113054008950F931F93CF93DF9300D0CDB7DEB7F9
S11305508B01898362E0CE0101960E942B028823DD
S113056059F0898190E0982F88272A81822BF801FD
S11305709183808380E001C081E00F900F90DF9130
S1130580CF911F910F910895CF93DF93EC01BC019C
S11305908AEA0E948002BE016E5F7F4F8CEA0E944D
S11305A08002BE016C5F7F4F8EEA0E948002BE0112
S11305B06A5F7F4F80EB0E94A102BE01685F7F4F9C
S11305C082EB0E94A102BE01665F7F4F84EB0E9412
S11305D0A102BE01645F7F4F86EB0E948002BE01D0
S11305E0625F7F4F88EB0E948002BE01605F7F4F95
S11305F08AEB0E948002BE016E5E7F4F8CEB0E94EC
S11306008002BE016C5E7F4F8EEB0E94800281E00F
S1130610DF91CF910895EF92FF920F931F93CF93A1
S1130620DF93FC01C081662331F18C01FC2EF60EB0
S11306308EEE0E94D101811120C08C2F0E94F10105
S1130640D82FF80181810E94F101E82EFFEF22E505
S113065087E0F15020408040E1F700C00000DE0D4B
S11306600E94E901DE0D59F4CF5F0F5F1F4FFC12AA
S1130670DFCF81E005C081E003C080E001C080E0FD
S1130680DF91CF911F910F91FF90EF900895CF9339
S1130690DF9300D0CDB7DEB789836A8361E0CE01F2
S11306A001960E940B0391E0811101C090E0892F13
S11306B00F900F90DF91CF910895EF92FF920F93D7
S11306C01F93CF93DF931F92CDB7DEB7F82EE42E9E
S11306D069830E94470381110CC017C0BE016F5F7C
S11306E07F4F8F2D0E9466020F5F1F4F811103C041
S11306F00CC000E010E089818E2131F00F3F8FEFB4
S1130700180761F781E001C081E00F90DF91CF917C
S11307101F910F91FF90EF9008950F931F93CF9324
S1130720DF9300D0CDB7DEB78C0140E26EE284EFF8
S11307300E945D03882361F0BE016F5F7F4F86EFE7
S11307400E94800289819A81F8019183808381E0EB
S11307500F900F90DF91CF911F910F9108954F92B9
S11307605F926F927F928F929F92AF92BF92CF923D
S1130770DF92EF92FF921F93CF93DF9300D000D0CC
S113078000D0CDB7DEB788A099A0A12CB12C4AA087
S11307905BA0612C712CCAA4DBA40D2C000CEE0808
S11307A0FF082CA53DA5C901330FAA0BBB0B8B83F6
S11307B09C83AD83BE83CE0101960E948D03182FC6
S11307C029813A81C901A0E0B0E09C01AD0124195E
S11307D0350946095709C501B4010E9428284B016F
S11307E05C01072E7FE0B594A794979487947A953B
S11307F0D1F7702DC701B601052E5BE0660F771F98
S1130800881F991F5A95D1F7502D2B813C814D811A
S11308105E81280D391D4A1D5B1D0E946E28820EC3
S1130820931EA41EB51E98E0890E911CA11CB11C38
S1130830689413F8B594A794979487941694D1F771
S1130840EEA9FFA980829182A282B382812F817056
S113085026960FB6F894DEBF0FBECDBFDF91CF91C1
S11308601F91FF90EF90DF90CF90BF90AF909F903B
S11308708F907F906F905F904F900895FF920F93A9
S11308801F93CF93DF9300D01F92CDB7DEB78C01B7
S1130890F62E6295660F660F607C6C5C40E284EF16
S11308A00E945D03882379F1BE016F5F7F4F86EF5D
S11308B00E946602BE016E5F7F4F87EF0E94660250
S11308C0BE016D5F7F4F88EF0E94660229818A8195
S11308D090E0A0E0B0E0BA2FA92F982F8827A22B90
S11308E02B81822B28E030E02F19310904C0B59503
S11308F0A795979587952A95D2F7F80180839183D8
S1130900A283B38381E00F900F900F90DF91CF917A
S11309101F910F91FF9008952F923F924F925F92F3
S11309206F927F928F929F92AF92BF92CF92DF92FB
S1130930EF92FF920F931F93CF93DF93CDB7DEB760
S1130940A8970FB6F894DEBF0FBECDBF1C01062FCB
S1130950DC014D905C9011979201550C440B550BA2
S11309602F83388749875A8712968D919C911397C4
S11309709C01990F440B550B2B873C874D875E8751
S113098014968D909C901597C401990CAA0BBB0BDF
S11309908F87988BA98BBA8BD10116960D90BC9139
S11309A0A02DBC8BAB8BF10140845184920140E0BB
S11309B050E02D8B3E8B4F8B588F828593859C0105
S11309C040E050E0298F3A8F4B8F5C8F62897389A6
S11309D02B01770F66087708248935894901330F7D
S11309E0AA08BB08848595859C01990F440B550B77
S11309F02D8F3E8F4F8F58A3868597859C01990F25
S1130A00440B550B29A33AA34BA35CA3CE01019637
S1130A100E948D03182FC980DA800D2C000CEE087B
S1130A20FF08602FCE0103960E943E048123182FF5
S1130A3011708B819C81AD81BE818DA39EA3AFA3D8
S1130A40B8A7A7019601898D9A8DAB8DBC8D281B03
S1130A50390B4A0B5B0B6D897E898F89988D0E94B7
S1130A6028286B017C010B2EBFE0F594E794D79402
S1130A70C794BA95D1F7B02DC301B201052E5BE03E
S1130A80660F771F881F991F5A95D1F7502DA5011E
S1130A9094012C0D3D1D4E1D5F1D0E946E28C20E3B
S1130AA0D31EE41EF51ED701C6010896A11DB11D73
S1130AB0689413F8B595A795979587951694D1F7EB
S1130AC0F101828F938FA48FB58FF0EACF1AFFE0E4
S1130AD0DF0AE108F108A7019601C701B6010E94E7
S1130AE028282B013C01032E3CE07594679457940D
S1130AF047943A95D1F7302D2F85388949895A89F9
S1130B00C701B6010E9428284B015C01992334F4E3
S1130B102FEF820E2FE1921EA11CB11C072E7DE047
S1130B20B594A794979487947A95D1F7702D2D8DC9
S1130B303E8D4F8D58A1C301B2010E942828BB27C6
S1130B4097FDB095AB2F880D991DAA1DBB1D02966C
S1130B50A11DB11DB595A79597958795B595A795B1
S1130B60979587959C01AD0130584F4F5F4FAB89E6
S1130B70BC890E949C284B015C01072E7FE0B6943F
S1130B80A794979487947A95D1F7702D29A13AA1C7
S1130B904BA15CA1C301B2010E9428282B013C0196
S1130BA0032E3BE075946794579447943A95D1F794
S1130BB0302D2B853C854D855E85C701B6010E948D
S1130BC02828DC01CB01072E7BE0B595A7959795E6
S1130BD087957A95D1F7702D480E591E6A1E7B1E93
S1130BE08F819885A985BA85880F991FAA1FBB1F75
S1130BF0880F991FAA1FBB1F480E591E6A1E7B1E11
S1130C00002E04C0440C551C661C771C0A94D2F7B1
S1130C1032E0430E511C611C711C75946794579407
S1130C20479475946794579447942DA13EA14FA17E
S1130C3058A5241935094609570980E593ECA0E025
S1130C40B0E0BC01CD0104C0959587957795679573
S1130C500A95D2F70E94282899236CF0660F771F13
S1130C60881F991FA50194010E944C282B833C8363
S1130C704D835E830EC0A50194010E944C28DA01C5
S1130C80C901880F991FAA1FBB1F8B839C83AD8347
S1130C90BE838B809C80AD80BE809927B7FC9A95DB
S1130CA08B2D7A2D692D9B01AC010E9428289B0174
S1130CB0AC01AEEDBBE00E949C286B017C01A3E477
S1130CC0B3EEA50194010E94AA28BB2797FDB09515
S1130CD0AB2F6701FF24D7FCF094EF2CC80ED91E6C
S1130CE0EA1EFB1E4FECC40E4EE0D41EE11CF11CA8
S1130CF0689413F8F594E794D794C7941694D1F7AD
S1130D00C80CD91CEA1CFB1CD1015696CD92DD926D
S1130D10ED92FC925997812FA8960FB6F894DEBFF6
S1130D200FBECDBFDF91CF911F910F91FF90EF9038
S1130D30DF90CF90BF90AF909F908F907F906F90F7
S1130D405F904F903F902F90089585E294E00E9429
S1130D50C4020895E6E6F0E081E380839EE2918395
S1130D6022E322839383848328E32583868337E3E2
S1130D70378390878187228783E384871586CF0111
S1130D800895CF93DF93CDB7DEB761970FB6F8948C
S1130D90DEBF0FBECDBF91E1E7E4F1E0DE011196C5
S1130DA001900D929A95E1F790E3FB01908398E707
S1130DB09183982F92959F70E1E0F0E0EC0FFD1F76
S1130DC0E90FF11D9081FB0192838F70E1E0F0E067
S1130DD0EC0FFD1FE80FF11D8081FB01838314825A
S1130DE0CB0161960FB6F894DEBF0FBECDBFDF9185
S1130DF0CF91089580914A04882369F08091460434
S1130E00833049F480914904811105C081E08093C5
S1130E10490410924A0480914904089580914A0437
S1130E20882309F446C0809146048130B1F490913E
S1130E300604E92FE695E695E695F0E0E95FFB4FB9
S1130E403081292F277081E090E002C0880F991F1C
S1130E502A95E2F7832B808325C080914604811173
S1130E6017C090910604E92FE695E695E695F0E023
S1130E70E95FFB4F3081292F277081E090E002C0A9
S1130E80880F991F2A95E2F78095832380830AC0EF
S1130E9080914604833031F41092060410924A047F
S1130EA080E00895809106048F5F80930604109279
S1130EB04A04809106048B3330F010920604109299
S1130EC0490481E0089580E008950F931F93CF9320
S1130ED0DF9385E190E0E82FE695E695E695F0E06E
S1130EE0E95FFB4F208130E0482F477002C0359501
S1130EF027954A95E2F720FD9F5F8F5F8D3159F763
S1130F0090FD6BC2E82FE695E695E695F0E0E95F83
S1130F10FB4F208130E0482F477002C0359527955C
S1130F204A95E2F720FD9F5F8F5F843259F75BC2D9
S1130F30E82FE695E695E695F0E0E95FFB4F208122
S1130F4030E0482F477002C0359527954A95E2F75F
S1130F5020FD9F5F8F5F8B3359F790FD40C2E4E71C
S1130F60F0E0168215821482108217821182138295
S1130F70128280E090E041E050E0682F9C012B5EFB
S1130F803F4FD9010AF41796B595A795B595A7953E
S1130F90B595A795A95FBB4FAC91B0E027703078A9
S1130FA0332334F421503109286F3F6F2F5F3F4FB3
S1130FB08D0102C0159507952A95E2F700FF0AC036
S1130FC075819A01062E02C0220F331F0A94E2F79C
S1130FD0272B25839C01235E3F4FD9010AF41796E2
S1130FE0B595A795B595A795B595A795A95FBB4F59
S1130FF0AC91B0E027703078332334F421503109B8
S1131000286F3F6F2F5F3F4FED0102C0D595C79505
S11310102A95E2F7C0FF0AC074819A01062E02C025
S1131020220F331F0A94E2F7272B24839C012C5DA3
S11310303F4FD9010AF41796B595A795B595A7958D
S1131040B595A795A95FBB4FAC91B0E027703078F8
S1131050332334F421503109286F3F6F2F5F3F4F02
S11310608D0102C0159507952A95E2F700FF0AC085
S113107070819A01062E02C0220F331F0A94E2F7F0
S1131080272B20839C01265D3F4FD9010AF4179634
S1131090B595A795B595A795B595A795A95FBB4FA8
S11310A0AC91B0E027703078332334F42150310907
S11310B0286F3F6F2F5F3F4FED0102C0D595C79555
S11310C02A95E2F7C0FF0CC0833050F477819A016F
S11310D0062E02C0220F331F0A94E2F7272B278320
S11310E09C01235D3F4FD9010AF41796B595A79546
S11310F0B595A795B595A795A95FBB4FAC91B0E001
S113110027703078332334F421503109286F3F6F2E
S11311102F5F3F4F8D0102C0159507952A95E2F781
S113112000FF0AC071819A01062E02C0220F331FEC
S11311300A94E2F7272B21839C012E5C3F4FD901AF
S11311400AF41796B595A795B595A795B595A7955E
S1131150A95FBB4FAC91B0E027703078332334F4EF
S113116021503109286F3F6F2F5F3F4FED0102C0BF
S1131170D595C7952A95E2F7C0FF0CC0228133812B
S11311808A0102C0000F111F6A95E2F7202B312B50
S11311903383228301968430910509F0EECE48E230
S11311A050E020E030E0C4E0E4E7F0E06AE070E022
S11311B0C9014996DC010AF41796B595A795B5952A
S11311C0A795B595A795A95FBB4FAC91B0E0877083
S11311D09078992324F40197886F9F6F01968D016D
S11311E002C0159507958A95E2F700FF0CC0C73039
S11311F050F4A581CB01022E02C0880F991F0A94D6
S1131200E2F78A0F8583C9018196DC010AF41796F7
S1131210B595A795B595A795B595A795A95FBB4F26
S1131220AC91B0E087709078992324F40197886F8B
S11312309F6F01968D0102C0159507958A95E2F777
S113124000FF2DC0C63008F0D1C0A481CB01022E0E
S113125002C0880F991F0A94E2F78A0F8483CA0197
S1131260DA0155230CF41796B595A795B595A7956E
S1131270B595A795A95FBB4FAC91B0E08770907806
S1131280992324F40197886F9F6F01968D0102C002
S1131290159507958A95E2F700FD22C02BC0CA0177
S11312A0DA0155230CF41796B595A795B595A7952E
S11312B0B595A795A95FBB4FAC91B0E087709078C6
S11312C0992324F40197886F9F6F01968D0102C0C2
S11312D0159507958A95E2F700FF0CC0C63050F4C7
S11312E0A081CB01022E02C0880F991F0A94E2F755
S11312F08A0F8083C901C196DC010AF41796B5955B
S1131300A795B595A795B595A795A95FBB4FAC9142
S1131310B0E087709078992324F40197886F9F6FC9
S113132001968D0102C0159507958A95E2F700FF95
S11313300CC0C43051F4A181CB01022E02C0880F2D
S1131340991F0A94E2F78A0F8183C901C696DC01CA
S11313500AF41796B595A795B595A795B595A7954C
S1131360A95FBB4FAC91B0E087709078992324F4C7
S11313700197886F9F6F01968D0102C0159507959F
S11313808A95E2F700FF0DC082819381DB01022E72
S113139002C0AA0FBB1F0A94E2F78A0F9B1F938314
S11313A08283CF5F2F5F3F4F4F5F5F4FC83009F09D
S11313B0FFCEE4E7F0E0828193818053984F9383DA
S11313C082838091090481FF04C081E080937C00C2
S11313D01CC010927C0081E018C080E016C080E040
S11313E014C080E012C090FFA3CDFBCFCA015523E7
S11313F00CF407969595879595958795959587957A
S1131400DC01A95FBB4F8C9175CFDF91CF911F9108
S11314100F910895CF93FC01B29932C080910404D6
S113142090910504883725E09207E0F0218132810C
S11314308217930710F492838183238134812817C0
S1131440390710F49483838385818F5F858381E0DA
S113145080934A0483E0809346041092050410921A
S1131460040404C010920504109204048091020440
S113147090910304019690930304809302044DC059
S11314808091020490910304843B9105D8F0238554
S113149034858217930710F49487838725853685CE
S11314A02817390710F49687858787858F5F878784
S11314B081E080934A0480934604109203041092BE
S11314C0020422C080359105D8F026813781821725
S11314D0930710F49783868320853185281739076D
S11314E010F49187808782858F5F828781E0809363
S11314F04A0410924604109203041092020404C099
S11315001092030410920204809104049091050443
S1131510019690930504809304040E94FA06C82F50
S11315208823B1F00E940E07882399F00E94650772
S1131530C82F882341F081E080934704109244042B
S11315401092450406C0109247041092450401C04D
S1131550C1E08C2FCF9108950097B1F40895000055
S11315600000000000000000000000000000000077
S11315700000000000002150310989F74F5F5F4FE0
S11315808417950719F4089540E050E028EE33E0FD
S1131590E6CFDD980895DD9A0895662351F0DB982F
S11315A0982F962311F0DA9A01C0DA98DB9A66959F
S11315B0B1F70895CF93DF930E94C90A64E085E0F0
S11315C00E94CD0A60E480E00E94CD0AC0E0D0E031
S11315D0FE01E55BFB4F808168E00E94CD0A219605
S11315E0C034D105A9F70E94CB0ADF91CF910895A9
S11315F0CF93C82F0E94C90A64E084E00E94CD0AF8
S113160060E88C2F0E94CD0A61E081E00E94CD0A3F
S11316100E94CB0ACF910895EF92FF920F931F93EC
S1131620CF93DF9300D000D000D0CDB7DEB7D59AEA
S1131630DD9AD39AD29A91E0998393E09A8398E0C1
S11316409B8398E19C8390E29D838E838E010F5F40
S11316501F4F7E0187E0E80EF11CF80181918F0194
S11316600E94F80A0E151F05C1F726960FB6F894C6
S1131670DEBF0FBECDBFDF91CF911F910F91FF90C1
S1131680EF900895803240F5683040F5982F969594
S11316909695969570E0660F771F20E1929F600DF6
S11316A0711D112482FB222720F930E0620F731F81
S11316B0FB01E55BFB4F4081837028E030E0B9011A
S11316C002C0759567958A95E2F7CB01942F98230C
S11316D081E029F480E0089580E0089580E0089591
S11316E0803268F5683058F5982F9370E8E0F0E0A0
S11316F002C0F595E7959A95E2F7982F96959695F9
S1131700969570E0660F771F20E1929F600D711D22
S1131710112482FB222720F930E0620F731F442337
S113172039F0DB01A55BBB4F8C91E82BEC9308955A
S1131730DB01A55BBB4F8C91E095E823EC93089506
S1131740982F92959F70990F292F220F220F920F95
S11317508F70890F08950F931F93CF93DF93EFE05A
S1131760F4E092E090839DEC499F212D112426956D
S11317702695269530E1239FD0011124220F322F84
S1131780330F330F230F421B4A2B4183699F212DB3
S1131790112426952695269530E1239FA001112436
S11317A0220F322F330F330F230F621B642B6283FC
S11317B0899F912D112496959695969540E1949F35
S11317C090011124990F392F330F330F930F891B75
S11317D0822B838382EA0E94DF01CFE0D4E00AE116
S11317E014E089910E94F101C017D107D1F70E943A
S11317F0E901DF91CF911F910F9108950F931F93EA
S1131800CF93DF93EFE0F4E095E090839DEC899F24
S1131810312D112436953695369550E1359FD001FA
S11318201124330F532F550F550F350F831B8A2B5C
S11318308183699F812D112486958695869530E153
S1131840839FD0011124880F382F330F330F830F58
S1131850681B6A2B6283499F812D11248695869586
S1131860869550E1859FB0011124880F382F330FDE
S1131870330F830F481B462B4383205D299F912DF3
S1131880112496959695969580E1989FA001112430
S1131890990F892F880F880F980F291B242B2483D5
S11318A082EA0E94DF01CFE0D4E00AE114E08991EA
S11318B00E94F101C017D107D1F70E94E901DF911D
S11318C0CF911F910F910895EF92FF920F931F9361
S11318D0CF93DF938C01CFE0D4E082E0888382EA67
S11318E00E94D10188810E94F10183EA0E94D501FE
S11318F0882319F00E94E90114C0CFE0D4E00F2E30
S1131900FAE1EF2EF4E0FF2EF02D0E940F028993EE
S1131910CE15DF05D1F70E940D0280931A040E94B0
S1131920E901EFE0F4E0A081E801A8837181798303
S113193062816A8353815C8334813D8345814B8317
S1131940868190E09F838E8327812887908599875D
S113195081858A87E285AF77A8837F7779836F73E0
S11319606A835F735C834F714B8337703D832F773A
S113197028879F7799878F778A878E2F8F778B8792
S1131980DF91CF911F910F91FF90EF900895AC01DB
S11319909C01329522952F7023273F702327AEE3B5
S11319A0BAE00E948D2820E931E0BC01629FC001A9
S11319B0639F900D729F900D112448175907D9F019
S11319C09A013695279536952795ABE7B4E10E94A1
S11319D08D289695879564E6689F9001699F300DE0
S11319E011244217530749F04370552781E0452BD2
S11319F029F080E0089581E0089580E00895CF9370
S1131A00DF93CDB7DEB72D970FB6F894DEBF0FBEC8
S1131A10CDBF9DE0EDE2F1E0DE01119601900D9263
S1131A209A95E1F7823041F4CB010E94C70C8111F1
S1131A300DC08CE190E00FC09FEF980F9C3048F4EC
S1131A40FE01E80FF11D818190E005C08DE190E079
S1131A5002C080E090E02D960FB6F894DEBF0FBE72
S1131A60CDBFDF91CF910895AF92BF92CF92DF9215
S1131A70EF92FF920F931F93CF93DF93CDB7DEB70F
S1131A802D970FB6F894DEBF0FBECDBF162F9DE085
S1131A90EAE3F1E0DE01119601900D929A95E1F7E7
S1131AA09FEF960F9C3008F076C09FEF980F9F3100
S1131AB008F074C04115510509F473C005E2809F14
S1131AC0012D1124982F901B9695090F06950695C4
S1131AD0902F990F990F990F901B082F091BFE0146
S1131AE0E60FF11DD1805A01B694A794B694A79439
S1131AF09501ABE7B4E10E948D289695879564E63D
S1131B00689F9001699F300D1124CA01821B930BB9
S1131B10FC01F695E795F695E795E80FF91F9F0107
S1131B20A3E9B4E20E948D28281B390B369527952A
S1131B307C01E20EF31EF694E794F694E794C70151
S1131B40880F991F880F991F880F991F8E199F0955
S1131B507F01E81AF90A9501ABE7B4E10E948D28E8
S1131B6096958795809590958370C82ECC0C1330EC
S1131B7028F4CA010E94C70C81110A5F8D2D90E0E0
S1131B80800F911D8E0D911D8C0D911D67E070E0ED
S1131B900E94382808C08FEF9FEF05C08FEF9FEF9A
S1131BA002C08FEF9FEF2D960FB6F894DEBF0FBEE5
S1131BB0CDBFDF91CF911F910F91FF90EF90DF90F8
S1131BC0CF90BF90AF900895EF92FF920F931F9321
S1131BD0CF939FEF960F9C3090F4082F10E0623063
S1131BE088F07A01C62FC150B7018C2F0E94FF0CD8
S1131BF0080F191FC130B9F7802F912F04C08FEF40
S1131C009FEF01C0912FCF911F910F91FF90EF9003
S1131C100895EF92FF920F931F93CF93DF937A016E
S1131C200E94E40DEC01A70161E081E00E94340D03
S1131C308C01059710F007501109C8018C0F9D1FE6
S1131C408230910550F4A701415051096CE070E0D5
S1131C508FE190E00E94090E40C0FC0135969F017F
S1131C60A3E9B4E20E948D28E81BF90BF695E795E9
S1131C709C012E0F3F1F36952795369527952533C2
S1131C803105D1F4C7010E94C70C04301105B9F025
S1131C900D3F9FEF1907B1F00330110529F48111AD
S1131CA014C081E090E019C00C3F1F4F89F48823D1
S1131CB091F085E390E011C0822F932F0EC085E34D
S1131CC090E00BC085E390E008C085E390E005C098
S1131CD081E090E002C081E090E0DF91CF911F911C
S1131CE00F91FF90EF9008950F931F93CF93DF937D
S1131CF010E000E016C0D1E0DC0F612F8D2F0E94B0
S1131D00420B482F612F8C2F0E94700BCD2FDF3197
S1131D1091F7402F612F8FE10E94700B1F5F1830E5
S1131D2011F0C02FE8CFDF91CF911F910F9108954B
S1131D300F931F93CF93DF9310E00FC06D2F8C2F61
S1131D400E94420B482F612F8C2F0E94700BCF5F93
S1131D50C032A1F7D73029F01D2FC0E0D1E0D10F58
S1131D60EDCFC0E040E067E08C2F0E94700BCF5FA6
S1131D70C032C1F7DF91CF911F910F910895AF92B7
S1131D80BF92CF92DF92EF92FF920F931F93CF9364
S1131D90DF9300D01F92CDB7DEB78B835B0104E5E0
S1131DA010E00F2EFCEFCF2EF0E0DF2EF02D42E0FE
S1131DB050E0B801CE0101960E94F129E980FA8031
S1131DC041E050E0B701CE0103960E94E429892B3B
S1131DD039F447E050E0B701C5010E94F12909C078
S1131DE00E5F1F4F0C151D0511F7B5018FE30E94FF
S1131DF0BF0E0F900F900F90DF91CF911F910F9115
S1131E00FF90EF90DF90CF90BF90AF900895CF9365
S1131E10DF93CDB7DEB727970FB6F894DEBF0FBEBA
S1131E20CDBF1A821982FE01339695E0DF011D921F
S1131E309A95E9F7BE016F5F7F4F0E94BF0E8A81BA
S1131E4027960FB6F894DEBF0FBECDBFDF91CF91BA
S1131E5008953F924F925F926F927F928F929F92DA
S1131E60AF92BF92CF92DF92EF92FF920F931F93A4
S1131E70CF93DF93CDB7DEB729970FB6F894DEBFC3
S1131E800FBECDBF462EBE016F5F7F4F0E94BF0EB7
S1131E903A800F2EF7E0AF2EB12CF02D512C882470
S1131EA08394912CCE01019699878887632C640CC6
S1131EB0E42CF12CE81AF90A23C0C701800F911F02
S1131EC0809794F4F801828190E08C219D21892BE4
S1131ED031F041E0652D872D0E94700B05C040E074
S1131EE0652D872D0E94700B73940F5F1F4F761022
S1131EF0E4CF5394F1E0AF1AB10888E0581671F0BA
S1131F003320B9F364010A2C02C0CC0CDD1C0A9402
S1131F10E2F78E010F5F1F4F742CCFCF10E0430CFC
S1131F2040E0612F842D0E94700B1F5F1830C1F7B1
S1131F3029960FB6F894DEBF0FBECDBFDF91CF91C7
S1131F401F910F91FF90EF90DF90CF90BF90AF90D3
S1131F509F908F907F906F905F904F903F900895E7
S1131F600F931F93CF93DF93C62F0E94A00B082FCC
S1131F708C2F0E94A00B182FCDEC0C9FD12D112477
S1131F80D695D695D69561E080E38D0F0E94290FF2
S1131F90DD0F8D2F880F880FD80F802F8D1B67E0E2
S1131FA0805D0E94290F1C9FC12D1124C695C695E2
S1131FB0C69563E180E38C0F0E94290FCC0F8C2F10
S1131FC0880F880FC80F812F8C1B69E1805D0E94E8
S1131FD0290FDF91CF911F910F9108950F931F93B4
S1131FE0CF93DF93082F162FCDEC8C9FD12D112486
S1131FF0D695D695D69561E080E38D0F0E94290F82
S1132000DD0F8D2F880F880FD80F802F8D1B67E071
S1132010805D0E94290F1C9FC12D1124C695C69571
S1132020C69563E180E38C0F0E94290FCC0F8C2F9F
S1132030880F880FC80F812F8C1B69E1805D0E9477
S1132040290FDF91CF911F910F910895EF92FF9285
S11320500F931F93CF93DF937C01D62FFC018191C3
S11320608F010E94290FF70180810E94070FC1E0B0
S1132070C80FF7018181882381F06D2F6C0F0E94B6
S1132080290FF80181918F010E94070F8C0FC1E085
S1132090C80FF80180818111F0CFDF91CF911F919A
S11320A00F91FF90EF9008956FE08AE30E94290F4B
S11320B008952091A5043091A6042039314018F4E4
S11320C00E94EE0F08958091A5049091A604813991
S11320D09140F0F08091A5049091A6048032934041
S11320E0B8F4442319F0413051F0089561E080E6DA
S11320F00E94290F67E080E60E94290F089563E19A
S113210080E60E94290F69E180E60E94290F089564
S11321108091A5049091A6048132934020F01092FE
S1132120A6041092A50408950F931F93CF93DF93F1
S11321308C018091A5049091A6048039914020F4EB
S1132140C8010E94261030C08091A5049091A60475
S113215081399140F0F08091A5049091A6048032D9
S1132160934040F016C06C2F80E60E94290FDF5F79
S1132170CA5F02C0C62FD0E0F80101900020E9F741
S11321803197E01BF10B8D2F90E08E179F0758F3CA
S11321900BC08091A5049091A6048132934020F055
S11321A01092A6041092A504DF91CF911F910F9174
S11321B0089580E090E0FC01E55BFB4F10820196FE
S11321C080349105C1F708954F925F926F927F9288
S11321D08F929F92AF92BF92CF92DF92EF92FF9233
S11321E00F931F93CF93DF93EC01562E0E94D910C7
S11321F0511004C00F2EFAE55F2EF02D888188233C
S113220009F4ABC06E018FEFC81AD80A7E01689436
S1132210772475F880E0C0E0D0E0612C0F2EF8E957
S11322208F2EF4E09F2EF02D44244394052D10E0CE
S1132230F40112829091A90491FF03C01092A904A1
S1132240642C882309F473C0C0320CF46BC0C80139
S11322500E94AC0A0E94740E1C1614F4D150C15092
S11322606D2F872D0E94290FC0328CF75BC06D2F14
S1132270872D0E94290F872D0E94070F8F5FC82F7B
S1132280CD0FF5018081811106C0C0326CF1F1E0FF
S11322906F120CC051C08FEFC81AD80A9FEFE91A09
S11322A0F90A842DE1E06E12C3CF54C0FF24F394E5
S11322B0052D10E08091A90481FF03C01092A904A8
S11322C06F2CC8010E94AC0A0E94740E1C1614F4F0
S11322D0D150C1506D2F872D0E94290FC03224F098
S11322E0F1E06F12E7CF28C0052D10E0C8010E946D
S11322F0AC0A81E0681227C007C00E94740EC801AE
S11323000E94AC0AC150C9F71092A8041092A70405
S1132310809197048F7E8093970481E0611024C09C
S113232080E022C0F70170805601DC2FA0CFF701B6
S113233070805601DFE19BCF852D90E00E94AC0AAE
S113234066246394E1CF0E94740EC8010E94AC0A13
S1132350CFE1D3CFC03244F2EFCF052D10E0C80156
S11323600E94AC0A612CEFCFDF91CF911F910F91A6
S1132370FF90EF90DF90CF90BF90AF909F908F90A1
S11323807F906F905F904F90089564E188E591E0AD
S11323900E94E41098E088E10FB6F894A89581BDF6
S11323A00FBE91BDFFCF0F931F93CF93DF930E9476
S11323B0D91089E090E00E940F2D082FD0E6D80FA5
S11323C08CB3182F127081FDFBCFCD2F8091A904FF
S11323D083FF0CC01092A9040E94D910CF5FC031B2
S11323E008F0C0E080EA8C0F0E94F80A8091A904EA
S11323F082FF0BC01092A9040E94D910C1500AF4A4
S1132400CFE080EA8C0F0E94F80A8091A90484FF2F
S113241021C01092A9040E94D910C0568C2F0E948A
S1132420F80AC093B6046C2F89E090E00E941D2D39
S11324306AE085E691E00E94E410E8E9F4E01282A3
S1132440108211821092A904809197048F7E809348
S1132450970434C08091A90481FD04C0809197043D
S113246084FF0EC01092A904809197048F7E8093FC
S113247097040E94D910802F0E94F80A11E01EC010
S1132480CA3030F461E080E38C0F0E94290F09C048
S113249061E081E30E94290F67E086E28C0F0E94CD
S11324A0290FCD1306C06BE187EA0E94290FCD2FB7
S11324B08DCF6BE185E20E94290F88CF812FDF91B8
S11324C0CF911F910F910895CF93DF93CDB7DEB7CE
S11324D064970FB6F894DEBF0FBECDBF1A8219827F
S11324E0FE01339682E1DF011D928A95E9F780911E
S11324F0A90484FD1BC087E0EDE7F1E0DE0111963D
S113250001900D928A95E1F70E94AA06BC01CE01C2
S113251001960E94FA2964E1CE0101960E94E4101A
S11325209091A90494FD02C0813029F70E94D9102A
S11325301092A90480E064960FB6F894DEBF0FBE33
S1132540CDBFDF91CF9108958F929F92AF92BF92AA
S1132550CF92DF92EF92FF920F931F93CF93DF936B
S1132560CDB7DEB7C856D1400FB6F894DEBF0FBE64
S1132570CDBF7C011A821982FE0133968CE591E06D
S1132580DF019C011D9221503040E1F7E45AFE4FD7
S11325901192119288E0DF011D928A95E9F788E093
S11325A0E4E8F1E08E010F5F1F4FD80101900D9216
S11325B08A95E1F7F7016181728180E090E02AE079
S11325C0AE01415A5E4F0E94102ABC01C8010E940C
S11325D0FA29F80101900020E9F731970F2EFDE266
S11325E0CF2ED12CF02DD182C082D70113966D91BC
S11325F07C91149780E090E02AE0AE01415A5E4F4E
S11326000E94102ABC01C8010E94FA29F801019015
S11326100020E9F73197D182C082F80101900020AF
S1132620E9F731970F2EFEE68F2EFDE39F2EF02D56
S1132630918280821282F70185814AE0BE01615A4B
S11326407E4F90E00E94052ABC01C8010E94FA292D
S1132650F80101900020E9F731970F2EFCE3AF2E2B
S1132660B12CF02DB182A082D8010D900020E9F7A1
S1132670119787E0ECE8F1E001900D928A95E1F77B
S1132680D70116966D917C91179780E090E02AE02F
S1132690AE01415A5E4F0E94102ABC01C8010E943B
S11326A0FA29F80101900020E9F73197D182C0821C
S11326B0F7016085718580E090E02AE0AE01415A1F
S11326C05E4F0E94102ABC01C8010E94FA29F80139
S11326D001900020E9F73197D182C082F80101907E
S11326E00020E9F73197918280821282D7011A96ED
S11326F08C914AE0BE01615A7E4F90E00E94052A07
S1132700BC01C8010E94FA29F80101900020E9F7F0
S11327103197B182A082D8010D900020E9F711977A
S113272088E0E3E9F1E001900D928A95E1F7F70181
S11327306385748580E090E02AE0AE01415A5E4FE3
S11327400E94102ABC01C8010E94FA29F8010190D4
S11327500020E9F73197D182C082D7011D966D918F
S11327607C911E9780E090E02AE0AE01415A5E4FD2
S11327700E94102ABC01C8010E94FA29F8010190A4
S11327800020E9F73197D182C082F801019000203E
S1132790E9F73197918280821282F70187854AE0B6
S11327A0BE01615A7E4F90E00E94052ABC01C80117
S11327B00E94FA29F80101900020E9F73197B182CB
S11327C0A08268E2C8010E94E4100E94D910C8598E
S11327D0DE4F0FB6F894DEBF0FBECDBFDF91CF91B1
S11327E01F910F91FF90EF90DF90CF90BF90AF902B
S11327F09F908F900895BF92CF92DF92EF92FF92B5
S11328000F931F93CF93DF93CDB7DEB7C254D10993
S11328100FB6F894DEBF0FBECDBF8C01C62EFE01ED
S113282033968AE3DF011D928A95E9F7F8018481E2
S1132830982F92959F70905D99838F70805D8A83A5
S11328409EE29B838381282F22952F70205D2C8309
S11328508F70805D8D839E8382E38F8380E388877E
S113286026813781A901529542954F7045275F70A3
S11328704527405D4987822F8F70805D8A879B87BB
S113288080917C00882319F0813079F01BC0DE012F
S11328901C960D900020E9F7119786E0EBE9F1E032
S11328A001900D928A95E1F70DC0DE011C960D9002
S11328B00020E9F7119786E0E1EAF1E001900D923A
S11328C08A95E1F7D80115969C91933049F128F443
S11328D0992351F09130B1F05AC09530E9F170F17B
S11328E0963009F447C053C0DE0151960D90002084
S11328F0E9F7119788E0E7EAF1E001900D928A95F3
S1132900E1F745C0DE0151960D900020E9F71197DB
S113291087E0EFEAF1E001900D928A95E1F737C084
S1132920DE0151960D900020E9F7119789E0E6EB5E
S1132930F1E001900D928A95E1F729C0DE015196EC
S11329400D900020E9F711978BE0EFEBF1E0019097
S11329500D928A95E1F71BC0DE0151960D9000207F
S1132960E9F7119788E0EAECF1E001900D928A957D
S1132970E1F70DC0DE0151960D900020E9F71197A3
S113298088E0E2EDF1E001900D928A95E1F786E0AE
S1132990E4EEF1E0DE01DD9601900D928A95E1F717
S11329A0FE0131967F01DF010D900020E9F71197B8
S11329B08AE0EAEDF1E001900D928A95E1F7822F29
S11329C00E94A00BB82ED80113968C910E94A00BE4
S11329D0D82EF80184810E94A00B4B2D50E06D2D60
S11329E070E090E00E94090E4AE0BE01635C7F4FF4
S11329F00E94052ABC01C7010E94FA296C2DC70157
S1132A000E94E4100E94D910CE5BDF4F0FB6F894F9
S1132A10DEBF0FBECDBFDF91CF911F910F91FF900D
S1132A20EF90DF90CF90BF900895FF920F931F9384
S1132A30CF93DF93CDB7DEB7A3970FB6F894DEBF7D
S1132A400FBECDBFF82E1A821982FE01339681E2A1
S1132A50DF011D928A95E9F7F8948FE394E09F9340
S1132A608F938DB79EB74E970FB6F8949EBF0FBE47
S1132A708DBFADB7BEB711968EE1E5E2F4E00190EB
S1132A800D928A95E1F70E94AF03789440913F0438
S1132A905091400460914104709142040FB6F8943F
S1132AA0DEBF0FBECDBF14161506160617064CF46E
S1132AB088E1EAEEF1E0DE01119601900D928A952B
S1132AC0E1F77723C4F488E1E2E0F2E0DE01119655
S1132AD001900D928A95E1F7709560955095419516
S1132AE05F4F6F4F7F4F40933F0450934004609378
S1132AF041047093420460913F04709140048091BA
S1132B004104909142042AE030E040E050E00E9409
S1132B106E289F938F937F936F935F934F933F930D
S1132B202F938AE192E09F938F938E010F5F1F4F43
S1132B301F930F930E944C2A6F2DC8010E94E4102A
S1132B400E94D9100FB6F894DEBF0FBECDBFA39676
S1132B500FB6F894DEBF0FBECDBFDF91CF911F91AA
S1132B600F91FF900895BF92CF92DF92EF92FF9260
S1132B700F931F93CF93DF93CDB7DEB7A3970FB611
S1132B80F894DEBF0FBECDBFB82E1A821982FE01A3
S1132B90339681E2DF011D928A95E9F7F89463E0A8
S1132BA085E294E00E948C04789405E214E0F80134
S1132BB066897789808D918D0E942F272AE037EDD1
S1132BC043E25CE30E9493270E94F7266B017C0199
S1132BD0D80156966D937D938D939C93599787E175
S1132BE0EAE3F2E08E010F5F1F4FD80101900D92CE
S1132BF08A95E1F7F80101900020E9F7BF016150DF
S1132C0071094AE0C6010E94052AD8010D900020EE
S1132C10E9F7119785E0E1E5F2E001900D928A95DC
S1132C20E1F76B2DC8010E94E4100E94D910A3960D
S1132C300FB6F894DEBF0FBECDBFDF91CF911F91C9
S1132C400F91FF90EF90DF90CF90BF9008951F9366
S1132C50CF93DF93D82F162FCDEC8C9FC12D112449
S1132C60C695C695C69580E38C0F0E94290F66E031
S1132C70610FCC0F8C2F880F880FC80F8D2F8C1BE2
S1132C80805D0E94290FDF91CF911F910895CF930A
S1132C90C62F2091A5043091A6042039314018F4A0
S1132CA00E94271622C08091A5049091A604813920
S1132CB0914080F08091A5049091A60480329340C5
S1132CC048F480E60E94290F66E06C0F80E60E94BB
S1132CD0290F0BC08091A5049091A60481329340E2
S1132CE020F01092A6041092A504CF9108958F921B
S1132CF09F92AF92BF92CF92DF92EF92FF920F9387
S1132D001F93CF93DF9300D000D000D0CDB7DEB7B0
S1132D10E4E7F0E0808189838FE18A8381818B837A
S1132D208CE08C8382819381805D8D8383E68E83A6
S1132D301092A9040F2EFBEFCF2EF3E0DF2EF02D1F
S1132D408E010F5F1F4F5E0187E0A80EB11C912C0E
S1132D508824839460E0D6018D919D916D010E9439
S1132D60261091103FC078018091A90483FF0FC001
S1132D701092A904F80180818F5F9181981708F45B
S1132D8080E0D7018C9365E10E94271654C180919D
S1132D90A90482FF0EC01092A904F80191818081D8
S1132DA081500AF4892FD7018C9365E10E9427167C
S1132DB042C18091A90484FF03C01092A90412C0E7
S1132DC08091A90481FD04C08091970484FF33C1DC
S1132DD01092A904809197048F7E809397040E9497
S1132DE0D910982C0E94D9100E5F1F4FA016B1065F
S1132DF009F0B0CFE0917C00F0E0EE0FFF1FE95046
S1132E00FC4F60E0808191810E94261091102DC1B9
S1132E1004E710E0FF24F3948091A90483FF19C010
S1132E201092A9040E94D910F801808591E0980FAE
S1132E3090878111F086D8011896EC91F0E0EE0F9E
S1132E40FF1FE950FC4F60E0808191810E942610B1
S1132E501DC08091A90482FF19C01092A9040E9488
S1132E60D910F80180859FEF980F9087811101C0D8
S1132E701086D8011896EC91F0E0EE0FFF1FE95090
S1132E80FC4F60E0808191810E9426108091A9040A
S1132E9081FD04C08091970484FF0AC01092A904A4
S1132EA0809197048F7E809397040E94D910DDC08F
S1132EB08091A90484FF21C01092A90464E186E5ED
S1132EC092E00E94E4100E94D91060E08AE692E049
S1132ED00E942610E0917B00F0E0EE0FFF1FE75107
S1132EE0FC4F65E1808191810E94261004E710E087
S1132EF00F2EF6E0FF2EF02D0EC0D8011896EC919F
S1132F00F0E0EE0FFF1FE950FC4F60E080819181FB
S1132F100E94941081CF8091A90483FF1FC0109256
S1132F20A9040E94D910F80187818F5F873008F0C7
S1132F3080E0D80117968C9360E08AE692E00E94C4
S1132F402610D8011796EC91F0E0EE0FFF1FE75121
S1132F50FC4F65E1808191810E9426108091A90433
S1132F6082FF1EC01092A9040E94D910F801878123
S1132F7081500AF48F2DD80117968C9360E08AE66D
S1132F8092E00E942610D8011796EC91F0E0EE0F23
S1132F90FF1FE751FC4F65E1808191810E9426105B
S1132FA08091A90484FF1FC01092A90410929A046E
S1132FB00E94D91004E710E0F80167812D8130E008
S1132FC02053384F4B8189810E94FE0BD8011896FB
S1132FD06C9186E090E00E941D2D6AE08FE692E0FD
S1132FE00E94E41054C08091A90481FD04C0809122
S1132FF0970484FF0AC01092A904809197048F7EDD
S1133000809397040E94D9101CC0D8011796EC91A4
S1133010F0E0EE0FFF1FE751FC4F65E180819181E5
S11330200E9494108091A90481FF75CF1092A90485
S11330300E94D91006C065E1F80180810E944716FC
S113304093CE04E710E0D80117966C912D8130E0FF
S11330502053384F4B8189810E94FE0BF801608513
S113306086E090E00E941D2D12C060E08AE692E0A6
S11330700E942610E0917B00F0E0EE0FFF1FE75165
S1133080FC4F65E1808191810E942610DACF109275
S1133090A90480E026960FB6F894DEBF0FBECDBF1C
S11330A0DF91CF911F910F91FF90EF90DF90CF9020
S11330B0BF90AF909F908F900895CF93C82FF894AE
S11330C083E00E94F80A88E00E94F80A8C2F0E948C
S11330D0F80A7894CF9108957F928F929F92AF923D
S11330E0BF92CF92DF92EF92FF920F931F93CF93F1
S11330F0DF938BE894E00E94640C9091A404809187
S11331008D04981759F0E8E9F4E0938521E0290F3C
S11331102387953018F0848791E095830E94A00B53
S1133120C82F80918C040E94A00B909120048917D1
S113313009F45AC08093200490911F049F5F9B3030
S113314018F490931F0450C010921F0410921E0490
S113315010921D0449C09191C91334C097818913F9
S113316031C07B01022E02C0F594E7940A94E2F781
S1133170E0FE28C07801022E02C0EE0CFF1C0A9467
S1133180E2F76701CA22DB22EC14FD0469F4B09370
S11331901E04A0931D04D093AC048091970450FBAB
S11331A082F9809397043BC0DE2D75016401022EE1
S11331B004C0CC0CDD1CEE1CFF1C0A94D2F7AC2915
S11331C0BD29572D2F5F3F4F2830310521F6B0938D
S11331D01E04A0931D04D093AC048091970450FB6B
S11331E082F9809397041BC0EAEAF4E0618170E0FD
S11331F0D281A0911D04B0911E045091970452FBFA
S1133200552750F9E1ECF4E020E030E001E010E073
S1133210812C912C54018394772473949CCFDF9157
S1133220CF911F910F91FF90EF90DF90CF90BF90BF
S1133230AF909F908F907F9008950F931F93CF939B
S1133240DF93CDB7DEB727970FB6F894DEBF0FBE76
S1133250CDBF8091970482FFA9C01A821982FE0112
S1133260339685E0DF011D928A95E9F78091AC04DD
S11332708830C9F038F4823091F0843091F0813094
S1133280E1F40BC0803299F018F4803171F015C06C
S1133290803479F0803879F010C081E00FC082E08A
S11332A00DC083E00BC084E009C085E007C086E060
S11332B005C087E003C088E001C080E01F928F93BF
S11332C08CE792E09F938F938E010F5F1F4F1F93A4
S11332D00F930E944C2A0E94D91060E0C8010E94FA
S11332E0261089E00E94F80A80919C040F900F90A8
S11332F00F900F900F900F90882309F44BC020E09B
S1133300E8E9F4E08091970480FDC39ABFEF33EDC0
S113331040E3B15030404040E1F700C00000C398A2
S11333208AE094989091970490FDC39A90919704A1
S113333091FDC49A9FEFA0E7B2E09150A040B04045
S1133340E1F700C00000949AC398C4983FEF44E3A7
S11333509CE0315040409040E1F700C000009A9B4F
S11333600AC09B9B08C09C9B06C09D9B04C09E9B5F
S113337002C08150B1F69A9B0DC09B9B0BC09C9BD5
S113338009C09D9B07C09E9B05C02F5F84812817A1
S113339008F4B8CF0E94D910809197048B7E8F7D5A
S11333A0809397048091B6040E945D1827960FB607
S11333B0F894DEBF0FBECDBFDF91CF911F910F9167
S11333C008951F93CF93DF93CBE8D4E08A810E94C2
S11333D0A00B182F89810E94A00B6CE390E0619FE1
S11333E0800D911D1124E1EBF4E04585278530E043
S11333F0649F200D311D11247485468550E0679F1C
S1133400400D511D11242417350730F584179507F5
S113341008F449C02817390720F08217930708F0E9
S113342047C08091970485FD43C080EA0E945D18DF
S1133430809197048062809397043AC080919704A6
S113344085FF36C08091B6040E945D188091970470
S11334508F7D809397042CC04217530748F5841737
S1133460950780F08217930780F48091970485FD77
S11334701FC080EA0E945D18809197048062809347
S1133480970416C08217930798F08091970485FFDC
S11334900FC08091B6040E945D18809197048F7DBF
S11334A08093970405C08217930708F4BACFC6CF58
S11334B0DF91CF911F910895F894E8E9F4E09285A3
S11334C0892392859827928778940895F894E8E957
S11334D0F4E09185892391859827918778940895BC
S11334E0E8E9F4E0908583B38095282F292790910B
S11334F023049223892F809580932304909122049E
S113350092239827909322048223892390859827D5
S11335109087208592858223892B828780858C776A
S113352021F481E38093210411C08091210481500E
S113353019F0809321040AC08FE080932104E8E904
S1133540F4E0808591858C77892B818784E00E94C3
S11335505C1A882359F08091A90481608093A9049E
S1133560E8E9F4E0108A17861686158688E00E943A
S11335705C1A882359F08091A90482608093A9047D
S1133580E8E9F4E0108A17861686158680E10E9421
S11335905C1A882359F08091A90484608093A9045B
S11335A0E8E9F4E0108A17861686158680E10E9401
S11335B0661A882359F08091A90484608093A90431
S11335C0E8E9F4E0108A17861686158680E20E94E0
S11335D0661A882359F08091A90488608093A9040D
S11335E0E8E9F4E0108A17861686158680E20E94C0
S11335F05C1A882359F08091A90488608093A904F7
S1133600E8E9F4E0108A17861686158680E40E949D
S11336105C1A882359F08091A90480618093A904DD
S1133620E8E9F4E0108A17861686158608959F92B5
S1133630AF92BF92CF92DF92EF92FF920F931F93BC
S1133640CF93DF9300D0CDB7DEB78C01FC0180812E
S1133650898381818A8382818083838181830E949B
S11336605410F801618180810E94EE0F80919704CB
S113367084FD54C07801CE0101966C01912C4CC09C
S11336801092A904F70180818F5FF6019081981749
S113369008F480E0F50180838091A90482FF0BC0C7
S11336A01092A904F6019081F701808181500AF4F7
S11336B0892FF50180838091A90484FF07C01092AB
S11336C0A9049394F2E09F121DC028C08091A9041C
S11336D081FD04C08091970484FF09C01092A9045D
S11336E0809197048F7E8093970481E021C0492DB7
S11336F0F801618180810E9459108091A90483FDA1
S1133700BFCFCACFFFEFEF1AFF0A8FEFC81AD80A4C
S11337108091970484FD02C05701EFCF80919704F4
S11337208F7E8093970410929A041092A90480E0EB
S11337300F900F90DF91CF911F910F91FF90EF9019
S1133740DF90CF90BF90AF909F9008951F93CF9339
S1133750DF9300D000D0CDB7DEB78BE389838A83B3
S11337608EE090E00E940F2D8B838FE090E00E940A
S11337700F2D8C83CE0101960E94171B81111DC051
S113378069818EE090E00E941D2DE199FECF6A814F
S11337908FE090E00E941D2D8CB3182F127081FDD4
S11337A0FBCFE1EBF4E0898182878A8183876AE039
S11337B084E892E00E94E41001C011E0812F0F9090
S11337C00F900F900F90DF91CF911F9108950F9359
S11337D01F93CF93DF9300D000D0CDB7DEB78BE833
S11337E094E00E94640C87E189838BE38A830BE86D
S11337F014E0F80182810E94A00B8B83F80181817F
S11338000E94A00B8C83CE0101960E94171B81118C
S11338100CC040E06A8189810E94AB0B6AE084E8B5
S113382092E00E94E41080E001C081E00F900F90CC
S11338300F900F90DF91CF911F910F9108952F92C8
S11338403F924F925F926F927F928F929F92AF922C
S1133850BF92CF92DF92EF92FF920F931F93CF9379
S1133860DF93CDB7DEB765970FB6F894DEBF0FBE12
S1133870CDBF2DB73EB73F872E87EDE7F0E014822A
S113388013828FEF9FEF9283818311861086978333
S113389086831686158694878387158212861786F3
S11338A08091D104082F10E037E0839FC0011124D8
S11338B00E94C3283C01892B09F45FC2C801829588
S11338C09295907F9827807F98270E94C3284C0167
S11338D0892B09F454C281E0809345048093440405
S11338E082E00E94F80A94988091D104811159C011
S11338F0412CD12CB8C0D70111961C9191130F5FA4
S113390080914804882349F030924804C6010E94FB
S11339100A0A82B3B0E18B2782BB9B9921C0EFEFE7
S1133920F1EE24E0E150F0402040E1F700C0000057
S1133930F501EE0FFF1FEE0FFF1FEE0FFF1FEA1939
S1133940FB09E60DF71D2082218222822382248234
S1133950852D90E0CC9696838583DD24D3941CC278
S1133960802F90E001970597BCF1F501EE0FFF1F42
S1133970EE0FFF1FEE0FFF1FEA19FB09E60DF71DFF
S113398020822182228223822482852D90E0CC967B
S1133990968385836894DD24D1F8FEC123944394EF
S11339A00EC00F2EF2E32F2EF02D4424439490E00A
S11339B00F2EFBE8EF2EF4E0FF2EF02D312C5524D2
S11339C05A94540CA52CB12C640130E1539EC00CC4
S11339D0D11C112400E001C0912F80914704811172
S11339E0E1C18091970482FF86CFE2C1F501EE0F19
S11339F0FF1FEE0FFF1FEE0FFF1FEA19FB09E60D75
S1133A00F71DA4E7B0E08C918083809175008183D9
S1133A1080917800828380917B00838380917C00F5
S1133A208483209176003091770036832583B1E03A
S1133A30B0934504B0934404309247048091D10478
S1133A40481608F4ABCFD12C0EC0E1E0E093450456
S1133A50E0934404309247048091D104481618F44A
S1133A60DD2009F49BCF8091970485FF04C080EA90
S1133A700E945D1804C08091B6040E945D18C09035
S1133A80D1042DB63EB62DB73EB72C1931090FB669
S1133A90F8943EBF0FBE2DBF6DB77EB76F5F7F4FEB
S1133AA05B01CC2009F475C1A301CB012FEF2C0DD0
S1133AB0022F10E098012F5F3F4F8B01020F131F5D
S1133AC0F12C0F2EFFE3EF2EF02DE4E7F0E00F2EA4
S1133AD0FEE35F2EF02D9C01DC01EC927081598B8A
S1133AE0488BDA016C91761302C0DC015C9271811F
S1133AF0A889B98911966C91761304C0D9016C9187
S1133B006D7F6C937481A889B98912966C91761330
S1133B1004C0D9016C916B7F6C937781A889B989B2
S1133B2013966C91761304C0D9016C91677F6C93E2
S1133B307085A889B98914966C91761304C0D9014B
S1133B406C916F7E6C9362817381A889B989159693
S1133B500D90BC91A02D6A177B0721F4D9016C91BB
S1133B606F7D6C930196D9012C91211101C0F394BE
S1133B70495F5F4F8017910709F0ADCF109244045D
S1133B80FC1025C080917B00873011F410927B00DB
S1133B9004E710E0F8014681658184810E94AB0B43
S1133BA0D80112962D913C91139711964C9111972F
S1133BB017966C9117978C910E94FE0BF801608503
S1133BC086E090E00E941D2DE199FECFBDC080915A
S1133BD0970482FDB9C02DB73EB73D8B2C8B8C2D3D
S1133BE090E09C01220F331F220F331F820F931F7B
S1133BF08196ADB7BEB7A81BB90B0FB6F894BEBF7C
S1133C000FBEADBFEDB7FEB73196FB8BEA8BF98BD8
S1133C10E88B1A861986FE013B9683E0DF011D922C
S1133C208A95E9F787E1E3E9F2E0AA89BB89019083
S1133C300D928A95E1F7BE01675F7F4F8D2D0E943B
S1133C40C106BC018A899B890E94FA29A889B9897D
S1133C500D900020E9F7119788E0EAEAF2E001907C
S1133C600D928A95E1F78091D1048823F1F0F12C2B
S1133C7000E210E0E889F98901900020E9F7319722
S1133C8011830083F501EF0DF11DBE01675F7F4FC6
S1133C9080810E94C106BC01888999890E94FA2901
S1133CA0F3948091D104F81628F364E18A899B89FE
S1133CB00E94E4104420A9F184010F2EF1E3BF2EE9
S1133CC0F02DB40C0F2EF1E3FF2EF02D0F2EFCE39C
S1133CD0CF2EF02D0F2EFEE2EF2EF02DB0E34B0E83
S1133CE00F2EFEE3AF2EF02D6894552455F8C982AB
S1133CF0FA82EB82EC824D82AE825F82188663E2A6
S1133D0082EB92E00E94E41063E2CE0101960E94ED
S1133D10E410C8010E94A412F394005F1F4FBF1067
S1133D20E6CFEDEAF4E0608171816F5F7F4F7183CC
S1133D30608380E090E00E942E2DEC89FD890FB60F
S1133D40F894FEBF0FBEEDBF1092A904E8E9F4E0B9
S1133D5011821082809197048F7D80939704C30110
S1133D600E945B29C4010E945B29949A0FB6F894BF
S1133D703EBE0FBE2DBE8D2D29C081E027C082E03E
S1133D8025C081E080934504809344041092470445
S1133D906ACE10924404F6CE8091970482FFF1CF4C
S1133DA0912F53CE8091970482FF20CED32C4DCEF9
S1133DB0F1E0F0934504F093440430924704809179
S1133DC0D104481608F4EACDD12C4DCE2E853F857A
S1133DD00FB6F8943EBF0FBE2DBF65960FB6F8948C
S1133DE0DEBF0FBECDBFDF91CF911F910F91FF902A
S1133DF0EF90DF90CF90BF90AF909F908F907F9087
S1133E006F905F904F903F902F900895E199FECF6F
S1133E1084E090E00E940F2D813261F485E090E00F
S1133E200E940F2D883031F4809197048064809330
S1133E3097040895809197048F7B80939704E19968
S1133E40FECF6FEA89E090E00E94342DE199FECF25
S1133E5061E08AE090E00E94342DE199FECF61E0B8
S1133E608BE090E00E94342DE199FECF60E087E082
S1133E7090E00E94342DE199FECF64E180E190E06E
S1133E800E94342DE199FECF60E082E190E00E942F
S1133E90342DE199FECF6CE081E190E00E94342D55
S1133EA0E199FECF60E083E190E00E94342DE19936
S1133EB0FECF63E08CE090E00E94342DE199FECFC8
S1133EC060E08DE090E00E94342DE199FECF60E047
S1133ED086E090E00E94342DE199FECF65E08EE00B
S1133EE090E00E94342DE199FECF60E08FE090E0F5
S1133EF00E94342DE199FECF63E088E090E00E94B7
S1133F00342DE199FECF60E070E080E090E00E9403
S1133F102E2DE199FECF62E084E290E00E94342DE0
S1133F20E199FECF69E084E190E00E94342DE199AB
S1133F30FECF6FE08CE190E00E94342DE199FECF3A
S1133F4069E085E190E00E94342DE199FECF63E2BF
S1133F508DE190E00E94342DE199FECF6CE086E182
S1133F6090E00E94342DE199FECF63E28EE190E06F
S1133F700E94342DE199FECF6DE087E190E00E942C
S1133F80342DE199FECF60E08FE190E00E94342D62
S1133F90E199FECF61E284E090E00E94342DE19942
S1133FA0FECF68E085E090E00E94342DE199FECFD9
S1133FB00895EF92FF920F931F93CF93DF932FEF08
S1133FC089E698E1215080409040E1F700C000006C
S1133FD00E94061F89E090E00E940F2D8093B60492
S1133FE0E199FECF8AE090E00E940F2D9091970412
S1133FF080FB91F990939704E199FECF8BE090E0D8
S11340000E940F2D9091970480FB90F99093970450
S1134010E199FECF87E090E00E940F2D8093AB04DE
S1134020E199FECF80E190E00E940F2D8093BD04C2
S1134030E199FECF82E190E00E940F2D8093BF04AE
S1134040E199FECF81E190E00E940F2D8093BE04A0
S1134050E199FECF83E190E00E940F2D8093C0048C
S1134060E199FECF8CE090E00E940F2D8093B9047B
S1134070E199FECF8DE090E00E940F2D8093BA0469
S1134080E199FECF86E090E00E940F2D80937C00A2
S1134090E199FECF8FE090E00E940F2D8093BC0445
S11340A0E199FECF8EE090E00E940F2D8093BB0437
S11340B0E199FECF88E090E00E940F2D80939C044C
S11340C0E199FECF80E090E00E94172D9093AE041A
S11340D08093AD04E199FECF82E090E00E94172D19
S11340E09093B0048093AF04E199FECF84E290E012
S11340F00E940F2D8093D104E199FECFC4E1D0E05A
S113410001EC14E00F2EFCE1EF2EF0E0FF2EF02D79
S1134110CE010E940F2DF80181938F01E199FECF0A
S1134120CE0108960E940F2DF8018783E199FECFF6
S11341302196CE15DF0561F7DF91CF911F910F9185
S1134140FF90EF900895DF92EF92FF920F931F93E9
S1134150CF93DF938C017B014115510519F0FA01CE
S1134160D08002C0D090240480919704886080930A
S113417097040E94D910F1E0EF1AF1089091970486
S1134180947169F01092A8041092A7048091970486
S11341908F7E809397040E94D9108FEF4FC0809137
S11341A0A90483FF0BC01092A9040E94D9108D2D7D
S11341B090E08E159F05C0F4D39416C08091A90495
S11341C082FF08C01092A9040E94D910DD2061F07A
S11341D0DA940AC08091A90481FF06C01092A90450
S11341E00E94D9108FEF2AC02D2D30E0E901CC0FA9
S11341F0DD1FCC0FDD1F2C0F3D1FE801C20FD31FA5
S113420060E0888199810E9426108091A90484FF2E
S1134210B5CF1092A9040E94D91010922404EA8107
S1134220FB81309721F009958C81809324040E94AE
S1134230D9101092A8041092A7048D2DDF91CF916C
S11342401F910F91FF90EF90DF900895EF92FF92EE
S11342500F931F93CF93DF9300D000D01F92CDB75D
S1134260DEB719820F2EF7E1EF2EF02D0F2EFBE3B0
S1134270FF2EF02DAE014F5F5F4F63E070E080EBE7
S113428090E00E94A3208983823031F492B380E1CC
S1134290892782BB1FEF40C0EA82FB82082F10E00F
S11342A0C801805F9F4F0E940F2D8C83C8018E5ED2
S11342B09F4F0E940F2D8D83CE0102960E94171BE3
S11342C0811129C0898190E06A81805F9F4F0E949B
S11342D01D2DE199FECF898190E06B818E5E9F4F09
S11342E00E941D2D8CB3182F127081FDFBCFE98124
S11342F0F0E0EF54FB4F8A8184878B8186870E948C
S1134300D9106AE084E892E00E94E41089818F3F2A
S113431009F0B0CF01C0182F812F0F900F900F908C
S11343200F900F90DF91CF911F910F91FF90EF901D
S11343300895CF93DF930E94D9108AE090E00E9401
S11343400F2D81709091970480FB91F990939704BD
S11343508823A9F0C6EAD0E0A881B98186E0E8EB19
S1134360F2E001900D928A95E1F7AD81BE8186E07D
S1134370EEEBF2E001900D928A95E1F714C0C6EAE3
S1134380D0E0A881B98186E0E4ECF2E001900D92DE
S11343908A95E1F7AD81BE8186E0EAECF2E0019016
S11343A00D928A95E1F740E050E062E070E086EA21
S11343B090E00E94A3208F3FF9F0882319F0813008
S11343C039F00BC08091970482608093970405C0F4
S11343D0809197048D7F80939704609197046695EC
S11343E061708AE090E00E941D2D6AE084E892E00A
S11343F00E94E41080E001C08FEFDF91CF91089517
S1134400CF93DF930E94D9108BE090E00E940F2D90
S113441081709091970480FB90F99093970488237E
S1134420A9F0C6EAD0E0A881B98186E0E8EBF2E021
S113443001900D928A95E1F7AD81BE8186E0EEEBA5
S1134440F2E001900D928A95E1F714C0C6EAD0E03B
S1134450A881B98186E0E4ECF2E001900D928A959E
S1134460E1F7AD81BE8186E0EAECF2E001900D92C5
S11344708A95E1F740E050E062E070E086EA90E07F
S11344800E94A3208F3FF1F0882319F0813039F086
S11344900BC08091970481608093970405C080913C
S11344A097048E7F809397046091970461708BE0EA
S11344B090E00E941D2D6AE084E892E00E94E410DE
S11344C080E001C08FEFDF91CF9108951F93CF93C8
S11344D0DF9300D000D0CDB7DEB787E189838BE3CB
S11344E08A838CE090E00E940F2D8B838DE090E016
S11344F00E940F2D8C83CE0101960E94171B8111FF
S113450022C08A81811102C081E08A8369818CE0A2
S113451090E00E941D2DE199FECF6A818DE090E02C
S11345200E941D2D8CB3182F127081FDFBCFE1EB7F
S1134530F4E0898180878A8181876AE084E892E057
S11345400E94E41001C011E0812F0F900F900F9092
S11345500F90DF91CF911F9108951F93CF93DF9315
S11345600E94D91088E090E00E940F2D80939C0453
S113457060E080ED92E00E942610C8E9D4E013E6E2
S11345808091A90483FF0DC01092A9048C818F5FD0
S1134590843608F080E08C838C8165E10E942716C4
S11345A03BC08091A90482FF0CC01092A9048C81A5
S11345B081500AF4812F8C838C8165E10E94271637
S11345C02BC08091A90484FF14C01092A904809187
S11345D097048F7E8093970460919C0488E090E018
S11345E00E941D2D6AE084E892E00E94E41080E0BD
S11345F018C08091A90481FD04C08091970484FFB0
S11346000BC01092A904809197048F7E8093970425
S11346100E94D91081E005C08C8165E10E94471693
S1134620AFCFDF91CF911F9108957F928F929F9288
S1134630AF92BF92CF92DF92EF92FF920F931F93AC
S1134640CF93DF9300D000D01F92CDB7DEB719828D
S11346500F2EF7E1AF2EF02D0F2EFBE3BF2EF02D22
S11346600F2EFAEAEF2EF4E0FF2EF02D06EA10E00A
S1134670CC24C394D12CAE014F5F5F4F6AE070E04D
S11346808FEB90E00E94A32089838F3F09F4A6C09A
S1134690893009F4A3C00E94D910AA82BB82798010
S11346A0872C912CC4018C5E9F4F0E940F2D8C830C
S11346B0C401845E9F4F0E940F2D8D8388E0781281
S11346C004C00E94AD2280E089C0CE0102960E94FF
S11346D0171B811183C0F701818190E0098002C01A
S11346E0959587950A94E2F780FF15C0F801A0819B
S11346F0B18186E0E8EBF2E001900D928A95E1F752
S1134700F801A581B68186E0EEEBF2E001900D920E
S11347108A95E1F714C0F801A081B18186E0E4EC48
S1134720F2E001900D928A95E1F7F801A581B68136
S113473086E0EAECF2E001900D928A95E1F740E020
S113474050E062E070E0C8010E94A320813089F04B
S113475020F08F3F09F441C018C0C601098002C08F
S1134760880F991F0A94E2F7F7019181892B8183BD
S11347700CC0C601098002C0880F991F0A94E2F791
S11347808095F701918189238183898190E06A81F1
S11347908C5E9F4F0E941D2DE199FECF898190E090
S11347A06B81845E9F4F0E941D2DE199FECFF7011E
S11347B0618187E090E00E941D2DE199FECFE9819F
S11347C0F0E0EF54FB4F8A81808B8B81808F6AE00D
S11347D084E892E00E94E4104ECF8FEF0F900F9088
S11347E00F900F900F90DF91CF911F910F91FF9039
S11347F0EF90DF90CF90BF90AF909F908F907F907D
S113480008951F93CF93DF930E94D91084E290E020
S11348100E940F2D8093D10460E080ED92E00E940D
S11348202610C1EBD4E01AE08091A90483FF0CC0E8
S11348301092A90488A18F5F8B3008F080E088A3D0
S113484065E10E9427163AC08091A90482FF0BC03B
S11348501092A90488A181500AF4812F88A365E1EC
S11348600E9427162BC08091A90484FF14C01092C3
S1134870A904809197048F7E809397046091D1045A
S113488084E290E00E941D2D6AE084E892E00E9498
S1134890E41080E018C08091A90481FD04C08091D7
S11348A0970484FF0BC01092A904809197048F7E13
S11348B0809397040E94D91081E005C065E188A126
S11348C00E944716B1CFDF91CF911F910895BF92F7
S11348D0CF92DF92EF92FF920F931F93CF93DF93C8
S11348E0CDB7DEB762970FB6F894DEBF0FBECDBF6B
S11348F019820F2EFFE0BF2EF02D6E0184E0C80E4A
S1134900D11C8E010E5F1F4F0F2EFDEAEF2EF4E037
S1134910FF2EF02DAE014F5F5F4F65E070E08DE834
S113492090E00E94A32089838F3F09F469C08230FC
S113493091F028F4882349F0813051F0EBCF833093
S113494069F08F3F09F45CC0E5CF0E941F1CE2CFE1
S11349500E946622DFCF0E940124DCCF1B821A82D0
S1134960F6018B2D11928A95E9F74AE0B801F70117
S1134970828193810E94052AD8010D900020E9F7D5
S1134980119789E0E4EDF2E001900D928A95E1F748
S11349906EE1C8010E94E4104AE0B801F701808189
S11349A091810E94052AD8010D900020E9F7119702
S11349B08BE0EDEDF2E001900D928A95E1F76EE166
S11349C0C8010E94E4109A99A5CFF70113821282BC
S11349D01182108260E070E080E090E00E94412D3E
S11349E0E199FECF60E070E082E090E00E94412D0A
S11349F0E199FECF64E188EE92E00E94E4108ACF50
S1134A008FEF62960FB6F894DEBF0FBECDBFDF9175
S1134A10CF911F910F91FF90EF90DF90CF90BF90B7
S1134A20089581B3826F81BBA09A87B3886187BBE5
S1134A3085B38C6785BBC29A959A83B78D6083BF13
S1134A4089B7826889BF8BE98CBF85B58C6085BDC9
S1134A5089EF83BD78940E94D91F0E94CC010E94E3
S1134A60A5068BE894E00E94640C80918D048093E9
S1134A70A4048091B6040E940C0B6AE084EF92E0D7
S1134A800E94E4100E94AA0664E10E94E4100E94BD
S1134A90D9108091970486FD2CC064E18AE093E0EC
S1134AA00E94E410C0E06C2F8CE70E94290F2FEFC6
S1134AB082E597E0215080409040E1F700C000007B
S1134AC0CF5FC03281F76C2F80E20E94290FEFEF95
S1134AD0F0E722E0E150F0402040E1F700C00000A0
S1134AE0C15089F70E94D910809197048064809303
S1134AF0970410924504109247041092A904949AC2
S1134B00D12CC8E9D4E00F2EF1EBEF2EF4E0FF2E08
S1134B10F02D03C0D82E01C0D82E0E941D190E946A
S1134B20E1198091A90481FF09C01092A9048DE7BD
S1134B3090E00E94A4121092A90440C08091A9049C
S1134B4082FF0AC01092A90464E18BE894E00E94F9
S1134B50FB131092A90432C08091A90483FF08C0FA
S1134B601092A90484E10E9415151092A90426C08C
S1134B708091A90484FF08C01092A90484E10E94D2
S1134B80B3151092A9041AC08091A90480FF16C01D
S1134B901092A9048091970482FD0EC040E050E079
S1134BA06CE070E081EF90E00E94A3208F3F21F041
S1134BB08091970482FFF2CF1092A9040E945410AE
S1134BC00BE814E0F801618182810E94B00FF801C2
S1134BD080818F839F818E81981791F08F818E833E
S1134BE08A818B3320F48A818F5F8A8309C01A8279
S1134BF08B818B3320F48B818F5F8B8301C01B826D
S1134C009A81F7018385981708F19B81828598170B
S1134C10E8F018E01B821A821092A9040E94980EF0
S1134C20FFEF21EE84E0F15020408040E1F700C026
S1134C300000115079F764E18BE894E00E94FB13C3
S1134C4084E10E94151584E10E94B3159981F7014E
S1134C508085981768F098818185981748F00E949C
S1134C601F1C8DE790E00E94A41280918C0454CF05
S1134C7080918C04D81609F44FCF98819B3320F48B
S1134C8098819F5F988346CF188299819F5F99830B
S1134C9041CF1F920F920FB60F9211242F933F937F
S1134CA04F935F936F937F938F939F93AF93BF9330
S1134CB0EF93FF9380911C048F5F80931C048832D0
S1134CC020F00E946C1810921C04809144048111FD
S1134CD019C0E8E9F4E0878590899C012F5F3F4F74
S1134CE0308B2787843F914048F01092A80410929B
S1134CF0A704809197048061809397040E94DA0A44
S1134D000E94701A80919D04882309F43FC0809109
S1134D101A0490911B04019690931B0480931A0427
S1134D208091970481FDC49A80914404811101C04B
S1134D30949880911A0490911B04059730F0C498BC
S1134D4080914404811101C0949A80911A04909135
S1134D501B04499748F08091970481FDC49A80917F
S1134D604404811101C0949880911A0490911B0409
S1134D704E9760F010929D0410921B0410921A0436
S1134D80C49880914404811101C0949AFF91EF91D9
S1134D90BF91AF919F918F917F916F915F914F914F
S1134DA03F912F910F900FBE0F901F9018951F9257
S1134DB00F920FB60F9211248F939F93EF93FF934B
S1134DC080914404882319F081E080934804E8E941
S1134DD0F4E085859685019696878587FF91EF9106
S1134DE09F918F910F900FBE0F901F9018950E9466
S1134DF0FE266894B1110C948D2708950E947227A1
S1134E0088F09F5798F0B92F9927B751B0F0E1F087
S1134E10660F771F881F991F1AF0BA95C9F714C037
S1134E20B13091F00E948C27B1E008950C948C2746
S1134E30672F782F8827B85F39F0B93FCCF3869570
S1134E4077956795B395D9F73EF4909580957095CD
S1134E5061957F4F8F4F9F4F0895E89409C097FB4A
S1134E603EF490958095709561957F4F8F4F9F4F3D
S1134E709923A9F0F92F96E9BB279395F695879581
S1134E8077956795B795F111F8CFFAF4BB0F11F444
S1134E9060FF1BC06F5F7F4F8F4F9F4F16C08823EB
S1134EA011F096E911C0772321F09EE8872F762F21
S1134EB005C0662371F096E8862F70E060E02AF062
S1134EC09A95660F771F881FDAF7880F969587954E
S1134ED097F9089557FD9058440F551F59F05F3FB7
S1134EE071F04795880F97FB991F61F09F3F79F008
S1134EF087950895121613061406551FF2CF46958A
S1134F00F1DF08C0161617061806991FF1CF86950B
S1134F107105610508940895E894BB2766277727EF
S1134F20CB0197F908950E94A6270C9417280E9494
S1134F30092838F00E94102820F0952311F00C94D1
S1134F4000280C94062811240C948D270E946A27AB
S1134F5070F3959FC1F3950F50E0551F629FF001C8
S1134F60729FBB27F00DB11D639FAA27F00DB11DE1
S1134F70AA1F649F6627B00DA11D661F829F22276A
S1134F80B00DA11D621F739FB00DA11D621F839FF1
S1134F90A00D611D221F749F3327A00D611D231FC7
S1134FA0849F600D211D822F762F6A2F11249F5715
S1134FB050409AF0F1F088234AF0EE0FFF1FBB1F18
S1134FC0661F771F881F91505040A9F79E3F5105D7
S1134FD080F00C9400280C948D275F3FE4F3983EF6
S1134FE0D4F3869577956795B795F795E7959F5F81
S1134FF0C1F7FE2B880F911D9695879597F9089513
S113500097F99F6780E870E060E008959FEF80EC77
S1135010089500240A94161617061806090608951A
S113502000240A9412161306140605060895092E80
S11350300394000C11F4882352F0BB0F40F4BF2BEF
S113504011F460FF04C06F5F7F4F8F4F9F4F08952F
S1135050DB018F939F930E949C28BF91AF91A29FE5
S1135060800D911DA39F900DB29F900D1124089562
S113507097FB072E16F4009407D077FD09D00E9401
S1135080AF2807FC05D03EF4909581959F4F089575
S1135090709561957F4F0895A1E21A2EAA1BBB1B40
S11350A0FD010DC0AA1FBB1FEE1FFF1FA217B307F0
S11350B0E407F50720F0A21BB30BE40BF50B661F06
S11350C0771F881F991F1A9469F7609570958095CA
S11350D090959B01AC01BD01CF010895052E97FB6E
S11350E01EF400940E94852857FD07D00E944C2886
S11350F007FC03D04EF40C948528509540953095C8
S113510021953F4F4F4F5F4F08959095809570952F
S113511061957F4F8F4F9F4F0895A29FB001B39F1A
S1135120C001A39F700D811D1124911DB29F700DAC
S1135130811D1124911D08950E948D28A59F900D15
S1135140B49F900DA49F800D911D11240895B7FF65
S11351500C949C280E949C28821B930B0895AA1BE4
S1135160BB1B51E107C0AA1FBB1FA617B70710F04E
S1135170A61BB70B881F991F5A95A9F78095909580
S1135180BC01CD0108950F931F93CF93DF93823019
S1135190910510F482E090E0E091D504F091D604FA
S11351A020E030E0A0E0B0E0309719F14081518177
S11351B00281138148175907C8F08417950769F4C9
S11351C0109731F012960C93129713961C9327C0E4
S11351D00093D5041093D60422C02115310519F08B
S11351E04217530718F49A01BD01EF01DF01F801DA
S11351F0DBCF21153105F9F0281B390B243031059B
S113520080F48A819B816115710521F0FB019383F0
S1135210828304C09093D6048093D504FE01329611
S113522044C0FE01E20FF31F819391932250310990
S1135230398328833AC02091D3043091D404232B9A
S113524041F420916200309163003093D4042093A0
S1135250D30420916000309161002115310541F49F
S11352602DB73EB74091640050916500241B350B67
S1135270E091D304F091D404E217F307A0F42E1BB9
S11352803F0B2817390778F0AC014E5F5F4F2417A6
S1135290350748F04E0F5F1F5093D4044093D30456
S11352A08193919302C0E0E0F0E0CF01DF91CF91D0
S11352B01F910F910895CF93DF93009709F481C054
S11352C0FC01329713821282A091D504B091D604C6
S11352D0109781F420813181820F931F2091D30490
S11352E03091D4042817390751F5F093D404E0938E
S11352F0D30467C0ED0120E030E0CE17DF0740F4AF
S11353004A815B819E0141155105F1F0EA01F5CF17
S1135310D383C28340815181840F951FC817D90755
S113532059F488819981840F951F02969183808313
S11353308A819B81938382832115310529F4F0931B
S1135340D604E093D5043DC0E901FB83EA83499187
S11353505991C40FD51FEC17FD0761F48081918129
S1135360840F951F0296E901998388838281938132
S11353709B838A83E0E0F0E012968D919C911397D1
S1135380009719F0FD01DC01F7CF8D919C911197E5
S11353909D012E5F3F4F820F931F2091D3043091C4
S11353A0D4042817390769F4309729F41092D604E5
S11353B01092D50402C013821282B093D404A09335
S11353C0D304DF91CF910895FB01DC0104C08D91DA
S11353D00590801921F441505040C8F7881B990B5F
S11353E00895FB01DC0102C005900D92415050402C
S11353F0D8F70895FB01DC010D900020E9F711971F
S113540001900D920020E1F70895BB274A3031F452
S1135410992322F4BDE2909581959F4F0C94332AF1
S1135420BB27FA01A62F6217710581059105330B7D
S113543030FB66F0AA27660F771F881F991FAA1FE3
S1135440A21710F0A21B63953850A9F7A05DAA33E8
S113545008F0A95DA19336F7B111B1931082CA0186
S11354600C94652CBB27FB015527AA27880F991F8D
S1135470AA1FA41710F0A41B83955051B9F7A05D7F
S1135480AA3308F0A95DA193009779F7B111B193FC
S11354901192CB010C94652CAEE0B0E0E2E5FAE2A7
S11354A00C94642D0D891E8986E08C831A830983EC
S11354B08FEF9FE79E838D83AE01475E5F4F6F89B9
S11354C0788DCE0101960E946E2AEF81F885E00F57
S11354D0F11F10822E96E4E00C94802DABE0B0E036
S11354E0E4E7FAE20C94562D6C017B018A01FC017D
S11354F017821682838181FFCCC1CE0101963C01C3
S1135500F6019381F70193FD859193FF81917F01CA
S1135510882309F4BAC1853239F493FD859193FF48
S113552081917F01853229F4B60190E00E94752CA7
S1135530E7CF912C212C312CFFE1F315D8F08B32DD
S113554079F038F4803279F08332A1F4232D20618C
S11355501DC08D3261F0803369F4232D216016C0A3
S1135560832D8260382EE32DE4603E2E2AC0F32D75
S1135570F8601DC037FC2DC020ED280F2A3040F004
S11355808E32B9F436FC81C1232D2064322E19C029
S113559036FE06C08AE0989E200D1124922E11C07A
S11355A0EAE02E9E200D1124222EF32DF0623F2ED0
S11355B008C08C3621F4832D8068382E02C08836CA
S11355C041F4F70193FD859193FF81917F0181114E
S11355D0B3CF982F9F7D9554933028F40C5F1F4FC1
S11355E09FE399830DC0833631F0833771F083359F
S11355F009F059C021C0F801808189830E5F1F4FD3
S113560088248394912C530113C02801F2E04F0E97
S1135610511CF801A080B18036FE03C0692D70E0F2
S113562002C06FEF7FEFC5010E945A2C4C0182012A
S1135630F32DFF773F2E16C0280122E0420E511CA5
S1135640F801A080B18036FE03C0692D70E002C06D
S11356506FEF7FEFC5010E944F2C4C01F32DF068D2
S11356603F2E820133FC1BC0822D90E088169906E0
S1135670B0F4B60180E290E00E94752C2A94F4CF35
S1135680F50137FC859137FE81915F01B60190E009
S11356900E94752C21102A9421E0821A9108811409
S11356A0910471F7E8C0843611F0893641F5F801A8
S11356B037FE07C060817181828193810C5F1F4F27
S11356C008C060817181072E000C880B990B0E5F56
S11356D01F4FF32DFF763F2E97FF09C090958095BD
S11356E0709561957F4F8F4F9F4FF0683F2E2AE052
S11356F030E0A3010E94B12C882E861845C085375E
S113570031F4232D2F7EB22E2AE030E025C0932DD4
S1135710997FB92E8F36C1F018F4883579F0B5C069
S1135720803719F0883721F0B0C0E92FE061BE2E30
S1135730B4FE0DC0FB2DF460BF2E09C034FE0AC0B8
S1135740292F2660B22E06C028E030E005C020E1F3
S113575030E002C020E132E0F801B7FE07C060810A
S11357607181828193810C5F1F4F06C060817181BA
S113577080E090E00E5F1F4FA3010E94B12C882EA1
S11357808618FB2DFF773F2E36FE0DC0232D2E7F6E
S1135790A22E891458F434FE0BC032FC09C0832DA8
S11357A08E7EA82E05C0B82CA32C03C0B82C01C033
S11357B0B92CA4FE0FC0FE01E80DF11D80818033D9
S11357C021F49A2D997EA92E09C0A2FE06C0B39495
S11357D0B39404C08A2D867809F0B394A3FC11C055
S11357E0A0FE06C0B21488F4280C922C9B180EC09C
S11357F0B21460F4B60180E290E00E94752CB39478
S1135800F7CFB21418F42B1802C0982C212CA4FE44
S113581010C0B60180E390E00E94752CA2FE17C070
S1135820A1FC03C088E790E002C088E590E0B601DF
S11358300CC08A2D867859F0A1FE02C08BE201C00B
S113584080E2A7FC8DE2B60190E00E94752C8914D9
S113585038F4B60180E390E00E94752C9A94F7CF57
S11358608A94F301E80DF11D8081B60190E00E9455
S1135870752C8110F5CF222009F442CEB60180E2C6
S113588090E00E94752C2A94F6CFF60186819781C8
S113589002C08FEF9FEF2B96E2E10C94722DFC0176
S11358A00590615070400110D8F7809590958E0F47
S11358B09F1F0895FC016150704001900110D8F7BA
S11358C0809590958E0F9F1F0895DC01FC01672F32
S11358D071917723E1F7329704C07C916D937083C3
S11358E06291AE17BF07C8F308950F931F93CF9328
S11358F0DF93FB01238121FD03C08FEF9FEF2CC0B9
S113590022FF16C0468157812481358142175307EF
S113591044F4A081B1819D012F5F3F4F31832083E7
S11359208C93268137812F5F3F4F3783268314C0A2
S11359308B01EC01FB010084F185E02D0995892B95
S1135940E1F6D80116968D919C91179701961796BA
S11359509C938E931697CE01DF91CF911F910F9157
S11359600895FA01AA27283051F1203181F1E894F1
S11359706F936E7F6E5F7F4F8F4F9F4FAF4FB1E03E
S11359803ED0B4E03CD0670F781F891F9A1FA11D39
S1135990680F791F8A1F911DA11D6A0F711D811D3A
S11359A0911DA11D20D009F468943F912AE0269FFF
S11359B011243019305D3193DEF6CF010895462F5E
S11359C04770405D4193B3E00FD0C9F7F6CF462F3F
S11359D04F70405D4A3318F0495D31FD40524193A8
S11359E002D0A9F7EACFB4E0A69597958795779565
S11359F06795BA95C9F700976105710508959B01EC
S1135A00AC010A2E06945795479537952795BA9574
S1135A10C9F7620F731F841F951FA01D0895E19994
S1135A20FECF9FBB8EBBE09A99278DB30895A8E162
S1135A30B0E042E050E00C94482D262FE199FECFCF
S1135A409FBB8EBBE09A01970DB2021631F02DBBBD
S1135A500FB6F894E29AE19A0FBE08950196272FA3
S1135A600E941E2D0C941D2D262FE199FECF9FBB65
S1135A708EBB2DBB0FB6F894E29AE19A0FBE019645
S1135A8008950E94342D272F0C94352DDC01CB0171
S1135A90FC01E199FECF06C0FFBBEEBBE09A319654
S1135AA00DB20D9241505040B8F708952F923F9295
S1135AB04F925F926F927F928F929F92AF92BF921A
S1135AC0CF92DF92EF92FF920F931F93CF93DF93C6
S1135AD0CDB7DEB7CA1BDB0B0FB6F894DEBF0FBE23
S1135AE0CDBF09942A88398848885F846E847D8470
S1135AF08C849B84AA84B984C884DF80EE80FD8072
S1135B000C811B81AA81B981CE0FD11D0FB6F894E7
S1115B10DEBF0FBECDBFED010895F894FFCFA8
S1135B1E0000D70420003030303030303030303098
S1135B2E303030300101DE070C0500000000FFFFAD
S1135B3E000000FFFF000000FFFF000000560300FE
S1135B4E00005B0300000161030000026603000015
S1135B5E036C030000FF71030000007803000001D2
S1135B6E7F0300000083030000016C030000FF8824
S1135B7E030000008C030000019003000002940354
S1135B8E00000398030000049C03000005A003001A
S1135B9E0006A403000007A8030000086C0300001D
S1135BAEFF5C03E71B00AE03771601B30315230254
S1135BBEBA03992103C003002204C603D31105CCF2
S1135BCE03262106D203A61B07D703672408DD0389
S1135BDE641209E303C5110A6C030000FF001F1CC5
S1135BEE1F1E1F1E1F1F1E1F1E1F00000303060164
S1135BFE04060205000305303132333435363738A6
S1135C0E39414243444546005265626F6F74206EBB
S1135C1E6F772E2E0048656C6C69676B656974200E
S1135C2E6765737065696368657274210056657281
S1135C3E2E3A20003C53746172742000203E4C6F47
S1135C4E772000203E4869676820004D455A202081
S1135C5E004D45535A2000536F6E6E746167004DAC
S1135C6E6F6E746167004D697474776F6368004476
S1135C7E6F6E6E65727374616700467265697461E6
S1135C8E670053616D737461670020202020204BE0
S1135C9E573A20002D2D2D2D2D00416B7475656CFA
S1135CAE6C652054656D70657261747572203A204E
S1135CBE2B00416B7475656C6C652054656D706555
S1135CCE7261747572203A202D00416B7475656C87
S1135CDE6C652054656D706572617475723A202519
