:100000000C94A2010C94BF010C94BF010C94BF018D
:100010000C9470260C94BF010C94BF010C94BF018A
:100020000C94BF010C94BF010C94E2250C94BF0109
:100030000C94BF010C94BF010C94BF010C94BF0140
:100040000C94BF010C94BF010C94BF010C94BF0130
:100050000C94BF013D0336032F03280321031A0329
:1000600013030C030503FE02F702F002E902E202A9
:10007000DB02D402CD02C602BF02B802B102AA025C
:10008000A3029C0295028E0287028002790272020C
:100090006B0264025D0256024F02480241023A02BC
:1000A00033022C0225021E0217021002090202026C
:1000B000FB01F401ED01E601DF01D801D101CA0124
:1000C000C301BC01B501AE01A701A00199019201D4
:1000D0008B0184017D0176016F01680161015A0184
:1000E00053014C0145013E01370130012901220134
:1000F0001B0114010D010601FF00FC007C01FF251E
:1001000005FF810081FFA705FF950895FF3A02666C
:1001100066FFFFFFB0026060FFFFFF2E020303FFD8
:10012000FFFF6005FFFFFFFFFF2A054402120244A4
:100130002405122A7F2A243C05081C2A08083E05AB
:1001400008082A1C083D0514141414142D05080869
:100150000808082B0508083E080829040081423CCD
:10016000002804003C42810026057689956205231B
:10017000052040FF402040050402FF02042101FD4C
:10018000000000003F0560808D906039057089890E
:100190008A7C38056E9191916E3705808F90A0C052
:1001A00036051E294989863505F29191918E3405CF
:1001B000182848FF083305428191916E3205438526
:1001C00089916131040041FF010030057E8991A1D0
:1001D0007E7A0511131519117905003905053E7848
:1001E00005110A040A1177051E010E011E76051C71
:1001F0000201021C75051E0101021F740520FE216B
:1002000001027305091515150272051F0810100863
:100210007105102828183F70053F242424186F0505
:100220000E1111110E6E053F1020201F6D053F208D
:1002300018201F6C040081FF01006B04FF040A11E9
:10024000006A04020121BE0069015F00000000682D
:1002500005FF0810100F6705304949497E660508FB
:100260007F88804065050E1515150C64050E11116B
:1002700009FF63051E212121126205FF0911110EDC
:100280006105062929291F5A05838599A1C15905A8
:10029000E0100F10E05805C3241824C35705FF02CF
:1002A0000C02FF5605F00C030CF05505FE01010190
:1002B000FE54058080FF80805305619191918E529C
:1002C00005FF888C8A7151057E8185827D5005FFEE
:1002D000888888704F057E8181817E4E05FF403081
:1002E00008FF4D05FF403040FF4C05FF01010101B3
:1002F0004B05FF182442814A0506010101FE49050C
:100300008181FF81814805FF101010FF47057E8124
:1003100089894E4605FF909090804505FF91919107
:10032000814405FF8181423C43057E8181814242B7
:1003300005FF9191916E41053F4888483F20030099
:100340000000000011241FBECFE5D8E0DEBFCDBF06
:1003500013E0A0E6B0E0EEE0F8E502C005900D92F3
:10036000AE3FB107D9F724E0AEEFB3E001C01D9274
:10037000AF3CB207E1F70E94AC240C94052C0C941E
:10038000000000C000C000C000C000C000C00000ED
:100390000895A198A098A998A8980895A19AF1DF26
:1003A0001DD00895A09AEDDFA198EBDFA098E9DFBA
:1003B000A19AE7DF13D00895082EA19AE2DF802DDD
:1003C0000DD0882311F002D0F8CF0895A09AA19AF9
:1003D000D8DFA098D6DFA198D4DF08950894881FAD
:1003E00001C0880F59F0A09A18F40000A19802C02B
:1003F000A19A00C0C6DFA098C4DFF3CFA09AA1984D
:10040000C0DFA098989BFECF8827999981E0B9DF3B
:1004100099270895882701C081E071E0A09AA198EA
:10042000B0DFA098AEDF989BFECF8894999908948E
:10043000771FA0F7A09A813011F0A19801C0A19A6E
:10044000A0DFA098989BFECF9CDF872F9927089567
:100450000F931F93CF93DF938C01FC01C081613018
:1004600019F0611113C029C08EEE0E94DC018C2F9F
:100470000E94EE010E94E6018FEE0E94DC010E94C4
:100480000A02F80180830E94E60117C0DC2FD60F14
:100490008EEE0E94DC018C2F0E94EE010E94E6018C
:1004A0008FEE0E94DC010E940A02F80181938F0105
:1004B0000E94E601CF5FDC13EBCF81E0DF91CF91AB
:1004C0001F910F9108950F931F93CF93DF931F9266
:1004D000CDB7DEB78B01898361E0CE0101960E9422
:1004E0002802882321F08981F801808381E00F9020
:1004F000DF91CF911F910F9108950F931F93CF9389
:10050000DF9300D0CDB7DEB78B01898362E0CE01E7
:1005100001960E942802882351F0898190E0982F4B
:1005200088272A81822BF8019183808381E00F90B4
:100530000F90DF91CF911F910F9108950F931F930B
:10054000CF93DF9300D0CDB7DEB78B01898362E014
:10055000CE0101960E942802882359F0898190E0FB
:10056000982F88272A81822BF8019183808380E04D
:1005700001C081E00F900F90DF91CF911F910F91FB
:100580000895CF93DF93EC01BC018AEA0E947D02BB
:10059000BE016E5F7F4F8CEA0E947D02BE016C5FE0
:1005A0007F4F8EEA0E947D02BE016A5F7F4F80EB23
:1005B0000E949E02BE01685F7F4F82EB0E949E02F6
:1005C000BE01665F7F4F84EB0E949E02BE01645FA6
:1005D0007F4F86EB0E947D02BE01625F7F4F88EBFA
:1005E0000E947D02BE01605F7F4F8AEB0E947D0208
:1005F000BE016E5E7F4F8CEB0E947D02BE016C5E81
:100600007F4F8EEB0E947D0281E0DF91CF910895B4
:10061000EF92FF920F931F93CF93DF93FC01C08162
:10062000662331F18C01FC2EF60E8EEE0E94CE0177
:10063000811120C08C2F0E94EE01D82FF8018181FA
:100640000E94EE01E82EFFEF22E587E0F150204006
:100650008040E1F700C00000DE0D0E94E601DE0DE3
:1006600059F4CF5F0F5F1F4FFC12DFCF81E005C051
:1006700081E003C080E001C080E0DF91CF911F9155
:100680000F91FF90EF900895CF93DF9300D0CDB7F7
:10069000DEB789836A8361E0CE0101960E94080378
:1006A00091E0811101C090E0892F0F900F90DF91B0
:1006B000CF910895EF92FF920F931F93CF93DF9303
:1006C0001F92CDB7DEB7F82EE42E69830E94440353
:1006D00081110CC017C0BE016F5F7F4F8F2D0E942C
:1006E00063020F5F1F4F811103C00CC000E010E0D8
:1006F00089818E2131F00F3F8FEF180761F781E07C
:1007000001C081E00F90DF91CF911F910F91FF9079
:10071000EF9008950F931F93CF93DF9300D0CDB741
:10072000DEB78C0140E26EE284EF0E945A03882318
:1007300061F0BE016F5F7F4F86EF0E947D0289816D
:100740009A81F8019183808381E00F900F90DF916F
:10075000CF911F910F9108954F925F926F927F9268
:100760008F929F92AF92BF92CF92DF92EF92FF92C1
:100770001F93CF93DF9300D000D000D0CDB7DEB76A
:1007800088A099A0A12CB12C4AA05BA0612C712C4F
:10079000CAA4DBA40D2C000CEE08FF082CA53DA577
:1007A000C901330FAA0BBB0B8B839C83AD83BE8324
:1007B000CE0101960E948A03182F29813A81C9012E
:1007C000A0E0B0E09C01AD012419350946095709A4
:1007D000C501B4010E94C1274B015C01072E7FE0D7
:1007E000B594A794979487947A95D1F7702DC70103
:1007F000B601052E5BE0660F771F881F991F5A957B
:10080000D1F7502D2B813C814D815E81280D391D02
:100810004A1D5B1D0E940728820E931EA41EB51E52
:1008200098E0890E911CA11CB11C689413F8B59432
:10083000A794979487941694D1F7EEA9FFA9808284
:100840009182A282B382812F817026960FB6F8948E
:10085000DEBF0FBECDBFDF91CF911F91FF90EF9014
:10086000DF90CF90BF90AF909F908F907F906F90D0
:100870005F904F900895FF920F931F93CF93DF9354
:1008800000D01F92CDB7DEB78C01F62E6295660FB1
:10089000660F607C6C5C40E284EF0E945A03882300
:1008A00079F1BE016F5F7F4F86EF0E946302BE0148
:1008B0006E5F7F4F87EF0E946302BE016D5F7F4FC7
:1008C00088EF0E94630229818A8190E0A0E0B0E075
:1008D000BA2FA92F982F8827A22B2B81822B28E0B3
:1008E00030E02F19310904C0B595A79597958795E4
:1008F0002A95D2F7F80180839183A283B38381E0A4
:100900000F900F900F90DF91CF911F910F91FF905B
:1009100008952F923F924F925F926F927F928F92A3
:100920009F92AF92BF92CF92DF92EF92FF920F937E
:100930001F93CF93DF93CDB7DEB7A8970FB6F89488
:10094000DEBF0FBECDBF1C01062FDC014D905C90B9
:1009500011979201550C440B550B2F83388749870B
:100960005A8712968D919C9113979C01990F440B75
:10097000550B2B873C874D875E8714968D909C90F6
:100980001597C401990CAA0BBB0B8F87988BA98B69
:10099000BA8BD10116960D90BC91A02DBC8BAB8B60
:1009A000F10140845184920140E050E02D8B3E8B58
:1009B0004F8B588F828593859C0140E050E0298FB2
:1009C0003A8F4B8F5C8F628973892B01770F660892
:1009D0007708248935894901330FAA08BB08848523
:1009E00095859C01990F440B550B2D8F3E8F4F8F92
:1009F00058A3868597859C01990F440B550B29A315
:100A00003AA34BA35CA3CE0101960E948A03182F40
:100A1000C980DA800D2C000CEE08FF08602FCE0193
:100A200003960E943B048123182F11708B819C81B7
:100A3000AD81BE818DA39EA3AFA3B8A7A7019601E8
:100A4000898D9A8DAB8DBC8D281B390B4A0B5B0BA6
:100A50006D897E898F89988D0E94C1276B017C01E9
:100A60000B2EBFE0F594E794D794C794BA95D1F7CD
:100A7000B02DC301B201052E5BE0660F771F881F02
:100A8000991F5A95D1F7502DA50194012C0D3D1DAC
:100A90004E1D5F1D0E940728C20ED31EE41EF51EC8
:100AA000D701C6010896A11DB11D689413F8B5952C
:100AB000A795979587951694D1F7F101828F938F1B
:100AC000A48FB58FF0EACF1AFFE0DF0AE108F10842
:100AD000A7019601C701B6010E94C1272B013C0165
:100AE000032E3CE075946794579447943A95D1F758
:100AF000302D2F85388949895A89C701B6010E944E
:100B0000C1274B015C01992334F42FEF820E2FE1B2
:100B1000921EA11CB11C072E7DE0B594A79497945A
:100B200087947A95D1F7702D2D8D3E8D4F8D58A1DC
:100B3000C301B2010E94C127BB2797FDB095AB2F1F
:100B4000880D991DAA1DBB1D0296A11DB11DB5954D
:100B5000A79597958795B595A795979587959C01A6
:100B6000AD0130584F4F5F4FAB89BC890E9435288B
:100B70004B015C01072E7FE0B694A794979487946D
:100B80007A95D1F7702D29A13AA14BA15CA1C3019F
:100B9000B2010E94C1272B013C01032E3BE075945A
:100BA0006794579447943A95D1F7302D2B853C851F
:100BB0004D855E85C701B6010E94C127DC01CB01CE
:100BC000072E7BE0B595A795979587957A95D1F7F0
:100BD000702D480E591E6A1E7B1E8F819885A9852F
:100BE000BA85880F991FAA1FBB1F880F991FAA1FBC
:100BF000BB1F480E591E6A1E7B1E002E04C0440CEB
:100C0000551C661C771C0A94D2F732E0430E511C27
:100C1000611C711C759467945794479475946794FC
:100C2000579447942DA13EA14FA158A524193509E9
:100C30004609570980E593ECA0E0B0E0BC01CD0186
:100C400004C095958795779567950A95D2F70E9488
:100C5000C12799236CF0660F771F881F991FA50184
:100C600094010E94E5272B833C834D835E830EC055
:100C7000A50194010E94E527DA01C901880F991F97
:100C8000AA1FBB1F8B839C83AD83BE838B809C80FC
:100C9000AD80BE809927B7FC9A958B2D7A2D692D52
:100CA0009B01AC010E94C1279B01AC01AEEDBBE0F2
:100CB0000E9435286B017C01A3E4B3EEA5019401E9
:100CC0000E944328BB2797FDB095AB2F6701FF24F7
:100CD000D7FCF094EF2CC80ED91EEA1EFB1E4FEC79
:100CE000C40E4EE0D41EE11CF11C689413F8F59478
:100CF000E794D794C7941694D1F7C80CD91CEA1C72
:100D0000FB1CD1015696CD92DD92ED92FC92599743
:100D1000812FA8960FB6F894DEBF0FBECDBFDF912E
:100D2000CF911F910F91FF90EF90DF90CF90BF90E8
:100D3000AF909F908F907F906F905F904F903F907B
:100D40002F90089581E294E00E94C1020895E0E6A8
:100D5000F0E091E390838EE2818322E32283838318
:100D600020E3248336E33583268324E327838087A7
:100D7000918788E3828783E384871586CF0108956E
:100D8000CF93DF93CDB7DEB761970FB6F894DEBF90
:100D90000FBECDBF91E1E1E4F1E0DE0111960190DB
:100DA0000D929A95E1F790E3FB01908398E7918388
:100DB000982F92959F70E1E0F0E0EC0FFD1FE90F96
:100DC000F11D9081FB0192838F70E1E0F0E0EC0F68
:100DD000FD1FE80FF11D8081FB0183831482CB018D
:100DE00061960FB6F894DEBF0FBECDBFDF91CF91F5
:100DF000089580914604882369F0809142048330ED
:100E000049F480914504811105C081E08093450437
:100E100010924604809145040895809146048823E9
:100E200009F446C0809142048130B1F490910204EB
:100E3000E92FE695E695E695F0E0ED5FFB4F308112
:100E4000292F277081E090E002C0880F991F2A9512
:100E5000E2F7832B808325C080914204811117C063
:100E600090910204E92FE695E695E695F0E0ED5FB6
:100E7000FB4F3081292F277081E090E002C0880F5E
:100E8000991F2A95E2F78095832380830AC0809179
:100E90004204833031F4109202041092460480E040
:100EA0000895809102048F5F80930204109246049B
:100EB000809102048B3330F01092020410924504AA
:100EC00081E0089580E008950F931F93CF93DF93FF
:100ED00085E190E0E82FE695E695E695F0E0ED5F98
:100EE000FB4F208130E0482F477002C03595279591
:100EF0004A95E2F720FD9F5F8F5F8D3159F790FD96
:100F00006BC2E82FE695E695E695F0E0ED5FFB4FC6
:100F1000208130E0482F477002C0359527954A95CB
:100F2000E2F720FD9F5F8F5F843259F75BC2E82FA5
:100F3000E695E695E695F0E0ED5FFB4F208130E029
:100F4000482F477002C0359527954A95E2F720FD56
:100F50009F5F8F5F8B3359F790FD40C2EEE6F0E064
:100F600016821582148210821782118213821282D5
:100F700080E090E041E050E0682F9C012B5E3F4F05
:100F8000D9010AF41796B595A795B595A795B59586
:100F9000A795AD5FBB4FAC91B0E02770307833239D
:100FA00034F421503109286F3F6F2F5F3F4F8D017F
:100FB00002C0159507952A95E2F700FF0AC07581D2
:100FC0009A01062E02C0220F331F0A94E2F7272B44
:100FD00025839C01235E3F4FD9010AF41796B595EE
:100FE000A795B595A795B595A795AD5FBB4FAC9166
:100FF000B0E027703078332334F421503109286F62
:101000003F6F2F5F3F4FED0102C0D595C7952A95E1
:10101000E2F7C0FF0AC074819A01062E02C0220FB7
:10102000331F0A94E2F7272B24839C012C5D3F4F4A
:10103000D9010AF41796B595A795B595A795B595D5
:10104000A795AD5FBB4FAC91B0E0277030783323EC
:1010500034F421503109286F3F6F2F5F3F4F8D01CE
:1010600002C0159507952A95E2F700FF0AC0708126
:101070009A01062E02C0220F331F0A94E2F7272B93
:1010800020839C01265D3F4FD9010AF41796B59540
:10109000A795B595A795B595A795AD5FBB4FAC91B5
:1010A000B0E027703078332334F421503109286FB1
:1010B0003F6F2F5F3F4FED0102C0D595C7952A9531
:1010C000E2F7C0FF0CC0833050F477819A01062EFE
:1010D00002C0220F331F0A94E2F7272B27839C01BB
:1010E000235D3F4FD9010AF41796B595A795B5959D
:1010F000A795B595A795AD5FBB4FAC91B0E02770B4
:101100003078332334F421503109286F3F6F2F5F3B
:101110003F4F8D0102C0159507952A95E2F700FF14
:101120000AC071819A01062E02C0220F331F0A9451
:10113000E2F7272B21839C012E5C3F4FD9010AF453
:101140001796B595A795B595A795B595A795AD5F54
:10115000BB4FAC91B0E027703078332334F421508A
:101160003109286F3F6F2F5F3F4FED0102C0D595CA
:10117000C7952A95E2F7C0FF0CC0228133818A010E
:1011800002C0000F111F6A95E2F7202B312B338329
:10119000228301968430910509F0EECE48E250E0BA
:1011A00020E030E0C4E0EEE6F0E06AE070E0C90183
:1011B0004996DC010AF41796B595A795B595A795BC
:1011C000B595A795AD5FBB4FAC91B0E087709078B7
:1011D000992324F40197886F9F6F01968D0102C0B7
:1011E000159507958A95E2F700FF0CC0C73050F4BB
:1011F000A581CB01022E02C0880F991F0A94E2F745
:101200008A0F8583C9018196DC010AF41796B5958A
:10121000A795B595A795B595A795AD5FBB4FAC9133
:10122000B0E087709078992324F40197886F9F6FBE
:1012300001968D0102C0159507958A95E2F700FF8A
:101240002DC0C63008F0D1C0A481CB01022E02C04F
:10125000880F991F0A94E2F78A0F8483CA01DA0182
:1012600055230CF41796B595A795B595A795B59503
:10127000A795AD5FBB4FAC91B0E087709078992394
:1012800024F40197886F9F6F01968D0102C0159518
:1012900007958A95E2F700FD22C02BC0CA01DA014A
:1012A00055230CF41796B595A795B595A795B595C3
:1012B000A795AD5FBB4FAC91B0E087709078992354
:1012C00024F40197886F9F6F01968D0102C01595D8
:1012D00007958A95E2F700FF0CC0C63050F4A08154
:1012E000CB01022E02C0880F991F0A94E2F78A0FE1
:1012F0008083C901C196DC010AF41796B595A795BC
:10130000B595A795B595A795AD5FBB4FAC91B0E0EE
:1013100087709078992324F40197886F9F6F0196C6
:101320008D0102C0159507958A95E2F700FF0CC064
:10133000C43051F4A181CB01022E02C0880F991F45
:101340000A94E2F78A0F8183C901C696DC010AF488
:101350001796B595A795B595A795B595A795AD5F42
:10136000BB4FAC91B0E087709078992324F401973B
:10137000886F9F6F01968D0102C0159507958A951C
:10138000E2F700FF0DC082819381DB01022E02C0D3
:10139000AA0FBB1F0A94E2F78A0F9B1F93838283D5
:1013A000CF5F2F5F3F4F4F5F5F4FC83009F0FFCED9
:1013B000EEE6F0E0828193818053984F938382839D
:1013C0008091050481FF04C081E0809376001CC0F9
:1013D0001092760081E018C080E016C080E014C052
:1013E00080E012C090FFA3CDFBCFCA0155230CF4BF
:1013F0000796959587959595879595958795DC01A1
:10140000AD5FBB4F8C9175CFDF91CF911F910F9145
:101410000895B2993CC080910004909101048837EE
:1014200025E0920730F12091780030917900821701
:10143000930720F4909379008093780020917A00AC
:1014400030917B002817390720F490937B0080931C
:101450007A00E7E7F0E085818F5F858381E0809304
:10146000460483E080934204109201041092000429
:1014700004C010920104109200048091FE03909128
:10148000FF0301969093FF038093FE0361C0809158
:10149000FE039091FF03843B910528F12091820087
:1014A000309183008217930720F4909383008093F8
:1014B000820020918400309185002817390720F49C
:1014C0009093850080938400E7E7F0E087858F5F45
:1014D000878781E080934604809342041092FF0343
:1014E0001092FE032CC08035910528F120917D00DB
:1014F00030917E008217930720F490937E008093B2
:101500007D0020917F00309180002817390720F45A
:101510009093800080937F00E7E7F0E082858F5F03
:10152000828781E080934604109242041092FF0368
:101530001092FE0304C01092FF031092FE038091EC
:10154000000490910104019690930104809300049B
:101550000E94F9068823A1F00E940D07882381F0DC
:101560000E946407882341F081E080934304109235
:1015700040041092410408951092430410924104D3
:1015800008950097B1F408950000000000000000E5
:10159000000000000000000000000000000000004B
:1015A0002150310989F74F5F5F4F8417950719F470
:1015B000089540E050E028EE33E0E6CFDD9808954E
:1015C000DD9A0895662351F0DB98982F962311F049
:1015D000DA9A01C0DA98DB9A6695B1F70895CF934D
:1015E000DF930E94DE0A64E085E00E94E20A60E484
:1015F00080E00E94E20AC0E0D0E0FE01E95BFB4F20
:10160000808168E00E94E20A2196C034D105A9F7E2
:101610000E94E00ADF91CF910895CF93C82F0E94D6
:10162000DE0A64E084E00E94E20A60E88C2F0E94F7
:10163000E20A61E081E00E94E20A0E94E00ACF91A2
:101640000895EF92FF920F931F93CF93DF9300D0F3
:1016500000D000D0CDB7DEB7D59ADD9AD39AD29A12
:1016600091E0998393E09A8398E09B8398E19C832F
:1016700090E29D838E838E010F5F1F4F7E0187E076
:10168000E80EF11CF80181918F010E940D0B0E15DF
:101690001F05C1F726960FB6F894DEBF0FBECDBF6B
:1016A000DF91CF911F910F91FF90EF9008958032BD
:1016B00040F5683040F5982F96959695969570E090
:1016C000660F771F20E1929F600D711D112482FB30
:1016D000222720F930E0620F731FFB01E95BFB4F0B
:1016E0004081837028E030E0B90102C075956795AC
:1016F0008A95E2F7CB01942F982381E029F480E0CA
:10170000089580E0089580E00895803268F568309B
:1017100058F5982F9370E8E0F0E002C0F595E79552
:101720009A95E2F7982F96959695969570E0660FA4
:10173000771F20E1929F600D711D112482FB2227EB
:1017400020F930E0620F731F442339F0DB01A95BFD
:10175000BB4F8C91E82BEC930895DB01A95BBB4F49
:101760008C91E095E823EC930895982F92959F70C3
:10177000990F292F220F220F920F8F70890F089532
:101780000F931F93CF93DF93EBE0F4E092E090830D
:101790009DEC499F212D112426952695269530E113
:1017A000239FD0011124220F322F330F330F230F29
:1017B000421B4A2B4183699F212D11242695269592
:1017C000269530E1239FA0011124220F322F330FE1
:1017D000330F230F621B642B6283899F912D112489
:1017E00096959695969540E1949F90011124990FB6
:1017F000392F330F330F930F891B822B838382EA98
:101800000E94DC01CBE0D4E006E114E089910E9463
:10181000EE01C017D107D1F70E94E601DF91CF9109
:101820001F910F9108950F931F93CF93DF93EBE0D8
:10183000F4E095E090839DEC899F312D112436953D
:101840003695369550E1359FD0011124330F532F33
:10185000550F550F350F831B8A2B8183699F812D6F
:10186000112486958695869530E1839FD0011124B9
:10187000880F382F330F330F830F681B6A2B628357
:10188000499F812D112486958695869550E1859FE7
:10189000B0011124880F382F330F330F830F481BEB
:1018A000462B4383205D299F912D11249695969573
:1018B000969580E1989FA0011124990F892F880F98
:1018C000880F980F291B242B248382EA0E94DC01B5
:1018D000CBE0D4E006E114E089910E94EE01C0174C
:1018E000D107D1F70E94E601DF91CF911F910F91AF
:1018F0000895EF92FF920F931F93CF93DF938C0184
:10190000CBE0D4E082E0888382EA0E94CE01888125
:101910000E94EE0183EA0E94D201882319F00E94FE
:10192000E60114C0CBE0D4E00F2EF6E1EF2EF4E098
:10193000FF2EF02D0E940C028993CE15DF05D1F702
:101940000E940A02809316040E94E601EBE0F4E094
:10195000A081E801A8837181798362816A835381C0
:101960005C8334813D8345814B83868190E09F83F6
:101970008E83278128879085998781858A87E2854C
:10198000AF77A8837F7779836F736A835F735C8394
:101990004F714B8337703D832F7728879F779987C7
:1019A0008F778A878E2F8F778B87DF91CF911F91CB
:1019B0000F91FF90EF900895AC019C013295229514
:1019C0002F7023273F702327AEE3BAE00E9426281A
:1019D00020E931E0BC01629FC001639F900D729FBE
:1019E000900D112448175907D9F09A01369527957B
:1019F00036952795ABE7B4E10E9426289695879502
:101A000064E6689F9001699F300D112442175307C7
:101A100049F04370552781E0452B29F080E0089577
:101A200081E0089580E00895CF93DF93CDB7DEB7CE
:101A30002D970FB6F894DEBF0FBECDBF9DE0E7E255
:101A4000F1E0DE01119601900D929A95E1F7823056
:101A500041F4CB010E94DC0C81110DC08CE190E0BF
:101A60000FC09FEF980F9C3048F4FE01E80FF11D66
:101A7000818190E005C08DE190E002C080E090E0BF
:101A80002D960FB6F894DEBF0FBECDBFDF91CF917C
:101A90000895AF92BF92CF92DF92EF92FF920F9391
:101AA0001F93CF93DF93CDB7DEB72D970FB6F89482
:101AB000DEBF0FBECDBF162F9DE0E4E3F1E0DE01F7
:101AC000119601900D929A95E1F79FEF960F9C3039
:101AD00008F076C09FEF980F9F3108F074C0411551
:101AE000510509F473C005E2809F012D1124982F40
:101AF000901B9695090F06950695902F990F990FB3
:101B0000990F901B082F091BFE01E60FF11DD180D4
:101B10005A01B694A794B694A7949501ABE7B4E1A3
:101B20000E9426289695879564E6689F9001699F94
:101B3000300D1124CA01821B930BFC01F695E79529
:101B4000F695E795E80FF91F9F01A3E9B4E20E941B
:101B50002628281B390B369527957C01E20EF31EAB
:101B6000F694E794F694E794C701880F991F880FBD
:101B7000991F880F991F8E199F097F01E81AF90A8A
:101B80009501ABE7B4E10E9426289695879580954C
:101B900090958370C82ECC0C133028F4CA010E9493
:101BA000DC0C81110A5F8D2D90E0800F911D8E0D50
:101BB000911D8C0D911D67E070E00E94D12708C037
:101BC0008FEF9FEF05C08FEF9FEF02C08FEF9FEF6A
:101BD0002D960FB6F894DEBF0FBECDBFDF91CF912B
:101BE0001F910F91FF90EF90DF90CF90BF90AF903B
:101BF0000895EF92FF920F931F93CF939FEF960F4D
:101C00009C3090F4082F10E0623088F07A01C62FE3
:101C1000C150B7018C2F0E94140D080F191FC1303D
:101C2000B9F7802F912F04C08FEF9FEF01C0912F44
:101C3000CF911F910F91FF90EF900895EF92FF9237
:101C40000F931F93CF93DF937A010E94F90DEC015C
:101C5000A70161E081E00E94490D8C01059710F019
:101C600007501109C8018C0F9D1F8230910550F457
:101C7000A701415051096CE070E08FE190E00E94B3
:101C80001E0E40C0FC0135969F01A3E9B4E20E94FC
:101C90002628E81BF90BF695E7959C012E0F3F1FB0
:101CA000369527953695279525333105D1F4C7010B
:101CB0000E94DC0C04301105B9F00D3F9FEF1907AD
:101CC000B1F00330110529F4811114C081E090E0D6
:101CD00019C00C3F1F4F89F4882391F085E390E0F1
:101CE00011C0822F932F0EC085E390E00BC085E3D7
:101CF00090E008C085E390E005C081E090E002C07C
:101D000081E090E0DF91CF911F910F91FF90EF90D4
:101D100008950F931F93CF93DF9310E000E016C058
:101D2000D1E0DC0F612F8D2F0E94570B482F612FC0
:101D30008C2F0E94850BCD2FDF3191F7402F612F23
:101D40008FE10E94850B1F5F183011F0C02FE8CF84
:101D5000DF91CF911F910F9108950F931F93CF9310
:101D6000DF9310E00FC06D2F8C2F0E94570B482F70
:101D7000612F8C2F0E94850BCF5FC032A1F7D73027
:101D800029F01D2FC0E0D1E0D10FEDCFC0E040E041
:101D900067E08C2F0E94850BCF5FC032C1F7DF91C7
:101DA000CF911F910F910895AF92BF92CF92DF9282
:101DB000EF92FF920F931F93CF93DF9300D01F9268
:101DC000CDB7DEB78B835B0104E510E00F2EFCEF8F
:101DD000CF2EF0E0DF2EF02D42E050E0B801CE0132
:101DE00001960E946928E980FA8041E050E0B7013D
:101DF000CE0103960E945C28892B39F447E050E01D
:101E0000B701C5010E94692809C00E5F1F4F0C155C
:101E10001D0511F7B5018FE30E94D40E0F900F90AE
:101E20000F90DF91CF911F910F91FF90EF90DF9076
:101E3000CF90BF90AF900895CF93DF93CDB7DEB72B
:101E400027970FB6F894DEBF0FBECDBF1A82198256
:101E5000FE01339695E0DF011D929A95E9F7BE01E8
:101E60006F5F7F4F0E94D40E8A8127960FB6F89439
:101E7000DEBF0FBECDBFDF91CF9108953F924F924D
:101E80005F926F927F928F929F92AF92BF92CF920A
:101E9000DF92EF92FF920F931F93CF93DF93CDB713
:101EA000DEB729970FB6F894DEBF0FBECDBF462E22
:101EB000BE016F5F7F4F0E94D40E3A800F2EF7E075
:101EC000AF2EB12CF02D512C88248394912CCE016F
:101ED000019699878887632C640CE42CF12CE81A0E
:101EE000F90A23C0C701800F911F809794F4F8016D
:101EF000828190E08C219D21892B31F041E0652D7C
:101F0000872D0E94850B05C040E0652D872D0E941E
:101F1000850B73940F5F1F4F7610E4CF5394F1E05D
:101F2000AF1AB10888E0581671F03320B9F3640194
:101F30000A2C02C0CC0CDD1C0A94E2F78E010F5F64
:101F40001F4F742CCFCF10E0430C40E0612F842D45
:101F50000E94850B1F5F1830C1F729960FB6F894C1
:101F6000DEBF0FBECDBFDF91CF911F910F91FF90CC
:101F7000EF90DF90CF90BF90AF909F908F907F9029
:101F80006F905F904F903F9008950F931F93CF9362
:101F9000DF93C62F0E94B50B082F8C2F0E94B50B24
:101FA000182FCDEC0C9FD12D1124D695D695D69512
:101FB00061E080E38D0F0E943E0FDD0F8D2F880FB3
:101FC000880FD80F802F8D1B67E0805D0E943E0F29
:101FD0001C9FC12D1124C695C695C69563E180E36B
:101FE0008C0F0E943E0FCC0F8C2F880F880FC80FCC
:101FF000812F8C1B69E1805D0E943E0FDF91CF91A4
:102000001F910F9108950F931F93CF93DF93082F84
:10201000162FCDEC8C9FD12D1124D695D695D69523
:1020200061E080E38D0F0E943E0FDD0F8D2F880F42
:10203000880FD80F802F8D1B67E0805D0E943E0FB8
:102040001C9FC12D1124C695C695C69563E180E3FA
:102050008C0F0E943E0FCC0F8C2F880F880FC80F5B
:10206000812F8C1B69E1805D0E943E0FDF91CF9133
:102070001F910F910895EF92FF920F931F93CF93AB
:10208000DF937C01D62FFC0181918F010E943E0FCE
:10209000F70180810E941C0FC1E0C80FF701818108
:1020A000882381F06D2F6C0F0E943E0FF801819103
:1020B0008F010E941C0F8C0FC1E0C80FF8018081B6
:1020C0008111F0CFDF91CF911F910F91FF90EF9091
:1020D00008956FE08AE30E943E0F08952091A104C5
:1020E0003091A2042832310518F40E94031008959B
:1020F0008091A1049091A2048997F0F08091A104AD
:102100009091A20480359105B8F4442319F0413030
:1021100051F0089561E080E60E943E0F67E080E69E
:102120000E943E0F089563E180E60E943E0F69E140
:1021300080E60E943E0F08958091A1049091A20430
:102140008135910520F01092A2041092A104089507
:102150000F931F93CF93DF938C018091A1049091F3
:10216000A204889720F4C8010E943B102FC08091E0
:10217000A1049091A2048997F0F08091A10490911C
:10218000A2048035910540F016C06C2F80E60E94B5
:102190003E0FDF5FCA5F02C0C62FD0E0F80101909A
:1021A0000020E9F73197E01BF10B8D2F90E08E179F
:1021B0009F0758F30BC08091A1049091A204813530
:1021C000910520F01092A2041092A104DF91CF910A
:1021D0001F910F91089580E090E0FC01E95BFB4FB7
:1021E0001082019680349105C1F708954F925F9255
:1021F0006F927F928F929F92AF92BF92CF92DF9217
:10220000EF92FF920F931F93CF93DF93EC01562E23
:102210000E94EB10511004C00F2EFAE55F2EF02D36
:102220008881882309F4ABC06E018FEFC81AD80AE1
:102230007E016894772475F880E0C0E0D0E0612CDE
:102240000F2EF4E98F2EF4E09F2EF02D44244394BA
:10225000052D10E0F40112829091A50491FF03C0B6
:102260001092A504642C882309F473C0C0320CF4C6
:102270006BC0C8010E94C10A0E94890E1C1614F48A
:10228000D150C1506D2F872D0E943E0FC0328CF768
:102290005BC06D2F872D0E943E0F872D0E941C0F63
:1022A0008F5FC82FCD0FF5018081811106C0C0322C
:1022B0006CF1F1E06F120CC051C08FEFC81AD80A50
:1022C0009FEFE91AF90A842DE1E06E12C3CF54C0E2
:1022D000FF24F394052D10E08091A50481FF03C035
:1022E0001092A5046F2CC8010E94C10A0E94890E99
:1022F0001C1614F4D150C1506D2F872D0E943E0F33
:10230000C03224F0F1E06F12E7CF28C0052D10E0B5
:10231000C8010E94C10A81E0681227C007C00E945C
:10232000890EC8010E94C10AC150C9F71092A404C5
:102330001092A304809193048F7E8093930481E094
:10234000611024C080E022C0F70170805601DC2FAC
:10235000A0CFF70170805601DFE19BCF852D90E083
:102360000E94C10A66246394E1CF0E94890EC801CD
:102370000E94C10ACFE1D3CFC03244F2EFCF052D86
:1023800010E0C8010E94C10A612CEFCFDF91CF910C
:102390001F910F91FF90EF90DF90CF90BF90AF9083
:1023A0009F908F907F906F905F904F90089564E121
:1023B00082E591E00E94F61098E088E10FB6F8946B
:1023C000A89581BD0FBE91BDFFCF0F931F93CF93F3
:1023D000DF930E94EB1089E090E00E94872B082F8A
:1023E000D0E6D80F8CB3182F127081FDFBCFCD2F04
:1023F0008091A50483FF0CC01092A5040E94EB10ED
:10240000CF5FC03108F0C0E080EA8C0F0E940D0B56
:102410008091A50482FF0BC01092A5040E94EB10CE
:10242000C1500AF4CFE080EA8C0F0E940D0B80911E
:10243000A50484FF21C01092A5040E94EB10C05691
:102440008C2F0E940D0BC093B2046C2F89E090E09A
:102450000E94952B6AE08FE591E00E94F610E4E976
:10246000F4E01282108211821092A50480919304EC
:102470008F7E8093930434C08091A50481FD04C0B5
:102480008091930484FF0EC01092A5048091930460
:102490008F7E809393040E94EB10802F0E940D0B7F
:1024A00011E01EC0CA3030F461E080E38C0F0E945E
:1024B0003E0F09C061E081E30E943E0F67E086E2C3
:1024C0008C0F0E943E0FCD1306C06BE187EA0E947D
:1024D0003E0FCD2F8DCF6BE185E20E943E0F88CF5E
:1024E000812FDF91CF911F910F910895CF93DF93AB
:1024F000CDB7DEB764970FB6F894DEBF0FBECDBF81
:102500001A821982FE01339682E1DF011D928A95BB
:10251000E9F78091A50484FD1BC087E0E7E7F1E0BF
:10252000DE01119601900D928A95E1F70E94A706AF
:10253000BC01CE0101960E94722864E1CE01019691
:102540000E94F6109091A50494FD02C0813029F7F5
:102550000E94EB101092A50480E064960FB6F894E8
:10256000DEBF0FBECDBFDF91CF9108958F929F92B6
:10257000AF92BF92CF92DF92EF92FF920F931F9391
:10258000CF93DF93CDB7DEB7C856D1400FB6F894DE
:10259000DEBF0FBECDBF7C011A821982FE013396C9
:1025A0008CE591E0DF019C011D9221503040E1F764
:1025B0008DE0EEE7F1E08E010F5F1F4FD801019033
:1025C0000D928A95E1F7FE01E15AFE4F11921192A8
:1025D00088E0DF011D928A95E9F7D8010D9000206F
:1025E000E9F7119788E0EBE8F1E001900D928A9508
:1025F000E1F7F7016181728180E090E02AE0AE01AD
:10260000415A5E4F0E948828BC01C8010E9472286E
:10261000F80101900020E9F731970F2EFDE2CF2E4F
:10262000D12CF02DD182C082D70113966D917C916F
:10263000149780E090E02AE0AE01415A5E4F0E947C
:102640008828BC01C8010E947228F801019000206E
:10265000E9F73197D182C082F80101900020E9F7B3
:1026600031970F2EFEE68F2EFDE39F2EF02D9182E7
:1026700080821282F70185814AE0BE01615A7E4F55
:1026800090E00E947D28BC01C8010E947228F801D8
:1026900001900020E9F731976894AA24A5F8B12C9D
:1026A000B182A082D8010D900020E9F7119787E050
:1026B000E3E9F1E001900D928A95E1F7D7011696D2
:1026C0006D917C91179780E090E02AE0AE01415A2D
:1026D0005E4F0E948828BC01C8010E947228F80140
:1026E00001900020E9F73197D182C082F70160851F
:1026F000718580E090E02AE0AE01415A5E4F0E9471
:102700008828BC01C8010E947228F80101900020AD
:10271000E9F73197D182C082F80101900020E9F7F2
:102720003197918280821282D7011A968C914AE069
:10273000BE01615A7E4F90E00E947D28BC01C80115
:102740000E947228F80101900020E9F73197B182C8
:10275000A082D8010D900020E9F7119788E0EAE9FE
:10276000F1E001900D928A95E1F7F7016385748598
:1027700080E090E02AE0AE01415A5E4F0E94882836
:10278000BC01C8010E947228F80101900020E9F7FD
:102790003197D182C082D7011D966D917C911E9791
:1027A00080E090E02AE0AE01415A5E4F0E94882806
:1027B000BC01C8010E947228F80101900020E9F7CD
:1027C0003197D182C082F80101900020E9F731975A
:1027D000918280821282F70187854AE0BE01615AA8
:1027E0007E4F90E00E947D28BC01C8010E947228A3
:1027F000F80101900020E9F73197B182A08268E2E8
:10280000C8010E94F6100E94EB10C859DE4F0FB6A7
:10281000F894DEBF0FBECDBFDF91CF911F910F9116
:10282000FF90EF90DF90CF90BF90AF909F908F90F0
:102830000895BF92CF92DF92EF92FF920F931F9372
:10284000CF93DF93CDB7DEB7C254D1090FB6F8945A
:10285000DEBF0FBECDBF8C01C62EFE0133968AE3CC
:10286000DF011D928A95E9F7F8018481982F9295EE
:102870009F70905D99838F70805D8A839EE29B83B9
:102880008381282F22952F70205D2C838F70805D8F
:102890008D839E8382E38F8380E3888726813781BF
:1028A000A901529542954F7045275F704527405DBD
:1028B0004987822F8F70805D8A879B878091760001
:1028C000882319F0813079F01BC0DE011C960D9031
:1028D0000020E9F7119786E0E2EAF1E001900D921D
:1028E0008A95E1F70DC0DE011C960D900020E9F7F6
:1028F000119786E0E8EAF1E001900D928A95E1F700
:10290000D80115969C91933049F128F4992351F000
:102910009130B1F05AC09530E9F170F1963009F478
:1029200047C053C0DE0151960D900020E9F7119782
:1029300088E0EEEAF1E001900D928A95E1F745C05A
:10294000DE0151960D900020E9F7119787E0E6EB44
:10295000F1E001900D928A95E1F737C0DE015196C2
:102960000D900020E9F7119789E0EDEBF1E001907F
:102970000D928A95E1F729C0DE0151960D90002055
:10298000E9F711978BE0E6ECF1E001900D928A9562
:10299000E1F71BC0DE0151960D900020E9F7119779
:1029A00088E0E1EDF1E001900D928A95E1F70DC02C
:1029B000DE0151960D900020E9F7119788E0E9EDCE
:1029C000F1E001900D928A95E1F786E0EBEEF1E0FF
:1029D000DE01DD9601900D928A95E1F7FE013196B8
:1029E0007F01DF010D900020E9F711978AE0E1EE09
:1029F000F1E001900D928A95E1F7822F0E94B50BCC
:102A0000B82ED80113968C910E94B50BD82EF801E0
:102A100084810E94B50B4B2D50E06D2D70E090E04D
:102A20000E941E0E4AE0BE01635C7F4F0E947D281B
:102A3000BC01C7010E9472286C2DC7010E94F610CC
:102A40000E94EB10CE5BDF4F0FB6F894DEBF0FBED7
:102A5000CDBFDF91CF911F910F91FF90EF90DF904D
:102A6000CF90BF900895FF920F931F93CF93DF9362
:102A7000CDB7DEB7A3970FB6F894DEBF0FBECDBFBC
:102A8000F82E1A821982FE01339681E2DF011D922F
:102A90008A95E9F7F8948BE394E09F938F938DB731
:102AA0009EB74E970FB6F8949EBF0FBE8DBFADB7C1
:102AB000BEB711968EE1E1E2F4E001900D928A95A5
:102AC000E1F70E94AC03789440913B0450913C04A0
:102AD00060913D0470913E040FB6F894DEBF0FBEC6
:102AE000CDBF14161506160617064CF488E1E1EF63
:102AF000F1E0DE01119601900D928A95E1F77723BE
:102B0000C4F488E1E9E0F2E0DE01119601900D9253
:102B10008A95E1F770956095509541955F4F6F4F9D
:102B20007F4F40933B0450933C0460933D0470936B
:102B30003E0460913B0470913C0480913D0490916F
:102B40003E042AE030E040E050E00E9407289F93D6
:102B50008F937F936F935F934F933F932F9381E274
:102B600092E09F938F938E010F5F1F4F1F930F93E0
:102B70000E94C4286F2DC8010E94F6100E94EB101D
:102B80000FB6F894DEBF0FBECDBFA3960FB6F89474
:102B9000DEBF0FBECDBFDF91CF911F910F91FF9090
:102BA0000895BF92CF92DF92EF92FF920F931F93FF
:102BB000CF93DF93CDB7DEB7A3970FB6F894DEBF00
:102BC0000FBECDBFB82E1A821982FE01339681E264
:102BD000DF011D928A95E9F7F89463E081E294E0C1
:102BE0000E948904789401E214E0F80166897789EB
:102BF000808D918D0E94C8262AE037ED43E25CE388
:102C00000E942C270E9490266B017C01D8015696C9
:102C10006D937D938D939C93599787E1E1E4F2E066
:102C20008E010F5F1F4FD80101900D928A95E1F739
:102C3000F80101900020E9F7BF01615071094AE0F5
:102C4000C6010E947D28D8010D900020E9F7119758
:102C500085E0E8E5F2E001900D928A95E1F76B2DB1
:102C6000C8010E94F6100E94EB10A3960FB6F894CC
:102C7000DEBF0FBECDBFDF91CF911F910F91FF90AF
:102C8000EF90DF90CF90BF9008951F93CF93DF9385
:102C9000D82F162FCDEC8C9FC12D1124C695C6952B
:102CA000C69580E38C0F0E943E0F66E0610FCC0F4B
:102CB0008C2F880F880FC80F8D2F8C1B805D0E9472
:102CC0003E0FDF91CF911F910895CF93C62F209192
:102CD000A1043091A2042832310518F40E9445164F
:102CE00021C08091A1049091A204899780F08091E5
:102CF000A1049091A2048035910548F480E60E94D9
:102D00003E0F66E06C0F80E60E943E0F0BC0809184
:102D1000A1049091A2048135910520F01092A204A3
:102D20001092A104CF9108958F929F92AF92BF927B
:102D3000CF92DF92EF92FF920F931F93CF93DF9387
:102D400000D000D000D0CDB7DEB7EEE6F0E0808155
:102D500089838FE18A8381818B838CE08C8382815C
:102D60009381805D8D8383E68E831092A5040F2E60
:102D7000F8EFCF2EF3E0DF2EF02D8E010F5F1F4F07
:102D80005E0187E0A80EB11C912C8824839460E03A
:102D9000D6018D919D916D010E943B1091103FC015
:102DA00078018091A50483FF0FC01092A504F8015B
:102DB00080818F5F9181981708F480E0D7018C9310
:102DC00065E10E94451654C18091A50482FF0EC0A2
:102DD0001092A504F8019181808181500AF4892F15
:102DE000D7018C9365E10E94451642C18091A504EC
:102DF00084FF03C01092A50412C08091A50481FD38
:102E000004C08091930484FF33C11092A504809183
:102E100093048F7E809393040E94EB10982C0E9461
:102E2000EB100E5F1F4FA016B10609F0B0CFE09176
:102E30007600F0E0EE0FFF1FEC50FC4F60E0808169
:102E400091810E943B1091102DC10EE610E0FF24ED
:102E5000F3948091A50483FF19C01092A5040E94E9
:102E6000EB10F801808591E0980F90878111F08632
:102E7000D8011896EC91F0E0EE0FFF1FEC50FC4FDC
:102E800060E0808191810E943B101DC08091A5046B
:102E900082FF19C01092A5040E94EB10F8018085F2
:102EA0009FEF980F9087811101C01086D801189666
:102EB000EC91F0E0EE0FFF1FEC50FC4F60E08081E2
:102EC00091810E943B108091A50481FD04C08091F6
:102ED000930484FF0AC01092A504809193048F7E0E
:102EE000809393040E94EB10DDC08091A50484FFC1
:102EF00021C01092A50464E18DE592E00E94F610D5
:102F00000E94EB1060E081E792E00E943B10E091AC
:102F10007500F0E0EE0FFF1FEA51FC4F65E1808184
:102F200091810E943B100EE610E00F2EF6E0FF2E7E
:102F3000F02D0EC0D8011896EC91F0E0EE0FFF1FB7
:102F4000EC50FC4F60E0808191810E94A81081CFFD
:102F50008091A50483FF1FC01092A5040E94EB106E
:102F6000F80187818F5F873008F080E0D8011796DD
:102F70008C9360E081E792E00E943B10D8011796A5
:102F8000EC91F0E0EE0FFF1FEA51FC4F65E180810C
:102F900091810E943B108091A50482FF1EC0109277
:102FA000A5040E94EB10F801878181500AF48F2D4F
:102FB000D80117968C9360E081E792E00E943B1065
:102FC000D8011796EC91F0E0EE0FFF1FEA51FC4F8D
:102FD00065E1808191810E943B108091A50484FF6E
:102FE0001FC01092A504109296040E94EB100EE6EA
:102FF00010E0F80167812D8130E02053384F4B817C
:1030000089810E94130CD80118966C9186E090E09B
:103010000E94952B6AE086E792E00E94F61054C069
:103020008091A50481FD04C08091930484FF0AC0AF
:103030001092A504809193048F7E809393040E9444
:10304000EB101CC0D8011796EC91F0E0EE0FFF1FBB
:10305000EA51FC4F65E1808191810E94A810809126
:10306000A50481FF75CF1092A5040E94EB1006C045
:1030700065E1F80180810E94651693CE0EE610E0AE
:10308000D80117966C912D8130E02053384F4B8139
:1030900089810E94130CF801608586E090E00E940F
:1030A000952B12C060E081E792E00E943B10E09116
:1030B0007500F0E0EE0FFF1FEA51FC4F65E18081E3
:1030C00091810E943B10DACF1092A50480E02696F1
:1030D0000FB6F894DEBF0FBECDBFDF91CF911F9129
:1030E0000F91FF90EF90DF90CF90BF90AF909F90A7
:1030F0008F900895CF93C82FF89483E00E940D0B12
:1031000088E00E940D0B8C2F0E940D0B7894CF91BC
:1031100008957F928F929F92AF92BF92CF92DF924B
:10312000EF92FF920F931F93CF93DF9387E894E082
:103130000E94790C9091A00480918904981759F00D
:10314000E4E9F4E0938521E0290F2387953018F016
:10315000848791E095830E94B50BC82F80918804E5
:103160000E94B50B90911C04891709F45AC08093F2
:103170001C0490911B049F5F9B3018F490931B04D8
:1031800050C010921B0410921A041092190449C0E6
:103190009191C91334C09781891331C07B01022EEC
:1031A00002C0F594E7940A94E2F7E0FE28C07801A3
:1031B000022E02C0EE0CFF1C0A94E2F76701CA223D
:1031C000DB22EC14FD0469F4B0931A04A0931904F3
:1031D000D093A8048091930450FB82F980939304C8
:1031E0003BC0DE2D75016401022E04C0CC0CDD1C39
:1031F000EE1CFF1C0A94D2F7AC29BD29572D2F5F76
:103200003F4F2830310521F6B0931A04A0931904DA
:10321000D093A8048091930450FB82F98093930487
:103220001BC0E6EAF4E0618170E0D281A09119044C
:10323000B0911A045091930452FB552750F9EDEBCD
:10324000F4E020E030E001E010E0812C912C54010A
:103250008394772473949CCFDF91CF911F910F912A
:10326000FF90EF90DF90CF90BF90AF909F908F90A6
:103270007F9008950F931F93CF93DF93CDB7DEB761
:1032800027970FB6F894DEBF0FBECDBF8091930491
:1032900082FFA9C01A821982FE01339685E0DF0100
:1032A0001D928A95E9F78091A8048830C9F038F416
:1032B000823091F0843091F08130E1F40BC08032A3
:1032C00099F018F4803171F015C0803479F08038AD
:1032D00079F010C081E00FC082E00DC083E00BC028
:1032E00084E009C085E007C086E005C087E003C030
:1032F00088E001C080E01F928F9383E892E09F9363
:103300008F938E010F5F1F4F1F930F930E94C4284E
:103310000E94EB1060E0C8010E943B1089E00E940F
:103320000D0B809198040F900F900F900F900F90BD
:103330000F90882309F44BC020E0E4E9F4E0809189
:10334000930480FDC39ABFEF33ED40E3B1503040AA
:103350004040E1F700C00000C3988AE09498909143
:10336000930490FDC39A9091930491FDC49A9FEFAA
:10337000A0E7B2E09150A040B040E1F700C00000EB
:10338000949AC398C4983FEF44E39CE03150404086
:103390009040E1F700C000009A9B0AC09B9B08C0C8
:1033A0009C9B06C09D9B04C09E9B02C08150B1F6B1
:1033B0009A9B0DC09B9B0BC09C9B09C09D9B07C00B
:1033C0009E9B05C02F5F8481281708F4B8CF0E9408
:1033D000EB10809193048B7E8F7D8093930480917A
:1033E000B2040E947A1827960FB6F894DEBF0FBE7B
:1033F000CDBFDF91CF911F910F9108951F93CF9370
:10340000DF93C7E8D4E08A810E94B50B182F898129
:103410000E94B50B6CE390E0619F800D911D11241B
:10342000EDEAF4E04585278530E0649F200D311DED
:1034300011247485468550E0679F400D511D11246D
:103440002417350730F58417950708F449C0281765
:10345000390720F08217930708F047C08091930442
:1034600085FD43C080EA0E947A18809193048062AF
:10347000809393043AC08091930485FF36C0809175
:10348000B2040E947A18809193048F7D80939304F4
:103490002CC04217530748F58417950780F0821710
:1034A000930780F48091930485FD1FC080EA0E94F9
:1034B0007A188091930480628093930416C08217D7
:1034C000930798F08091930485FF0FC08091B20418
:1034D0000E947A18809193048F7D8093930405C095
:1034E0008217930708F4BACFC6CFDF91CF911F910F
:1034F0000895F894E4E9F4E0928589239285982769
:10350000928778940895F894E4E9F4E0918589230A
:1035100091859827918778940895E4E9F4E090855F
:1035200083B38095282F292790911F049223892FF8
:10353000809580931F0490911E0492239827909366
:103540001E04822389239085982790872085928561
:103550008223892B828780858C7721F481E3809375
:103560001D0411C080911D04815019F080931D0429
:103570000AC08FE080931D04E4E9F4E08085918522
:103580008C77892B818784E00E94791A882359F0EF
:103590008091A50481608093A504E4E9F4E0108A99
:1035A00017861686158688E00E94791A882359F0B6
:1035B0008091A50482608093A504E4E9F4E0108A78
:1035C00017861686158680E10E94791A882359F09D
:1035D0008091A50484608093A504E4E9F4E0108A56
:1035E00017861686158680E10E94831A882359F073
:1035F0008091A50484608093A504E4E9F4E0108A36
:1036000017861686158680E20E94831A882359F051
:103610008091A50488608093A504E4E9F4E0108A11
:1036200017861686158680E20E94791A882359F03B
:103630008091A50488608093A504E4E9F4E0108AF1
:1036400017861686158680E40E94791A882359F019
:103650008091A50480618093A504E4E9F4E0108AD8
:1036600017861686158608959F92AF92BF92CF92C5
:10367000DF92EF92FF920F931F93CF93DF9300D0CF
:10368000CDB7DEB78C01FC018081898381818A837B
:1036900082818083838181830E946910F801618126
:1036A00080810E9403108091930484FD54C07801AE
:1036B000CE0101966C01912C4CC01092A504F7012B
:1036C00080818F5FF6019081981708F480E0F50102
:1036D00080838091A50482FF0BC01092A504F6019F
:1036E0009081F701808181500AF4892FF501808350
:1036F0008091A50484FF07C01092A5049394F2E082
:103700009F121DC028C08091A50481FD04C0809136
:10371000930484FF09C01092A504809193048F7EC6
:103720008093930481E021C0492DF801618180815B
:103730000E946E108091A50483FDBFCFCACFFFEF1A
:10374000EF1AFF0A8FEFC81AD80A8091930484FDFC
:1037500002C05701EFCF809193048F7E8093930432
:10376000109296041092A50480E00F900F90DF91C4
:10377000CF911F910F91FF90EF90DF90CF90BF906E
:10378000AF909F9008951F93CF93DF9300D000D008
:10379000CDB7DEB78BE389838A838EE090E00E9409
:1037A000872B8B838FE090E00E94872B8C83CE0148
:1037B00001960E94341B81111DC069818EE090E04A
:1037C0000E94952BE199FECF6A818FE090E00E94E4
:1037D000952B8CB3182F127081FDFBCFEDEAF4E02E
:1037E000898182878A8183876AE08BE892E00E94E0
:1037F000F61001C011E0812F0F900F900F900F90E5
:10380000DF91CF911F9108950F931F93CF93DF9373
:1038100000D000D0CDB7DEB787E894E00E94790CE5
:1038200087E189838BE38A8307E814E0F8018281CA
:103830000E94B50B8B83F80181810E94B50B8C83AC
:10384000CE0101960E94341B81110CC040E06A81B8
:1038500089810E94C00B6AE08BE892E00E94F6101A
:1038600080E001C081E00F900F900F900F90DF91EA
:10387000CF911F910F9108952F923F924F925F9297
:103880006F927F928F929F92AF92BF92CF92DF9270
:10389000EF92FF920F931F93CF93DF93CDB7DEB7D5
:1038A00029970FB6F894DEBF0FBECDBF2DB73EB738
:1038B00039872887E7E7F0E0148213828FEF9FEFC4
:1038C0009283818311861086978386831686158658
:1038D000948783871582128617860DEA14E0D80133
:1038E00090968C91EDB7FEB727E0829FE019F10921
:1038F00011240FB6F894FEBF0FBEEDBF8DB79EB773
:1039000001969F838E834C0181E0809341048093D4
:10391000400482E00E940D0B9498D80190968C91FF
:10392000811148C000E0AFC0F701118191130F5F12
:1039300080914404882339F0609244040E94090A6B
:1039400082B3842582BB9B991BC0FFEF21EE34E03C
:10395000F15020403040E1F700C00000822D90E09F
:10396000F401A7E02A9EE00DF11D1124508251823E
:10397000528253825482CC9696838583032DC5C18F
:10398000802F90E001970397CCF1822D90E0F40115
:10399000B7E02B9EE00DF11D11245082518252821E
:1039A00053825482CC969683858302E0AEC1739491
:1039B00053941FC00F2EF2E35F2EF02D77247394E3
:1039C00090E00F2EF7E8EF2EF4E0FF2EF02D689434
:1039D000442444F8612C0F2EFEE6CF2EF0E0DF2EBB
:1039E000F02D332433940F2EFDEAAF2EF4E0BF2EDA
:1039F000F02D22242A94270C00E001C0912F809101
:103A0000430481117CC18091930482FF8DCF83C1D7
:103A1000F6018081F40127E0229EE00DF11D1124C2
:103A20008083D60111968C911197818314968C9185
:103A30001497828317968C911797838318968C918D
:103A40001897848312962D913C9113973683258382
:103A5000309241043092400460924304F50180A109
:103A6000781608F4A4CF00E00EC0309241043092E2
:103A7000400460924304D50190968C91781618F416
:103A8000002309F494CF8091930485FF04C080EA59
:103A90000E947A1804C08091B2040E947A18B090F3
:103AA000CD04EDB7FEB7EB19F1090FB6F894FEBFE0
:103AB0000FBEEDBF6DB77EB76F5F7F4F6B01BB2051
:103AC00009F41AC14E815F81CB012FEF2B0D30E03D
:103AD0002F5F3F4F620F731FA12C0F2EFFE39F2E0E
:103AE000F02DEEE6F0E00F2EFEE38F2EF02D9C0180
:103AF000DC019C92F0803A01DA011C91F11202C0C3
:103B0000DC018C92F180D30111961C91F11204C05A
:103B1000D9011C911D7F1C93F480D30112961C9136
:103B2000F11204C0D9011C911B7F1C93F780D301B3
:103B300013961C91F11204C0D9011C91177F1C939C
:103B4000F084D30114961C91F11204C0D9011C9188
:103B50001F7E1C93E280F380D30115966D907C90BC
:103B60001697E614F70421F4D9011C911F7D1C93CC
:103B70000196D9012C91211101C0A394495F5F4F97
:103B80008617970709F0B3CF10924004AB1029C0F5
:103B900080917500873011F4109275000F2EFEE6AB
:103BA000EF2EF0E0FF2EF02DF70146816581848134
:103BB0000E94C00BD70112962D913C91139711963C
:103BC0004C91119717966C9117978C910E94130C3A
:103BD000F701608586E090E00E94952BE199FECF89
:103BE000A8C08091930482FDA4C04DB65EB68B2D13
:103BF00090E09C01220F331F220F331F820F931F6F
:103C000081962DB73EB7281B390B0FB6F8943EBFEF
:103C10000FBE2DBF8DB79EB701963C017C011A8265
:103C20001982FE01339683E0DF011D928A95E9F740
:103C300087E1EAE9F2E0D30101900D928A95E1F77C
:103C4000BE016F5F7F4F802F0E94C006BC01C30181
:103C50000E947228D3010D900020E9F7119788E0A7
:103C6000E1EBF2E001900D928A95E1F78091CD04AD
:103C7000882321F110E06894AA24A5F8B12C0F2E16
:103C8000FDEA8F2EF4E09F2EF02DF7010190002029
:103C9000E9F73197B182A082F601E10FF11DBE0173
:103CA0006F5F7F4F80810E94C006BC01C7010E94E8
:103CB00072281F5FF40180A1181738F364E1C30173
:103CC0000E94F610E9EAF4E0608171816F5F7F4F36
:103CD0007183608380E090E00E94A62B0FB6F89479
:103CE0005EBE0FBE4DBE25C081E08093410480932F
:103CF000400410924304C7CE1092400449CF8091F3
:103D0000930482FF85CE062DB0CE8091930482FF6E
:103D1000EBCF912FAACE30924104309240046092B2
:103D20004304D50190968C91781608F440CE00E0BB
:103D3000AACE1092A504E4E9F4E0118210828091E9
:103D400093048F7D80939304949A802FE885F9855E
:103D50000FB6F894FEBF0FBEEDBF29960FB6F894CC
:103D6000DEBF0FBECDBFDF91CF911F910F91FF90AE
:103D7000EF90DF90CF90BF90AF909F908F907F900B
:103D80006F905F904F903F902F900895E199FECFF4
:103D900084E090E00E94872B813261F485E090E01E
:103DA0000E94872B883031F4809193048064809343
:103DB00093040895809193048F7B80939304E199F9
:103DC000FECF6FEA89E090E00E94AC2BE199FECF34
:103DD00061E08AE090E00E94AC2BE199FECF61E0C7
:103DE0008BE090E00E94AC2BE199FECF60E087E091
:103DF00090E00E94AC2BE199FECF64E180E190E07D
:103E00000E94AC2BE199FECF60E082E190E00E943D
:103E1000AC2BE199FECF6CE081E190E00E94AC2BED
:103E2000E199FECF60E083E190E00E94AC2BE19944
:103E3000FECF63E08CE090E00E94AC2BE199FECFD6
:103E400060E08DE090E00E94AC2BE199FECF60E055
:103E500086E090E00E94AC2BE199FECF65E08EE019
:103E600090E00E94AC2BE199FECF60E08FE090E003
:103E70000E94AC2BE199FECF63E088E090E00E94C5
:103E8000AC2BE199FECF60E070E080E090E00E9412
:103E9000A62BE199FECF62E084E290E00E94AC2B79
:103EA000E199FECF69E084E190E00E94AC2BE199BA
:103EB000FECF6FE08CE190E00E94AC2BE199FECF49
:103EC00069E085E190E00E94AC2BE199FECF63E2CE
:103ED0008DE190E00E94AC2BE199FECF6CE086E191
:103EE00090E00E94AC2BE199FECF63E28EE190E07E
:103EF0000E94AC2BE199FECF6DE087E190E00E943B
:103F0000AC2BE199FECF60E08FE190E00E94AC2BFA
:103F1000E199FECF61E284E090E00E94AC2BE19950
:103F2000FECF68E085E090E00E94AC2BE199FECFE7
:103F30000895EF92FF920F931F93CF93DF932FEF8C
:103F400089E698E1215080409040E1F700C00000F0
:103F50000E94C61E89E090E00E94872B8093B204E5
:103F6000E199FECF8AE090E00E94872B9091930424
:103F700080FB91F990939304E199FECF8BE090E060
:103F80000E94872B9091930480FB90F99093930467
:103F9000E199FECF87E090E00E94872B8093A704F1
:103FA000E199FECF80E190E00E94872B8093B904D5
:103FB000E199FECF82E190E00E94872B8093BB04C1
:103FC000E199FECF81E190E00E94872B8093BA04B3
:103FD000E199FECF83E190E00E94872B8093BC049F
:103FE000E199FECF8CE090E00E94872B8093B5048E
:103FF000E199FECF8DE090E00E94872B8093B6047C
:10400000E199FECF86E090E00E94872B80937600B6
:10401000E199FECF8FE090E00E94872B8093B80457
:10402000E199FECF8EE090E00E94872B8093B70449
:10403000E199FECF88E090E00E94872B809398045E
:10404000E199FECF80E090E00E948F2B9093AA042C
:104050008093A904E199FECF82E090E00E948F2B2B
:104060009093AC048093AB04E199FECF84E290E09E
:104070000E94872B8093CD04E199FECFC4E1D0E06C
:104080000DEB14E00F2EFCE1EF2EF0E0FF2EF02DF3
:10409000CE010E94872BF80181938F01E199FECF19
:1040A000CE0108960E94872BF8018783E199FECF05
:1040B0002196CE15DF0561F7DF91CF911F910F910A
:1040C000FF90EF900895DF92EF92FF920F931F936E
:1040D000CF93DF938C017B01D090200480919304D7
:1040E0008860809393040E94EB1081E0E81AF10845
:1040F00090919304947169F01092A4041092A30417
:10410000809193048F7E809393040E94EB108FEF35
:104110004FC08091A50483FF0BC01092A5040E949C
:10412000EB108D2D90E08E159F05C0F4D39416C032
:104130008091A50482FF08C01092A5040E94EB1094
:10414000DD2061F0DA940AC08091A50481FF06C0E9
:104150001092A5040E94EB108FEF2AC02D2D30E0A5
:10416000E901CC0FDD1FCC0FDD1F2C0F3D1FE80137
:10417000C20FD31F60E0888199810E943B1080911B
:10418000A50484FFB5CF1092A5040E94EB101092F5
:104190002004EA81FB81309721F009958C8180937E
:1041A00020040E94EB101092A4041092A3048D2D01
:1041B000DF91CF911F910F91FF90EF90DF900895C5
:1041C000AF92BF92CF92DF92EF92FF920F931F9325
:1041D000CF93DF9300D000D0CDB7DEB763E070E0BF
:1041E0008AEA90E00E9463208F3F09F443C097E180
:1041F00099839BE39A83082F10E068018CE0C80E36
:10420000D11CC6018C5F9F4F5C010E94872B8B8362
:1042100078019EE0E90EF11C87010C5F1F4FC80179
:104220000E94872B8C83CE0101960E94341B811142
:1042300023C06981C5010E94952BE199FECF6A8157
:10424000C8010E94952B9CB3192F127091FDFBCFD2
:10425000F601E355FB4F89818083F701E355FB4F5E
:104260008A8180830E94EB106AE08BE892E00E94D2
:10427000F61003C01FEF01C0182F812F0F900F9071
:104280000F900F90DF91CF911F910F91FF90EF90C2
:10429000DF90CF90BF90AF900895CF93DF930E94AF
:1042A000EB108AE090E00E94872B8170909193043C
:1042B00080FB91F9909393048823A9F0C0EAD0E0A1
:1042C000A881B98186E0E9EBF2E001900D928A9530
:1042D000E1F7AD81BE8186E0EFEBF2E001900D9257
:1042E0008A95E1F714C0C0EAD0E0A881B98186E0E0
:1042F000E5ECF2E001900D928A95E1F7AD81BE8187
:1043000086E0EBECF2E001900D928A95E1F762E035
:1043100070E080EA90E00E9463208F3FF9F08823EC
:1043200019F0813039F00BC0809193048260809342
:10433000930405C0809193048D7F809393046091D2
:104340009304669561708AE090E00E94952B6AE084
:104350008BE892E00E94F61080E001C08FEFDF91C1
:10436000CF910895CF93DF930E94EB108BE090E004
:104370000E94872B81709091930480FB90F9909319
:1043800093048823A9F0C0EAD0E0A881B98186E02F
:10439000E9EBF2E001900D928A95E1F7AD81BE81E3
:1043A00086E0EFEBF2E001900D928A95E1F714C000
:1043B000C0EAD0E0A881B98186E0E5ECF2E00190A6
:1043C0000D928A95E1F7AD81BE8186E0EBECF2E0DB
:1043D00001900D928A95E1F762E070E080EA90E04A
:1043E0000E9463208F3FF1F0882319F0813039F06B
:1043F0000BC08091930481608093930405C08091E9
:1044000093048E7F809393046091930461708BE09A
:1044100090E00E94952B6AE08BE892E00E94F610F3
:1044200080E001C08FEFDF91CF9108951F93CF936C
:10443000DF9300D000D0CDB7DEB787E189838BE36F
:104440008A838CE090E00E94872B8B838DE090E044
:104450000E94872B8C83CE0101960E94341B811110
:1044600022C08A81811102C081E08A8369818CE047
:1044700090E00E94952BE199FECF6A818DE090E05B
:104480000E94952B8CB3182F127081FDFBCFEDEAA3
:10449000F4E0898180878A8181876AE08BE892E0F5
:1044A0000E94F61001C011E0812F0F900F900F9025
:1044B0000F90DF91CF911F9108951F93CF93DF93BA
:1044C0000E94EB1088E090E00E94872B8093980474
:1044D00060E081ED92E00E943B10C4E9D4E013E675
:1044E0008091A50483FF0DC01092A5048C818F5F7D
:1044F000843608F080E08C838C8165E10E9445164B
:104500003BC08091A50482FF0CC01092A5048C8151
:1045100081500AF4812F8C838C8165E10E944516BD
:104520002BC08091A50484FF14C01092A504809133
:1045300093048F7E809393046091980488E090E0C8
:104540000E94952B6AE08BE892E00E94F61080E0D2
:1045500018C08091A50481FD04C08091930484FF5C
:104560000BC01092A504809193048F7E80939304D6
:104570000E94EB1081E005C08C8165E10E94651608
:10458000AFCFDF91CF911F9108958F929F92AF92FD
:10459000BF92CF92DF92EF92FF921F93CF93DF9360
:1045A00000D000D0CDB7DEB76AE070E089EB90E0D4
:1045B0000E946320182F8F3F09F4B3C0893009F49B
:1045C000B2C00E94EB1087E189838BE38A83E12EDE
:1045D000F12C670180E1C80ED11CF601EC5FFF4FA2
:1045E0005F01CF010E94872B8B83F8E1EF0EF11C56
:1045F000C7018C5F9F4F4C010E94872B8C83183022
:1046000021F40E945D2280E091C0CE0101960E94BB
:10461000341B81118BC08091A70490E0012E02C051
:10462000959587950A94E2F780FF17C080EA90E09D
:10463000FC01A081B18126E0E9EBF2E001900D924E
:104640002A95E1F7FC01A581B68186E0EFEBF2E067
:1046500001900D928A95E1F716C080EA90E0FC0186
:10466000A081B18126E0E5ECF2E001900D922A955F
:10467000E1F7FC01A581B68186E0EBECF2E0019068
:104680000D928A95E1F762E070E080EA90E00E9486
:104690006320813099F020F08F3F09F446C01CC0A0
:1046A000E6EAF4E081E090E0012E02C0880F991F55
:1046B0000A94E2F79181892B81830EC0E6EAF4E047
:1046C00081E090E0012E02C0880F991F0A94E2F762
:1046D00080959181892381836981C5010E94952BF1
:1046E000E199FECF6A81C4010E94952BE199FECF2A
:1046F0006091A70487E090E00E94952BE199FECF9E
:10470000D601A355BB4F89818C93F701E355FB4F2D
:104710008A8180836AE08BE892E00E94F610812F04
:1047200005C08FEF03C089E001C08FEF0F900F909D
:104730000F900F90DF91CF911F91FF90EF90DF903E
:10474000CF90BF90AF909F908F9008951F93CF937D
:10475000DF930E94EB1084E290E00E94872B80930D
:10476000CD0460E081ED92E00E943B10CDEAD4E000
:104770001AE08091A50483FF0CC01092A50488A1C3
:104780008F5F8B3008F080E088A365E10E944516BA
:104790003AC08091A50482FF0BC01092A50488A1A5
:1047A00081500AF4812F88A365E10E9445162BC031
:1047B0008091A50484FF14C01092A50480919304F5
:1047C0008F7E809393046091CD0484E290E00E94F8
:1047D000952B6AE08BE892E00E94F61080E018C00A
:1047E0008091A50481FD04C08091930484FF0BC0D7
:1047F0001092A504809193048F7E809393040E946D
:10480000EB1081E005C065E188A10E946516B1CF7B
:10481000DF91CF911F910895EF92FF920F931F9315
:10482000CF93DF93CDB7DEB761970FB6F894DEBFB5
:104830000FBECDBF65E070E087E890E00E94632086
:104840008F3F09F479C08230A9F028F4882351F011
:10485000813061F005C0833089F08F3F09F46EC06C
:1048600080E06DC00E943C1C80E069C00E9416225E
:1048700080E065C00E94A62380E061C01A82198290
:10488000FE0133968FE0DF011D928A95E9F70F2E26
:10489000F9EAEF2EF4E0FF2EF02D4AE08E010F5FD3
:1048A0001F4FB801F701828193810E947D28D801B2
:1048B0000D900020E9F7119789E0E5EDF2E0019015
:1048C0000D928A95E1F76EE1C8010E94F6104AE068
:1048D000B801D7018D919C910E947D28D8010D903F
:1048E0000020E9F711978BE0EEEDF2E001900D92D8
:1048F0008A95E1F76EE1C8010E94F6109A991AC0F4
:10490000F701138212821182108260E070E080E071
:1049100090E00E94B92BE199FECF60E070E082E068
:1049200090E00E94B92BE199FECF64E189EE92E01C
:104930000E94F61080E003C08FEF01C08FEF6196F8
:104940000FB6F894DEBF0FBECDBFDF91CF911F91A0
:104950000F91FF90EF90089581B3826F81BBA09A71
:1049600087B3886187BB85B38C6785BBC29A959AEC
:1049700083B78D6083BF89B7826889BF8BE98CBF9D
:1049800085B58C6085BD89EF83BD78940E94991FA1
:104990000E94C9010E94A20687E894E00E94790C57
:1049A000809189048093A0048091B2040E94210B1D
:1049B0006AE085EF92E00E94F6100E94A70664E18B
:1049C0000E94F6100E94EB108091930486FD2CC08B
:1049D00064E187E093E00E94F610C0E06C2F8CE762
:1049E0000E943E0F2FEF82E597E0215080409040DB
:1049F000E1F700C00000CF5FC03281F76C2F80E28A
:104A00000E943E0FEFEFF0E722E0E150F04020403F
:104A1000E1F700C00000C15089F70E94EB108091BF
:104A20009304806480939304109241041092430491
:104A30001092A504949AD12CC4E9D4E00F2EFDEA7B
:104A4000EF2EF4E0FF2EF02D03C0D82E01C0D82E9B
:104A50000E943A190E94FE198091A50481FF09C0A5
:104A60001092A50487E790E00E94B6121092A50468
:104A70003EC08091A50482FF0AC01092A50464E1A3
:104A800087E894E00E9419141092A50430C0809128
:104A9000A50483FF08C01092A50484E10E94331589
:104AA0001092A50424C08091A50484FF08C0109230
:104AB000A50484E10E94D1151092A50418C080912C
:104AC000A50480FF14C01092A5048091930482FD78
:104AD0000CC06CE070E08BEE90E00E9463208F3F92
:104AE00021F08091930482FFF4CF1092A5040E94DC
:104AF000691007E814E0F801618182810E94C50F06
:104B0000F80180818F839F818E81981791F08F812A
:104B10008E838A818B3320F48A818F5F8A8309C0D8
:104B20001A828B818B3320F48B818F5F8B8301C042
:104B30001B829A81F7018385981708F19B818285F2
:104B40009817E8F018E01B821A821092A5040E94C0
:104B5000AD0EFFEF21EE84E0F15020408040E1F700
:104B600000C00000115079F764E187E894E00E94EA
:104B7000191484E10E94331584E10E94D1159981B2
:104B8000F7018085981768F098818185981748F01B
:104B90000E943C1C87E790E00E94B6128091880436
:104BA00056CF80918804D81609F451CF98819B3351
:104BB00020F498819F5F988348CF188299819F5FE6
:104BC000998343CF1F920F920FB60F9211242F9308
:104BD0003F934F935F936F937F938F939F93AF9385
:104BE000BF93EF93FF93809118048F5F8093180415
:104BF000883220F00E948918109218048091400495
:104C0000811119C0E4E9F4E0878590899C012F5F48
:104C10003F4F308B2787843F914048F01092A40487
:104C20001092A304809193048061809393040E9466
:104C3000EF0A0E948D1A80919904882309F43FC0DD
:104C40008091160490911704019690931704809315
:104C500016048091930481FDC49A809140048111CF
:104C600001C094988091160490911704059730F034
:104C7000C49880914004811101C0949A80911604D7
:104C800090911704499748F08091930481FDC49A4C
:104C900080914004811101C09498809116049091F4
:104CA00017044E9760F01092990410921704109216
:104CB0001604C49880914004811101C0949AFF9118
:104CC000EF91BF91AF919F918F917F916F915F9184
:104CD0004F913F912F910F900FBE0F901F901895FD
:104CE0001F920F920FB60F9211248F939F93EF9301
:104CF000FF9380914004882319F081E0809344045D
:104D0000E4E9F4E085859685019696878587FF918D
:104D1000EF919F918F910F900FBE0F901F9018955C
:104D20000E9497266894B1110C94262708950E943A
:104D30000B2788F09F5798F0B92F9927B751B0F0FB
:104D4000E1F0660F771F881F991F1AF0BA95C9F70F
:104D500014C0B13091F00E942527B1E008950C9461
:104D60002527672F782F8827B85F39F0B93FCCF314
:104D7000869577956795B395D9F73EF4909580958C
:104D8000709561957F4F8F4F9F4F0895E89409C0AC
:104D900097FB3EF490958095709561957F4F8F4F6E
:104DA0009F4F9923A9F0F92F96E9BB279395F69584
:104DB000879577956795B795F111F8CFFAF4BB0F02
:104DC00011F460FF1BC06F5F7F4F8F4F9F4F16C066
:104DD000882311F096E911C0772321F09EE8872FF0
:104DE000762F05C0662371F096E8862F70E060E0AC
:104DF0002AF09A95660F771F881FDAF7880F969525
:104E0000879597F9089557FD9058440F551F59F00D
:104E10005F3F71F04795880F97FB991F61F09F3FA7
:104E200079F087950895121613061406551FF2CFD0
:104E30004695F1DF08C0161617061806991FF1CF20
:104E400086957105610508940895E894BB27662747
:104E50007727CB0197F908950E943F270C94B0273C
:104E60000E94A22738F00E94A92720F0952311F074
:104E70000C9499270C949F2711240C9426270E94A8
:104E8000032770F3959FC1F3950F50E0551F629F64
:104E9000F001729FBB27F00DB11D639FAA27F00D93
:104EA000B11DAA1F649F6627B00DA11D661F829FBA
:104EB0002227B00DA11D621F739FB00DA11D621F9F
:104EC000839FA00D611D221F749F3327A00D611DBC
:104ED000231F849F600D211D822F762F6A2F11249E
:104EE0009F5750409AF0F1F088234AF0EE0FFF1FD1
:104EF000BB1F661F771F881F91505040A9F79E3F28
:104F0000510580F00C9499270C9426275F3FE4F319
:104F1000983ED4F3869577956795B795F795E7957D
:104F20009F5FC1F7FE2B880F911D9695879597F986
:104F3000089597F99F6780E870E060E008959FEF1B
:104F400080EC089500240A94161617061806090620
:104F5000089500240A9412161306140605060895EF
:104F6000092E0394000C11F4882352F0BB0F40F477
:104F7000BF2B11F460FF04C06F5F7F4F8F4F9F4FB7
:104F80000895DB018F939F930E943528BF91AF91C5
:104F9000A29F800D911DA39F900DB29F900D112493
:104FA000089597FB072E16F4009407D077FD09D0DB
:104FB0000E94482807FC05D03EF4909581959F4FAC
:104FC0000895709561957F4F0895A1E21A2EAA1B4E
:104FD000BB1BFD010DC0AA1FBB1FEE1FFF1FA217A9
:104FE000B307E407F50720F0A21BB30BE40BF50BA6
:104FF000661F771F881F991F1A9469F7609570952F
:10500000809590959B01AC01BD01CF010895052EBF
:1050100097FB1EF400940E941E2857FD07D00E94A3
:10502000E52707FC03D04EF40C941E2850954095BC
:10503000309521953F4F4F4F5F4F08959095809544
:10504000709561957F4F8F4F9F4F0895A29FB0013C
:10505000B39FC001A39F700D811D1124911DB29FAC
:10506000700D811D1124911D08950E942628A59F71
:10507000900DB49F900DA49F800D911D1124089553
:10508000B7FF0C9435280E943528821B930B089596
:10509000AA1BBB1B51E107C0AA1FBB1FA617B7075E
:1050A00010F0A61BB70B881F991F5A95A9F780957A
:1050B0009095BC01CD010895FB01DC0104C08D91E8
:1050C0000590801921F441505040C8F7881B990B76
:1050D0000895FB01DC0102C005900D924150504043
:1050E000D8F70895FB01DC010D900020E9F7119736
:1050F00001900D920020E1F70895BB274A3031F46A
:10510000992322F4BDE2909581959F4F0C94AB2892
:10511000BB27FA01A62F6217710581059105330B94
:1051200030FB66F0AA27660F771F881F991FAA1FFA
:10513000A21710F0A21B63953850A9F7A05DAA33FF
:1051400008F0A95DA19336F7B111B1931082CA019D
:105150000C94DD2ABB27FB015527AA27880F991F2E
:10516000AA1FA41710F0A41B83955051B9F7A05D96
:10517000AA3308F0A95DA193009779F7B111B19313
:105180001192CB010C94DD2AAEE0B0E0EAECF8E23B
:105190000C94DC2B0D891E8986E08C831A8309838D
:1051A0008FEF9FE79E838D83AE01475E5F4F6F89D0
:1051B000788DCE0101960E94E628EF81F885E00FF8
:1051C000F11F10822E96E4E00C94F82BABE0B0E0D7
:1051D000ECEEF8E20C94CE2B6C017B018A01FC0111
:1051E00017821682838181FFCCC1CE0101963C01DA
:1051F000F6019381F70193FD859193FF81917F01E2
:10520000882309F4BAC1853239F493FD859193FF5F
:1052100081917F01853229F4B60190E00E94ED2A48
:10522000E7CF912C212C312CFFE1F315D8F08B32F4
:1052300079F038F4803279F08332A1F4232D2061A3
:105240001DC08D3261F0803369F4232D216016C0BA
:10525000832D8260382EE32DE4603E2E2AC0F32D8C
:10526000F8601DC037FC2DC020ED280F2A3040F01B
:105270008E32B9F436FC81C1232D2064322E19C040
:1052800036FE06C08AE0989E200D1124922E11C091
:10529000EAE02E9E200D1124222EF32DF0623F2EE7
:1052A00008C08C3621F4832D8068382E02C08836E1
:1052B00041F4F70193FD859193FF81917F01811165
:1052C000B3CF982F9F7D9554933028F40C5F1F4FD8
:1052D0009FE399830DC0833631F0833771F08335B6
:1052E00009F059C021C0F801808189830E5F1F4FEA
:1052F00088248394912C530113C02801F2E04F0EAF
:10530000511CF801A080B18036FE03C0692D70E009
:1053100002C06FEF7FEFC5010E94D22A4C018201CB
:10532000F32DFF773F2E16C0280122E0420E511CBC
:10533000F801A080B18036FE03C0692D70E002C084
:105340006FEF7FEFC5010E94C72A4C01F32DF06873
:105350003F2E820133FC1BC0822D90E088169906F7
:10536000B0F4B60180E290E00E94ED2A2A94F4CFD6
:10537000F50137FC859137FE81915F01B60190E020
:105380000E94ED2A21102A9421E0821A91088114AA
:10539000910471F7E8C0843611F0893641F5F801BF
:1053A00037FE07C060817181828193810C5F1F4F3E
:1053B00008C060817181072E000C880B990B0E5F6D
:1053C0001F4FF32DFF763F2E97FF09C090958095D4
:1053D000709561957F4F8F4F9F4FF0683F2E2AE069
:1053E00030E0A3010E94292B882E861845C08537FE
:1053F00031F4232D2F7EB22E2AE030E025C0932DEC
:10540000997FB92E8F36C1F018F4883579F0B5C080
:10541000803719F0883721F0B0C0E92FE061BE2E47
:10542000B4FE0DC0FB2DF460BF2E09C034FE0AC0CF
:10543000292F2660B22E06C028E030E005C020E10A
:1054400030E002C020E132E0F801B7FE07C0608121
:105450007181828193810C5F1F4F06C060817181D1
:1054600080E090E00E5F1F4FA3010E94292B882E41
:105470008618FB2DFF773F2E36FE0DC0232D2E7F85
:10548000A22E891458F434FE0BC032FC09C0832DBF
:105490008E7EA82E05C0B82CA32C03C0B82C01C04A
:1054A000B92CA4FE0FC0FE01E80DF11D80818033F0
:1054B00021F49A2D997EA92E09C0A2FE06C0B394AC
:1054C000B39404C08A2D867809F0B394A3FC11C06C
:1054D000A0FE06C0B21488F4280C922C9B180EC0B3
:1054E000B21460F4B60180E290E00E94ED2AB39419
:1054F000F7CFB21418F42B1802C0982C212CA4FE5C
:1055000010C0B60180E390E00E94ED2AA2FE17C011
:10551000A1FC03C088E790E002C088E590E0B601F6
:105520000CC08A2D867859F0A1FE02C08BE201C022
:1055300080E2A7FC8DE2B60190E00E94ED2A89147A
:1055400038F4B60180E390E00E94ED2A9A94F7CFF8
:105550008A94F301E80DF11D8081B60190E00E946C
:10556000ED2A8110F5CF222009F442CEB60180E267
:1055700090E00E94ED2A2A94F6CFF6018681978169
:1055800002C08FEF9FEF2B96E2E10C94EA2BFC0117
:105590000590615070400110D8F7809590958E0F5E
:1055A0009F1F0895FC016150704001900110D8F7D1
:1055B000809590958E0F9F1F0895DC01FC01672F49
:1055C00071917723E1F7329704C07C916D937083DA
:1055D0006291AE17BF07C8F308950F931F93CF933F
:1055E000DF93FB01238121FD03C08FEF9FEF2CC0D0
:1055F00022FF16C046815781248135814217530707
:1056000044F4A081B1819D012F5F3F4F31832083FE
:105610008C93268137812F5F3F4F3783268314C0B9
:105620008B01EC01FB010084F185E02D0995892BAC
:10563000E1F6D80116968D919C91179701961796D1
:105640009C938E931697CE01DF91CF911F910F916E
:105650000895FA01AA27283051F1203181F1E89408
:105660006F936E7F6E5F7F4F8F4F9F4FAF4FB1E055
:105670003ED0B4E03CD0670F781F891F9A1FA11D50
:10568000680F791F8A1F911DA11D6A0F711D811D51
:10569000911DA11D20D009F468943F912AE0269F16
:1056A00011243019305D3193DEF6CF010895462F75
:1056B0004770405D4193B3E00FD0C9F7F6CF462F56
:1056C0004F70405D4A3318F0495D31FD40524193BF
:1056D00002D0A9F7EACFB4E0A6959795879577957C
:1056E0006795BA95C9F700976105710508959B0103
:1056F000AC010A2E06945795479537952795BA958C
:10570000C9F7620F731F841F951FA01D0895E199AB
:10571000FECF9FBB8EBBE09A99278DB30895A8E179
:10572000B0E042E050E00C94C02B262FE199FECF70
:105730009FBB8EBBE09A01970DB2021631F02DBBD4
:105740000FB6F894E29AE19A0FBE08950196272FBA
:105750000E94962B0C94952B262FE199FECF9FBB90
:105760008EBB2DBB0FB6F894E29AE19A0FBE01965C
:1057700008950E94AC2B272F0C94AD2BDC01CB019C
:10578000FC01E199FECF06C0FFBBEEBBE09A31966B
:105790000DB20D9241505040B8F708952F923F92AC
:1057A0004F925F926F927F928F929F92AF92BF9231
:1057B000CF92DF92EF92FF920F931F93CF93DF93DD
:1057C000CDB7DEB7CA1BDB0B0FB6F894DEBF0FBE3A
:1057D000CDBF09942A88398848885F846E847D8487
:1057E0008C849B84AA84B984C884DF80EE80FD8089
:1057F0000C811B81AA81B981CE0FD11D0FB6F894FF
:0E580000DEBF0FBECDBFED010895F894FFCFBF
:10580E0030303030303030303030303030300101E8
:10581E00DE070C0500000000FFFF000000FFFF0088
:10582E000000FFFF000000530300000058030000BB
:10583E00015E03000002630300000369030000FF22
:10584E006E0300000075030000017C030000008061
:10585E000300000169030000FF85030000008903B7
:10586E000000018D03000002910300000395030068
:10587E00000499030000059D03000006A10300002B
:10588E0007A50300000869030000FF5903041C006C
:10589E00AB03941601B003C52202B7034D2103BD1D
:1058AE0003B22104C303E51105C903E02006CF03AB
:1058BE00C31B07D4030C2408DA03761209E003D7BE
:1058CE00110A69030000FF001F1C1F1E1F1E1F1F51
:1058DE001E1F1E1F0000030306010406020500031F
:1058EE000530313233343536373839414243444549
:1058FE0046005265626F6F74206E6F772E2E0048D1
:10590E00656C6C69676B6569742067657370656932
:10591E00636865727421005665722E3A20002B2B37
:10592E0044454255472B2B202D2000537461727431
:10593E003E2000204C6F773E200020486967683E6D
:10594E0020004D455A2020004D45535A2000536FDC
:10595E006E6E746167004D6F6E746167004D697491
:10596E0074776F636800446F6E6E657273746167EF
:10597E0000467265697461670053616D7374616787
:10598E000020202020204B573A20002D2D2D2D2D8C
:10599E0000416B7475656C6C652054656D70657235
:1059AE0061747572203A202B00416B7475656C6CB6
:1059BE00652054656D70657261747572203A202D84
:1059CE0000416B7475656C6C652054656D70657205
:1059DE00617475723A20256C642E256C6420B04378
:1059EE0000416B7475656C6C6572204C75667464E1
:1059FE007275636B203A20002068506100456E740A
:105A0E006572203E204E616D65206F66204461797F
:105A1E000077442E3A004765737065696368657256
:105A2E00742100412E3A202564210047657370656C
:105A3E006963686572742E2E210053796E632E2071
:105A4E004572726F72202D2053746174652E3A2048
:105A5E000020436D702E3A20004F6E2020A7004F7D
:105A6E0066662025004F6E202025004F666620A713
:105A7E00006E2E3A00202D205258204F6B00202D04
:105A8E00205258204572722E0047656C6F65736305
:105A9E0068742E2E00537461727420537570657283
:105AAE0020436C6F6B6B0044656661756C74205798
:105ABE00657274652077657264656E2067656C61CA
:105ACE0064656E2E2E00536F004D6F004469004DBD
