S013000053757065725F436C6F6B6B2E73726563AF
S11300000C94A2010C94BF010C94BF010C94BF0189
S11300100C949C240C94BF010C94BF010C94BF015C
S11300200C94BF010C94BF010C940E240C94BF01DA
S11300300C94BF010C94BF010C94BF010C94BF013C
S11300400C94BF010C94BF010C94BF010C94BF012C
S11300500C94BF013D0336032F03280321031A0325
S113006013030C030503FE02F702F002E902E202A5
S1130070DB02D402CD02C602BF02B802B102AA0258
S1130080A3029C0295028E02870280027902720208
S11300906B0264025D0256024F02480241023A02B8
S11300A033022C0225021E02170210020902020268
S11300B0FB01F401ED01E601DF01D801D101CA0120
S11300C0C301BC01B501AE01A701A00199019201D0
S11300D08B0184017D0176016F01680161015A0180
S11300E053014C0145013E01370130012901220130
S11300F01B0114010D010601FF00FC007C01FF251A
S113010005FF810081FFA705FF950895FF3A026668
S113011066FFFFFFB0026060FFFFFF2E020303FFD4
S1130120FFFF6005FFFFFFFFFF2A054402120244A0
S11301302405122A7F2A243C05081C2A08083E05A7
S113014010105438103D0514141414142D05080807
S11301500808082B0508083E080829040081423CC9
S1130160002804003C428100260576899562052317
S1130170052040FF402040050402FF02042101FD48
S1130180000000003F0560808D906039057089890A
S11301908A7C38056E9191916E3705808F90A0C04E
S11301A036051E294989863505F29191918E3405CB
S11301B0182848FF083305428191916E3205438522
S11301C089916131040041FF010030057E8991A1CC
S11301D07E7A0511131519117905003905053E7844
S11301E005110A040A1177051E010E011E76051C6D
S11301F00201021C75051E0101021F740520FE2167
S113020001027305091515150272051F081010085F
S11302107105102828183F70053F242424186F0501
S11302200E1111110E6E053F1020201F6D053F2089
S113023018201F6C040081FF01006B04FF040A11E5
S1130240006A04020121BE0069015F000000006829
S113025005FF0810100F6705304949497E660508F7
S11302607F88804065050E1515150C64050E111167
S113027009FF63051E212121126205FF0911110ED8
S11302806105062929291F5A05838599A1C15905A4
S1130290E0100F10E05805C3241824C35705FF02CB
S11302A00C02FF5605F00C030CF05505FE0101018C
S11302B0FE54058080FF80805305619191918E5298
S11302C005FF888C8A7151057E8185827D5005FFEA
S11302D0888888704F057E8181817E4E05FF40307D
S11302E008FF4D05FF403040FF4C05FF01010101AF
S11302F04B05FF182442814A0506010101FE490508
S11303008181FF81814805FF101010FF47057E8120
S113031089894E4605FF909090804505FF91919103
S1130320814405FF8181423C43057E8181814242B3
S113033005FF9191916E41053F4888483F20030095
S11303400000000011241FBECFE5D8E0DEBFCDBF02
S113035013E0A0E6B0E0E2E2F4E502C005900D92FD
S1130360AA3CB107D9F724E0AAECB3E001C01D927E
S1130370AA39B207E1F70E94E9220C940F2A0C94DF
S1130380000000C000C000C000C000C000C00000E9
S11303900895A198A098A998A8980895A19AF1DF22
S11303A01DD00895A09AEDDFA198EBDFA098E9DFB6
S11303B0A19AE7DF13D00895082EA19AE2DF802DD9
S11303C00DD0882311F002D0F8CF0895A09AA19AF5
S11303D0D8DFA098D6DFA198D4DF08950894881FA9
S11303E001C0880F59F0A09A18F40000A19802C027
S11303F0A19A00C0C6DFA098C4DFF3CFA09AA19849
S1130400C0DFA098989BFECF8827999981E0B9DF37
S113041099270895882701C081E071E0A09AA198E6
S1130420B0DFA098AEDF989BFECF8894999908948A
S1130430771FA0F7A09A813011F0A19801C0A19A6A
S1130440A0DFA098989BFECF9CDF872F9927089563
S11304500F931F93CF93DF938C01FC01C081613014
S113046019F0611113C029C08EEE0E94DC018C2F9B
S11304700E94EE010E94E6018FEE0E94DC010E94C0
S11304800A02F80180830E94E60117C0DC2FD60F10
S11304908EEE0E94DC018C2F0E94EE010E94E60188
S11304A08FEE0E94DC010E940A02F80181938F0101
S11304B00E94E601CF5FDC13EBCF81E0DF91CF91A7
S11304C01F910F9108950F931F93CF93DF931F9262
S11304D0CDB7DEB78B01898361E0CE0101960E941E
S11304E02802882321F08981F801808381E00F901C
S11304F0DF91CF911F910F9108950F931F93CF9385
S1130500DF9300D0CDB7DEB78B01898362E0CE01E3
S113051001960E942802882351F0898190E0982F47
S113052088272A81822BF8019183808381E00F90B0
S11305300F90DF91CF911F910F9108950F931F9307
S1130540CF93DF9300D0CDB7DEB78B01898362E010
S1130550CE0101960E942802882359F0898190E0F7
S1130560982F88272A81822BF8019183808380E049
S113057001C081E00F900F90DF91CF911F910F91F7
S11305800895CF93DF93EC01BC018AEA0E947D02B7
S1130590BE016E5F7F4F8CEA0E947D02BE016C5FDC
S11305A07F4F8EEA0E947D02BE016A5F7F4F80EB1F
S11305B00E949E02BE01685F7F4F82EB0E949E02F2
S11305C0BE01665F7F4F84EB0E949E02BE01645FA2
S11305D07F4F86EB0E947D02BE01625F7F4F88EBF6
S11305E00E947D02BE01605F7F4F8AEB0E947D0204
S11305F0BE016E5E7F4F8CEB0E947D02BE016C5E7D
S11306007F4F8EEB0E947D0281E0DF91CF910895B0
S1130610EF92FF920F931F93CF93DF93FC01C0815E
S1130620662331F18C01FC2EF60E8EEE0E94CE0173
S1130630811120C08C2F0E94EE01D82FF8018181F6
S11306400E94EE01E82EFFEF22E587E0F150204002
S11306508040E1F700C00000DE0D0E94E601DE0DDF
S113066059F4CF5F0F5F1F4FFC12DFCF81E005C04D
S113067081E003C080E001C080E0DF91CF911F9151
S11306800F91FF90EF900895CF93DF9300D0CDB7F3
S1130690DEB789836A8361E0CE0101960E94080374
S11306A091E0811101C090E0892F0F900F90DF91AC
S11306B0CF910895EF92FF920F931F93CF93DF93FF
S11306C01F92CDB7DEB7F82EE42E69830E9444034F
S11306D081110CC017C0BE016F5F7F4F8F2D0E9428
S11306E063020F5F1F4F811103C00CC000E010E0D4
S11306F089818E2131F00F3F8FEF180761F781E078
S113070001C081E00F90DF91CF911F910F91FF9075
S1130710EF9008950F931F93CF93DF9300D0CDB73D
S1130720DEB78C0140E26EE284EF0E945A03882314
S113073061F0BE016F5F7F4F86EF0E947D02898169
S11307409A81F8019183808381E00F900F90DF916B
S1130750CF911F910F9108954F925F926F927F9264
S11307608F929F92AF92BF92CF92DF92EF92FF92BD
S11307701F93CF93DF9300D000D000D0CDB7DEB766
S113078088A099A0A12CB12C4AA05BA0612C712C4B
S1130790CAA4DBA40D2C000CEE08FF082CA53DA573
S11307A0C901330FAA0BBB0B8B839C83AD83BE8320
S11307B0CE0101960E948A03182F29813A81C9012A
S11307C0A0E0B0E09C01AD012419350946095709A0
S11307D0C501B4010E94ED254B015C01072E7FE0A9
S11307E0B594A794979487947A95D1F7702DC701FF
S11307F0B601052E5BE0660F771F881F991F5A9577
S1130800D1F7502D2B813C814D815E81280D391DFE
S11308104A1D5B1D0E943326820E931EA41EB51E24
S113082098E0890E911CA11CB11C689413F8B5942E
S1130830A794979487941694D1F7EEA9FFA9808280
S11308409182A282B382812F817026960FB6F8948A
S1130850DEBF0FBECDBFDF91CF911F91FF90EF9010
S1130860DF90CF90BF90AF909F908F907F906F90CC
S11308705F904F900895FF920F931F93CF93DF9350
S113088000D01F92CDB7DEB78C01F62E6295660FAD
S1130890660F607C6C5C40E284EF0E945A038823FC
S11308A079F1BE016F5F7F4F86EF0E946302BE0144
S11308B06E5F7F4F87EF0E946302BE016D5F7F4FC3
S11308C088EF0E94630229818A8190E0A0E0B0E071
S11308D0BA2FA92F982F8827A22B2B81822B28E0AF
S11308E030E02F19310904C0B595A79597958795E0
S11308F02A95D2F7F80180839183A283B38381E0A0
S11309000F900F900F90DF91CF911F910F91FF9057
S113091008952F923F924F925F926F927F928F929F
S11309209F92AF92BF92CF92DF92EF92FF920F937A
S11309301F93CF93DF93CDB7DEB7A8970FB6F89484
S1130940DEBF0FBECDBF1C01062FDC014D905C90B5
S113095011979201550C440B550B2F833887498707
S11309605A8712968D919C9113979C01990F440B71
S1130970550B2B873C874D875E8714968D909C90F2
S11309801597C401990CAA0BBB0B8F87988BA98B65
S1130990BA8BD10116960D90BC91A02DBC8BAB8B5C
S11309A0F10140845184920140E050E02D8B3E8B54
S11309B04F8B588F828593859C0140E050E0298FAE
S11309C03A8F4B8F5C8F628973892B01770F66088E
S11309D07708248935894901330FAA08BB0884851F
S11309E095859C01990F440B550B2D8F3E8F4F8F8E
S11309F058A3868597859C01990F440B550B29A311
S1130A003AA34BA35CA3CE0101960E948A03182F3C
S1130A10C980DA800D2C000CEE08FF08602FCE018F
S1130A2003960E943B048123182F11708B819C81B3
S1130A30AD81BE818DA39EA3AFA3B8A7A7019601E4
S1130A40898D9A8DAB8DBC8D281B390B4A0B5B0BA2
S1130A506D897E898F89988D0E94ED256B017C01BB
S1130A600B2EBFE0F594E794D794C794BA95D1F7C9
S1130A70B02DC301B201052E5BE0660F771F881FFE
S1130A80991F5A95D1F7502DA50194012C0D3D1DA8
S1130A904E1D5F1D0E943326C20ED31EE41EF51E9A
S1130AA0D701C6010896A11DB11D689413F8B59528
S1130AB0A795979587951694D1F7F101828F938F17
S1130AC0A48FB58FF0EACF1AFFE0DF0AE108F1083E
S1130AD0A7019601C701B6010E94ED252B013C0137
S1130AE0032E3CE075946794579447943A95D1F754
S1130AF0302D2F85388949895A89C701B6010E944A
S1130B00ED254B015C01992334F42FEF820E2FE184
S1130B10921EA11CB11C072E7DE0B594A794979456
S1130B2087947A95D1F7702D2D8D3E8D4F8D58A1D8
S1130B30C301B2010E94ED25BB2797FDB095AB2FF1
S1130B40880D991DAA1DBB1D0296A11DB11DB59549
S1130B50A79597958795B595A795979587959C01A2
S1130B60AD0130584F4F5F4FAB89BC890E9461265D
S1130B704B015C01072E7FE0B694A7949794879469
S1130B807A95D1F7702D29A13AA14BA15CA1C3019B
S1130B90B2010E94ED252B013C01032E3BE075942C
S1130BA06794579447943A95D1F7302D2B853C851B
S1130BB04D855E85C701B6010E94ED25DC01CB01A0
S1130BC0072E7BE0B595A795979587957A95D1F7EC
S1130BD0702D480E591E6A1E7B1E8F819885A9852B
S1130BE0BA85880F991FAA1FBB1F880F991FAA1FB8
S1130BF0BB1F480E591E6A1E7B1E002E04C0440CE7
S1130C00551C661C771C0A94D2F732E0430E511C23
S1130C10611C711C759467945794479475946794F8
S1130C20579447942DA13EA14FA158A524193509E5
S1130C304609570980E593ECA0E0B0E0BC01CD0182
S1130C4004C095958795779567950A95D2F70E9484
S1130C50ED2599236CF0660F771F881F991FA50156
S1130C6094010E9411262B833C834D835E830EC026
S1130C70A50194010E941126DA01C901880F991F68
S1130C80AA1FBB1F8B839C83AD83BE838B809C80F8
S1130C90AD80BE809927B7FC9A958B2D7A2D692D4E
S1130CA09B01AC010E94ED259B01AC01AEEDBBE0C4
S1130CB00E9461266B017C01A3E4B3EEA5019401BB
S1130CC00E946F26BB2797FDB095AB2F6701FF24C9
S1130CD0D7FCF094EF2CC80ED91EEA1EFB1E4FEC75
S1130CE0C40E4EE0D41EE11CF11C689413F8F59474
S1130CF0E794D794C7941694D1F7C80CD91CEA1C6E
S1130D00FB1CD1015696CD92DD92ED92FC9259973F
S1130D10812FA8960FB6F894DEBF0FBECDBFDF912A
S1130D20CF911F910F91FF90EF90DF90CF90BF90E4
S1130D30AF909F908F907F906F905F904F903F9077
S1130D402F9008958DEE93E00E94C1020895E0E68D
S1130D50F0E021E320839EE2918382E38283938304
S1130D6080E3848336E33583268387839087818772
S1130D7085E3828789E384871586CF010895CF931D
S1130D80DF93CDB7DEB761970FB6F894DEBF0FBE21
S1130D90CDBF91E1E1E3F1E0DE01119601900D9206
S1130DA09A95E1F790E3FB01908398E79183982F5C
S1130DB092959F70E1E0F0E0EC0FFD1FE90FF11D4B
S1130DC09081FB0192838F70E1E0F0E0EC0FFD1F56
S1130DD0E80FF11D8081FB0183831482CB016196AE
S1130DE00FB6F894DEBF0FBECDBFDF91CF9108954B
S1130DF080911404882369F080910E04833049F4AF
S1130E0080911304811105C081E080931304109232
S1130E10140480911304089580911404882309F420
S1130E2046C080910E048130B1F49091CE03E92F35
S1130E30E695E695E695F0E0E153FC4F3081292FE5
S1130E40277081E090E002C0880F991F2A95E2F78D
S1130E50832B808325C080910E04811117C090914B
S1130E60CE03E92FE695E695E695F0E0E153FC4FD5
S1130E703081292F277081E090E002C0880F991FEC
S1130E802A95E2F78095832380830AC080910E041B
S1130E90833031F41092CE031092140480E008954C
S1130EA08091CE038F5F8093CE03109214048091BF
S1130EB0CE038B3330F01092CE031092130481E0F2
S1130EC0089580E008950F931F93CF93DF9385E1F6
S1130ED090E0E82FE695E695E695F0E0E153FC4FC7
S1130EE0208130E0482F477002C0359527954A95F8
S1130EF0E2F720FD9F5F8F5F8D3159F790FD6BC244
S1130F00E82FE695E695E695F0E0E153FC4F208165
S1130F1030E0482F477002C0359527954A95E2F78F
S1130F2020FD9F5F8F5F843259F75BC2E82FE695FF
S1130F30E695E695F0E0E153FC4F208130E0482F40
S1130F40477002C0359527954A95E2F720FD9F5FCB
S1130F508F5F8B3359F790FD40C2EEE6F0E01682C6
S1130F60158214821082178211821382128280E009
S1130F7090E041E050E0682F9C012B5E3F4FD90187
S1130F800AF41796B595A795B595A795B595A79520
S1130F90A153BC4FAC91B0E027703078332334F4C4
S1130FA021503109286F3F6F2F5F3F4F8D0102C0E1
S1130FB0159507952A95E2F700FF0AC075819A01F5
S1130FC0062E02C0220F331F0A94E2F7272B258333
S1130FD09C01235E3F4FD9010AF41796B595A79556
S1130FE0B595A795B595A795A153BC4FAC91B0E025
S1130FF027703078332334F421503109286F3F6F40
S11310002F5F3F4FED0102C0D595C7952A95E2F7B2
S1131010C0FF0AC074819A01062E02C0220F331F3A
S11310200A94E2F7272B24839C012C5D3F4FD901BE
S11310300AF41796B595A795B595A795B595A7956F
S1131040A153BC4FAC91B0E027703078332334F413
S113105021503109286F3F6F2F5F3F4F8D0102C030
S1131060159507952A95E2F700FF0AC070819A0149
S1131070062E02C0220F331F0A94E2F7272B208387
S11310809C01265D3F4FD9010AF41796B595A795A3
S1131090B595A795B595A795A153BC4FAC91B0E074
S11310A027703078332334F421503109286F3F6F8F
S11310B02F5F3F4FED0102C0D595C7952A95E2F702
S11310C0C0FF0CC0833050F477819A01062E02C011
S11310D0220F331F0A94E2F7272B27839C01235DF9
S11310E03F4FD9010AF41796B595A795B595A795DD
S11310F0B595A795A153BC4FAC91B0E0277030785B
S1131100332334F421503109286F3F6F2F5F3F4F51
S11311108D0102C0159507952A95E2F700FF0AC0D4
S113112071819A01062E02C0220F331F0A94E2F73E
S1131130272B21839C012E5C3F4FD9010AF417967B
S1131140B595A795B595A795B595A795A153BC4F0A
S1131150AC91B0E027703078332334F42150310956
S1131160286F3F6F2F5F3F4FED0102C0D595C795A4
S11311702A95E2F7C0FF0CC0228133818A0102C0A4
S1131180000F111F6A95E2F7202B312B3383228342
S113119001968430910509F0EECE48E250E020E05B
S11311A030E0C4E0EEE6F0E06AE070E0C9014996A0
S11311B0DC010AF41796B595A795B595A795B5954D
S11311C0A795A153BC4FAC91B0E087709078992358
S11311D024F40197886F9F6F01968D0102C01595C5
S11311E007958A95E2F700FF0CC0C73050F4A5813B
S11311F0CB01022E02C0880F991F0A94E2F78A0FCE
S11312008583C9018196DC010AF41796B595A795E3
S1131210B595A795B595A795A153BC4FAC91B0E0F2
S113122087709078992324F40197886F9F6F0196B3
S11312308D0102C0159507958A95E2F700FF2DC030
S1131240C63008F0D1C0A481CB01022E02C0880FA1
S1131250991F0A94E2F78A0F8483CA01DA0155239D
S11312600CF41796B595A795B595A795B595A7953B
S1131270A153BC4FAC91B0E087709078992324F4CB
S11312800197886F9F6F01968D0102C01595079590
S11312908A95E2F700FD22C02BC0CA01DA0155236A
S11312A00CF41796B595A795B595A795B595A795FB
S11312B0A153BC4FAC91B0E087709078992324F48B
S11312C00197886F9F6F01968D0102C01595079550
S11312D08A95E2F700FF0CC0C63050F4A081CB0120
S11312E0022E02C0880F991F0A94E2F78A0F8083A6
S11312F0C901C196DC010AF41796B595A795B59571
S1131300A795B595A795A153BC4FAC91B0E0877054
S11313109078992324F40197886F9F6F01968D012B
S113132002C0159507958A95E2F700FF0CC0C430FA
S113133051F4A181CB01022E02C0880F991F0A9497
S1131340E2F78A0F8183C901C696DC010AF4179675
S1131350B595A795B595A795B595A795A153BC4FF8
S1131360AC91B0E087709078992324F40197886F4A
S11313709F6F01968D0102C0159507958A95E2F736
S113138000FF0DC082819381DB01022E02C0AA0FEF
S1131390BB1F0A94E2F78A0F9B1F93838283CF5F5C
S11313A02F5F3F4F4F5F5F4FC83009F0FFCEEEE62F
S11313B0F0E0828193818053984F9383828380915C
S11313C0D10381FF04C081E0809376001CC0109299
S11313D0760081E018C080E016C080E014C080E090
S11313E012C090FFA3CDFBCFCA0155230CF407967E
S11313F0959587959595879595958795DC01A15346
S1131400BC4F8C9175CFDF91CF911F910F910895AF
S1131410B29920C08091CC039091CD038D3D95402D
S113142058F081E08093140483E080930E041092BA
S1131430CD031092CC0304C01092CD031092CC03C0
S11314408091CA039091CB0301969093CB03809330
S1131450CA032BC08091CA039091CB03853B9105AD
S113146050F081E08093140480930E041092CB0317
S11314701092CA0311C08135910550F081E0809328
S1131480140410920E041092CB031092CA0304C0E9
S11314901092CB031092CA038091CC039091CD0398
S11314A001969093CD038093CC030E94F806882381
S11314B0A1F00E940C07882381F00E94630788230F
S11314C041F081E080930F0410920C0410920D04FB
S11314D0089510920F0410920D0408950097B1F42A
S11314E0089500000000000000000000000000005B
S11314F0000000000000000000002150310989F7BD
S11315004F5F5F4F8417950719F4089540E050E04A
S113151028EE33E0E6CFDD980895DD9A089566233A
S113152051F0DB98982F962311F0DA9A01C0DA98DB
S1131530DB9A6695B1F70895CF93DF930E948B0AE7
S113154064E085E00E948F0A60E480E00E948F0AD4
S1131550C0E0D0E0FE01EB5EFB4F808168E00E94BA
S11315608F0A2196C034D105A9F70E948D0ADF9114
S1131570CF910895CF93C82F0E948B0A64E084E032
S11315800E948F0A60E88C2F0E948F0A61E081E03C
S11315900E948F0A0E948D0ACF910895EF92FF92C4
S11315A00F931F93CF93DF9300D000D000D0CDB71B
S11315B0DEB7D59ADD9AD39AD29A91E0998393E0D3
S11315C09A8398E09B8398E19C8390E29D838E8329
S11315D08E010F5F1F4F7E0187E0E80EF11CF801BA
S11315E081918F010E94BA0A0E151F05C1F7269634
S11315F00FB6F894DEBF0FBECDBFDF91CF911F9120
S11316000F91FF90EF900895803240F5683040F5D7
S1131610982F96959695969570E0660F771F20E122
S1131620929F600D711D112482FB222720F930E066
S1131630620F731FFB01EB5EFB4F4081837028E058
S113164030E0B90102C0759567958A95E2F7CB0140
S1131650942F982381E029F480E0089580E0089590
S113166080E00895803268F5683058F5982F9370BB
S1131670E8E0F0E002C0F595E7959A95E2F7982F37
S113168096959695969570E0660F771F20E1929F48
S1131690600D711D112482FB222720F930E0620FB6
S11316A0731F442339F0DB01AB5EBB4F8C91E82BF5
S11316B0EC930895DB01AB5EBB4F8C91E095E8237E
S11316C0EC930895982F92959F70990F292F220FCC
S11316D0220F920F8F70890F08950F931F93CF934A
S11316E0DF93E7EDF3E092E090839DEC499F212D99
S11316F0112426952695269530E1239FD0011124A7
S1131700220F322F330F330F230F421B4A2B4183F7
S1131710699F212D112426952695269530E1239F36
S1131720A0011124220F322F330F330F230F621B1A
S1131730642B6283899F912D112496959695969595
S113174040E1949F90011124990F392F330F330FE7
S1131750930F891B822B838382EA0E94DC01C7EDED
S1131760D3E002EE13E089910E94EE01C017D10785
S1131770D1F70E94E601DF91CF911F910F91089557
S11317800F931F93CF93DF93E7EDF3E095E09083FE
S11317909DEC899F312D112436953695369550E16F
S11317A0359FD0011124330F532F550F550F350F8B
S11317B0831B8A2B8183699F812D112486958695AD
S11317C0869530E1839FD0011124880F382F330F81
S11317D0330F830F681B6A2B6283499F812D112469
S11317E086958695869550E1859FB0011124880FD2
S11317F0382F330F330F830F481B462B4383205D51
S1131800299F912D112496959695969580E1989F00
S1131810A0011124990F892F880F880F980F291B75
S1131820242B248382EA0E94DC01C7EDD3E002EE7C
S113183013E089910E94EE01C017D107D1F70E94ED
S1131840E601DF91CF911F910F910895EF92FF92DE
S11318500F931F93CF93DF938C01C7EDD3E082E006
S1131860888382EA0E94CE0188810E94EE0183EA85
S11318700E94D201882319F00E94E60114C0C7ED2A
S1131880D3E00F2EF2EEEF2EF3E0FF2EF02D0E94A8
S11318900C028993CE15DF05D1F70E940A028093CA
S11318A0E2030E94E601E7EDF3E0A081E801A883EA
S11318B07181798362816A8353815C8334813D833E
S11318C045814B83868190E09F838E83278128877F
S11318D09085998781858A87E285AF77A8837F770A
S11318E079836F736A835F735C834F714B83377043
S11318F03D832F7728879F7799878F778A878E2FC5
S11319008F778B87DF91CF911F910F91FF90EF908D
S11319100895AC019C01329522952F7023273F70C6
S11319202327AEE3BAE00E94522620E931E0BC014D
S1131930629FC001639F900D729F900D1124481700
S11319405907D9F09A013695279536952795ABE72F
S1131950B4E10E9452269695879564E6689F9001AB
S1131960699F300D11244217530749F043705527DE
S113197081E0452B29F080E0089581E0089580E01E
S11319800895CF93DF93CDB7DEB72D970FB6F894B4
S1131990DEBF0FBECDBF9DE0E7E1F1E0DE011196B1
S11319A001900D929A95E1F7823041F4CB010E94A7
S11319B0890C81110DC08CE190E00FC09FEF980F4E
S11319C09C3048F4FE01E80FF11D818190E005C0D0
S11319D08DE190E002C080E090E02D960FB6F8947F
S11319E0DEBF0FBECDBFDF91CF910895AF92BF92FE
S11319F0CF92DF92EF92FF920F931F93CF93DF93D7
S1131A00CDB7DEB72D970FB6F894DEBF0FBECDBFAE
S1131A10162F9DE0E4E2F1E0DE01119601900D92B3
S1131A209A95E1F79FEF960F9C3008F076C09FEFF0
S1131A30980F9F3108F074C04115510509F473C023
S1131A4005E2809F012D1124982F901B9695090F74
S1131A5006950695902F990F990F990F901B082FB3
S1131A60091BFE01E60FF11DD1805A01B694A7941B
S1131A70B694A7949501ABE7B4E10E9452269695DB
S1131A80879564E6689F9001699F300D1124CA010F
S1131A90821B930BFC01F695E795F695E795E80F05
S1131AA0F91F9F01A3E9B4E20E945226281B390BB7
S1131AB0369527957C01E20EF31EF694E794F6948E
S1131AC0E794C701880F991F880F991F880F991FE2
S1131AD08E199F097F01E81AF90A9501ABE7B4E171
S1131AE00E94522696958795809590958370C82E6E
S1131AF0CC0C133028F4CA010E94890C81110A5FAE
S1131B008D2D90E0800F911D8E0D911D8C0D911DDA
S1131B1067E070E00E94FD2508C08FEF9FEF05C0CD
S1131B208FEF9FEF02C08FEF9FEF2D960FB6F894C3
S1131B30DEBF0FBECDBFDF91CF911F910F91FF90FC
S1131B40EF90DF90CF90BF90AF9008950F931F93C5
S1131B50CF93DF939FEF960F9C3090F4623060F048
S1131B608A01C62FD82FC150B8018C2F0E94C10CF6
S1131B70D80FC130C1F701C0D82F8D2F90E002C01B
S1131B808FEF9FEFDF91CF911F910F910895EF9207
S1131B90FF920F931F93CF93DF937A010E94A60DB8
S1131BA0EC01A70161E081E00E94F60C8C0105972D
S1131BB010F007501109C8018C0F9D1F8230910548
S1131BC050F4A701415051096CE070E08FE190E0BE
S1131BD00E94C70D40C0FC0135969F01A3E9B4E201
S1131BE00E945226E81BF90BF695E7959C012E0FEF
S1131BF03F1F369527953695279525333105D1F422
S1131C00C7010E94890C04301105B9F00D3F9FEF04
S1131C101907B1F00330110529F4811114C081E0D2
S1131C2090E019C00C3F1F4F89F4882391F085E39D
S1131C3090E011C0822F932F0EC085E390E00BC07B
S1131C4085E390E008C085E390E005C081E090E082
S1131C5002C081E090E0DF91CF911F910F91FF903E
S1131C60EF9008950F931F93CF93DF9310E000E05C
S1131C7016C0D1E0DC0F612F8D2F0E94040B482F7A
S1131C80612F8C2F0E94320BCD2FDF3191F7402F23
S1131C90612F8FE10E94320B1F5F183011F0C02FAB
S1131CA0E8CFDF91CF911F910F9108950F931F9368
S1131CB0CF93DF9310E00FC06D2F8C2F0E94040B85
S1131CC0482F612F8C2F0E94320BCF5FC032A1F7B7
S1131CD0D73029F01D2FC0E0D1E0D10FEDCFC0E007
S1131CE040E067E08C2F0E94320BCF5FC032C1F717
S1131CF0DF91CF911F910F910895AF92BF92CF9230
S1131D00DF92EF92FF920F931F93CF93DF9300D054
S1131D101F92CDB7DEB78B835B0104E510E00F2E75
S1131D20FCEFCF2EF0E0DF2EF02D42E050E0B801C2
S1131D30CE0101960E949526E980FA8041E050E0A8
S1131D40B701CE0103960E948826892B39F447E017
S1131D5050E0B701C5010E94952609C00E5F1F4FD0
S1131D600C151D0511F7B5018FE30E947D0E0F9030
S1131D700F900F90DF91CF911F910F91FF90EF90F3
S1131D80DF90CF90BF90AF900895CF93DF93CDB7FE
S1131D90DEB727970FB6F894DEBF0FBECDBF1A8209
S1131DA01982FE01339695E0DF011D929A95E9F7B9
S1131DB0BE016F5F7F4F0E947D0E8A8127960FB60A
S1131DC0F894DEBF0FBECDBFDF91CF9108953F924F
S1131DD04F925F926F927F928F929F92AF92BF9237
S1131DE0CF92DF92EF92FF920F931F93CF93DF93E3
S1131DF0CDB7DEB729970FB6F894DEBF0FBECDBFBF
S1131E00462EBE016F5F7F4F0E947D0E3A800F2EDB
S1131E10F7E0AF2EB12CF02D512C88248394912C13
S1131E20CE01019699878887632C640CE42CF12CED
S1131E30E81AF90A23C0C701800F911F809794F410
S1131E40F801828190E08C219D21892B31F041E0C1
S1131E50652D872D0E94320B05C040E0652D872D2E
S1131E600E94320B73940F5F1F4F7610E4CF53948C
S1131E70F1E0AF1AB10888E0581671F03320B9F3D5
S1131E8064010A2C02C0CC0CDD1C0A94E2F78E011A
S1131E900F5F1F4F742CCFCF10E0430C40E0612F35
S1131EA0842D0E94320B1F5F1830C1F729960FB69C
S1131EB0F894DEBF0FBECDBFDF91CF911F910F917C
S1131EC0FF90EF90DF90CF90BF90AF909F908F9056
S1131ED07F906F905F904F903F9008950F931F9362
S1131EE0CF93DF93C62F0E94620B082F8C2F0E9482
S1131EF0620B182FCDEC0C9FD12D1124D695D695BD
S1131F00D69561E080E38D0F0E94E70EDD0F8D2FE3
S1131F10880F880FD80F802F8D1B67E0805D0E948B
S1131F20E70E1C9FC12D1124C695C695C69563E185
S1131F3080E38C0F0E94E70ECC0F8C2F880F880F44
S1131F40C80F812F8C1B69E1805D0E94E70EDF9131
S1131F50CF911F910F9108950F931F93CF93DF9308
S1131F60082F162FCDEC8C9FD12D1124D695D69504
S1131F70D69561E080E38D0F0E94E70EDD0F8D2F73
S1131F80880F880FD80F802F8D1B67E0805D0E941B
S1131F90E70E1C9FC12D1124C695C695C69563E115
S1131FA080E38C0F0E94E70ECC0F8C2F880F880FD4
S1131FB0C80F812F8C1B69E1805D0E94E70EDF91C1
S1131FC0CF911F910F910895EF92FF920F931F935A
S1131FD0CF93DF937C01D62FFC0181918F010E9466
S1131FE0E70EF70180810E94C50EC1E0C80FF7011A
S1131FF08181882381F06D2F6C0F0E94E70EF80118
S113200081918F010E94C50E8C0FC1E0C80FF801A9
S113201080818111F0CFDF91CF911F910F91FF90BB
S1132020EF9008956FE08AE30E94E70E08952091EF
S11320306F04309170042039314018F40E94AC0FC1
S1132040089580916F049091700481399140F0F06B
S113205080916F049091700480329340B8F44423CB
S113206019F0413051F0089561E080E60E94E70ED6
S113207067E080E60E94E70E089563E180E60E942F
S1132080E70E69E180E60E94E70E089580916F04EF
S1132090909170048132934020F010927004109259
S11320A06F0408950F931F93CF93DF938C01809156
S11320B06F04909170048039914020F4C8010E940B
S11320C0E40F30C080916F04909170048139914085
S11320D0F0F080916F04909170048032934040F04E
S11320E016C06C2F80E60E94E70EDF5FCA5F02C055
S11320F0C62FD0E0F80101900020E9F73197E01BEA
S1132100F10B8D2F90E08E179F0758F30BC0809131
S11321106F04909170048132934020F01092700407
S113212010926F04DF91CF911F910F91089580E079
S113213090E0FC01EB5EFB4F108201968034910528
S1132140C1F708954F925F926F927F928F929F9200
S1132150AF92BF92CF92DF92EF92FF920F931F93B1
S1132160CF93DF93EC01562E0E949710511004C0B8
S11321700F2EFAE55F2EF02D8881882309F4ABC079
S11321806E018FEFC81AD80A7E016894772475F817
S113219080E0C0E0D0E0612C0F2EF2E68F2EF4E058
S11321A09F2EF02D44244394052D10E0F401128257
S11321B09091730491FF03C010927304642C8823DC
S11321C009F473C0C0320CF46BC0C8010E946E0ADB
S11321D00E94320E1C1614F4D150C1506D2F872D5D
S11321E00E94E70EC0328CF75BC06D2F872D0E94D2
S11321F0E70E872D0E94C50E8F5FC82FCD0FF50106
S11322008081811106C0C0326CF1F1E06F120CC004
S113221051C08FEFC81AD80A9FEFE91AF90A842D22
S1132220E1E06E12C3CF54C0FF24F394052D10E0F7
S11322308091730481FF03C0109273046F2CC80152
S11322400E946E0A0E94320E1C1614F4D150C15022
S11322506D2F872D0E94E70EC03224F0F1E06F123B
S1132260E7CF28C0052D10E0C8010E946E0A81E066
S1132270681227C007C00E94320EC8010E946E0A6D
S1132280C150C9F7109272041092710480916104D4
S11322908F7E8093610481E0611024C080E022C0BD
S11322A0F70170805601DC2FA0CFF7017080560132
S11322B0DFE19BCF852D90E00E946E0A6624639433
S11322C0E1CF0E94320EC8010E946E0ACFE1D3CF43
S11322D0C03244F2EFCF052D10E0C8010E946E0A0F
S11322E0612CEFCFDF91CF911F910F91FF90EF9071
S11322F0DF90CF90BF90AF909F908F907F906F9022
S11323005F904F90089564E182E491E00E94A210EE
S113231098E088E10FB6F894A89581BD0FBE91BDF1
S1132320FFCF0F931F93CF93DF930E94971087E003
S113233090E00E949129082FD0E6D80F8CB3182F73
S1132340127081FDFBCFCD2F8091730483FF08C0F1
S1132350109273040E949710CF5FC03108F0C0E060
S11323608091730482FF07C0109273040E94971037
S1132370C1500AF4CFE08091730484FF21C010920D
S113238073040E949710C0568C2F0E94BA0AC093FF
S11323907E046C2F87E090E00E949F296AE08FE41E
S11323A091E00E94A210E2E6F4E01282108211820F
S11323B010927304809161048F7E8093610438C00D
S11323C08091730481FD04C08091610484FF0EC078
S11323D010927304809161048F7E809361040E9443
S11323E09710802F0E94BA0A11E022C0CA3030F43C
S11323F061E080E38C0F0E94E70E09C061E081E395
S11324000E94E70E67E086E28C0F0E94E70E80EAE6
S11324108C0F0E94BA0ACD1306C06BE187EA0E94B2
S1132420E70ECD2F91CF6BE185E20E94E70E8CCFB2
S1132430812FDF91CF911F910F910895CF93DF9357
S1132440CDB7DEB764970FB6F894DEBF0FBECDBF2D
S11324501A821982FE01339682E1DF011D928A9568
S1132460E9F78091730484FD1BC087E0E7E6F1E09F
S1132470DE01119601900D928A95E1F70E94A7065C
S1132480BC01CE0101960E949E2664E1CE01019614
S11324900E94A2109091730494FD02C0813029F728
S11324A00E9497101092730480E064960FB6F8941B
S11324B0DEBF0FBECDBFDF91CF910895BF92CF9203
S11324C0DF92EF92FF920F931F93CF93DF93CDB7D9
S11324D0DEB7C254D1090FB6F894DEBF0FBECDBF2C
S11324E08C01C62EFE0133968AE3DF011D928A9584
S11324F0E9F7F8018481982F92959F70905D9983F4
S11325008F70805D8A839EE29B838381282F22952E
S11325102F70205D2C838F70805D8D839E8382E37A
S11325208F8380E3888726813781A901529542955C
S11325304F7045275F704527405D4987822F8F7014
S1132540805D8A879B8780917600882319F081308B
S113255079F01BC0DE011C960D900020E9F711975D
S113256086E0EEE6F1E001900D928A95E1F70DC068
S1132570DE011C960D900020E9F7119786E0E4E750
S1132580F1E001900D928A95E1F7D80115969C919E
S1132590933049F128F4992351F09130B1F05AC0A5
S11325A09530E9F170F1963009F447C053C0DE016B
S11325B051960D900020E9F7119788E0EAE7F1E0E1
S11325C001900D928A95E1F745C0DE0151960D9078
S11325D00020E9F7119787E0E2E8F1E001900D921D
S11325E08A95E1F737C0DE0151960D900020E9F796
S11325F0119789E0E9E8F1E001900D928A95E1F7FD
S113260029C0DE0151960D900020E9F711978BE067
S1132610E2E9F1E001900D928A95E1F71BC0DE0139
S113262051960D900020E9F7119788E0EDE9F1E06B
S113263001900D928A95E1F70DC0DE0151960D903F
S11326400020E9F7119788E0E5EAF1E001900D92A6
S11326508A95E1F786E0E7EBF1E0DE01DD96019093
S11326600D928A95E1F7FE0131967F01DF010D900D
S11326700020E9F711978AE0EDEAF1E001900D926C
S11326808A95E1F7822F0E94620BB82ED801139627
S11326908C910E94620BD82EF80184810E94620BF7
S11326A04B2D50E06D2D70E090E00E94C70D4AE084
S11326B0BE01635C7F4F0E94A926BC01C7010E9432
S11326C09E266C2DC7010E94A2100E949710CE5B1B
S11326D0DF4F0FB6F894DEBF0FBECDBFDF91CF91B1
S11326E01F910F91FF90EF90DF90CF90BF900895CE
S11326F0FF920F931F93CF93DF93CDB7DEB7A397CA
S11327000FB6F894DEBF0FBECDBFF82E1A82198221
S1132710FE01339681E2DF011D928A95E9F7F89470
S113272087E094E09F938F938DB79EB74E970FB633
S1132730F8949EBF0FBE8DBFADB7BEB711968EE1A4
S1132740EDEEF3E001900D928A95E1F70E94AC035F
S113275078944091070450910804609109047091A1
S11327600A040FB6F894DEBF0FBECDBF14161506CB
S1132770160617064CF488E1EDEBF1E0DE01119644
S113278001900D928A95E1F77723C4F488E1E5ED91
S1132790F1E0DE01119601900D928A95E1F77095B2
S11327A06095509541955F4F6F4F7F4F409307045D
S11327B0509308046093090470930A046091070419
S11327C0709108048091090490910A042AE030E091
S11327D040E050E00E9433269F938F937F936F9342
S11327E05F934F933F932F938DEE91E09F938F933D
S11327F08E010F5F1F4F1F930F930E94CE266F2DE4
S1132800C8010E94A2100E9497100FB6F894DEBF70
S11328100FBECDBFA3960FB6F894DEBF0FBECDBFDB
S1132820DF91CF911F910F91FF900895BF92CF92A6
S1132830DF92EF92FF920F931F93CF93DF93CDB765
S1132840DEB7A3970FB6F894DEBF0FBECDBFB82E88
S11328501A821982FE01339681E2DF011D928A9564
S1132860E9F7F89463E08DEE93E00E94890478948C
S11328700DEE13E0F80166897789808D918D0E94B1
S1132880F4242AE037ED43E25CE30E9458250E94D9
S1132890BC246B017C01D80156966D937D938D9376
S11328A09C93599787E1EDE0F2E08E010F5F1F4F93
S11328B0D80101900D928A95E1F7F801019000206A
S11328C0E9F7BF01615071094AE0C6010E94A926D7
S11328D0D8010D900020E9F7119785E0E4E2F2E0D9
S11328E001900D928A95E1F76B2DC8010E94A21008
S11328F00E949710A3960FB6F894DEBF0FBECDBF0B
S1132900DF91CF911F910F91FF90EF90DF90CF90C7
S1132910BF9008951F93CF93DF93D82F162FCDEC3C
S11329208C9FC12D1124C695C695C69580E38C0F46
S11329300E94E70E66E0610FCC0F8C2F880F880F82
S1132940C80F8D2F8C1B805D0E94E70EDF91CF9105
S11329501F910895CF93C62F20916F043091700476
S11329602039314018F40E948A1422C080916F04E7
S1132970909170048139914080F080916F0490911E
S113298070048032934048F480E60E94E70E66E0CB
S11329906C0F80E60E94E70E0BC080916F0490914B
S11329A070048132934020F01092700410926F04EE
S11329B0CF9108958F929F92AF92BF92CF92DF9260
S11329C0EF92FF920F931F93CF93DF9300D000D029
S11329D000D0CDB7DEB7EEE6F0E0808189838FE1E9
S11329E08A8381818B838CE08C8382819381805D57
S11329F08D8383E68E83109273040F2EF4ECCF2E16
S1132A00F3E0DF2EF02D8E010F5F1F4F5E0187E094
S1132A10A80EB11C912C8824839460E0D6018D917A
S1132A209D916D010E94E40F91103FC07801809147
S1132A30730483FF0FC010927304F80180818F5FC9
S1132A409181981708F480E0D7018C9365E10E9486
S1132A508A1454C18091730482FF0EC010927304CF
S1132A60F8019181808181500AF4892FD7018C93D8
S1132A7065E10E948A1442C18091730484FF03C0FB
S1132A801092730412C08091730481FD04C080917C
S1132A90610484FF33C110927304809161048F7EBA
S1132AA0809361040E949710982C0E9497100E5FE7
S1132AB01F4FA016B10609F0B0CFE0917600F0E008
S1132AC0EE0FFF1FE054FC4F60E0808191810E9473
S1132AD0E40F91102DC10EE610E0FF24F3948091D1
S1132AE0730483FF19C0109273040E949710F801B5
S1132AF0808591E0980F90878111F086D80118960F
S1132B00EC91F0E0EE0FFF1FE054FC4F60E0808199
S1132B1091810E94E40F1DC08091730482FF19C04B
S1132B20109273040E949710F80180859FEF980F0C
S1132B309087811101C01086D8011896EC91F0E0BD
S1132B40EE0FFF1FE054FC4F60E0808191810E94F2
S1132B50E40F8091730481FD04C08091610484FFBB
S1132B600AC010927304809161048F7E8093610483
S1132B700E949710DDC08091730484FF21C01092DD
S1132B80730464E189E292E00E94A2100E9497100B
S1132B9060E08DE392E00E94E40FE0917500F0E0C4
S1132BA0EE0FFF1FEE54FC4F65E1808191810E947E
S1132BB0E40F0EE610E00F2EF6E0FF2EF02D0EC00F
S1132BC0D8011896EC91F0E0EE0FFF1FE054FC4F93
S1132BD060E0808191810E94521081CF80917304C2
S1132BE083FF1FC0109273040E949710F80187811D
S1132BF08F5F873008F080E0D80117968C9360E0EF
S1132C008DE392E00E94E40FD8011796EC91F0E076
S1132C10EE0FFF1FEE54FC4F65E1808191810E940D
S1132C20E40F8091730482FF1EC0109273040E940B
S1132C309710F801878181500AF48F2DD8011796D7
S1132C408C9360E08DE392E00E94E40FD801179624
S1132C50EC91F0E0EE0FFF1FEE54FC4F65E1808134
S1132C6091810E94E40F8091730484FF1FC010922D
S1132C707304109264040E9497100EE610E0F801A9
S1132C8067812D8130E02053384F4B8189810E9428
S1132C90C00BD80118966C9184E090E00E949F29A3
S1132CA06AE082E492E00E94A21054C0809173040E
S1132CB081FD04C08091610484FF0AC010927304F2
S1132CC0809161048F7E809361040E9497101CC0E0
S1132CD0D8011796EC91F0E0EE0FFF1FEE54FC4F75
S1132CE065E1808191810E9452108091730481FF7B
S1132CF075CF109273040E94971006C065E1F80125
S1132D0080810E94AA1493CE0EE610E0D801179693
S1132D106C912D8130E02053384F4B8189810E9482
S1132D20C00BF801608584E090E00E949F2912C0E6
S1132D3060E08DE392E00E94E40FE0917500F0E022
S1132D40EE0FFF1FEE54FC4F65E1808191810E94DC
S1132D50E40FDACF1092730480E026960FB6F8944D
S1132D60DEBF0FBECDBFDF91CF911F910F91FF90BA
S1132D70EF90DF90CF90BF90AF909F908F90089589
S1132D80CF93C82FF89483E00E94BA0A88E00E9487
S1132D90BA0A8C2F0E94BA0A7894CF9108957F9230
S1132DA08F929F92AF92BF92CF92DF92EF92FF9257
S1132DB00F931F93CF93DF9385E594E00E94260C35
S1132DC090916E0480915704981759F0E2E6F4E06C
S1132DD0938521E0290F2387953018F0848791E0AB
S1132DE095830E94620BC82F809156040E94620B47
S1132DF09091E803891709F45AC08093E8039091ED
S1132E00E7039F5F9B3018F49093E70350C0109240
S1132E10E7031092E6031092E50349C09191C913A8
S1132E2034C09781891331C07B01022E02C0F5940E
S1132E30E7940A94E2F7E0FE28C07801022E02C06B
S1132E40EE0CFF1C0A94E2F76701CA22DB22EC14A1
S1132E50FD0469F4B093E603A093E503D0937604EC
S1132E608091610450FB82F9809361043BC0DE2DA4
S1132E7075016401022E04C0CC0CDD1CEE1CFF1C89
S1132E800A94D2F7AC29BD29572D2F5F3F4F283024
S1132E90310521F6B093E603A093E503D0937604BD
S1132EA08091610450FB82F9809361041BC0E4E7C4
S1132EB0F4E0618170E0D281A091E503B091E60372
S1132EC05091610452FB552750F9E9E8F4E020E001
S1132ED030E001E010E0812C912C5401839477249C
S1132EE073949CCFDF91CF911F910F91FF90EF903E
S1132EF0DF90CF90BF90AF909F908F907F90089578
S1132F000F931F93CF93DF93CDB7DEB727970FB6F9
S1132F10F894DEBF0FBECDBF8091610482FFA9C0CB
S1132F201A821982FE01339685E0DF011D928A958B
S1132F30E9F7809176048830C9F038F4823091F052
S1132F40843091F08130E1F40BC0803299F018F4B0
S1132F50803171F015C0803479F0803879F010C078
S1132F6081E00FC082E00DC083E00BC084E009C0A3
S1132F7085E007C086E005C087E003C088E001C0A3
S1132F8080E01F928F938FE492E09F938F938E0142
S1132F900F5F1F4F1F930F930E94CE260E9497101E
S1132FA060E0C8010E94E40F89E00E94BA0A80919F
S1132FB066040F900F900F900F900F900F9088233E
S1132FC009F44BC020E0E2E6F4E08091610480FD66
S1132FD0C39ABFEF33ED40E3B15030404040E1F7D6
S1132FE000C00000C3988AE094989091610490FD19
S1132FF0C39A9091610491FDC49A9FEFA0E7B2E057
S11330009150A040B040E1F700C00000949AC398EA
S1133010C4983FEF44E39CE0315040409040E1F7D6
S113302000C000009A9B0AC09B9B08C09C9B06C0E2
S11330309D9B04C09E9B02C08150B1F69A9B0DC01B
S11330409B9B0BC09C9B09C09D9B07C09E9B05C07E
S11330502F5F8481281708F4B8CF0E9497108091BD
S113306061048B7E8F7D8093610480917E040E9435
S1133070C01627960FB6F894DEBF0FBECDBFDF9102
S1133080CF911F910F9108951F93CF93DF93C5E5BF
S1133090D4E08A810E94620B182F89810E94620BFE
S11330A06CE390E0619F800D911D1124E9E7F4E049
S11330B04585278530E0649F200D311D11247485DA
S11330C0468550E0679F400D511D11242417350794
S11330D030F58417950708F449C02817390720F0FC
S11330E08217930708F047C08091610485FD43C0AF
S11330F080EA0E94C016809161048062809361041A
S11331003AC08091610485FF36C080917E040E949C
S1133110C016809161048F7D809361042CC0421796
S1133120530748F58417950780F08217930780F4B6
S11331308091610485FD1FC080EA0E94C0168091C1
S1133140610480628093610416C08217930798F02B
S11331508091610485FF0FC080917E040E94C01697
S1133160809161048F7D8093610405C08217930769
S113317008F4BACFC6CFDF91CF911F910895F89488
S1133180E2E6F4E0928589239285982792877894E1
S11331900895F894E2E6F4E09185892391859827CF
S11331A0918778940895E2E6F4E0908583B380955E
S11331B0282F29279091EB039223892F80958093C0
S11331C0EB039091EA03922398279093EA038223D6
S11331D08923908598279087208592858223892B3F
S11331E0828780858C7721F481E38093E90311C081
S11331F08091E903815019F08093E9030AC08FE0BC
S11332008093E903E2E6F4E0808591858C77892B4D
S1133210818784E00E94BF18882359F08091730449
S1133220816080937304E2E6F4E0108A17861686C0
S1133230158688E00E94BF18882359F08091730492
S1133240826080937304E2E6F4E0108A178616869F
S1133250158680E10E94BF18882359F08091730479
S1133260846080937304E2E6F4E0108A178616867D
S1133270158680E10E94C918882359F0809173044F
S1133280846080937304E2E6F4E0108A178616865D
S1133290158680E20E94C918882359F0809173042E
S11332A0886080937304E2E6F4E0108A1786168639
S11332B0158680E20E94BF18882359F08091730418
S11332C0886080937304E2E6F4E0108A1786168619
S11332D0158680E40E94BF18882359F080917304F6
S11332E0806180937304E2E6F4E0108A1786168600
S11332F0158608959F92AF92BF92CF92DF92EF927C
S1133300FF920F931F93CF93DF9300D0CDB7DEB717
S11333108C01FC018081898381818A8382818083FD
S1133320838181830E941210F801618180810E944F
S1133330AC0F8091610484FD54C07801CE010196E4
S11333406C01912C4CC010927304F70180818F5F43
S1133350F6019081981708F480E0F501808380914C
S1133360730482FF0BC010927304F6019081F7017D
S1133370808181500AF4892FF50180838091730440
S113338084FF07C0109273049394F2E09F121DC04F
S113339028C08091730481FD04C08091610484FF7E
S11333A009C010927304809161048F7E809361043C
S11333B081E021C0492DF801618180810E941710AC
S11333C08091730483FDBFCFCACFFFEFEF1AFF0ACA
S11333D08FEFC81AD80A8091610484FD02C0570196
S11333E0EFCF809161048F7E809361041092640416
S11333F01092730480E00F900F90DF91CF911F9192
S11334000F91FF90EF90DF90CF90BF90AF909F907F
S113341008951F93CF93DF9300D000D0CDB7DEB7CC
S11334208BE389838A838CE090E00E9491298B83CB
S11334308DE090E00E9491298C83CE0101960E9438
S11334407A1981111DC069818CE090E00E949F2946
S1133450E199FECF6A818DE090E00E949F298CB3B0
S1133460182F127081FDFBCFE9E7F4E08981828790
S11334708A8183876AE087E592E00E94A21001C0F6
S113348011E0812F0F900F900F900F90DF91CF914B
S11334901F9108950F931F93CF93DF9300D000D013
S11334A0CDB7DEB785E594E00E94260C87E18983D9
S11334B08BE38A8305E514E0F80182810E94620BA4
S11334C08B83F80181810E94620B8C83CE0101966B
S11334D00E947A1981110CC040E06A8189810E949E
S11334E06D0B6AE087E592E00E94A21080E001C0C3
S11334F081E00F900F900F900F90DF91CF911F916B
S11335000F9108952F923F924F925F926F927F9204
S11335108F929F92AF92BF92CF92DF92EF92FF92DF
S11335200F931F93CF93DF93CDB7DEB729970FB6D1
S1133530F894DEBF0FBECDBF2DB73EB739872887BD
S113354009E714E0D80190968C91EDB7FEB727E017
S1133550829FE019F10911240FB6F894FEBF0FBE43
S1133560EDBF8DB79EB701969F838E834C0181E09A
S113357080930D0480930C0482E00E94BA0A94980C
S1133580D80190968C91811149C000E0B0C0F70138
S1133590118191130F5F80911004882341F0809171
S11335A00D04882321F0509210040E94080A9B996C
S11335B01BC0FFEF21EE34E0F15020403040E1F732
S11335C000C00000832D90E0F401A7E03A9EE00DD6
S11335D0F11D112460826182628263826482CC96CE
S11335E096838583042DCDC1802F90E001970397A6
S11335F0CCF1832D90E0F401B7E03B9EE00DF11D8A
S1133600112460826182628263826482CC96968392
S11336108583022DB6C1739463941FC00F2EF2E309
S11336206F2EF02D7724739490E00F2EF5E5EF2E96
S1133630F4E0FF2EF02D512C0F2EFEE6CF2EF0E0FD
S1133640DF2EF02D442443940F2EF9E7AF2EF4E03F
S1133650BF2EF02D6894222421F833243A94370C99
S113366000E001C0912F80910F04811190C18091DD
S1133670610482FF8CCF91C1F6018081F40127E0BF
S1133680329EE00DF11D11248083D60111968C9198
S11336901197818314968C911497828317968C9139
S11336A01797838318968C911897848312962D917B
S11336B03C9113973683258340920D0440920C0469
S11336C050920F04F50180A1781608F4A4CF00E00D
S11336D00EC040920D0440920C0450920F04D50188
S11336E090968C91781618F4002309F494CF809165
S11336F0610485FF04C080EA0E94C01604C0809162
S11337007E040E94C016B0909904EDB7FEB7EB1981
S1133710F1090FB6F894FEBF0FBEEDBF6DB77EB7CB
S11337206F5F7F4F6B01BB2009F428C14E815F811D
S1133730CB012FEF2B0D30E02F5F3F4F620F731F34
S1133740A12C0F2EFFE39F2EF02DEEE6F0E00F2EBE
S1133750FEE38F2EF02D9C01DC019C92F0803A0157
S1133760DA011C91F11202C0DC018C92F180D301C8
S113377011961C91F11204C0D9011C911D7F1C9358
S1133780F480D30112961C91F11204C0D9011C914A
S11337901B7F1C93F780D30113961C91F11204C074
S11337A0D9011C91177F1C93F084D30114961C91AA
S11337B0F11204C0D9011C911F7E1C93E280F38096
S11337C0D30115966D907C901697E614F70421F4B6
S11337D0D9011C911F7D1C930196D9012C912111B3
S11337E001C0A394495F5F4F6817790709F0B3CF0D
S11337F010920C04AB1035C080917500873011F421
S1133800109275000F2EFEE6EF2EF0E0FF2EF02D45
S1133810F7014681658184810E946D0BD701129660
S11338202D913C91139711964C91119717966C9189
S113383017978C910E94C00BF701608584E090E09B
S11338400E949F29E199FECFE9E7F4E0608171814C
S11338506F5F7F4F7183608382E090E00E94B029A4
S1133860AAC08091610482FDA6C04DB65EB68B2DC0
S113387090E09C01220F331F220F331F820F931FEE
S113388081962DB73EB7281B390B0FB6F8943EBF6F
S11338900FBE2DBF8DB79EB701963C017C011A82E5
S11338A01982FE01339683E0DF011D928A95E9F7C0
S11338B087E1E6E6F2E0D30101900D928A95E1F703
S11338C0BE016F5F7F4F802F0E94BF06BC01C30102
S11338D00E949E26D3010D900020E9F7119788E0FD
S11338E0EDE7F2E001900D928A95E1F78091990459
S11338F0882321F110E06894AA24A5F8B12C0F2E96
S1133900F9E78F2EF4E09F2EF02DF70101900020AF
S1133910E9F73197B182A082F601E10FF11DBE01F2
S11339206F5F7F4F80810E94BF06BC01C7010E9468
S11339309E261F5FF40180A1181738F364E1C301C8
S11339400E94A21060917704709178046F5F7F4F9A
S1133950709378046093770480E090E00E94B0292B
S11339600FB6F8945EBE0FBE4DBE25C081E08093B5
S11339700D0480930C0410920F04B9CE10920C0421
S11339803BCF8091610482FFF1CF912FA2CE809131
S1133990610482FF71CE052D9CCE40920D044092AD
S11339A00C0450920F04D50190968C91781608F46B
S11339B032CE00E09CCE10927304E2E6F4E0118271
S11339C01082809161048F7D80936104949A802F8A
S11339D0E885F9850FB6F894FEBF0FBEEDBF2996B2
S11339E00FB6F894DEBF0FBECDBFDF91CF911F910C
S11339F00F91FF90EF90DF90CF90BF90AF909F908A
S1133A008F907F906F905F904F903F902F9008958C
S1133A10E199FECF82E090E00E949129813261F425
S1133A2083E090E00E949129883031F48091610410
S1133A308064809361040895809161048F7B8093F6
S1133A406104E199FECF6FEA87E090E00E94B62915
S1133A50E199FECF61E088E090E00E94B629E19907
S1133A60FECF61E089E090E00E94B629E199FECFA3
S1133A7060E085E090E00E94B629E199FECF64E120
S1133A808EE090E00E94B629E199FECF60E080E1EB
S1133A9090E00E94B629E199FECF6CE08FE090E0BF
S1133AA00E94B629E199FECF60E081E190E00E9496
S1133AB0B629E199FECF63E08AE090E00E94B6293E
S1133AC0E199FECF60E08BE090E00E94B629E19995
S1133AD0FECF60E084E090E00E94B629E199FECF39
S1133AE065E08CE090E00E94B629E199FECF60E0A9
S1133AF08DE090E00E94B629E199FECF63E086E074
S1133B0090E00E94B629E199FECF60E070E080E089
S1133B1090E00E94B029E199FECF62E082E290E059
S1133B200E94B629E199FECF69E082E190E00E940B
S1133B30B629E199FECF6FE08AE190E00E94B629B0
S1133B40E199FECF69E083E190E00E94B629E19912
S1133B50FECF63E28BE190E00E94B629E199FECFAB
S1133B606CE084E190E00E94B629E199FECF63E223
S1133B708CE190E00E94B629E199FECF6DE085E1E9
S1133B8090E00E94B629E199FECF60E08DE190E0DB
S1133B900E94B629E199FECF61E282E090E00E94A2
S1133BA0B629E199FECF68E083E090E00E94B6294F
S1133BB0E199FECF0895EF92FF920F931F93CF9355
S1133BC0DF932FEF89E698E1215080409040E1F7A0
S1133BD000C000000E94081D87E090E00E94912927
S1133BE080937E04E199FECF88E090E00E949129C1
S1133BF09091610480FB91F990936104E199FECF67
S1133C0089E090E00E9491299091610480FB90F9F1
S1133C1090936104E199FECF85E090E00E949129A0
S1133C2080937504E199FECF8EE090E00E94912983
S1133C3080938504E199FECF80E190E00E94912970
S1133C4080938704E199FECF8FE090E00E94912950
S1133C5080938604E199FECF81E190E00E9491294E
S1133C6080938804E199FECF8AE090E00E94912934
S1133C7080938104E199FECF8BE090E00E9491292A
S1133C8080938204E199FECF84E090E00E94912920
S1133C9080937600E199FECF8DE090E00E94912917
S1133CA080938404E199FECF8CE090E00E949129F6
S1133CB080938304E199FECF86E090E00E949129ED
S1133CC080936604E199FECF80E090E00E949929F8
S1133CD09093780480937704E199FECF82E090E09A
S1133CE00E94992990937A0480937904E199FECFF4
S1133CF082E290E00E94912980939904E199FECF99
S1133D00C2E1D0E009E814E00F2EFAE1EF2EF0E072
S1133D10FF2EF02DCE010E949129F80181938F018D
S1133D20E199FECFCE0108960E949129F80187837C
S1133D30E199FECF2196CE15DF0561F7DF91CF9192
S1133D401F910F91FF90EF900895DF92EF92FF92F1
S1133D500F931F93CF93DF938C017B01D090EC03DF
S1133D60809161048860809361040E94971081E0CF
S1133D70E81AF10890916104947169F01092720448
S1133D8010927104809161048F7E809361040E947B
S1133D9097108FEF4FC08091730483FF0BC0109274
S1133DA073040E9497108D2D90E08E159F05C0F42A
S1133DB0D39416C08091730482FF08C010927304D8
S1133DC00E949710DD2061F0DA940AC08091730498
S1133DD081FF06C0109273040E9497108FEF2AC0CF
S1133DE02D2D30E0E901CC0FDD1FCC0FDD1F2C0F92
S1133DF03D1FE801C20FD31F60E0888199810E94B2
S1133E00E40F8091730484FFB5CF109273040E9471
S1133E1097101092EC03EA81FB81309721F0099509
S1133E208C818093EC030E9497101092720410927C
S1133E3071048D2DDF91CF911F910F91FF90EF9021
S1133E40DF900895AF92BF92CF92DF92EF92FF92EC
S1133E500F931F93CF93DF9300D000D0CDB7DEB77D
S1133E6063E070E08AE990E00E94A51E8F3F09F4A8
S1133E7043C097E199839BE39A83082F10E068017C
S1133E808CE0C80ED11CC6018E5F9F4F5C010E945E
S1133E9091298B8378019EE0E90EF11C87010E5F66
S1133EA01F4FC8010E9491298C83CE0101960E9464
S1133EB07A19811123C06981C5010E949F29E19962
S1133EC0FECF6A81C8010E949F299CB3192F1270EA
S1133ED091FDFBCFF601E758FB4F89818083F70101
S1133EE0E758FB4F8A8180830E9497106AE087E538
S1133EF092E00E94A21003C01FEF01C0182F812F6F
S1133F000F900F900F900F90DF91CF911F910F9111
S1133F10FF90EF90DF90CF90BF90AF900895CF9334
S1133F20DF930E94971088E090E00E9491298170AD
S1133F309091610480FB91F9909361048823A9F026
S1133F40C0E9D0E0A881B98186E0E5E8F2E001901B
S1133F500D928A95E1F7AD81BE8186E0EBE8F2E04F
S1133F6001900D928A95E1F714C0C0E9D0E0A881D0
S1133F70B98186E0E1E9F2E001900D928A95E1F7DA
S1133F80AD81BE8186E0E7E9F2E001900D928A9569
S1133F90E1F762E070E080E990E00E94A51E8F3FA7
S1133FA0F9F0882319F0813039F00BC08091610455
S1133FB082608093610405C0809161048D7F809349
S1133FC06104609161046695617088E090E00E94EC
S1133FD09F296AE087E592E00E94A21080E001C078
S1133FE08FEFDF91CF910895CF93DF930E949710C5
S1133FF089E090E00E94912981709091610480FB96
S113400090F9909361048823A9F0C0E9D0E0A881D5
S1134010B98186E0E5E8F2E001900D928A95E1F736
S1134020AD81BE8186E0EBE8F2E001900D928A95C5
S1134030E1F714C0C0E9D0E0A881B98186E0E1E9E4
S1134040F2E001900D928A95E1F7AD81BE8186E0A0
S1134050E7E9F2E001900D928A95E1F762E070E001
S113406080E990E00E94A51E8F3FF1F0882319F0AB
S1134070813039F00BC080916104816080936104C8
S113408005C0809161048E7F809361046091610416
S1134090617089E090E00E949F296AE087E592E0E0
S11340A00E94A21080E001C08FEFDF91CF910895AC
S11340B01F93CF93DF9300D000D0CDB7DEB787E155
S11340C089838BE38A838AE090E00E9491298B8321
S11340D08BE090E00E9491298C83CE0101960E948E
S11340E07A19811122C08A81811102C081E08A83F8
S11340F069818AE090E00E949F29E199FECF6A815C
S11341008BE090E00E949F298CB3182F127081FDE0
S1134110FBCFE9E7F4E0898180878A8181876AE0BF
S113412087E592E00E94A21001C011E0812F0F9058
S11341300F900F900F90DF91CF911F9108951F93CF
S1134140CF93DF930E94971086E090E00E9491291C
S11341508093660460E08DE992E00E94E40FC2E679
S1134160D4E013E68091730483FF0DC010927304AE
S11341708C818F5F843608F080E08C838C8165E1CC
S11341800E948A143BC08091730482FF0CC0109279
S113419073048C8181500AF4812F8C838C8165E1B6
S11341A00E948A142BC08091730484FF14C010925F
S11341B07304809161048F7E80936104609166042E
S11341C086E090E00E949F296AE087E592E00E94E1
S11341D0A21080E018C08091730481FD04C0809116
S11341E0610484FF0BC010927304809161048F7E7C
S11341F0809361040E94971081E005C08C8165E181
S11342000E94AA14AFCFDF91CF911F9108958F928E
S11342109F92AF92BF92CF92DF92EF92FF921F9341
S1134220CF93DF9300D000D0CDB7DEB76AE070E063
S113423089EA90E00E94A51E182F8F3F09F4B3C0AD
S1134240893009F4B2C00E94971087E189838BE317
S11342508A83E12EF12C670180E1C80ED11CF6019E
S1134260EE5FFF4F5F01CF010E9491298B83F8E13C
S1134270EF0EF11CC7018E5F9F4F4C010E949129E4
S11342808C83183021F40E949F2080E091C0CE01DD
S113429001960E947A1981118BC08091750490E077
S11342A0012E02C0959587950A94E2F780FF17C006
S11342B080E990E0FC01A081B18126E0E5E8F2E02C
S11342C001900D922A95E1F7FC01A581B68186E063
S11342D0EBE8F2E001900D928A95E1F716C080E9CF
S11342E090E0FC01A081B18126E0E1E9F2E00190D7
S11342F00D922A95E1F7FC01A581B68186E0E7E9F4
S1134300F2E001900D928A95E1F762E070E080E9B5
S113431090E00E94A51E813099F020F08F3F09F4AF
S113432046C01CC0E4E7F4E081E090E0012E02C046
S1134330880F991F0A94E2F79181892B81830EC01B
S1134340E4E7F4E081E090E0012E02C0880F991FB9
S11343500A94E2F780959181892381836981C5015B
S11343600E949F29E199FECF6A81C4010E949F297E
S1134370E199FECF6091750485E090E00E949F2949
S1134380E199FECFD601A758BB4F89818C93F701E1
S1134390E758FB4F8A8180836AE087E592E00E94B8
S11343A0A210812F05C08FEF03C089E001C08FEFF9
S11343B00F900F900F900F90DF91CF911F91FF906E
S11343C0EF90DF90CF90BF90AF909F908F90089523
S11343D01F93CF93DF930E94971082E290E00E9494
S11343E091298093990460E08DE992E00E94E40FA2
S11343F0C9E7D4E01AE08091730483FF0CC01092E3
S1134400730488A18F5F8B3008F080E088A365E196
S11344100E948A143AC08091730482FF0BC01092E8
S1134420730488A181500AF4812F88A365E10E9456
S11344308A142BC08091730484FF14C010927304F7
S1134440809161048F7E809361046091990482E27B
S113445090E00E949F296AE087E592E00E94A21002
S113446080E018C08091730481FD04C080916104D0
S113447084FF0BC010927304809161048F7E80933B
S113448061040E94971081E005C065E188A10E9443
S1134490AA14B1CFDF91CF911F9108950F931F9369
S11344A0CF93DF93CDB7DEB761970FB6F894DEBF35
S11344B00FBECDBF65E070E087E790E00E94A51EC7
S11344C08F3F09F478C08230A9F028F4882351F092
S11344D0813061F005C0833089F08F3F09F46DC0ED
S11344E080E06CC00E94821A80E068C00E9458205C
S11344F080E064C00E94E82180E060C01A821982D2
S1134500FE0133968FE0DF011D928A95E9F74AE0B8
S11345108E010F5F1F4FB8018091790490917A0446
S11345200E94A926D8010D900020E9F7119789E08F
S1134530E1EAF2E001900D928A95E1F76EE1C8019B
S11345400E94A2104AE0B801809177049091780407
S11345500E94A926D8010D900020E9F711978BE05D
S1134560EAEAF2E001900D928A95E1F76EE1C80162
S11345700E94A2109A991DC010927A041092790494
S1134580109278041092770460E070E080E090E08C
S11345900E94C329E199FECF60E070E082E090E0E0
S11345A00E94C329E199FECF64E185EB92E00E9469
S11345B0A21080E003C08FEF01C08FEF61960FB6A9
S11345C0F894DEBF0FBECDBFDF91CF911F910F9145
S11345D0089581B3826F81BBA09A87B3886187BB3A
S11345E085B38C6785BBC29A959A83B78D6083BF68
S11345F089B7826889BF8BE98CBF85B58C6085BD1E
S113460089EF83BD78940E94DB1D0E94C9010E943A
S1134610A20685E594E00E94260C809157048093BD
S11346206E0480917E040E94CE0A6AE081EC92E0DE
S11346300E94A2100E94A70664E10E94A2100E9498
S113464097108091610486FD2CC064E183ED92E0B3
S11346500E94A210C0E06C2F8CE70E94E70E2FEF9F
S113466082E597E0215080409040E1F700C00000CF
S1134670CF5FC03281F76C2F80E20E94E70EEFEF2C
S1134680F0E722E0E150F0402040E1F700C00000F4
S1134690C15089F70E9497108091610480648093CF
S11346A0610410920D0410920F0410927304949AF2
S11346B0D12CC2E6D4E00F2EF9E7EF2EF4E0FF2E62
S11346C0F02D03C0D82E01C0D82E0E9480170E945E
S11346D044188091730482FF0AC01092730464E149
S11346E085E594E00E945E121092730430C08091BC
S11346F0730483FF08C01092730484E10E9478134A
S11347001092730424C08091730484FF08C0109233
S1134710730484E10E9416141092730418C08091EB
S1134720730480FF14C0109273048091610482FDAD
S11347300CC06CE070E08BED90E00E94A51E8F3FF2
S113474021F08091610482FFF4CF109273040E94DF
S1134750121005E514E0F801618182810E946E0F58
S1134760F80180818F839F818E81981791F08F81CA
S11347708E838A818B3320F48A818F5F8A8309C078
S11347801A828B818B3320F48B818F5F8B8301C0E2
S11347901B829A81F7018385981708F19B81828592
S11347A09817E8F018E01B821A82109273040E9492
S11347B0560EFFEF21EE84E0F15020408040E1F7F7
S11347C000C00000115079F764E185E594E00E948F
S11347D05E1284E10E94781384E10E941614998188
S11347E0F7018085981748F098818185981728F0FB
S11347F00E94821A8091560467CF80915604D8167D
S113480009F462CF98819B3320F498819F5F988349
S113481059CF188299819F5F998354CF1F920F9229
S11348200FB60F9211242F933F934F935F936F937F
S11348307F938F939F93AF93BF93EF93FF93809155
S1134840E4038F5F8093E403883220F00E94CF1644
S11348501092E40380910C04811119C0E2E6F4E0A3
S1134860878590899C012F5F3F4F308B2787843F3A
S1134870914048F010927204109271048091610486
S11348808061809361040E949C0A0E94D3188091E5
S11348906704882309F43FC08091E2039091E30305
S11348A001969093E3038093E2038091610481FD78
S11348B0C49A80910C04811101C094988091E20300
S11348C09091E303059730F0C49880910C04811112
S11348D001C0949A8091E2039091E303499748F0D0
S11348E08091610481FDC49A80910C04811101C0FE
S11348F094988091E2039091E3034E9760F01092B4
S113490067041092E3031092E203C49880910C04AC
S1134910811101C0949AFF91EF91BF91AF919F9142
S11349208F917F916F915F914F913F912F910F9054
S11349300FBE0F901F9018951F920F920FB60F92F3
S113494011248F939F93EF93FF9380910C048823FA
S113495019F081E080931004E2E6F4E08585968501
S1134960019696878587FF91EF919F918F910F9084
S11349700FBE0F901F9018950E94C3246894B11124
S11349800C94522508950E94372588F09F5798F07B
S1134990B92F9927B751B0F0E1F0660F771F881F40
S11349A0991F1AF0BA95C9F714C0B13091F00E945A
S11349B05125B1E008950C945125672F782F88274D
S11349C0B85F39F0B93FCCF3869577956795B39581
S11349D0D9F73EF490958095709561957F4F8F4FF0
S11349E09F4F0895E89409C097FB3EF490958095F5
S11349F0709561957F4F8F4F9F4F9923A9F0F92FA1
S1134A0096E9BB279395F695879577956795B7951E
S1134A10F111F8CFFAF4BB0F11F460FF1BC06F5F04
S1134A207F4F8F4F9F4F16C0882311F096E911C016
S1134A30772321F09EE8872F762F05C0662371F037
S1134A4096E8862F70E060E02AF09A95660F771F4B
S1134A50881FDAF7880F9695879597F9089557FD7B
S1134A609058440F551F59F05F3F71F04795880FD8
S1134A7097FB991F61F09F3F79F08795089512166F
S1134A8013061406551FF2CF4695F1DF08C016161B
S1134A9017061806991FF1CF8695710561050894CC
S1134AA00895E894BB2766277727CB0197F90895E3
S1134AB00E946B250C94DC250E94CE2538F00E94C0
S1134AC0D52520F0952311F00C94C5250C94CB2505
S1134AD011240C9452250E942F2570F3959FC1F345
S1134AE0950F50E0551F629FF001729FBB27F00D98
S1134AF0B11D639FAA27F00DB11DAA1F649F6627ED
S1134B00B00DA11D661F829F2227B00DA11D621F3B
S1134B10739FB00DA11D621F839FA00D611D221FF5
S1134B20749F3327A00D611D231F849F600D211DD9
S1134B30822F762F6A2F11249F5750409AF0F1F05C
S1134B4088234AF0EE0FFF1FBB1F661F771F881FC5
S1134B5091505040A9F79E3F510580F00C94C52513
S1134B600C9452255F3FE4F3983ED4F386957795F1
S1134B706795B795F795E7959F5FC1F7FE2B880F6B
S1134B80911D9695879597F9089597F99F6780E801
S1134B9070E060E008959FEF80EC089500240A948B
S1134BA01616170618060906089500240A94121604
S1134BB01306140605060895092E0394000C11F437
S1134BC0882352F0BB0F40F4BF2B11F460FF04C0E4
S1134BD06F5F7F4F8F4F9F4F0895DB018F939F939C
S1134BE00E946126BF91AF91A29F800D911DA39F4A
S1134BF0900DB29F900D1124089597FB072E16F483
S1134C00009407D077FD09D00E94742607FC05D0D4
S1134C103EF4909581959F4F0895709561957F4FCF
S1134C200895A1E21A2EAA1BBB1BFD010DC0AA1FE9
S1134C30BB1FEE1FFF1FA217B307E407F50720F001
S1134C40A21BB30BE40BF50B661F771F881F991F7C
S1134C501A9469F760957095809590959B01AC01C5
S1134C60BD01CF010895052E97FB1EF400940E9408
S1134C704A2657FD07D00E94112607FC03D04EF4A4
S1134C800C944A2650954095309521953F4F4F4FAF
S1134C905F4F089590958095709561957F4F8F4FE4
S1134CA09F4F0895A29FB001B39FC001A39F700DB1
S1134CB0811D1124911DB29F700D811D1124911D20
S1134CC008950E945226A59F900DB49F900DA49F15
S1134CD0800D911D11240895B7FF0C9461260E9444
S1134CE06126821B930B0895AA1BBB1B51E107C0CD
S1134CF0AA1FBB1FA617B70710F0A61BB70B881F68
S1134D00991F5A95A9F780959095BC01CD010895F6
S1134D10FB01DC0104C08D910590801921F4415000
S1134D205040C8F7881B990B0895FB01DC0102C0B1
S1134D3005900D9241505040D8F70895FB01DC01D5
S1134D400D900020E9F7119701900D920020E1F7F2
S1134D500895BB274A3031F4992322F4BDE290959B
S1134D6081959F4F0C94B526BB27FB015527AA2795
S1134D70880F991FAA1FA41710F0A41B83955051E4
S1134D80B9F7A05DAA3308F0A95DA193009779F75C
S1134D90B111B1931192CB010C94E728AEE0B0E0CD
S1134DA0E4EDF6E20C94E6290D891E8986E08C83F5
S1134DB01A8309838FEF9FE79E838D83AE01475E3D
S1134DC05F4F6F89788DCE0101960E94F026EF81A6
S1134DD0F885E00FF11F10822E96E4E00C94022A6D
S1134DE0ABE0B0E0E6EFF6E20C94D8296C017B016D
S1134DF08A01FC0117821682838181FFCCC1CE0116
S1134E0001963C01F6019381F70193FD859193FF8F
S1134E1081917F01882309F4BAC1853239F493FD65
S1134E20859193FF81917F01853229F4B60190E049
S1134E300E94F728E7CF912C212C312CFFE1F315A8
S1134E40D8F08B3279F038F4803279F08332A1F4DF
S1134E50232D20611DC08D3261F0803369F4232D30
S1134E60216016C0832D8260382EE32DE4603E2E2F
S1134E702AC0F32DF8601DC037FC2DC020ED280F8B
S1134E802A3040F08E32B9F436FC81C1232D2064DF
S1134E90322E19C036FE06C08AE0989E200D1124D9
S1134EA0922E11C0EAE02E9E200D1124222EF32D05
S1134EB0F0623F2E08C08C3621F4832D8068382E92
S1134EC002C0883641F4F70193FD859193FF8191E7
S1134ED07F018111B3CF982F9F7D9554933028F48F
S1134EE00C5F1F4F9FE399830DC0833631F08337E6
S1134EF071F0833509F059C021C0F801808189839C
S1134F000E5F1F4F88248394912C530113C02801F2
S1134F10F2E04F0E511CF801A080B18036FE03C0B0
S1134F20692D70E002C06FEF7FEFC5010E94DC289D
S1134F304C018201F32DFF773F2E16C0280122E099
S1134F40420E511CF801A080B18036FE03C0692DC9
S1134F5070E002C06FEF7FEFC5010E94D1284C01C1
S1134F60F32DF0683F2E820133FC1BC0822D90E0AC
S1134F7088169906B0F4B60180E290E00E94F72802
S1134F802A94F4CFF50137FC859137FE81915F01B6
S1134F90B60190E00E94F72821102A9421E0821A99
S1134FA091088114910471F7E8C0843611F08936B0
S1134FB041F5F80137FE07C06081718182819381D8
S1134FC00C5F1F4F08C060817181072E000C880B95
S1134FD0990B0E5F1F4FF32DFF763F2E97FF09C0ED
S1134FE090958095709561957F4F8F4F9F4FF06896
S1134FF03F2E2AE030E0A3010E943329882E861830
S113500045C0853731F4232D2F7EB22E2AE030E0BF
S113501025C0932D997FB92E8F36C1F018F48835A9
S113502079F0B5C0803719F0883721F0B0C0E92F86
S1135030E061BE2EB4FE0DC0FB2DF460BF2E09C08E
S113504034FE0AC0292F2660B22E06C028E030E0C4
S113505005C020E130E002C020E132E0F801B7FEF3
S113506007C060817181828193810C5F1F4F06C0EC
S11350706081718180E090E00E5F1F4FA3010E9468
S11350803329882E8618FB2DFF773F2E36FE0DC060
S1135090232D2E7FA22E891458F434FE0BC032FC2B
S11350A009C0832D8E7EA82E05C0B82CA32C03C066
S11350B0B82C01C0B92CA4FE0FC0FE01E80DF11DEF
S11350C08081803321F49A2D997EA92E09C0A2FEF5
S11350D006C0B394B39404C08A2D867809F0B394BF
S11350E0A3FC11C0A0FE06C0B21488F4280C922CB4
S11350F09B180EC0B21460F4B60180E290E00E94E6
S1135100F728B394F7CFB21418F42B1802C0982CD4
S1135110212CA4FE10C0B60180E390E00E94F72881
S1135120A2FE17C0A1FC03C088E790E002C088E596
S113513090E0B6010CC08A2D867859F0A1FE02C019
S11351408BE201C080E2A7FC8DE2B60190E00E94F0
S1135150F728891438F4B60180E390E00E94F72818
S11351609A94F7CF8A94F301E80DF11D8081B6017A
S113517090E00E94F7288110F5CF222009F442CE56
S1135180B60180E290E00E94F7282A94F6CFF60157
S11351908681978102C08FEF9FEF2B96E2E10C94FA
S11351A0F429FC010590615070400110D8F78095F6
S11351B090958E0F9F1F0895FC01615070400190DF
S11351C00110D8F7809590958E0F9F1F0895DC01EC
S11351D0FC01672F71917723E1F7329704C07C912A
S11351E06D9370836291AE17BF07C8F308950F9350
S11351F01F93CF93DF93FB01238121FD03C08FEF26
S11352009FEF2CC022FF16C046815781248135812F
S11352104217530744F4A081B1819D012F5F3F4F92
S1135220318320838C93268137812F5F3F4F3783CF
S1135230268314C08B01EC01FB010084F185E02D71
S11352400995892BE1F6D80116968D919C911797B3
S1135250019617969C938E931697CE01DF91CF916A
S11352601F910F910895FA01AA27283051F1203196
S113527081F1E8946F936E7F6E5F7F4F8F4F9F4FE6
S1135280AF4FB1E03ED0B4E03CD0670F781F891F28
S11352909A1FA11D680F791F8A1F911DA11D6A0FF6
S11352A0711D811D911DA11D20D009F468943F91A9
S11352B02AE0269F11243019305D3193DEF6CF01A8
S11352C00895462F4770405D4193B3E00FD0C9F76E
S11352D0F6CF462F4F70405D4A3318F0495D31FDDB
S11352E04052419302D0A9F7EACFB4E0A69597952E
S11352F0879577956795BA95C9F700976105710504
S113530008959B01AC010A2E06945795479537954D
S11353102795BA95C9F7620F731F841F951FA01DA7
S11353200895E199FECF9FBB8EBBE09A99278DB378
S11353300895A8E1B0E042E050E00C94CA29262F79
S1135340E199FECF9FBB8EBBE09A01970DB2021686
S113535031F02DBB0FB6F894E29AE19A0FBE08958E
S11353600196272F0E94A0290C949F29262FE199AA
S1135370FECF9FBB8EBB2DBB0FB6F894E29AE19A89
S11353800FBE019608950E94B629272F0C94B729C1
S1135390DC01CB01FC01E199FECF06C0FFBBEEBBF3
S11353A0E09A31960DB20D9241505040B8F70895ED
S11353B02F923F924F925F926F927F928F929F9221
S11353C0AF92BF92CF92DF92EF92FF920F931F930F
S11353D0CF93DF93CDB7DEB7CA1BDB0B0FB6F894C0
S11353E0DEBF0FBECDBF09942A88398848885F8400
S11353F06E847D848C849B84AA84B984C884DF8071
S1135400EE80FD800C811B81AA81B981CE0FD11D54
S11354100FB6F894DEBF0FBECDBFED010895F8942A
S1055420FFCFB8
S113542230303030303030303030303030300101D4
S1135432DE070C050000001F030000002403000027
S1135442012A030000022F0300000335030000FFBA
S11354523A03000000410300000148030000004C2D
S11354620300000135030000FF510300000055034F
S113547200000159030000025D0300000361030000
S11354820004650300000569030000066D030000C3
S113549207710300000835030000FF25034A1A00C0
S11354A27703DA14017C0307210283038F1F038924
S11354B203F41F048F039111059503221F069B0316
S11354C2091A07A0034E2208A6031E1209AC03837D
S11354D2110A35030000FF001F1C1F1E1F1E1F1F81
S11354E21E1F1E1F0000030306010406020500031B
S11354F20530313233343536373839414243444545
S113550246005265626F6F74206E6F772E2E0048CC
S1135512656C6C69676B656974206765737065692E
S1135522636865727421005665722E3A20004D45F7
S11355325A2020004D45535A2000536F6E6E7461F9
S113554267004D6F6E746167004D697474776F63A1
S11355526800446F6E6E65727374616700467265AB
S1135562697461670053616D737461670020202060
S113557220204B573A20002D2D2D2D2D00416B74E8
S113558275656C6C652054656D70657261747572B5
S1135592203A202B00416B7475656C6C6520546550
S11355A26D70657261747572203A202D00416B74BE
S11355B275656C6C652054656D7065726174757285
S11355C23A20256C642E256C6420B04300416B7430
S11355D275656C6C6572204C756674647275636B68
S11355E2203A20002068506100456E746572203EA6
S11355F2204E616D65206F66204461790077442EE8
S11356023A00476573706569636865727421004185
S11356122E3A2025642100476573706569636865C5
S113562272742E2E210053796E632E204572726F8E
S113563272202D2053746174652E3A200020436D2C
S1135642702E3A20004F6E2020A7004F6666202558
S1135652004F6E202025004F666620A7006E2E3A6A
S113566200202D205258204F6B00202D205258200C
S11356724572722E0047656C6F65736368742E2ED3
S113568200537461727420537570657220436C6F99
S11356926B6B0044656661756C7420576572746542
S11356A22077657264656E2067656C6164656E2E31
S11356B22E00536F004D6F004469004D6900446F22
S11356C2004672005361004D657A004D65737A009D
S11356D264642E3A006D6D2E3A0079792E3A002DCB
S11356E2476F21002D54696D65002D6E5258002DAF
S11356F24572722E0045786974004F6E2020202076
S1135702004F6666202020002D4F6E002D4F6666E6
S1135712002D4131002D4132002D4133002D413401
S1135722002D4135002D4136002D4137002D4138E1
S1135732004379636C2E004461746500416C6172AC
S11357426D2E00536F756E6400566962722E0042AC
S11357527269672E0044696D6D2E0044697370008E
S113576253796E633F00496E666F2E00526573650E
S11357727400F202F502F802FB02FE0201030403C2
S10D578207030B03100315031A03B9
S9030000FC
