S013000053757065725F436C6F6B6B2E73726563AF
S11300000C94A2010C94BF010C94BF010C94BF0189
S11300100C94AA220C94BF010C94BF010C94BF0150
S11300200C94BF010C94BF010C941C220C94BF01CE
S11300300C94BF010C94BF010C94BF010C94BF013C
S11300400C94BF010C94BF010C94BF010C94BF012C
S11300500C94BF013D0336032F03280321031A0325
S113006013030C030503FE02F702F002E902E202A5
S1130070DB02D402CD02C602BF02B802B102AA0258
S1130080A3029C0295028E02870280027902720208
S11300906B0264025D0256024F02480241023A02B8
S11300A033022C0225021E02170210020902020268
S11300B0FB01F401ED01E601DF01D801D101CA0120
S11300C0C301BC01B501AE01A701A00199019201D0
S11300D08B0184017D0176016F01680161015A0180
S11300E053014C0145013E01370130012901220130
S11300F01B0114010D010601FF00FC007C01FF251A
S113010005FF810081FFA705FF950895FF3A026668
S113011066FFFFFFB0026060FFFFFF2E020303FFD4
S1130120FFFF6005FFFFFFFFFF2A054402120244A0
S11301302405122A7F2A243C05081C2A08083E05A7
S113014010105438103D0514141414142D05080807
S11301500808082B0508083E080829040081423CC9
S1130160002804003C428100260576899562052317
S1130170052040FF402040050402FF02042101FD48
S1130180000000003F0560808D906039057089890A
S11301908A7C38056E9191916E3705808F90A0C04E
S11301A036051E294989863505F29191918E3405CB
S11301B0182848FF083305428191916E3205438522
S11301C089916131040041FF010030057E8991A1CC
S11301D07E7A0511131519117905003905053E7844
S11301E005110A040A1177051E010E011E76051C6D
S11301F00201021C75051E0101021F740520FE2167
S113020001027305091515150272051F081010085F
S11302107105102828183F70053F242424186F0501
S11302200E1111110E6E053F1020201F6D053F2089
S113023018201F6C040081FF01006B04FF040A11E5
S1130240006A04020121BE0069015F000000006829
S113025005FF0810100F6705304949497E660508F7
S11302607F88804065050E1515150C64050E111167
S113027009FF63051E212121126205FF0911110ED8
S11302806105062929291F5A05838599A1C15905A4
S1130290E0100F10E05805C3241824C35705FF02CB
S11302A00C02FF5605F00C030CF05505FE0101018C
S11302B0FE54058080FF80805305619191918E5298
S11302C005FF888C8A7151057E8185827D5005FFEA
S11302D0888888704F057E8181817E4E05FF40307D
S11302E008FF4D05FF403040FF4C05FF01010101AF
S11302F04B05FF182442814A0506010101FE490508
S11303008181FF81814805FF101010FF47057E8120
S113031089894E4605FF909090804505FF91919103
S1130320814405FF8181423C43057E8181814242B3
S113033005FF9191916E41053F4888483F20030095
S11303400000000011241FBECFE5D8E0DEBFCDBF02
S113035013E0A0E6B0E0EEEEFFE402C005900D92DB
S1130360A03AB107D9F724E0A0EAB3E001C01D9296
S1130370A037B207E1F70E94F7200C94F5270C94FC
S1130380000000C000C000C000C000C000C00000E9
S11303900895A198A098A998A8980895A19AF1DF22
S11303A01DD00895A09AEDDFA198EBDFA098E9DFB6
S11303B0A19AE7DF13D00895082EA19AE2DF802DD9
S11303C00DD0882311F002D0F8CF0895A09AA19AF5
S11303D0D8DFA098D6DFA198D4DF08950894881FA9
S11303E001C0880F59F0A09A18F40000A19802C027
S11303F0A19A00C0C6DFA098C4DFF3CFA09AA19849
S1130400C0DFA098989BFECF8827999981E0B9DF37
S113041099270895882701C081E071E0A09AA198E6
S1130420B0DFA098AEDF989BFECF8894999908948A
S1130430771FA0F7A09A813011F0A19801C0A19A6A
S1130440A0DFA098989BFECF9CDF872F9927089563
S11304500F931F93CF93DF938C01FC01C081613014
S113046019F0611113C029C08EEE0E94DC018C2F9B
S11304700E94EE010E94E6018FEE0E94DC010E94C0
S11304800A02F80180830E94E60117C0DC2FD60F10
S11304908EEE0E94DC018C2F0E94EE010E94E60188
S11304A08FEE0E94DC010E940A02F80181938F0101
S11304B00E94E601CF5FDC13EBCF81E0DF91CF91A7
S11304C01F910F9108950F931F93CF93DF931F9262
S11304D0CDB7DEB78B01898361E0CE0101960E941E
S11304E02802882321F08981F801808381E00F901C
S11304F0DF91CF911F910F9108950F931F93CF9385
S1130500DF9300D0CDB7DEB78B01898362E0CE01E3
S113051001960E942802882351F0898190E0982F47
S113052088272A81822BF8019183808381E00F90B0
S11305300F90DF91CF911F910F9108950F931F9307
S1130540CF93DF9300D0CDB7DEB78B01898362E010
S1130550CE0101960E942802882359F0898190E0F7
S1130560982F88272A81822BF8019183808380E049
S113057001C081E00F900F90DF91CF911F910F91F7
S11305800895CF93DF93EC01BC018AEA0E947D02B7
S1130590BE016E5F7F4F8CEA0E947D02BE016C5FDC
S11305A07F4F8EEA0E947D02BE016A5F7F4F80EB1F
S11305B00E949E02BE01685F7F4F82EB0E949E02F2
S11305C0BE01665F7F4F84EB0E949E02BE01645FA2
S11305D07F4F86EB0E947D02BE01625F7F4F88EBF6
S11305E00E947D02BE01605F7F4F8AEB0E947D0204
S11305F0BE016E5E7F4F8CEB0E947D02BE016C5E7D
S11306007F4F8EEB0E947D0281E0DF91CF910895B0
S1130610EF92FF920F931F93CF93DF93FC01C0815E
S1130620662331F18C01FC2EF60E8EEE0E94CE0173
S1130630811120C08C2F0E94EE01D82FF8018181F6
S11306400E94EE01E82EFFEF22E587E0F150204002
S11306508040E1F700C00000DE0D0E94E601DE0DDF
S113066059F4CF5F0F5F1F4FFC12DFCF81E005C04D
S113067081E003C080E001C080E0DF91CF911F9151
S11306800F91FF90EF900895CF93DF9300D0CDB7F3
S1130690DEB789836A8361E0CE0101960E94080374
S11306A091E0811101C090E0892F0F900F90DF91AC
S11306B0CF910895EF92FF920F931F93CF93DF93FF
S11306C01F92CDB7DEB7F82EE42E69830E9444034F
S11306D081110CC017C0BE016F5F7F4F8F2D0E9428
S11306E063020F5F1F4F811103C00CC000E010E0D4
S11306F089818E2131F00F3F8FEF180761F781E078
S113070001C081E00F90DF91CF911F910F91FF9075
S1130710EF9008950F931F93CF93DF9300D0CDB73D
S1130720DEB78C0140E26EE284EF0E945A03882314
S113073061F0BE016F5F7F4F86EF0E947D02898169
S11307409A81F8019183808381E00F900F90DF916B
S1130750CF911F910F9108954F925F926F927F9264
S11307608F929F92AF92BF92CF92DF92EF92FF92BD
S11307701F93CF93DF9300D000D000D0CDB7DEB766
S113078088A099A0A12CB12C4AA05BA0612C712C4B
S1130790CAA4DBA40D2C000CEE08FF082CA53DA573
S11307A0C901330FAA0BBB0B8B839C83AD83BE8320
S11307B0CE0101960E948A03182F29813A81C9012A
S11307C0A0E0B0E09C01AD012419350946095709A0
S11307D0C501B4010E94FB234B015C01072E7FE09D
S11307E0B594A794979487947A95D1F7702DC701FF
S11307F0B601052E5BE0660F771F881F991F5A9577
S1130800D1F7502D2B813C814D815E81280D391DFE
S11308104A1D5B1D0E942D24820E931EA41EB51E2C
S113082098E0890E911CA11CB11C689413F8B5942E
S1130830A794979487941694D1F7EEA9FFA9808280
S11308409182A282B382812F817026960FB6F8948A
S1130850DEBF0FBECDBFDF91CF911F91FF90EF9010
S1130860DF90CF90BF90AF909F908F907F906F90CC
S11308705F904F900895FF920F931F93CF93DF9350
S113088000D01F92CDB7DEB78C01F62E6295660FAD
S1130890660F607C6C5C40E284EF0E945A038823FC
S11308A079F1BE016F5F7F4F86EF0E946302BE0144
S11308B06E5F7F4F87EF0E946302BE016D5F7F4FC3
S11308C088EF0E94630229818A8190E0A0E0B0E071
S11308D0BA2FA92F982F8827A22B2B81822B28E0AF
S11308E030E02F19310904C0B595A79597958795E0
S11308F02A95D2F7F80180839183A283B38381E0A0
S11309000F900F900F90DF91CF911F910F91FF9057
S113091008952F923F924F925F926F927F928F929F
S11309209F92AF92BF92CF92DF92EF92FF920F937A
S11309301F93CF93DF93CDB7DEB7A8970FB6F89484
S1130940DEBF0FBECDBF1C01062FDC014D905C90B5
S113095011979201550C440B550B2F833887498707
S11309605A8712968D919C9113979C01990F440B71
S1130970550B2B873C874D875E8714968D909C90F2
S11309801597C401990CAA0BBB0B8F87988BA98B65
S1130990BA8BD10116960D90BC91A02DBC8BAB8B5C
S11309A0F10140845184920140E050E02D8B3E8B54
S11309B04F8B588F828593859C0140E050E0298FAE
S11309C03A8F4B8F5C8F628973892B01770F66088E
S11309D07708248935894901330FAA08BB0884851F
S11309E095859C01990F440B550B2D8F3E8F4F8F8E
S11309F058A3868597859C01990F440B550B29A311
S1130A003AA34BA35CA3CE0101960E948A03182F3C
S1130A10C980DA800D2C000CEE08FF08602FCE018F
S1130A2003960E943B048123182F11708B819C81B3
S1130A30AD81BE818DA39EA3AFA3B8A7A7019601E4
S1130A40898D9A8DAB8DBC8D281B390B4A0B5B0BA2
S1130A506D897E898F89988D0E94FB236B017C01AF
S1130A600B2EBFE0F594E794D794C794BA95D1F7C9
S1130A70B02DC301B201052E5BE0660F771F881FFE
S1130A80991F5A95D1F7502DA50194012C0D3D1DA8
S1130A904E1D5F1D0E942D24C20ED31EE41EF51EA2
S1130AA0D701C6010896A11DB11D689413F8B59528
S1130AB0A795979587951694D1F7F101828F938F17
S1130AC0A48FB58FF0EACF1AFFE0DF0AE108F1083E
S1130AD0A7019601C701B6010E94FB232B013C012B
S1130AE0032E3CE075946794579447943A95D1F754
S1130AF0302D2F85388949895A89C701B6010E944A
S1130B00FB234B015C01992334F42FEF820E2FE178
S1130B10921EA11CB11C072E7DE0B594A794979456
S1130B2087947A95D1F7702D2D8D3E8D4F8D58A1D8
S1130B30C301B2010E94FB23BB2797FDB095AB2FE5
S1130B40880D991DAA1DBB1D0296A11DB11DB59549
S1130B50A79597958795B595A795979587959C01A2
S1130B60AD0130584F4F5F4FAB89BC890E945B2465
S1130B704B015C01072E7FE0B694A7949794879469
S1130B807A95D1F7702D29A13AA14BA15CA1C3019B
S1130B90B2010E94FB232B013C01032E3BE0759420
S1130BA06794579447943A95D1F7302D2B853C851B
S1130BB04D855E85C701B6010E94FB23DC01CB0194
S1130BC0072E7BE0B595A795979587957A95D1F7EC
S1130BD0702D480E591E6A1E7B1E8F819885A9852B
S1130BE0BA85880F991FAA1FBB1F880F991FAA1FB8
S1130BF0BB1F480E591E6A1E7B1E002E04C0440CE7
S1130C00551C661C771C0A94D2F732E0430E511C23
S1130C10611C711C759467945794479475946794F8
S1130C20579447942DA13EA14FA158A524193509E5
S1130C304609570980E593ECA0E0B0E0BC01CD0182
S1130C4004C095958795779567950A95D2F70E9484
S1130C50FB2399236CF0660F771F881F991FA5014A
S1130C6094010E940B242B833C834D835E830EC02E
S1130C70A50194010E940B24DA01C901880F991F70
S1130C80AA1FBB1F8B839C83AD83BE838B809C80F8
S1130C90AD80BE809927B7FC9A958B2D7A2D692D4E
S1130CA09B01AC010E94FB239B01AC01AEEDBBE0B8
S1130CB00E945B246B017C01A3E4B3EEA5019401C3
S1130CC00E946924BB2797FDB095AB2F6701FF24D1
S1130CD0D7FCF094EF2CC80ED91EEA1EFB1E4FEC75
S1130CE0C40E4EE0D41EE11CF11C689413F8F59474
S1130CF0E794D794C7941694D1F7C80CD91CEA1C6E
S1130D00FB1CD1015696CD92DD92ED92FC9259973F
S1130D10812FA8960FB6F894DEBF0FBECDBFDF912A
S1130D20CF911F910F91FF90EF90DF90CF90BF90E4
S1130D30AF909F908F907F906F905F904F903F9077
S1130D402F90089583EC93E00E94C1020895E0E699
S1130D50F0E091E390838EE2818392838383948392
S1130D6097E3958323E326839783808780E38187B2
S1130D7084E3828789E384871586CF010895CF931E
S1130D80DF93CDB7DEB761970FB6F894DEBF0FBE21
S1130D90CDBF91E1E7E1F1E0DE01119601900D9202
S1130DA09A95E1F790E3FB01908398E79183982F5C
S1130DB092959F70E1E0F0E0EC0FFD1FE90FF11D4B
S1130DC09081FB0192838F70E1E0F0E0EC0FFD1F56
S1130DD0E80FF11D8081FB0183831482CB016196AE
S1130DE00FB6F894DEBF0FBECDBFDF91CF9108954B
S1130DF08091EA03882369F08091E403833049F405
S1130E008091E903811105C081E08093E903109288
S1130E10EA038091E90308958091EA03882309F4A1
S1130E2046C08091E4038130B1F49091A403E92F8A
S1130E30E695E695E695F0E0EB55FC4F3081292FD9
S1130E40277081E090E002C0880F991F2A95E2F78D
S1130E50832B808325C08091E403811117C0909176
S1130E60A403E92FE695E695E695F0E0EB55FC4FF3
S1130E703081292F277081E090E002C0880F991FEC
S1130E802A95E2F78095832380830AC08091E40346
S1130E90833031F41092A4031092EA0380E00895A1
S1130EA08091A4038F5F8093A4031092EA0380913E
S1130EB0A4038B3330F01092A4031092E90381E071
S1130EC0089580E008950F931F93CF93DF9385E1F6
S1130ED090E0E82FE695E695E695F0E0EB55FC4FBB
S1130EE0208130E0482F477002C0359527954A95F8
S1130EF0E2F720FD9F5F8F5F8D3159F790FD6BC244
S1130F00E82FE695E695E695F0E0EB55FC4F208159
S1130F1030E0482F477002C0359527954A95E2F78F
S1130F2020FD9F5F8F5F843259F75BC2E82FE695FF
S1130F30E695E695F0E0EB55FC4F208130E0482F34
S1130F40477002C0359527954A95E2F720FD9F5FCB
S1130F508F5F8B3359F790FD40C2EEE6F0E01682C6
S1130F60158214821082178211821382128280E009
S1130F7090E041E050E0682F9C012B5E3F4FD90187
S1130F800AF41796B595A795B595A795B595A79520
S1130F90AB55BC4FAC91B0E027703078332334F4B8
S1130FA021503109286F3F6F2F5F3F4F8D0102C0E1
S1130FB0159507952A95E2F700FF0AC075819A01F5
S1130FC0062E02C0220F331F0A94E2F7272B258333
S1130FD09C01235E3F4FD9010AF41796B595A79556
S1130FE0B595A795B595A795AB55BC4FAC91B0E019
S1130FF027703078332334F421503109286F3F6F40
S11310002F5F3F4FED0102C0D595C7952A95E2F7B2
S1131010C0FF0AC074819A01062E02C0220F331F3A
S11310200A94E2F7272B24839C012C5D3F4FD901BE
S11310300AF41796B595A795B595A795B595A7956F
S1131040AB55BC4FAC91B0E027703078332334F407
S113105021503109286F3F6F2F5F3F4F8D0102C030
S1131060159507952A95E2F700FF0AC070819A0149
S1131070062E02C0220F331F0A94E2F7272B208387
S11310809C01265D3F4FD9010AF41796B595A795A3
S1131090B595A795B595A795AB55BC4FAC91B0E068
S11310A027703078332334F421503109286F3F6F8F
S11310B02F5F3F4FED0102C0D595C7952A95E2F702
S11310C0C0FF0CC0833050F477819A01062E02C011
S11310D0220F331F0A94E2F7272B27839C01235DF9
S11310E03F4FD9010AF41796B595A795B595A795DD
S11310F0B595A795AB55BC4FAC91B0E0277030784F
S1131100332334F421503109286F3F6F2F5F3F4F51
S11311108D0102C0159507952A95E2F700FF0AC0D4
S113112071819A01062E02C0220F331F0A94E2F73E
S1131130272B21839C012E5C3F4FD9010AF417967B
S1131140B595A795B595A795B595A795AB55BC4FFE
S1131150AC91B0E027703078332334F42150310956
S1131160286F3F6F2F5F3F4FED0102C0D595C795A4
S11311702A95E2F7C0FF0CC0228133818A0102C0A4
S1131180000F111F6A95E2F7202B312B3383228342
S113119001968430910509F0EECE48E250E020E05B
S11311A030E0C4E0EEE6F0E06AE070E0C9014996A0
S11311B0DC010AF41796B595A795B595A795B5954D
S11311C0A795AB55BC4FAC91B0E08770907899234C
S11311D024F40197886F9F6F01968D0102C01595C5
S11311E007958A95E2F700FF0CC0C73050F4A5813B
S11311F0CB01022E02C0880F991F0A94E2F78A0FCE
S11312008583C9018196DC010AF41796B595A795E3
S1131210B595A795B595A795AB55BC4FAC91B0E0E6
S113122087709078992324F40197886F9F6F0196B3
S11312308D0102C0159507958A95E2F700FF2DC030
S1131240C63008F0D1C0A481CB01022E02C0880FA1
S1131250991F0A94E2F78A0F8483CA01DA0155239D
S11312600CF41796B595A795B595A795B595A7953B
S1131270AB55BC4FAC91B0E087709078992324F4BF
S11312800197886F9F6F01968D0102C01595079590
S11312908A95E2F700FD22C02BC0CA01DA0155236A
S11312A00CF41796B595A795B595A795B595A795FB
S11312B0AB55BC4FAC91B0E087709078992324F47F
S11312C00197886F9F6F01968D0102C01595079550
S11312D08A95E2F700FF0CC0C63050F4A081CB0120
S11312E0022E02C0880F991F0A94E2F78A0F8083A6
S11312F0C901C196DC010AF41796B595A795B59571
S1131300A795B595A795AB55BC4FAC91B0E0877048
S11313109078992324F40197886F9F6F01968D012B
S113132002C0159507958A95E2F700FF0CC0C430FA
S113133051F4A181CB01022E02C0880F991F0A9497
S1131340E2F78A0F8183C901C696DC010AF4179675
S1131350B595A795B595A795B595A795AB55BC4FEC
S1131360AC91B0E087709078992324F40197886F4A
S11313709F6F01968D0102C0159507958A95E2F736
S113138000FF0DC082819381DB01022E02C0AA0FEF
S1131390BB1F0A94E2F78A0F9B1F93838283CF5F5C
S11313A02F5F3F4F4F5F5F4FC83009F0FFCEEEE62F
S11313B0F0E0828193818053984F9383828380915C
S11313C0A70381FF04C081E0809376001CC01092C3
S11313D0760081E018C080E016C080E014C080E090
S11313E012C090FFA3CDFBCFCA0155230CF407967E
S11313F0959587959595879595958795DC01AB553A
S1131400BC4F8C9175CFDF91CF911F910F910895AF
S1131410B29920C08091A2039091A3038D3D954081
S113142058F081E08093EA0383E08093E403109210
S1131430A3031092A20304C01092A3031092A20368
S11314408091A0039091A10301969093A1038093AE
S1131450A0032BC08091A0039091A103853B91052B
S113146050F081E08093EA038093E4031092A10397
S11314701092A00311C08135910550F081E0809352
S1131480EA031092E4031092A1031092A00304C093
S11314901092A1031092A0038091A2039091A30340
S11314A001969093A3038093A2030E94F8068823D5
S11314B0A1F00E940C07882381F00E94630788230F
S11314C041F081E08093E5031092E2031092E3037C
S11314D008951092E5031092E30308950097B1F480
S11314E0089500000000000000000000000000005B
S11314F0000000000000000000002150310989F7BD
S11315004F5F5F4F8417950719F4089540E050E04A
S113151028EE33E0E6CFDD980895DD9A089566233A
S113152051F0DB98982F962311F0DA9A01C0DA98DB
S1131530DB9A6695B1F70895CF93DF930E948B0AE7
S113154064E085E00E948F0A60E480E00E948F0AD4
S1131550C0E0D0E0FE01E551FC4F808168E00E94CC
S11315608F0A2196C034D105A9F70E948D0ADF9114
S1131570CF910895CF93C82F0E948B0A64E084E032
S11315800E948F0A60E88C2F0E948F0A61E081E03C
S11315900E948F0A0E948D0ACF910895EF92FF92C4
S11315A00F931F93CF93DF9300D000D000D0CDB71B
S11315B0DEB7D59ADD9AD39AD29A91E0998393E0D3
S11315C09A8398E09B8398E19C8390E29D838E8329
S11315D08E010F5F1F4F7E0187E0E80EF11CF801BA
S11315E081918F010E94BA0A0E151F05C1F7269634
S11315F00FB6F894DEBF0FBECDBFDF91CF911F9120
S11316000F91FF90EF900895803240F5683040F5D7
S1131610982F96959695969570E0660F771F20E122
S1131620929F600D711D112482FB222720F930E066
S1131630620F731FFB01E551FC4F4081837028E06A
S113164030E0B90102C0759567958A95E2F7CB0140
S1131650942F982381E029F480E0089580E0089590
S113166080E00895803268F5683058F5982F9370BB
S1131670E8E0F0E002C0F595E7959A95E2F7982F37
S113168096959695969570E0660F771F20E1929F48
S1131690600D711D112482FB222720F930E0620FB6
S11316A0731F442339F0DB01A551BC4F8C91E82B07
S11316B0EC930895DB01A551BC4F8C91E095E82390
S11316C0EC930895982F92959F70990F292F220FCC
S11316D0220F920F8F70890F08950F931F93CF934A
S11316E0DF93EDEAF3E092E090839DEC499F212D96
S11316F0112426952695269530E1239FD0011124A7
S1131700220F322F330F330F230F421B4A2B4183F7
S1131710699F212D112426952695269530E1239F36
S1131720A0011124220F322F330F330F230F621B1A
S1131730642B6283899F912D112496959695969595
S113174040E1949F90011124990F392F330F330FE7
S1131750930F891B822B838382EA0E94DC01CDEAEA
S1131760D3E008EB13E089910E94EE01C017D10782
S1131770D1F70E94E601DF91CF911F910F91089557
S11317800F931F93CF93DF93EDEAF3E095E09083FB
S11317909DEC899F312D112436953695369550E16F
S11317A0359FD0011124330F532F550F550F350F8B
S11317B0831B8A2B8183699F812D112486958695AD
S11317C0869530E1839FD0011124880F382F330F81
S11317D0330F830F681B6A2B6283499F812D112469
S11317E086958695869550E1859FB0011124880FD2
S11317F0382F330F330F830F481B462B4383205D51
S1131800299F912D112496959695969580E1989F00
S1131810A0011124990F892F880F880F980F291B75
S1131820242B248382EA0E94DC01CDEAD3E008EB76
S113183013E089910E94EE01C017D107D1F70E94ED
S1131840E601DF91CF911F910F910895EF92FF92DE
S11318500F931F93CF93DF938C01CDEAD3E082E003
S1131860888382EA0E94CE0188810E94EE0183EA85
S11318700E94D201882319F00E94E60114C0CDEA27
S1131880D3E00F2EF8EBEF2EF3E0FF2EF02D0E94A5
S11318900C028993CE15DF05D1F70E940A028093CA
S11318A0B8030E94E601EDEAF3E0A081E801A88311
S11318B07181798362816A8353815C8334813D833E
S11318C045814B83868190E09F838E83278128877F
S11318D09085998781858A87E285AF77A8837F770A
S11318E079836F736A835F735C834F714B83377043
S11318F03D832F7728879F7799878F778A878E2FC5
S11319008F778B87DF91CF911F910F91FF90EF908D
S113191008950F931F93CF93DF9310E000E016C058
S1131920D1E0DC0F612F8D2F0E94040B482F612F13
S11319308C2F0E94320BCD2FDF3191F7402F612F76
S11319408FE10E94320B1F5F183011F0C02FE8CFD7
S1131950DF91CF911F910F9108950F931F93CF9310
S1131960DF9310E00FC06D2F8C2F0E94040B482FC3
S1131970612F8C2F0E94320BCF5FC032A1F7D7307A
S113198029F01D2FC0E0D1E0D10FEDCFC0E040E041
S113199067E08C2F0E94320BCF5FC032C1F7DF911A
S11319A0CF911F910F910895AF92BF92CF92DF9282
S11319B0EF92FF920F931F93CF93DF9300D01F9268
S11319C0CDB7DEB78B835B0104E510E00F2EFCEF8F
S11319D0CF2EF0E0DF2EF02D42E050E0B801CE0132
S11319E001960E947B24E980FA8041E050E0B7012F
S11319F0CE0103960E946E24892B39F447E050E00F
S1131A00B701C5010E947B2409C00E5F1F4F0C154E
S1131A101D0511F7B5018FE30E94D40C0F900F90B0
S1131A200F90DF91CF911F910F91FF90EF90DF9076
S1131A30CF90BF90AF900895CF93DF93CDB7DEB72B
S1131A4027970FB6F894DEBF0FBECDBF1A82198256
S1131A50FE01339695E0DF011D929A95E9F7BE01E8
S1131A606F5F7F4F0E94D40C8A8127960FB6F8943B
S1131A70DEBF0FBECDBFDF91CF9108953F924F924D
S1131A805F926F927F928F929F92AF92BF92CF920A
S1131A90DF92EF92FF920F931F93CF93DF93CDB713
S1131AA0DEB729970FB6F894DEBF0FBECDBF462E22
S1131AB0BE016F5F7F4F0E94D40C3A800F2EF7E077
S1131AC0AF2EB12CF02D512C88248394912CCE016F
S1131AD0019699878887632C640CE42CF12CE81A0E
S1131AE0F90A23C0C701800F911F809794F4F8016D
S1131AF0828190E08C219D21892B31F041E0652D7C
S1131B00872D0E94320B05C040E0652D872D0E9471
S1131B10320B73940F5F1F4F7610E4CF5394F1E0B0
S1131B20AF1AB10888E0581671F03320B9F3640194
S1131B300A2C02C0CC0CDD1C0A94E2F78E010F5F64
S1131B401F4F742CCFCF10E0430C40E0612F842D45
S1131B500E94320B1F5F1830C1F729960FB6F89414
S1131B60DEBF0FBECDBFDF91CF911F910F91FF90CC
S1131B70EF90DF90CF90BF90AF909F908F907F9029
S1131B806F905F904F903F9008950F931F93CF9362
S1131B90DF93C62F0E94620B082F8C2F0E94620BCA
S1131BA0182FCDEC0C9FD12D1124D695D695D69512
S1131BB061E080E38D0F0E943E0DDD0F8D2F880FB5
S1131BC0880FD80F802F8D1B67E0805D0E943E0D2B
S1131BD01C9FC12D1124C695C695C69563E180E36B
S1131BE08C0F0E943E0DCC0F8C2F880F880FC80FCE
S1131BF0812F8C1B69E1805D0E943E0DDF91CF91A6
S1131C001F910F9108950F931F93CF93DF93082F84
S1131C10162FCDEC8C9FD12D1124D695D695D69523
S1131C2061E080E38D0F0E943E0DDD0F8D2F880F44
S1131C30880FD80F802F8D1B67E0805D0E943E0DBA
S1131C401C9FC12D1124C695C695C69563E180E3FA
S1131C508C0F0E943E0DCC0F8C2F880F880FC80F5D
S1131C60812F8C1B69E1805D0E943E0DDF91CF9135
S1131C701F910F910895EF92FF920F931F93CF93AB
S1131C80DF937C01D62FFC0181918F010E943E0DD0
S1131C90F70180810E941C0DC1E0C80FF70181810A
S1131CA0882381F06D2F6C0F0E943E0DF801819105
S1131CB08F010E941C0D8C0FC1E0C80FF8018081B8
S1131CC08111F0CFDF91CF911F910F91FF90EF9091
S1131CD008956FE08AE30E943E0D08952091450423
S1131CE0309146042039314018F40E94030E0895BF
S1131CF0809145049091460481399140F0F080919F
S1131D0045049091460480329340B8F4442319F07A
S1131D10413051F0089561E080E60E943E0D67E095
S1131D2080E60E943E0D089563E180E60E943E0D28
S1131D3069E180E60E943E0D0895809145049091EA
S1131D4046048132934020F01092460410924504D8
S1131D5008950F931F93CF93DF938C0180914504D3
S1131D60909146048039914020F4C8010E943B0EB2
S1131D7030C0809145049091460481399140F0F03F
S1131D8080914504909146048032934040F016C0FF
S1131D906C2F80E60E943E0DDF5FCA5F02C0C62F33
S1131DA0D0E0F80101900020E9F73197E01BF10B36
S1131DB08D2F90E08E179F0758F30BC08091450438
S1131DC0909146048132934020F010924604109280
S1131DD04504DF91CF911F910F91089580E090E029
S1131DE0FC01E551FC4F1082019680349105C1F746
S1131DF008954F925F926F927F928F929F92AF92CB
S1131E00BF92CF92DF92EF92FF920F931F93CF93E3
S1131E10DF93EC01562E0E94EE0E511004C00F2EDB
S1131E20FAE55F2EF02D8881882309F4ABC06E019A
S1131E308FEFC81AD80A7E016894772475F880E079
S1131E40C0E0D0E0612C0F2EF8E38F2EF4E09F2E3B
S1131E50F02D44244394052D10E0F4011282909156
S1131E60490491FF03C010924904642C882309F4A7
S1131E7073C0C0320CF46BC0C8010E946E0A0E9489
S1131E80890C1C1614F4D150C1506D2F872D0E945B
S1131E903E0DC0328CF75BC06D2F872D0E943E0D26
S1131EA0872D0E941C0D8F5FC82FCD0FF5018081F7
S1131EB0811106C0C0326CF1F1E06F120CC051C048
S1131EC08FEFC81AD80A9FEFE91AF90A842DE1E0C6
S1131ED06E12C3CF54C0FF24F394052D10E08091FB
S1131EE0490481FF03C0109249046F2CC8010E9469
S1131EF06E0A0E94890C1C1614F4D150C1506D2F27
S1131F00872D0E943E0DC03224F0F1E06F12E7CF1E
S1131F1028C0052D10E0C8010E946E0A81E06812F5
S1131F2027C007C00E94890CC8010E946E0AC150D4
S1131F30C9F71092480410924704809137048F7EA9
S1131F408093370481E0611024C080E022C0F7014F
S1131F5070805601DC2FA0CFF70170805601DFE1BD
S1131F609BCF852D90E00E946E0A66246394E1CF96
S1131F700E94890CC8010E946E0ACFE1D3CFC032FF
S1131F8044F2EFCF052D10E0C8010E946E0A612CC7
S1131F90EFCFDF91CF911F910F91FF90EF90DF90E2
S1131FA0CF90BF90AF909F908F907F906F905F90F5
S1131FB04F90089564E188E291E00E94F90E98E060
S1131FC088E10FB6F894A89581BD0FBE91BDFFCFEF
S1131FD00F931F93CF93DF930E94EE0E87E090E060
S1131FE00E947727082FD0E6D80F8CB3182F1270D1
S1131FF081FDFBCFCD2F8091490483FF08C010924F
S113200049040E94EE0ECF5FC03108F0C0E0809119
S1132010490482FF07C0109249040E94EE0EC15089
S11320200AF4CFE08091490484FF21C0109249044E
S11320300E94EE0EC0568C2F0E94BA0AC09354041C
S11320406C2F87E090E00E9485276AE085E391E0A9
S11320500E94F90EE8E3F4E01282108211821092D9
S11320604904809137048F7E8093370438C080916F
S1132070490481FD04C08091370484FF0EC010928E
S11320804904809137048F7E809337040E94EE0EBA
S1132090802F0E94BA0A11E022C0CA3030F461E0F5
S11320A080E38C0F0E943E0D09C061E081E30E9431
S11320B03E0D67E086E28C0F0E943E0D80EA8C0F95
S11320C00E94BA0ACD1306C06BE187EA0E943E0D56
S11320D0CD2F91CF6BE185E20E943E0D8CCF812FF5
S11320E0DF91CF911F910F910895CF93DF93CDB7D7
S11320F0DEB764970FB6F894DEBF0FBECDBF1A8269
S11321001982FE01339682E1DF011D928A95E9F777
S11321108091490484FD1BC087E0EDE4F1E0DE0119
S1132120119601900D928A95E1F70E94A706BC01D1
S1132130CE0101960E94842464E1CE0101960E949E
S1132140F90E9091490494FD02C0813029F70E9450
S1132150EE0E1092490480E064960FB6F894DEBF48
S11321600FBECDBFDF91CF910895CF93DF93CDB74D
S1132170DEB7EC970FB6F894DEBF0FBECDBFAC014F
S1132180FE0133968AE3DF011D928A95E9F7FA018D
S11321909481892F82958F70805D89839F70905D73
S11321A09A838EE28B839381292F22952F70205D51
S11321B02C839F70905D9D838E8392E39F8390E335
S11321C0988726813781F901F295E295EF70EF2720
S11321D0FF70EF27E05DE9872F70205D2A878B87EA
S11321E080917600882319F0813079F01BC0DE01DC
S11321F01C960D900020E9F7119786E0E4E5F1E0E4
S113220001900D928A95E1F70DC0DE011C960D90A8
S11322100020E9F7119786E0EAE5F1E001900D92DC
S11322208A95E1F7DA0115968C91833049F128F407
S1132230882351F08130B1F05AC08530E9F170F152
S1132240863009F447C053C0DE0151960D9000203A
S1132250E9F7119788E0E0E6F1E001900D928A95A4
S1132260E1F745C0DE0151960D900020E9F7119782
S113227087E0E8E6F1E001900D928A95E1F737C036
S1132280DE0151960D900020E9F7119789E0EFE601
S1132290F1E001900D928A95E1F729C0DE01519693
S11322A00D900020E9F711978BE0E8E7F1E0019049
S11322B00D928A95E1F71BC0DE0151960D90002026
S11322C0E9F7119788E0E3E8F1E001900D928A952F
S11322D0E1F70DC0DE0151960D900020E9F711974A
S11322E088E0EBE8F1E001900D928A95E1F7CE01E8
S11322F001960E94F90E0E94EE0EEC960FB6F89429
S1132300DEBF0FBECDBFDF91CF910895FF920F9333
S11323101F93CF93DF93CDB7DEB7A3970FB6F8948F
S1132320DEBF0FBECDBFF82E1A821982FE0133968E
S113233081E2DF011D928A95E9F7F8948DED93E02F
S11323409F938F938DB79EB74E970FB6F8949EBF09
S11323500FBE8DBFADB7BEB711968EE1E3ECF3E0CF
S113236001900D928A95E1F70E94AC037894409114
S1132370DD035091DE036091DF037091E0030FB63B
S1132380F894DEBF0FBECDBF141615061606170649
S11323904CF488E1E3E9F1E0DE01119601900D923D
S11323A08A95E1F77723C4F488E1EBEAF1E0DE01F2
S11323B0119601900D928A95E1F77095609550956C
S11323C041955F4F6F4F7F4F4093DD035093DE0382
S11323D06093DF037093E0036091DD037091DE038B
S11323E08091DF039091E0032AE030E040E050E088
S11323F00E942D249F938F937F936F935F934F93AA
S11324003F932F9383EC91E09F938F938E010F5F03
S11324101F4F1F930F930E94B4246F2DC8010E9475
S1132420F90E0E94EE0E0FB6F894DEBF0FBECDBFBC
S1132430A3960FB6F894DEBF0FBECDBFDF91CF9148
S11324401F910F91FF900895BF92CF92DF92EF9268
S1132450FF920F931F93CF93DF93CDB7DEB7A3976C
S11324600FB6F894DEBF0FBECDBFB82E1A82198204
S1132470FE01339681E2DF011D928A95E9F7F89413
S113248063E083EC93E00E948904789403EC13E006
S1132490F80166897789808D918D0E9402232AE054
S11324A037ED43E25CE30E9466230E94CA226B017B
S11324B07C01D80156966D937D938D939C93599787
S11324C087E1E3EEF1E08E010F5F1F4FD801019029
S11324D00D928A95E1F7F80101900020E9F7BF0118
S11324E0615071094AE0C6010E948F24D8010D9001
S11324F00020E9F7119785E0EAEFF1E001900D92F1
S11325008A95E1F76B2DC8010E94F90E0E94EE0E28
S1132510A3960FB6F894DEBF0FBECDBFDF91CF9167
S11325201F910F91FF90EF90DF90CF90BF9008958F
S11325301F93CF93DF93D82F162FCDEC8C9FC12DF3
S11325401124C695C695C69580E38C0F0E943E0D56
S113255066E0610FCC0F8C2F880F880FC80F8D2F6A
S11325608C1B805D0E943E0DDF91CF911F910895D9
S1132570CF93C62F20914504309146042039314031
S113258018F40E94981222C0809145049091460448
S11325908139914080F080914504909146048032C5
S11325A0934048F480E60E943E0D66E06C0F80E69E
S11325B00E943E0D0BC080914504909146048132E7
S11325C0934020F01092460410924504CF91089550
S11325D08F929F92AF92BF92CF92DF92EF92FF922F
S11325E00F931F93CF93DF9300D000D000D0CDB7CB
S11325F0DEB7EEE6F0E0808189838FE18A83818112
S11326008B838CE08C8382819381805D8D8383E6D0
S11326108E83109249040F2EFAE9CF2EF3E0DF2EB9
S1132620F02D8E010F5F1F4F5E0187E0A80EB11CD5
S1132630912C8824839460E0D6018D919D916D0145
S11326400E943B0E91103FC078018091490483FFA2
S11326500FC010924904F80180818F5F918198170F
S113266008F480E0D7018C9365E10E94981254C16C
S11326708091490482FF0EC010924904F8019181AF
S1132680808181500AF4892FD7018C9365E10E94DF
S1132690981242C18091490484FF03C010924904F6
S11326A012C08091490481FD04C08091370484FFE5
S11326B033C110924904809137048F7E809337048C
S11326C00E94EE0E982C0E94EE0E0E5F1F4FA01675
S11326D0B10609F0B0CFE0917600F0E0EE0FFF1FF5
S11326E0EA56FC4F60E0808191810E943B0E91107C
S11326F02DC10EE610E0FF24F3948091490483FF7A
S113270019C0109249040E94EE0EF801808591E0F0
S1132710980F90878111F086D8011896EC91F0E01B
S1132720EE0FFF1FEA56FC4F60E0808191810E940A
S11327303B0E1DC08091490482FF19C010924904C8
S11327400E94EE0EF80180859FEF980F908781110B
S113275001C01086D8011896EC91F0E0EE0FFF1F2F
S1132760EA56FC4F60E0808191810E943B0E80918B
S1132770490481FD04C08091370484FF0AC010928B
S11327804904809137048F7E809337040E94EE0EB3
S1132790DDC08091490484FF21C01092490464E1A2
S11327A08FEF91E00E94F90E0E94EE0E60E083E14B
S11327B092E00E943B0EE0917500F0E0EE0FFF1FE7
S11327C0E857FC4F65E1808191810E943B0E0EE643
S11327D010E00F2EF6E0FF2EF02D0EC0D801189653
S11327E0EC91F0E0EE0FFF1FEA56FC4F60E08081B1
S11327F091810E94A90E81CF8091490483FF1FC05B
S1132800109249040E94EE0EF80187818F5F873091
S113281008F080E0D80117968C9360E083E192E0A1
S11328200E943B0ED8011796EC91F0E0EE0FFF1FCB
S1132830E857FC4F65E1808191810E943B0E8091B5
S1132840490482FF1EC0109249040E94EE0EF80152
S1132850878181500AF48F2DD80117968C9360E0FC
S113286083E192E00E943B0ED8011796EC91F0E0D0
S1132870EE0FFF1FE857FC4F65E1808191810E94B4
S11328803B0E8091490484FF1FC0109249041092AA
S11328903A040E94EE0E0EE610E0F80167812D81E5
S11328A030E02053384F4B8189810E94C00BD801FE
S11328B018966C9184E090E00E9485276AE088E194
S11328C092E00E94F90E54C08091490481FD04C035
S11328D08091370484FF0AC0109249048091370420
S11328E08F7E809337040E94EE0E1CC0D801179689
S11328F0EC91F0E0EE0FFF1FE857FC4F65E180819B
S113290091810E94A90E8091490481FF75CF109294
S113291049040E94EE0E06C065E1F80180810E9420
S1132920B81293CE0EE610E0D80117966C912D8163
S113293030E02053384F4B8189810E94C00BF8014D
S1132940608584E090E00E94852712C060E083E106
S113295092E00E943B0EE0917500F0E0EE0FFF1F45
S1132960E857FC4F65E1808191810E943B0EDACFEC
S11329701092490480E026960FB6F894DEBF0FBE8D
S1132980CDBFDF91CF911F910F91FF90EF90DF901A
S1132990CF90BF90AF909F908F900895CF93C82F02
S11329A0F89483E00E94BA0A88E00E94BA0A8C2F45
S11329B00E94BA0A7894CF9108957F928F929F9241
S11329C0AF92BF92CF92DF92EF92FF920F931F9339
S11329D0CF93DF938BE294E00E94260C9091440401
S11329E080912D04981759F0E8E3F4E0938521E0F1
S11329F0290F2387953018F0848791E095830E94EE
S1132A00620BC82F80912C040E94620B9091BE032C
S1132A10891709F45AC08093BE039091BD039F5F48
S1132A209B3018F49093BD0350C01092BD031092D4
S1132A30BC031092BB0349C09191C91334C0978160
S1132A40891331C07B01022E02C0F594E7940A94E5
S1132A50E2F7E0FE28C07801022E02C0EE0CFF1C53
S1132A600A94E2F76701CA22DB22EC14FD0469F43C
S1132A70B093BC03A093BB03D0934C048091370460
S1132A8050FB82F9809337043BC0DE2D750164014D
S1132A90022E04C0CC0CDD1CEE1CFF1C0A94D2F7E1
S1132AA0AC29BD29572D2F5F3F4F2830310521F622
S1132AB0B093BC03A093BB03D0934C048091370420
S1132AC050FB82F9809337041BC0EAE4F4E061818F
S1132AD070E0D281A091BB03B091BC035091370444
S1132AE052FB552750F9EFE5F4E020E030E001E037
S1132AF010E0812C912C54018394772473949CCFFF
S1132B00DF91CF911F910F91FF90EF90DF90CF90C5
S1132B10BF90AF909F908F907F9008950F931F93D5
S1132B20CF93DF93CDB7DEB727970FB6F894DEBF08
S1132B300FBECDBF8091370482FFA9C01A821982CB
S1132B40FE01339685E0DF011D928A95E9F78091B5
S1132B504C048830C9F038F4823091F0843091F01C
S1132B608130E1F40BC0803299F018F4803171F0B7
S1132B7015C0803479F0803879F010C081E00FC03E
S1132B8082E00DC083E00BC084E009C085E007C08B
S1132B9086E005C087E003C088E001C080E01F92A2
S1132BA08F9385E292E09F938F938E010F5F1F4F67
S1132BB01F930F930E94B4240E94EE0E60E0C8019C
S1132BC00E943B0E89E00E94BA0A80913C040F9057
S1132BD00F900F900F900F900F90882309F44BC023
S1132BE020E0E8E3F4E08091370480FDC39ABFEF6E
S1132BF033ED40E3B15030404040E1F700C0000005
S1132C00C3988AE094989091370490FDC39A909168
S1132C10370491FDC49A9FEFA0E7B2E09150A04021
S1132C20B040E1F700C00000949AC398C4983FEF05
S1132C3044E39CE0315040409040E1F700C0000084
S1132C409A9B0AC09B9B08C09C9B06C09D9B04C08A
S1132C509E9B02C08150B1F69A9B0DC09B9B0BC0FA
S1132C609C9B09C09D9B07C09E9B05C02F5F8481D0
S1132C70281708F4B8CF0E94EE0E809137048B7E9B
S1132C808F7D80933704809154040E94CE1427963C
S1132C900FB6F894DEBF0FBECDBFDF91CF911F9169
S1132CA00F9108951F93CF93DF93CBE2D4E08A81F1
S1132CB00E94620B182F89810E94620B6CE390E0E2
S1132CC0619F800D911D1124EFE4F4E04585278573
S1132CD030E0649F200D311D11247485468550E039
S1132CE0679F400D511D11242417350730F58417B3
S1132CF0950708F449C02817390720F0821793076D
S1132D0008F047C08091370485FD43C080EA0E94E3
S1132D10CE14809137048062809337043AC0809146
S1132D20370485FF36C0809154040E94CE148091EC
S1132D3037048F7D809337042CC04217530748F51E
S1132D408417950780F08217930780F480913704E5
S1132D5085FD1FC080EA0E94CE14809137048062F2
S1132D608093370416C08217930798F08091370434
S1132D7085FF0FC0809154040E94CE1480913704C3
S1132D808F7D8093370405C08217930708F4BACF68
S1132D90C6CFDF91CF911F910895F894E8E3F4E052
S1132DA09285892392859827928778940895F89438
S1132DB0E8E3F4E0918589239185982791877894B5
S1132DC00895E8E3F4E0908583B38095282F2927BC
S1132DD09091C1039223892F80958093C103909190
S1132DE0C003922398279093C0038223892390855C
S1132DF098279087208592858223892B82878085D6
S1132E008C7721F481E38093BF0311C08091BF03C9
S1132E10815019F08093BF030AC08FE08093BF03F1
S1132E20E8E3F4E0808591858C77892B818784E0C1
S1132E300E94CD16882359F08091490481608093C3
S1132E404904E8E3F4E0108A17861686158688E0BC
S1132E500E94CD16882359F08091490482608093A2
S1132E604904E8E3F4E0108A17861686158680E1A3
S1132E700E94CD16882359F0809149048460809380
S1132E804904E8E3F4E0108A17861686158680E183
S1132E900E94D716882359F0809149048460809356
S1132EA04904E8E3F4E0108A17861686158680E262
S1132EB00E94D716882359F0809149048860809332
S1132EC04904E8E3F4E0108A17861686158680E242
S1132ED00E94CD16882359F080914904886080931C
S1132EE04904E8E3F4E0108A17861686158680E420
S1132EF00E94CD16882359F0809149048061809303
S1132F004904E8E3F4E0108A1786168615860895C6
S1132F109F92AF92BF92CF92DF92EF92FF920F9364
S1132F201F93CF93DF9300D0CDB7DEB78C01FC01A4
S1132F308081898381818A83828180838381818363
S1132F400E94690EF801618180810E94030E8091C4
S1132F50370484FD54C07801CE0101966C01912C94
S1132F604CC010924904F70180818F5FF601908173
S1132F70981708F480E0F50180838091490482FF6A
S1132F800BC010924904F6019081F70180818150B1
S1132F900AF4892FF50180838091490484FF07C0D6
S1132FA0109249049394F2E09F121DC028C08091AE
S1132FB0490481FD04C08091370484FF09C0109244
S1132FC04904809137048F7E8093370481E021C0C7
S1132FD0492DF801618180810E946E0E809149041F
S1132FE083FDBFCFCACFFFEFEF1AFF0A8FEFC81AD6
S1132FF0D80A8091370484FD02C05701EFCF809135
S113300037048F7E8093370410923A041092490457
S113301080E00F900F90DF91CF911F910F91FF905F
S1133020EF90DF90CF90BF90AF909F9008951F9343
S1133030CF93DF9300D000D0CDB7DEB78BE3898385
S11330408A838CE090E00E9477278B838DE090E068
S11330500E9477278C83CE0101960E9488178111E4
S11330601DC069818CE090E00E948527E199FECF24
S11330706A818DE090E00E9485278CB3182F12702E
S113308081FDFBCFEFE4F4E0898182878A81838725
S11330906AE08DE292E00E94F90E01C011E0812FF6
S11330A00F900F900F900F90DF91CF911F91089583
S11330B00F931F93CF93DF9300D000D0CDB7DEB72B
S11330C08BE294E00E94260C87E189838BE38A8358
S11330D00BE214E0F80182810E94620B8B83F801F9
S11330E081810E94620B8C83CE0101960E94881715
S11330F081110CC040E06A8189810E946D0B6AE0F5
S11331008DE292E00E94F90E80E001C081E00F9010
S11331100F900F900F90DF91CF911F910F91089511
S11331202F923F924F925F926F927F928F929F92D3
S1133130AF92BF92CF92DF92EF92FF920F931F93C1
S1133140CF93DF93CDB7DEB729970FB6F894DEBFE0
S11331500FBECDBF2DB73EB7398728870FE414E0E3
S1133160D80190968C91EDB7FEB727E0829FE019C5
S1133170F10911240FB6F894FEBF0FBEEDBF8DB751
S11331809EB701969F838E834C0181E08093E30375
S11331908093E20382E00E94BA0A9498D801909640
S11331A08C91811149C000E0B0C0F70111819113E5
S11331B00F5F8091E603882341F08091E303882325
S11331C021F05092E6030E94080A9B991BC0FFEF6E
S11331D021EE34E0F15020403040E1F700C000001F
S11331E0832D90E0F401A7E03A9EE00DF11D112437
S11331F060826182628263826482CC9696838583D4
S1133200042DCDC1802F90E001970397CCF1832D3D
S113321090E0F401B7E03B9EE00DF11D11246082C3
S11332206182628263826482CC9696838583022D56
S1133230B6C1739463941FC00F2EF2E36F2EF02D6A
S11332407724739490E00F2EFBE2EF2EF4E0FF2E30
S1133250F02D512C0F2EFEE6CF2EF0E0DF2EF02DB8
S1133260442443940F2EFFE4AF2EF4E0BF2EF02D40
S11332706894222421F833243A94370C00E001C0E6
S1133280912F8091E503811190C18091370482FFD1
S11332908CCF91C1F6018081F40127E0329EE00DCC
S11332A0F11D11248083D60111968C91119781838D
S11332B014968C911497828317968C911797838315
S11332C018968C911897848312962D913C9113979C
S11332D0368325834092E3034092E2035092E50350
S11332E0F50180A1781608F4A4CF00E00EC0409246
S11332F0E3034092E2035092E503D50190968C914A
S1133300781618F4002309F494CF8091370485FFCC
S113331004C080EA0E94CE1404C0809154040E9428
S1133320CE14B0906F04EDB7FEB7EB19F1090FB6E8
S1133330F894FEBF0FBEEDBF6DB77EB76F5F7F4FD2
S11333406B01BB2009F428C14E815F81CB012FEFB3
S11333502B0D30E02F5F3F4F620F731FA12C0F2EF8
S1133360FFE39F2EF02DEEE6F0E00F2EFEE38F2E0E
S1133370F02D9C01DC019C92F0803A01DA011C9151
S1133380F11202C0DC018C92F180D30111961C91E0
S1133390F11204C0D9011C911D7F1C93F480D30148
S11333A012961C91F11204C0D9011C911B7F1C932D
S11333B0F780D30113961C91F11204C0D9011C911A
S11333C0177F1C93F084D30114961C91F11204C04E
S11333D0D9011C911F7E1C93E280F380D3011596C2
S11333E06D907C901697E614F70421F4D9011C9192
S11333F01F7D1C930196D9012C91211101C0A39426
S1133400495F5F4F6817790709F0B3CF1092E20361
S1133410AB1035C080917500873011F4109275009F
S11334200F2EFEE6EF2EF0E0FF2EF02DF701468181
S1133430658184810E946D0BD70112962D913C9178
S1133440139711964C91119717966C9117978C912D
S11334500E94C00BF701608584E090E00E948527FC
S1133460E199FECFEFE4F4E0608171816F5F7F4FFB
S11334707183608382E090E00E949627AAC08091C5
S1133480370482FDA6C04DB65EB68B2D90E09C013C
S1133490220F331F220F331F820F931F81962DB7E4
S11334A03EB7281B390B0FB6F8943EBF0FBE2DBF95
S11334B08DB79EB701963C017C011A821982FE01E8
S11334C0339683E0DF011D928A95E9F787E1ECE307
S11334D0F2E0D30101900D928A95E1F7BE016F5F8E
S11334E07F4F802F0E94BF06BC01C3010E94842429
S11334F0D3010D900020E9F7119788E0E3E5F2E0AD
S113350001900D928A95E1F780916F04882321F14F
S113351010E06894AA24A5F8B12C0F2EFFE48F2E96
S1133520F4E09F2EF02DF70101900020E9F7319788
S1133530B182A082F601E10FF11DBE016F5F7F4FE2
S113354080810E94BF06BC01C7010E9484241F5FC2
S1133550F40180A1181738F364E1C3010E94F90E45
S113356060914D0470914E046F5F7F4F70934E04D1
S113357060934D0480E090E00E9496270FB6F89483
S11335805EBE0FBE4DBE25C081E08093E3038093F1
S1133590E2031092E503B9CE1092E2033BCF80918F
S11335A0370482FFF1CF912FA2CE8091370482FF9E
S11335B071CE052D9CCE4092E3034092E2035092DB
S11335C0E503D50190968C91781608F432CE00E08C
S11335D09CCE10924904E8E3F4E0118210828091B9
S11335E037048F7D80933704949A802FE885F9857A
S11335F00FB6F894FEBF0FBEEDBF29960FB6F89430
S1133600DEBF0FBECDBFDF91CF911F910F91FF9011
S1133610EF90DF90CF90BF90AF909F908F907F906E
S11336206F905F904F903F902F900895E199FECF57
S113363082E090E00E947727813261F483E090E099
S11336400E947727883031F4809137048064809316
S113365037040895809137048F7B80933704E19970
S1133660FECF6FEA87E090E00E949C27E199FECFAD
S113367061E088E090E00E949C27E199FECF61E040
S113368089E090E00E949C27E199FECF60E085E00C
S113369090E00E949C27E199FECF64E18EE090E0E7
S11336A00E949C27E199FECF60E080E190E00E94B7
S11336B09C27E199FECF6CE08FE090E00E949C276C
S11336C0E199FECF60E081E190E00E949C27E199BE
S11336D0FECF63E08AE090E00E949C27E199FECF50
S11336E060E08BE090E00E949C27E199FECF60E0CF
S11336F084E090E00E949C27E199FECF65E08CE095
S113370090E00E949C27E199FECF60E08DE090E07C
S11337100E949C27E199FECF63E086E090E00E943E
S11337209C27E199FECF60E070E080E090E00E9489
S11337309627E199FECF62E082E290E00E949C2706
S1133740E199FECF69E082E190E00E949C27E19933
S1133750FECF6FE08AE190E00E949C27E199FECFC2
S113376069E083E190E00E949C27E199FECF63E247
S11337708BE190E00E949C27E199FECF6CE084E10C
S113378090E00E949C27E199FECF63E28CE190E0F7
S11337900E949C27E199FECF6DE085E190E00E94B4
S11337A09C27E199FECF60E08DE190E00E949C2788
S11337B0E199FECF61E282E090E00E949C27E199CA
S11337C0FECF68E083E090E00E949C27E199FECF61
S11337D00895EF92FF920F931F93CF93DF932FEFF0
S11337E089E698E1215080409040E1F700C0000054
S11337F00E94161B87E090E00E9477278093540470
S1133800E199FECF88E090E00E94772790913704F9
S113381080FB91F990933704E199FECF89E090E021
S11338200E9477279091370480FB90F99093370496
S1133830E199FECF85E090E00E94772780934B04C6
S1133840E199FECF8EE090E00E94772780935B049D
S1133850E199FECF80E190E00E94772780935D0498
S1133860E199FECF8FE090E00E94772780935C047B
S1133870E199FECF81E190E00E94772780935E0476
S1133880E199FECF8AE090E00E9477278093570465
S1133890E199FECF8BE090E00E9477278093580453
S11338A0E199FECF84E090E00E9477278093760030
S11338B0E199FECF8DE090E00E94772780935A042F
S11338C0E199FECF8CE090E00E9477278093590421
S11338D0E199FECF86E090E00E94772780933C0434
S11338E0E199FECF80E090E00E947F2790934E0400
S11338F080934D04E199FECF82E090E00E947F27FF
S11339009093500480934F04E199FECF82E290E0BB
S11339100E94772780936F04E199FECFC2E1D0E043
S11339200FE514E00F2EFAE1EF2EF0E0FF2EF02D5C
S1133930CE010E947727F80181938F01E199FECF90
S1133940CE0108960E947727F8018783E199FECF7C
S11339502196CE15DF0561F7DF91CF911F910F916D
S1133960FF90EF900895DF92EF92FF920F931F93D1
S1133970CF93DF938C017B01D090C20380913704F5
S11339808860809337040E94EE0E81E0E81AF10803
S113399090913704947169F010924804109247048E
S11339A0809137048F7E809337040E94EE0E8FEF50
S11339B04FC08091490483FF0BC0109249040E94B8
S11339C0EE0E8D2D90E08E159F05C0F4D39416C095
S11339D08091490482FF08C0109249040E94EE0EAF
S11339E0DD2061F0DA940AC08091490481FF06C0A9
S11339F0109249040E94EE0E8FEF2AC02D2D30E064
S1133A00E901CC0FDD1FCC0FDD1F2C0F3D1FE8019A
S1133A10C20FD31F60E0888199810E943B0E809180
S1133A20490484FFB5CF109249040E94EE0E10920F
S1133A30C203EA81FB81309721F009958C81809340
S1133A40C2030E94EE0E10924804109247048D2D7A
S1133A50DF91CF911F910F91FF90EF90DF90089528
S1133A60AF92BF92CF92DF92EF92FF920F931F9388
S1133A70CF93DF9300D000D0CDB7DEB763E070E022
S1133A808AE990E00E94B31C8F3F09F443C097E198
S1133A9099839BE39A83082F10E068018CE0C80E99
S1133AA0D11CC6018E5F9F4F5C010E9477278B83D8
S1133AB078019EE0E90EF11C87010E5F1F4FC801DB
S1133AC00E9477278C83CE0101960E94881781116A
S1133AD023C06981C5010E948527E199FECF6A81CF
S1133AE0C8010E9485279CB3192F127091FDFBCF4A
S1133AF0F601E15BFB4F89818083F701E15BFB4FBA
S1133B008A8180830E94EE0E6AE08DE292E00E9438
S1133B10F90E03C01FEF01C0182F812F0F900F90D3
S1133B200F900F90DF91CF911F910F91FF90EF9025
S1133B30DF90CF90BF90AF900895CF93DF930E9412
S1133B40EE0E88E090E00E94772781709091370410
S1133B5080FB91F9909337048823A9F0C0E9D0E061
S1133B60A881B98186E0EBE5F2E001900D928A9597
S1133B70E1F7AD81BE8186E0E1E6F2E001900D92CD
S1133B808A95E1F714C0C0E9D0E0A881B98186E044
S1133B90E7E6F2E001900D928A95E1F7AD81BE81EE
S1133BA086E0EDE6F2E001900D928A95E1F762E09D
S1133BB070E080E990E00E94B31C8F3FF9F0882305
S1133BC019F0813039F00BC0809137048260809302
S1133BD0370405C0809137048D7F8093370460914A
S1133BE037046695617088E090E00E9485276AE05A
S1133BF08DE292E00E94F90E80E001C08FEFDF9128
S1133C00CF910895CF93DF930E94EE0E89E090E068
S1133C100E94772781709091370480FB90F99093EC
S1133C2037048823A9F0C0E9D0E0A881B98186E0EF
S1133C30EBE5F2E001900D928A95E1F7AD81BE814A
S1133C4086E0E1E6F2E001900D928A95E1F714C076
S1133C50C0E9D0E0A881B98186E0E7E6F2E001900E
S1133C600D928A95E1F7AD81BE8186E0EDE6F2E042
S1133C7001900D928A95E1F762E070E080E990E0AE
S1133C800E94B31C8F3FF1F0882319F0813039F082
S1133C900BC08091370481608093370405C0809104
S1133CA037048E7F8093370460913704617089E014
S1133CB090E00E9485276AE08DE292E00E94F90E6E
S1133CC080E001C08FEFDF91CF9108951F93CF93D0
S1133CD0DF9300D000D0CDB7DEB787E189838BE3D3
S1133CE08A838AE090E00E9477278B838BE090E0C0
S1133CF00E9477278C83CE0101960E948817811138
S1133D0022C08A81811102C081E08A8369818AE0AC
S1133D1090E00E948527E199FECF6A818BE090E0D4
S1133D200E9485278CB3182F127081FDFBCFEFE41E
S1133D30F4E0898180878A8181876AE08DE292E05C
S1133D400E94F90E01C011E0812F0F900F900F9087
S1133D500F90DF91CF911F9108951F93CF93DF931D
S1133D600E94EE0E86E090E00E94772780933C0448
S1133D7060E083E792E00E943B0EC8E3D4E013E6E0
S1133D808091490483FF0DC0109249048C818F5F98
S1133D90843608F080E08C838C8165E10E9498125F
S1133DA03BC08091490482FF0CC0109249048C816D
S1133DB081500AF4812F8C838C8165E10E949812D2
S1133DC02BC08091490484FF14C01092490480914F
S1133DD037048F7E8093370460913C0486E090E042
S1133DE00E9485276AE08DE292E00E94F90E80E04D
S1133DF018C08091490481FD04C08091370484FF78
S1133E000BC010924904809137048F7E809337044D
S1133E100E94EE0E81E005C08C8165E10E94B8121B
S1133E20AFCFDF91CF911F9108958F929F92AF9260
S1133E30BF92CF92DF92EF92FF921F93CF93DF93C3
S1133E4000D000D0CDB7DEB76AE070E089EA90E038
S1133E500E94B31C182F8F3F09F4B3C0893009F4B2
S1133E60B2C00E94EE0E87E189838BE38A83E12E40
S1133E70F12C670180E1C80ED11CF601EE5FFF4F03
S1133E805F01CF010E9477278B83F8E1EF0EF11CCD
S1133E90C7018E5F9F4F4C010E9477278C83183097
S1133EA021F40E94AD1E80E091C0CE0101960E94D3
S1133EB0881781118BC080914B0490E0012E02C0C1
S1133EC0959587950A94E2F780FF17C080E990E002
S1133ED0FC01A081B18126E0EBE5F2E001900D92B6
S1133EE02A95E1F7FC01A581B68186E0E1E6F2E0DE
S1133EF001900D928A95E1F716C080E990E0FC01EB
S1133F00A081B18126E0E7E6F2E001900D922A95C6
S1133F10E1F7FC01A581B68186E0EDE6F2E00190CF
S1133F200D928A95E1F762E070E080E990E00E94EA
S1133F30B31C813099F020F08F3F09F446C01CC0B7
S1133F40EAE4F4E081E090E0012E02C0880F991FBA
S1133F500A94E2F79181892B81830EC0EAE4F4E0AC
S1133F6081E090E0012E02C0880F991F0A94E2F7C5
S1133F7080959181892381836981C5010E94852768
S1133F80E199FECF6A81C4010E948527E199FECFA1
S1133F9060914B0485E090E00E948527E199FECF73
S1133FA0D601A15BBB4F89818C93F701E15BFB4F89
S1133FB08A8180836AE08DE292E00E94F90E812F6B
S1133FC005C08FEF03C089E001C08FEF0F900F9001
S1133FD00F900F90DF91CF911F91FF90EF90DF90A2
S1133FE0CF90BF90AF909F908F9008951F93CF93E1
S1133FF0DF930E94EE0E82E290E00E947727809386
S11340006F0460E083E792E00E943B0ECFE4D4E0CB
S11340101AE08091490483FF0CC01092490488A1DE
S11340208F5F8B3008F080E088A365E10E949812CE
S11340303AC08091490482FF0BC01092490488A1C0
S113404081500AF4812F88A365E10E9498122BC045
S11340508091490484FF14C010924904809137046C
S11340608F7E8093370460916F0482E290E00E9417
S113407085276AE08DE292E00E94F90E80E018C084
S11340808091490481FD04C08091370484FF0BC0F2
S113409010924904809137048F7E809337040E94E4
S11340A0EE0E81E005C065E188A10E94B812B1CF8F
S11340B0DF91CF911F9108950F931F93CF93DF93B7
S11340C0CDB7DEB761970FB6F894DEBF0FBECDBF94
S11340D065E070E087E790E00E94B31C8F3F09F42D
S11340E078C08230A9F028F4882351F0813061F03F
S11340F005C0833089F08F3F09F46DC080E06CC047
S11341000E94901880E068C00E94661E80E064C02F
S11341100E94F61F80E060C01A821982FE01339665
S11341208FE0DF011D928A95E9F74AE08E010F5F67
S11341301F4FB80180914F04909150040E948F2426
S1134140D8010D900020E9F7119789E0E7E7F2E044
S113415001900D928A95E1F76EE1C8010E94F90E73
S11341604AE0B80180914D0490914E040E948F243E
S1134170D8010D900020E9F711978BE0E0E8F2E018
S113418001900D928A95E1F76EE1C8010E94F90E43
S11341909A991DC01092500410924F0410924E042C
S11341A010924D0460E070E080E090E00E94A92746
S11341B0E199FECF60E070E082E090E00E94A927E0
S11341C0E199FECF64E18BE892E00E94F90E80E071
S11341D003C08FEF01C08FEF61960FB6F894DEBF76
S11341E00FBECDBFDF91CF911F910F91089581B381
S11341F0826F81BBA09A87B3886187BB85B38C67C4
S113420085BBC29A959A83B78D6083BF89B782684C
S113421089BF8BE98CBF85B58C6085BD89EF83BD73
S113422078940E94E91B0E94C9010E94A2068BE2B5
S113423094E00E94260C80912D0480934404809184
S113424054040E94CE0A6AE087E992E00E94F90EC3
S11342500E94A70664E10E94F90E0E94EE0E80916E
S1134260370486FD2CC064E189EA92E00E94F90ECD
S1134270C0E06C2F8CE70E943E0D2FEF82E597E0A3
S1134280215080409040E1F700C00000CF5FC03271
S113429081F76C2F80E20E943E0DEFEFF0E722E001
S11342A0E150F0402040E1F700C00000C15089F720
S11342B00E94EE0E8091370480648093370410923C
S11342C0E3031092E50310924904949AD12CC8E3B5
S11342D0D4E00F2EFFE4EF2EF4E0FF2EF02D03C008
S11342E0D82E01C0D82E0E948E150E94521680919D
S11342F0490482FF0AC01092490464E18BE294E00D
S11343000E94B5101092490430C08091490483FF83
S113431008C01092490484E10E9486111092490455
S113432024C08091490484FF08C01092490484E1A8
S11343300E9424121092490418C08091490480FFFD
S113434014C0109249048091370482FD0CC06CE0C3
S113435070E08BED90E00E94B31C8F3F21F08091C0
S1134360370482FFF4CF109249040E94690E0BE2D5
S113437014E0F801618182810E94C50DF8018081F9
S11343808F839F818E81981791F08F818E838A818C
S11343908B3320F48A818F5F8A8309C01A828B81D0
S11343A08B3320F48B818F5F8B8301C01B829A81B6
S11343B0F7018385981708F19B8182859817E8F0A7
S11343C018E01B821A82109249040E94AD0CFFEF80
S11343D021EE84E0F15020408040E1F700C000006D
S11343E0115079F764E18BE294E00E94B51084E106
S11343F00E94861184E10E9424129981F70180852C
S1134400981748F098818185981728F00E94901891
S113441080912C0467CF80912C04D81609F462CFC4
S113442098819B3320F498819F5F988359CF188299
S113443099819F5F998354CF1F920F920FB60F9269
S113444011242F933F934F935F936F937F938F9395
S11344509F93AF93BF93EF93FF938091BA038F5FC2
S11344608093BA03883220F00E94DD141092BA03BC
S11344708091E203811119C0E8E3F4E08785908913
S11344809C012F5F3F4F308B2787843F914048F03A
S113449010924804109247048091370480618093FD
S11344A037040E949C0A0E94E11680913D048823EF
S11344B009F43FC08091B8039091B9030196909399
S11344C0B9038093B8038091370481FDC49A809125
S11344D0E203811101C094988091B8039091B903CB
S11344E0059730F0C4988091E203811101C0949A39
S11344F08091B8039091B903499748F080913704AB
S113450081FDC49A8091E203811101C09498809145
S1134510B8039091B9034E9760F010923D04109245
S1134520B9031092B803C4988091E203811101C0C9
S1134530949AFF91EF91BF91AF919F918F917F9149
S11345406F915F914F913F912F910F900FBE0F90FC
S11345501F9018951F920F920FB60F9211248F93EC
S11345609F93EF93FF938091E203882319F081E0F6
S11345708093E603E8E3F4E08585968501969687C3
S11345808587FF91EF919F918F910F900FBE0F90B0
S11345901F9018950E94D1226894B1110C94602345
S11345A008950E94452388F09F5798F0B92F9927C2
S11345B0B751B0F0E1F0660F771F881F991F1AF00A
S11345C0BA95C9F714C0B13091F00E945F23B1E0ED
S11345D008950C945F23672F782F8827B85F39F0EC
S11345E0B93FCCF3869577956795B395D9F73EF4A3
S11345F090958095709561957F4F8F4F9F4F08954B
S1134600E89409C097FB3EF4909580957095619568
S11346107F4F8F4F9F4F9923A9F0F92F96E9BB271E
S11346209395F695879577956795B795F111F8CF9A
S1134630FAF4BB0F11F460FF1BC06F5F7F4F8F4F05
S11346409F4F16C0882311F096E911C0772321F0FB
S11346509EE8872F762F05C0662371F096E8862F93
S113466070E060E02AF09A95660F771F881FDAF7EA
S1134670880F9695879597F9089557FD9058440F9C
S1134680551F59F05F3F71F04795880F97FB991FAD
S113469061F09F3F79F0879508951216130614066A
S11346A0551FF2CF4695F1DF08C0161617061806F7
S11346B0991FF1CF86957105610508940895E894D2
S11346C0BB2766277727CB0197F908950E947923A2
S11346D00C94EA230E94DC2338F00E94E32320F0A8
S11346E0952311F00C94D3230C94D92311240C9406
S11346F060230E943D2370F3959FC1F3950F50E012
S1134700551F629FF001729FBB27F00DB11D639F7F
S1134710AA27F00DB11DAA1F649F6627B00DA11D25
S1134720661F829F2227B00DA11D621F739FB00DCB
S1134730A11D621F839FA00D611D221F749F33273B
S1134740A00D611D231F849F600D211D822F762FD4
S11347506A2F11249F5750409AF0F1F088234AF0B1
S1134760EE0FFF1FBB1F661F771F881F915050401D
S1134770A9F79E3F510580F00C94D3230C94602339
S11347805F3FE4F3983ED4F3869577956795B795A4
S1134790F795E7959F5FC1F7FE2B880F911D9695BE
S11347A0879597F9089597F99F6780E870E060E02E
S11347B008959FEF80EC089500240A9416161706B6
S11347C018060906089500240A94121613061406FE
S11347D005060895092E0394000C11F4882352F061
S11347E0BB0F40F4BF2B11F460FF04C06F5F7F4F19
S11347F08F4F9F4F0895DB018F939F930E945B24FB
S1134800BF91AF91A29F800D911DA39F900DB29F68
S1134810900D11240895A1E21A2EAA1BBB1BFD01C1
S11348200DC0AA1FBB1FEE1FFF1FA217B307E4078B
S1134830F50720F0A21BB30BE40BF50B661F771FE3
S1134840881F991F1A9469F76095709580959095C3
S11348509B01AC01BD01CF010895052E97FB1EF409
S113486000940E94442457FD07D00E940B2407FCA7
S113487003D04EF40C9444245095409530952195E2
S11348803F4F4F4F5F4F0895909580957095619578
S11348907F4F8F4F9F4F0895A29FB001B39FC001D8
S11348A0A39F700D811D1124911DB29F700D811D58
S11348B01124911D08950E944C24A59F900DB49F2E
S11348C0900DA49F800D911D11240895B7FF0C94A1
S11348D05B240E945B24821B930B0895FB01DC0183
S11348E004C08D910590801921F441505040C8F7BF
S11348F0881B990B0895FB01DC0102C005900D9201
S113490041505040D8F70895FB01DC010D90002080
S1134910E9F7119701900D920020E1F70895BB2764
S11349204A3031F4992322F4BDE2909581959F4F4A
S11349300C949B24BB27FB015527AA27880F991F9A
S1134940AA1FA41710F0A41B83955051B9F7A05DBA
S1134950AA3308F0A95DA193009779F7B111B19337
S11349601192CB010C94CD26AEE0B0E0EAEBF4E278
S11349700C94CC270D891E8986E08C831A830983C5
S11349808FEF9FE79E838D83AE01475E5F4F6F89F4
S1134990788DCE0101960E94D624EF81F885E00F30
S11349A0F11F10822E96E4E00C94E827ABE0B0E00F
S11349B0ECEDF4E20C94BE276C017B018A01FC014E
S11349C017821682838181FFCCC1CE0101963C01FE
S11349D0F6019381F70193FD859193FF81917F0106
S11349E0882309F4BAC1853239F493FD859193FF84
S11349F081917F01853229F4B60190E00E94DD2681
S1134A00E7CF912C212C312CFFE1F315D8F08B3218
S1134A1079F038F4803279F08332A1F4232D2061C7
S1134A201DC08D3261F0803369F4232D216016C0DE
S1134A30832D8260382EE32DE4603E2E2AC0F32DB0
S1134A40F8601DC037FC2DC020ED280F2A3040F03F
S1134A508E32B9F436FC81C1232D2064322E19C064
S1134A6036FE06C08AE0989E200D1124922E11C0B5
S1134A70EAE02E9E200D1124222EF32DF0623F2E0B
S1134A8008C08C3621F4832D8068382E02C0883605
S1134A9041F4F70193FD859193FF81917F01811189
S1134AA0B3CF982F9F7D9554933028F40C5F1F4FFC
S1134AB09FE399830DC0833631F0833771F08335DA
S1134AC009F059C021C0F801808189830E5F1F4F0E
S1134AD088248394912C530113C02801F2E04F0ED3
S1134AE0511CF801A080B18036FE03C0692D70E02E
S1134AF002C06FEF7FEFC5010E94C2264C01820104
S1134B00F32DFF773F2E16C0280122E0420E511CE0
S1134B10F801A080B18036FE03C0692D70E002C0A8
S1134B206FEF7FEFC5010E94B7264C01F32DF068AB
S1134B303F2E820133FC1BC0822D90E0881699061B
S1134B40B0F4B60180E290E00E94DD262A94F4CF0E
S1134B50F50137FC859137FE81915F01B60190E044
S1134B600E94DD2621102A9421E0821A91088114E2
S1134B70910471F7E8C0843611F0893641F5F801E3
S1134B8037FE07C060817181828193810C5F1F4F62
S1134B9008C060817181072E000C880B990B0E5F91
S1134BA01F4FF32DFF763F2E97FF09C090958095F8
S1134BB0709561957F4F8F4F9F4FF0683F2E2AE08D
S1134BC030E0A3010E941927882E861845C0853736
S1134BD031F4232D2F7EB22E2AE030E025C0932D10
S1134BE0997FB92E8F36C1F018F4883579F0B5C0A5
S1134BF0803719F0883721F0B0C0E92FE061BE2E6C
S1134C00B4FE0DC0FB2DF460BF2E09C034FE0AC0F3
S1134C10292F2660B22E06C028E030E005C020E12E
S1134C2030E002C020E132E0F801B7FE07C0608145
S1134C307181828193810C5F1F4F06C060817181F5
S1134C4080E090E00E5F1F4FA3010E941927882E79
S1134C508618FB2DFF773F2E36FE0DC0232D2E7FA9
S1134C60A22E891458F434FE0BC032FC09C0832DE3
S1134C708E7EA82E05C0B82CA32C03C0B82C01C06E
S1134C80B92CA4FE0FC0FE01E80DF11D8081803314
S1134C9021F49A2D997EA92E09C0A2FE06C0B394D0
S1134CA0B39404C08A2D867809F0B394A3FC11C090
S1134CB0A0FE06C0B21488F4280C922C9B180EC0D7
S1134CC0B21460F4B60180E290E00E94DD26B39451
S1134CD0F7CFB21418F42B1802C0982C212CA4FE80
S1134CE010C0B60180E390E00E94DD26A2FE17C04A
S1134CF0A1FC03C088E790E002C088E590E0B6011B
S1134D000CC08A2D867859F0A1FE02C08BE201C046
S1134D1080E2A7FC8DE2B60190E00E94DD268914B2
S1134D2038F4B60180E390E00E94DD269A94F7CF30
S1134D308A94F301E80DF11D8081B60190E00E9490
S1134D40DD268110F5CF222009F442CEB60180E29F
S1134D5090E00E94DD262A94F6CFF60186819781A1
S1134D6002C08FEF9FEF2B96E2E10C94DA27FC014F
S1134D700590615070400110D8F7809590958E0F82
S1134D809F1F0895FC016150704001900110D8F7F5
S1134D90809590958E0F9F1F0895DC01FC01672F6D
S1134DA071917723E1F7329704C07C916D937083FE
S1134DB06291AE17BF07C8F308950F931F93CF9363
S1134DC0DF93FB01238121FD03C08FEF9FEF2CC0F4
S1134DD022FF16C04681578124813581421753072B
S1134DE044F4A081B1819D012F5F3F4F3183208323
S1134DF08C93268137812F5F3F4F3783268314C0DE
S1134E008B01EC01FB010084F185E02D0995892BD0
S1134E10E1F6D80116968D919C91179701961796F5
S1134E209C938E931697CE01DF91CF911F910F9192
S1134E300895FA01AA27283051F1203181F1E8942C
S1134E406F936E7F6E5F7F4F8F4F9F4FAF4FB1E079
S1134E503ED0B4E03CD0670F781F891F9A1FA11D74
S1134E60680F791F8A1F911DA11D6A0F711D811D75
S1134E70911DA11D20D009F468943F912AE0269F3A
S1134E8011243019305D3193DEF6CF010895462F99
S1134E904770405D4193B3E00FD0C9F7F6CF462F7A
S1134EA04F70405D4A3318F0495D31FD40524193E3
S1134EB002D0A9F7EACFB4E0A695979587957795A0
S1134EC06795BA95C9F700976105710508959B0127
S1134ED0AC010A2E06945795479537952795BA95B0
S1134EE0C9F7620F731F841F951FA01D0895E199D0
S1134EF0FECF9FBB8EBBE09A99278DB30895A8E19E
S1134F00B0E042E050E00C94B027262FE199FECFA8
S1134F109FBB8EBBE09A01970DB2021631F02DBBF8
S1134F200FB6F894E29AE19A0FBE08950196272FDE
S1134F300E9486270C948527262FE199FECF9FBBDC
S1134F408EBB2DBB0FB6F894E29AE19A0FBE019680
S1134F5008950E949C27272F0C949D27DC01CB01E8
S1134F60FC01E199FECF06C0FFBBEEBBE09A31968F
S1134F700DB20D9241505040B8F708952F923F92D0
S1134F804F925F926F927F928F929F92AF92BF9255
S1134F90CF92DF92EF92FF920F931F93CF93DF9301
S1134FA0CDB7DEB7CA1BDB0B0FB6F894DEBF0FBE5E
S1134FB0CDBF09942A88398848885F846E847D84AB
S1134FC08C849B84AA84B984C884DF80EE80FD80AD
S1134FD00C811B81AA81B981CE0FD11D0FB6F89423
S1114FE0DEBF0FBECDBFED010895F894FFCFE4
S1134FEE303030303030303030303030303001010D
S1134FFEDE070C05000000F502000000FA020000B6
S113500E01000300000205030000030B030000FF70
S113501E100300000017030000011E03000000220D
S113502E030000010B030000FF27030000002B0305
S113503E0000012F030000023303000003370300B6
S113504E00043B030000053F030000064303000079
S113505E0747030000080B030000FFFB025818006B
S113506E4D03E812015203151F0259039D1D035FE0
S113507E03021E046503E80F056B03301D0671035E
S113508E17180776035C20087C037510098203DA6F
S113509E0F0A0B030000FF30313233343536373804
S11350AE39414243444546005265626F6F74206E27
S11350BE6F772E2E0048656C6C69676B656974207A
S11350CE67657370656963686572742100566572ED
S11350DE2E3A20004D455A2020004D45535A2000AB
S11350EE536F6E6E746167004D6F6E746167004D21
S11350FE697474776F636800446F6E6E657273744F
S113510E616700467265697461670053616D7374FB
S113511E616700416B7475656C6C652054656D70C8
S113512E657261747572203A202B00416B7475653B
S113513E6C6C652054656D70657261747572203A7D
S113514E202D00416B7475656C6C652054656D7013
S113515E6572617475723A20256C642E256C642018
S113516EB04300416B7475656C6C6572204C75664A
S113517E74647275636B203A200020685061004598
S113518E6E746572203E204E616D65206F662044FC
S113519E61790077442E3A004765737065696368D8
S11351AE6572742100412E3A2025642100476573EF
S11351BE70656963686572742E2E210053796E636F
S11351CE2E204572726F72202D2053746174652ED9
S11351DE3A200020436D702E3A20004F6E2020A7F7
S11351EE004F66662025004F6E202025004F666610
S11351FE20A7006E2E3A00202D205258204F6B000F
S113520E202D205258204572722E0047656C6F6512
S113521E736368742E2E0053746172742053757008
S113522E657220436C6F6B6B0044656661756C74BC
S113523E2057657274652077657264656E206765A4
S113524E6C6164656E2E2E00536F004D6F004469C1
S113525E004D6900446F004672005361004D657A3B
S113526E004D65737A0064642E3A006D6D2E3A001B
S113527E79792E3A002D476F21002D54696D650002
S113528E2D6E5258002D4572722E004578697400A9
S113529E4F6E20202020004F6666202020002D4FC8
S11352AE6E002D4F6666002D4131002D4132002DCA
S11352BE4133002D4134002D4135002D4136002D52
S11352CE4137002D4138004379636C2E00446174DC
S11352DE6500416C61726D2E00536F756E640056DD
S11352EE6962722E00427269672E0044696D6D2EDA
S11352FE00446973700053796E633F00496E666FA4
S113530E2E00526573657400C802CB02CE02D10220
S113531ED402D702DA02DD02E102E602EB02F00267
S9030000FC
