S017000053757065725F436C6F6B6B5F365F322E7372656385
S11300000C94D9010C94F6010C94F6010C94F601AD
S11300100C94F6010C94F6010C94F6010C949D0ECC
S11300200C94F6010C94F6010C94BD280C94F60182
S11300300C94F6010C94F6010C94F6010C94F60160
S11300400C94F6010C94F6010C94F6010C94F60150
S11300500C94F601FF110E121C122E123F125412B0
S1130060641227153C15511566157B159015A515B9
S1130070BA15CF15E415FD1516162F164816611678
S11300808F16941699169E16A316A816AD16B216B8
S1130090B716BC16C116C616CB16D016D516531AEB
S11300A05C1A651A6E1A771A801A891A272E522E2C
S11300B0762EBB2FE32F0B303330B630E0300A31CD
S11300C034315E318731AA03A3039C0395038E0365
S11300D087038003790372036B0364035D03560390
S11300E04F03480341033A0333032C0325031E0340
S11300F01703100309030203FB02F402ED02E602F4
S1130100DF02D802D102CA02C302BC02B502AE02A7
S1130110A702A002990292028B0284027D02760257
S11301206F02680261025A0253024C0245023E0207
S113013037023002290222021B0214020D020602B7
S1130140FF01F801F101EA01E301DC01D501CE016F
S1130150C701C001B901B201AB01A4019D0196011F
S11301608F01880181017A0173016C012505FF81EA
S11301700081FFA705FF950895FF3A026666FFFF19
S1130180FFB0026060FFFFFF2E020303FFFFFF606A
S113019005FFFFFFFFFF2A05440212024424051253
S11301A02A7F2A243C05081C2A08083E05101054FE
S11301B038103D0514141414142D050808080808F3
S11301C02B0508083E080829040081423C00280445
S11301D0003C42810026057689956205230520406E
S11301E0FF402040050402FF02042101FD0000003D
S11301F0003F0560808D906039057089898A7C385C
S1130200056E9191916E3705808F90A0C036051EC2
S1130210294989863505F29191918E34051828482B
S1130220FF083305428191916E32054385899161BE
S113023031040041FF010030057E8991A17E7A05D9
S113024011131519117905003905053E7805110AB0
S1130250040A1177051E010E011E76051C02010217
S11302601C75051E0101021F740520FE2101027385
S113027005091515150272051F08101008710510DF
S11302802828183F70053F242424186F050E1111E7
S1130290110E6E053F1020201F6D053F2018201FF2
S11302A06C040081FF01006B04FF040A11006A045E
S11302B0020121BE0069015F000000006805FF081B
S11302C010100F6705304949497E6605087F88800C
S11302D04065050E1515150C64050E111109FF6313
S11302E0051E212121126205FF0911110E61050667
S11302F02929291F5A05838599A1C15905E0100FA1
S113030010E05805C3241824C35705FF020C02FF4C
S11303105605F00C030CF05505FE010101FE5405D1
S11303208080FF80805305619191918E5205FF88F2
S11303308C8A7151057E8185827D5005FF8888886D
S1130340704F057E8181817E4E05FF403008FF4D50
S113035005FF403040FF4C05FF010101014B05FF43
S1130360182442814A0506010101FE49058181FFE5
S113037081814805FF101010FF47057E8189894E51
S11303804605FF909090804505FF91919181440529
S1130390FF8181423C43057E818181424205FF9178
S11303A091916E41053F4888483F200300000000BA
S11303B0000011241FBECFE5D8E0DEBFCDBF13E09F
S11303C0A0E6B0E0E8EBF0E702C005900D92AA3E8B
S11303D0B107D9F724E0AAEEB3E001C01D92A73A11
S11303E0B207E1F70E94FD310C945A380C940000D6
S11303F000C000C000C000C000C000C000000895DC
S1130400A198A098A998A8980895A19AF1DF1DD061
S11304100895A09AEDDFA198EBDFA098E9DFA19AF7
S1130420E7DF13D00895082EA19AE2DF802D0DD0C6
S1130430882311F002D0F8CF0895A09AA19AD8DFAA
S1130440A098D6DFA198D4DF08950894881F01C02E
S1130450880F59F0A09A18F40000A19802C0A19A3C
S113046000C0C6DFA098C4DFF3CFA09AA198C0DF74
S1130470A098989BFECF8827999981E0B9DF9927A6
S11304800895882701C081E071E0A09AA198B0DFA7
S1130490A098AEDF989BFECF889499990894771F13
S11304A0A0F7A09A813011F0A19801C0A19AA0DF11
S11304B0A098989BFECF9CDF872F99270895DF9201
S11304C0EF92FF920F931F93CF93DF93FC01008170
S11304D0662331F1EC01E02EE60ED12C8EEE0E9463
S11304E00502182F811108C0802F0E942502182FA1
S11304F00E941D02F12E01C0FD2C1F0D8FEE0E94E3
S11305000902F82E811105C00E94410288830E94CD
S11305101D021F0D39F421960F5F0E11DFCF04C0A9
S113052081E003C080E001C081E0DF91CF911F91A1
S11305300F91FF90EF90DF9008950F931F93CF9347
S1130540DF931F92CDB7DEB78B01898361E0CE01C3
S113055001960E945F02882321F08981F80180833B
S113056081E00F90DF91CF911F910F9108950F9328
S11305701F93CF93DF9300D0CDB7DEB78B01898370
S113058062E0CE0101960E945F02882351F08981C6
S113059090E0982F88272A81822BF8019183808309
S11305A081E00F900F90DF91CF911F910F910895EB
S11305B00F931F93CF93DF9300D0CDB7DEB78B019A
S11305C0898362E0CE0101960E945F02882359F07C
S11305D0898190E0982F88272A81822BF8019183C2
S11305E0808380E001C081E00F900F90DF91CF9174
S11305F01F910F9108951F93CF93DF93EC01BC01DA
S11306008AEA0E94B702182FBE016E5F7F4F8CEA00
S11306100E94B7028123182F1170BE016C5F7F4FB7
S11306208EEA0E94B7021823BE016A5F7F4F80EBF7
S11306300E94D8021823BE01685F7F4F82EB0E949C
S1130640D8021823BE01665F7F4F84EB0E94D80254
S11306501823BE01645F7F4F86EB0E94B702182304
S1130660BE01625F7F4F88EB0E94B7021823BE0170
S1130670605F7F4F8AEB0E94B7021823BE016E5E53
S11306807F4F8CEB0E94B7021823BE016C5E7F4F34
S11306908EEB0E94B7028123DF91CF911F910895C1
S11306A0EF92FF920F931F93CF93DF93FC0110817E
S11306B0662321F1EC012196012F060F8EEE0E9494
S11306C0050281111DC0812F0E942502E82E888118
S11306D00E942502F82EFFEF22E587E0F15020402A
S11306E08040E1F700C00000EF0C0E941D02FE0CE8
S11306F049F41F5F21961013E1CF06C081E005C0C5
S113070080E003C080E001C081E0DF91CF911F91C0
S11307100F91FF90EF900895CF93DF9300D0CDB762
S1130720DEB789836A8361E0CE0101960E9450039B
S113073091E0811101C090E0892F0F900F90DF911B
S1130740CF910895EF92FF920F931F93CF93DF936E
S11307501F92CDB7DEB7F82EE42E69830E948C0376
S11307608823B9F000E010E00AC0BE016F5F7F4F3C
S11307708F2D0E949D020F5F1F4F882351F0998196
S11307809E2131F00F3F8FEF180779F781E001C008
S113079081E00F90DF91CF911F910F91FF90EF9027
S11307A008950F931F93CF93DF9300D0CDB7DEB797
S11307B08C0140E26EE284EF0E94A203882361F080
S11307C0BE016F5F7F4F86EF0E94B70289819A81D5
S11307D0F8019183808381E00F900F90DF91CF9196
S11307E01F910F9108954F925F926F927F928F9213
S11307F09F92AF92BF92CF92DF92EF92FF921F939C
S1130800CF93DF9300D000D000D0CDB7DEB748A09F
S113081059A0612C712CCAA0DBA0E12CF12C8AA474
S11308209BA4AA2497FCA094BA2C8CA59DA59C01FA
S1130830442737FD4095542F2B833C834D835E839F
S1130840CE0101960E94D103182F29813A81C90152
S1130850A0E0B0E09C01AD012C193D094E095F09EF
S1130860C301B2010E94AC346B017C010B2EBFE0CA
S1130870F594E794D794C794BA95D1F7B02DC501F0
S1130880B401052E5BE0660F771F881F991F5A95E8
S1130890D1F7502D2B813C814D815E812C0D3D1D66
S11308A04E1D5F1D0E94DE34C20ED31EE41EF51ED3
S11308B038E0C30ED11CE11CF11C689413F8F594C4
S11308C0E794D794C7941694D1F7EEA5FFA5C082F8
S11308D0D182E282F382812F817026960FB6F8943A
S11308E0DEBF0FBECDBFDF91CF911F91FF90EF9080
S11308F0DF90CF90BF90AF909F908F907F906F903C
S11309005F904F900895FF920F931F93CF93DF93BF
S113091000D01F92CDB7DEB78C01F62E6295660F1C
S1130920660F607C6C5C40E284EF0E94A203882323
S113093079F1BE016F5F7F4F86EF0E949D02BE0179
S11309406E5F7F4F87EF0E949D02BE016D5F7F4FF8
S113095088EF0E949D0289814A8150E060E070E046
S1130960762F652F542F4427682B8B81482B88E0E2
S113097090E08F19910904C075956795579547952F
S11309808A95D2F7F801408351836283738381E0AF
S11309900F900F900F90DF91CF911F910F91FF90C7
S11309A008952F923F924F925F926F927F928F920F
S11309B09F92AF92BF92CF92DF92EF92FF920F93EA
S11309C01F93CF93DF93CDB7DEB7A6970FB6F894F6
S11309D0DEBF0FBECDBF64960FAD64974BAC5CAC6D
S11309E09201442737FD4095542F2B8B3C8B4D8B24
S11309F05E8B8DAD9EAD9C01442737FD4095542FF1
S1130A002F8B388F498F5A8F21964EAC5FAC21972C
S1130A10662457FC6094762C23964EAD5FAD2397E5
S1130A205C874B872596CEACDFAC2597E12CF12C67
S1130A3027968EAD9FAD27979C0140E050E02F8311
S1130A40388749875A872F968EAD9FAD2F979C0183
S1130A50442737FD4095542F2B8F3C8F4D8F5E8F4D
S1130A6061968EAD9FAD61979C01442737FD4095FB
S1130A70542F2F8F38A349A35AA329968EAC9FAC29
S1130A802997AA2497FCA094BA2C2B968EAD9FADDF
S1130A902B979C01442737FD4095542F2BA33CA34F
S1130AA04DA35EA3CE0105960E94D103182F2D807D
S1130AB03E806896EEADFFAD689731822082602F4C
S1130AC0CE0101960E9483048123182F117089811D
S1130AD09A81AB81BC818F87988BA98BBA8B6A96DC
S1130AE0EEADFFAD6A9780839183A283B3839101B6
S1130AF0442737FD4095542F8F819885A985BA8561
S1130B00281B390B4A0B5B0BC701B6010E94AC349E
S1130B106B017C010B2EBFE0F594E794D794C79446
S1130B20BA95D1F7B02D6B8D7C8D8D8D9E8D052E54
S1130B305BE0660F771F881F991F5A95D1F7502DD8
S1130B402F8D38A149A15AA12C0D3D1D4E1D5F1DAD
S1130B500E94DE34C20ED31EE41EF51ED701C60168
S1130B600896A11DB11D689413F8B595A79597959E
S1130B7087951694D1F76696EEADFFAD66978083A0
S1130B809183A283B38390EAC91A9FE0D90AE1084A
S1130B90F108A7019601C701B6010E94AC349B017C
S1130BA0AC01012E1CE055954795379527951A956C
S1130BB0D1F7102D2F83388749875A87A3019201D3
S1130BC0C701B6010E94AC342B013C01992334F4D3
S1130BD03FEF430E3FE1531E611C711C032E3DE0A9
S1130BE075946794579447943A95D1F7302DA5019D
S1130BF094016F81788589859A850E94AC34BB27DE
S1130C0097FDB095AB2F480E591E6A1E7B1E42E01D
S1130C10440E511C611C711CD301C201B595A795EA
S1130C2097958795B595A795979587959C01AD015F
S1130C3030584F4F5F4FAB85BC850E9403359B01F5
S1130C40AC01012E1FE056954795379527951A95C7
S1130C50D1F7102D2B873C874D875E878B889C8826
S1130C60AD88BE88880C991CAA1CBB1C880C991CD6
S1130C70AA1CBB1C2F81388549855A856BA17CA190
S1130C808DA19EA10E94AC342B013C01032E3BE0BC
S1130C9075946794579447943A95D1F7302D2F89DA
S1130CA0388D498D5A8DC701B6010E94AC34DC01E0
S1130CB0CB01072E7BE0B595A795979587957A95F7
S1130CC0D1F7702D480E591E6A1E7B1E480C591C04
S1130CD06A1C7B1C002E04C0440C551C661C771C2B
S1130CE00A94D2F732E0430E511C611C711C7594B6
S1130CF067945794479475946794579447942F85B1
S1130D00388949895A89241935094609570980E5DA
S1130D1093ECA0E0B0E0BC01CD0104C095958795AB
S1130D20779567950A95D2F70E94AC3499237CF0A5
S1130D30660F771F881F991F2B853C854D855E851F
S1130D400E94BC3429833A834B835C8310C02B8577
S1130D503C854D855E850E94BC34DA01C901880F4B
S1130D60991FAA1FBB1F89839A83AB83BC83C98045
S1130D70DA80EB80FC809927F7FC9A958F2D7E2DE5
S1130D806D2D9B01AC010E94AC349B01AC01AEED16
S1130D90BBE00E9403354C01BB2497FCB094AB2C00
S1130DA0A3E4B3EEA70196010E941135BB2797FD7A
S1130DB0B095AB2F880E991EAA1EBB1E4FEC840E55
S1130DC04EE0941EA11CB11C689413F8B594A7942A
S1130DD0979487941694D1F7C80CD91CEA1CFB1C71
S1130DE06396EEADFFAD6397C082D182E282F38257
S1130DF0812FA6960FB6F894DEBF0FBECDBFDF914C
S1130E00CF911F910F91FF90EF90DF90CF90BF9003
S1130E10AF909F908F907F906F905F904F903F9096
S1130E202F9008952F923F924F925F926F927F92EC
S1130E308F929F92AF92BF92CF92DF92EF92FF92E6
S1130E400F931F93CF93DF93CDB7DEB76A970FB697
S1130E50F894DEBF0FBECDBF8FA598A989A89AA824
S1130E60ABA8BCA8CDA8DEA8EFA8F8AC69AC7AAC56
S1130E7021964EAC5FAC219723962EAC3FAC2397C2
S1130E8025962EAD3FAD25973E8B2D8B2BAD3CADDE
S1130E90388F2F8B2DAD3EAD3A8F298F27E0EDE7AC
S1130EA0F0E08E010F5F1F4FD80101900D922A953B
S1130EB0E1F7F80101900020E9F7BF0161507109E1
S1130EC04AE00E943B3564E1C8010E94ED1087E0CE
S1130ED0E4E8F0E0D80101900D928A95E1F7F80179
S1130EE001900020E9F7BF01615071094AE0C40193
S1130EF00E943B3564E1C8010E94ED1087E0EBE8F5
S1130F00F0E0D80101900D928A95E1F7F801019083
S1130F100020E9F7BF01615071094AE0C5010E9450
S1130F203B3564E1C8010E94ED1087E0E2E9F0E09E
S1130F30D80101900D928A95E1F7F8010190002003
S1130F40E9F7BF01615071094AE0C6010E943B35CF
S1130F5064E1C8010E94ED1087E0E9E9F0E0D801FE
S1130F6001900D928A95E1F7F80101900020E9F7CC
S1130F70BF01615071094AE0C7010E943B3564E139
S1130F80C8010E94ED1087E0E0EAF0E0D80101908A
S1130F900D928A95E1F7F80101900020E9F7BF016D
S1130FA0615071094AE0C3010E943B3564E1C80104
S1130FB00E94ED1086E0E7EAF0E0D80101900D927E
S1130FC08A95E1F7F80101900020E9F7BF0161502B
S1130FD071094AE0C2010E943B3564E1C8010E94E4
S1130FE0ED1086E0EDEAF0E0D80101900D928A95CB
S1130FF0E1F7F80101900020E9F7BF0161507109A0
S11310004AE0C1010E943B3564E1C8010E94ED1031
S113101086E0E3EBF0E0D80101900D928A95E1F7C8
S1131020F80101900020E9F7BF01615071094AE01D
S11310308D899E890E943B3564E1C8010E94ED10B0
S113104086E0E9EBF0E0D80101900D928A95E1F792
S1131050F80101900020E9F7BF01615071094AE0ED
S11310608F89988D0E943B3564E1C8010E94ED1080
S113107086E0EFEBF0E0D80101900D928A95E1F75C
S1131080F80101900020E9F7BF01615071094AE0BD
S1131090898D9A8D0E943B3564E1C8010E94ED1050
S11310A06A960FB6F894DEBF0FBECDBFDF91CF9125
S11310B01F910F91FF90EF90DF90CF90BF90AF9072
S11310C09F908F907F906F905F904F903F902F9064
S11310D0089582E394E00E94FB02089580915204F3
S11310E0882369F080914E04833049F48091500440
S11310F0811105C081E080935004109252048091C4
S11311005004089580915204882309F448C08091C2
S11311104E048130B9F49091EE03E92FE695E695FB
S1131120E695F0E0E151FC4F4081977021E030E01A
S1131130B90102C0660F771F9A95E2F7CB01842BA1
S1131140808326C080914E04811118C08091EE03E3
S1131150E82FE695E695E695F0E0E151FC4F4081F5
S1131160877021E030E0B90102C0660F771F8A95CD
S1131170E2F7CB018095842380830AC080914E04DA
S1131180833031F41092EE031092520480E00895FB
S11311908091EE038F5F8093EE031092520480914E
S11311A0EE038B3330F01092EE031092500481E082
S11311B0089580E008956F927F928F929F92AF92EC
S11311C0BF92CF92DF92EF92FF920F931F93CF9330
S11311D0DF9325E140E0E22FE695E695E695F0E021
S11311E0E151FC4F808190E0322F377002C0959519
S11311F087953A95E2F780FD4F5F2F5F2B3359F7C0
S113120040FDB9C2B299FECF1092660010926500FB
S113121010926400109260001092670010926100B6
S1131220109263001092620080E090E005E610E006
S113123041E050E00F2EF4E68F2EF0E09F2EF02DCB
S1131240C0E6D0E00F2EF7E6AF2EF0E0BF2EF02D73
S1131250A1E6B0E00F2EF2E66F2EF0E07F2EF02D27
S1131260D82E9C012B5E3F4F790133231CF467E099
S1131270E60EF11CF594E794F594E794F594E7945D
S1131280F701E151FC4FE080F12C277030783323D3
S113129034F421503109286F3F6F2F5F3F4FB7015E
S11312A002C0759567952A95E2F760FF0BC0F801B7
S11312B0F0809A010D2C02C0220F331F0A94E2F72A
S11312C02F2920839C01235E3F4F790133231CF493
S11312D0F7E0EF0EF11CF594E794F594E794F59498
S11312E0E794B70161517C4FFB01E080F12C27703A
S11312F03078332334F421503109286F3F6F2F5F46
S11313003F4FB70102C0759567952A95E2F760FFD4
S11313100BC0F401F0809A010D2C02C0220F331F80
S11313200A94E2F72F2920839C012C5D3F4F790119
S113133033231CF4F7E0EF0EF11CF594E794F594D5
S1131340E794F594E794B70161517C4FFB01E08089
S1131350F12C27703078332334F421503109286F6D
S11313603F6F2F5F3F4FB70102C0759567952A9570
S1131370E2F760FF0AC0F8809A010D2C02C0220F28
S1131380331F0A94E2F72F2928839C01265D3F4FDF
S1131390790133231CF477E0E70EF11CF594E7940C
S11313A0F594E794F594E794F701E151FC4FE0805C
S11313B0F12C27703078332334F421503109286F0D
S11313C03F6F2F5F3F4FB70102C0759567952A9510
S11313D0E2F760FF0DC0833058F4F501F0809A0104
S11313E00D2C02C0220F331F0A94E2F72F29208309
S11313F09C01235D3F4F790133231CF4F7E0EF0E8A
S1131400F11CF594E794F594E794F594E794B70107
S113141061517C4FFB01E080F12C2770307833233D
S113142034F421503109286F3F6F2F5F3F4FB701CC
S113143002C0759567952A95E2F760FF0AC0FC9093
S11314409A010D2C02C0220F331F0A94E2F72F29B0
S11314502C939C012E5C3F4F790133231CF477E0DD
S1131460E70EF11CF594E794F594E794F594E7946A
S1131470F701E151FC4FE080F12C277030783323E1
S113148034F421503109286F3F6F2F5F3F4FB7016C
S113149002C0759567952A95E2F760FF0DC0F301C8
S11314A0208131817A0102C0EE0CFF1CDA94E2F74C
S11314B02E293F293183208301968430910509F038
S11314C0CFCE28E230E080E090E014E0A5E6B0E082
S11314D06AE070E00F2EF0E68F2EF0E09F2EF02DE4
S11314E00F2EF4E6CF2EF0E0DF2EF02D0F2EF1E6D6
S11314F0AF2EF0E0BF2EF02DE2E6F0E0AC01475E47
S11315005F4F7A0155231CF4C7E0EC0EF11CE70190
S1131510D595C795D595C795D595C795C151DC4F38
S1131520E880F12C47705078552334F44150510928
S1131530486F5F6F4F5F5F4FE70102C0D595C79556
S11315404A95E2F7C0FF0CC0173050F4FC90AB0191
S1131550082E02C0440F551F0A94E2F74F0D4C9316
S1131560AC014F5D5F4F7A0155231CF4D7E0ED0EBB
S1131570F11CE701D595C795D595C795D595C79520
S1131580C151DC4FE880F12C47705078552334F476
S113159041505109486F5F6F4F5F5F4FE70102C0D1
S11315A0D595C7954A95E2F7C0FF33C0163008F0C9
S11315B0E4C0E601F880AB01082E02C0440F551FB9
S11315C00A94E2F74F0D4883A901790133231CF4EF
S11315D0D7E0ED0EF11CE701D595C795D595C795D4
S11315E0D595C795C151DC4FE880F12C47705078F0
S11315F0552334F441505109486F5F6F4F5F5F4F7B
S1131600E70102C0D595C7954A95E2F7C0FD27C00A
S113161031C0A901790133231CF4D7E0ED0EF11C8C
S1131620E701D595C795D595C795D595C795C1516A
S1131630DC4FE880F12C47705078552334F4415046
S11316405109486F5F6F4F5F5F4FE70102C0D59547
S1131650C7954A95E2F7C0FF0DC0163058F4E4016F
S1131660F880AB01082E02C0440F551F0A94E2F71C
S11316704F0D4883AC014F5C5F4F7A0155231CF436
S1131680D7E0ED0EF11CE701D595C795D595C79523
S1131690D595C795C151DC4FE880F12C477050783F
S11316A0552334F441505109486F5F6F4F5F5F4FCA
S11316B0E70102C0D595C7954A95E2F7C0FF0DC072
S11316C0143059F4E501F880AB01082E02C0440F30
S11316D0551F0A94E2F74F0D4883AC014A5C5F4FF3
S11316E07A0155231CF4D7E0ED0EF11CE701D595E2
S11316F0C795D595C795D595C795C151DC4FE88059
S1131700F12C47705078552334F441505109486FF7
S11317105F6F4F5F5F4FE70102C0D595C7954A954C
S1131720E2F7C0FF0DC0408151817B01082E02C049
S1131730EE0CFF1C0A94E2F74E0D5F1D51834083AB
S11317401F5F01962F5F3F4F183009F0D7CEE2E6B6
S1131750F0E0808191818053984F918380838091C0
S1131760F10381FF04C081E08093680016C01092E9
S1131770680081E012C080E010C0A901332314F492
S1131780495F5F4F559547955595479555954795AD
S113179041515C4FEA0148816DCFDF91CF911F9198
S11317A00F91FF90EF90DF90CF90BF90AF909F90FC
S11317B08F907F906F900895B29920C08091EC0330
S11317C09091ED038D3D954058F081E08093520453
S11317D083E080934E041092ED031092EC0304C056
S11317E01092ED031092EC038091EA039091EB03C5
S11317F001969093EB038093EA032BC08091EA0354
S11318009091EB03853B910550F081E08093520465
S113181080934E041092EB031092EA0311C08135B9
S1131820910550F081E08093520410924E0410927E
S1131830EB031092EA0304C01092EB031092EA0344
S11318408091EC039091ED0301969093ED038093C6
S1131850EC030E946E088823A1F00E94820888236A
S113186081F00E94DB08882341F01092510481E04A
S113187080934C0410924D04089510924D041092DC
S11318804C0408950097F1F040E050E078EE63E0F6
S113189016C000000000000000000000000000006E
S11318A00000000000000000000021503109211553
S11318B0310579F74F5F5F4F4817590719F0272F04
S11318C0362FE7CF0895DD980895DD9A08956623AD
S11318D051F0DB98962F982311F0DA9A01C0DA9828
S11318E0DB9A6695B1F70895CF93DF930E94630C5A
S11318F064E085E00E94670C60E480E00E94670C6D
S1131900C0E0D0E0FE01ED5AFB4F808168E00E9408
S1131910670C2196C034D105A9F70E94650CDF91AC
S1131920CF910895CF93C82FF8940E94630C64E07C
S113193084E00E94670C60E88C2F0E94670C61E0D1
S113194081E00E94670C0E94650C7894CF91089501
S1131950CF93C82FD59ADD9AD39AD29A81E00E9468
S1131960920C83E00E94920C88E00E94920C88E121
S11319700E94920C80E20E94920C8C2F0E94920C86
S1131980CF910895803248F5683048F5982F9695A0
S113199096959695E62FF0E0EE0FFF1F20E1929FBB
S11319A0E00DF11D112482FB222720F930E02E0FD7
S11319B03F1FF901ED5AFB4F4081837028E030E06E
S11319C0B90102C0759567958A95E2F7CB01942F0A
S11319D0982381E029F480E0089580E0089580E070
S11319E00895803268F5683058F5982F9370E8E0D0
S11319F0F0E002C0F595E7959A95E2F7982F969551
S1131A009695969570E0660F771F20E1929F600D82
S1131A10711D112482FB222720F930E0260F371F85
S1131A20442339F0D901AD5ABB4F8C91E82BEC9388
S1131A300895D901AD5ABB4F8C91E095E823EC93FE
S1131A4008951F93CF93DF93893108F045C06C3319
S1131A5008F042C09DEC899F212D112426952695DE
S1131A602695C22FC295C07F220F322F330F330F1A
S1131A70230F821BC82B699F212D1124269526959F
S1131A802695D22FD295D07F220F822F880F880FD0
S1131A90280F621BD62B499F912D1124969596955C
S1131AA09695192F1295107F990F892F880F880FFB
S1131AB0980F491B142B82EA0E94130282E00E94B1
S1131AC02502812F0E9425028D2F0E9425028C2F32
S1131AD00E9425020E941D02DF91CF911F9108955B
S1131AE00F931F93CF93DF939FEF980F9F3108F0CD
S1131AF061C0673008F05EC04D3008F05BC02F3D18
S1131B0097E0390708F456C09DEC899F312D1124C4
S1131B10369536953695032F0295007F330F532F54
S1131B20550F550F350F831B082B699F312D112439
S1131B30369536953695132F1295107F330F832FD4
S1131B40880F880F380F631B162B499F312D1124E2
S1131B50369536953695D32FD295D07F330F832F74
S1131B60880F880F380F431BD42B205D299F912D9C
S1131B701124969596959695C92FC295C07F990F75
S1131B80892F880F880F980F291BC22B82EA0E9485
S1131B90130285E00E942502802F0E942502812FD6
S1131BA00E9425028D2F0E9425028C2F0E9425025F
S1131BB00E941D02DF91CF911F910F9108952F92E2
S1131BC03F924F925F926F927F928F929F92AF92C9
S1131BD0BF92CF92DF92EF92FF920F931F93CF9316
S1131BE0DF93789482EA0E94130282E00E94250225
S1131BF083EA0E9409020E9443020F2EFBE68F2E05
S1131C00F0E09F2EF02DF40180830E9443020F2EFA
S1131C10FAE6AF2EF0E0BF2EF02DF50180830E948E
S1131C2043020F2EF9E6CF2EF0E0DF2EF02DF60161
S1131C3080830E9443020F2EFCE6EF2EF0E0FF2E7D
S1131C40F02DF70180830E944302CFE6D0E0888321
S1131C500E9443020DE610E0F80180830E944302D3
S1131C6080936E000E9443020F2EF1E76F2EF0E086
S1131C707F2EF02DF30180830E9443020F2EF2E7A2
S1131C804F2EF0E05F2EF02DF20180830E9443027C
S1131C900F2EF3E72F2EF0E03F2EF02DF10180837D
S1131CA00E944102E4E7F0E080830E941D02F401F7
S1131CB080818F778083F50190819F779083F601EF
S1131CC080818F738083F70120812F732083F80133
S1131CD020812F712083288127702883F30120819C
S1131CE02F772083F20120812F772083F101208137
S1131CF02F772083E4E7F0E020812F772083209161
S1131D00F703821739F0911105C08093F70381E03E
S1131D1080937000DF91CF911F910F91FF90EF900E
S1131D20DF90CF90BF90AF909F908F907F906F90F7
S1131D305F904F903F902F9008951F920F920FB68F
S1131D400F9211242F938F939F9380915104882392
S1131D5091F0B29902C0949801C0949A81E0809362
S1131D604F0480911E0490911F04019690931F04C8
S1131D7080931E045EC08091160482FF06C0809189
S1131D80160484608093160401C0949A809116040A
S1131D9085FF0AC080911A0490911B0401969093C8
S1131DA01B0480931A0404C010921B0410921A049A
S1131DB010925104809124049091250401969093EB
S1131DC02504809324048091240490912504883E62
S1131DD0934048F010922504109224048091010449
S1131DE08F5F80930104809101048C3338F010924A
S1131DF00104809100048F5F809300048091220489
S1131E00909123040196909323048093220480915B
S1131E102604909127040196909327048093260426
S1131E208091180490911904019690931904809359
S1131E3018049F918F912F910F900FBE0F901F90B8
S1131E401895AF92BF92CF92DF92EF92FF920F93C9
S1131E501F93CF93DF9300D01F92CDB7DEB78B8350
S1131E605B0106EC10E00F2EFCE6CF2EF1E0DF2E36
S1131E70F02D42E050E0B801CE0101960E943235C7
S1131E80E980FA8041E050E0B701CE0103960E9458
S1131E902535892B39F447E050E0B701C5010E948C
S1131EA0323509C00E5F1F4F0C151D0511F7B50122
S1131EB08FE30E94210F0F900F900F90DF91CF912D
S1131EC01F910F91FF90EF90DF90CF90BF90AF9054
S1131ED008953F924F925F926F927F928F929F925A
S1131EE0AF92BF92CF92DF92EF92FF920F931F9324
S1131EF0CF93DF93CDB7DEB727970FB6F894DEBF45
S1131F000FBECDBF462EBE016F5F7F4F0E94210FD3
S1131F103A800F2EF7E0AF2EB12CF02D8824839455
S1131F20912C642C630CCE018095909502977C01D2
S1131F30E40CF11C20C0C701800F911F809794F41A
S1131F40F801808190E08C219D21892B31F041E0C2
S1131F50652D872D0E94F10C05C040E0652D872D6D
S1131F600E94F10C73940F5F1F4F7610E4CFF1E0E1
S1131F70AF1AB10888F087E0582E5A183320B9F305
S1131F8064010A2C02C0CC0CDD1C0A94E2F78E0119
S1131F900D5F1F4F742CCFCF10E0430C40E0612F36
S1131FA0842D0E94F10C1F5F1830C1F727960FB6DD
S1131FB0F894DEBF0FBECDBFDF91CF911F910F917B
S1131FC0FF90EF90DF90CF90BF90AF909F908F9055
S1131FD07F906F905F904F903F900895CF93DF93E1
S1131FE0D82FC62F82958F7061E0805D0E94690FA3
S1131FF08D2F8F7067E0805D0E94690F8C2F829512
S11320008F7063E1805D0E94690F8C2F8F7069E18E
S1132010805D0E94690FDF91CF9108950F931F9304
S1132020CF93DF9310E000E016C0DC2FC1E0CD0FAA
S1132030612F8C2F0E94C20C482F612F8D2F0E947C
S1132040F10CCF3191F7402F612F8FE10E94F10CF9
S11320501F5F183011F0D02FE9CFDF91CF911F917E
S11320600F910895FF920F931F93CF93DF9310E086
S1132070F12C0FC06D2F8C2F0E94C20C482F612FA2
S11320808C2F0E94F10CCF5FC032A1F7D73029F01A
S11320901D2FCF2DD1E0D10FEDCFC0E040E067E0A0
S11320A08C2F0E94F10CCF5FC032C1F7DF91CF912A
S11320B01F910F91FF9008956FE080E20E94690FD5
S11320C00895CF93DF93CDB7DEB727970FB6F89473
S11320D0DEBF0FBECDBF1A82BE016F5F7F4F0E946D
S11320E0210F8A8127960FB6F894DEBF0FBECDBFAD
S11320F0DF91CF9108956FE08AE30E94690F0895FC
S113210080912204909123048032934010F00E9425
S11321107B1080912204909123048C3D954030F0F3
S113212010922304109222040E945C10089580E00F
S113213090E0FC01ED5AFB4F10820196803491052A
S1132140C1F70895CF92DF92EF92FF920F931F93FE
S1132150CF93DF93C82F0E94971000E0C12CDD2499
S1132160D394D0E019C0602F812F0E94C20C4D2D52
S1132170481B602F812F0E94F10CFC2EED2ECE0106
S11321800E94420C1F5F103271F70F5F083021F478
S1132190D0E000E011E016C01C2DE5CF6D2F8C2F90
S11321A00E94C20C412F481B6D2F8C2F0E94F10CF2
S11321B08F2D9E2D0E94420CCF5FC03279F7DF5FD6
S11321C0D83011F0C02FEACFDF91CF911F910F913A
S11321D0FF90EF90DF90CF9008956F927F928F924F
S11321E09F92AF92BF92CF92DF92EF92FF920F93A2
S11321F01F93CF93DF93EC01862E0E9497108110DA
S113220004C00F2EFAE58F2EF02D8881882309F45F
S11322107CC0109225041092240410920104809131
S11322200B048230D1F08091160486FF1EC015C0C5
S113223010922504109224041092010480910B043E
S1132240823059F0809116049FEFE91AF90A0F5F62
S11322501F4F86FD02C0872D1BC0809116048F7B03
S1132260809316040E94971068C07E01EFEFEE1A67
S1132270FE0A8E016894AA24A5F880E0912CB12C62
S11322800F2EFFE16F2EF02DC82DD0E0772473942C
S1132290882309F44DC0FFE1F9150CF044C0DB2C90
S11322A0B92CCE010E94420C0E940E101B1414F48F
S11322B0DA94BA946D2D8A2D0E94690F8FE18B15E3
S11322C084F332C06B2D8A2D0E94690F8A2D0E94DF
S11322D061108F5F982E9B0CF60180818111A8CF2D
S11322E0FFE1F91594F4082D10E0C8010E94420C96
S11322F00E940E10191414F4BA949A946B2D8A2D1A
S11323000E94690F8FE1891584F3C82DD0E0CE01B6
S11323100E94420C10E20E940E10CE010E94420C58
S11323201150C9F70AC0B92CF801A0806701CACFBF
S1132330F801A0806701B62CC5CFDF91CF911F9122
S11323400F91FF90EF90DF90CF90BF90AF909F9050
S11323508F907F906F9008950F93CF93DF93CDB7B5
S1132360DEB76E970FB6F894DEBF0FBECDBF982FC1
S1132370822F1092230410922204292F22952F7069
S1132380205D29839F70905D9A839EE29B83262F14
S113239022952F70205D2C836F70605D6D839E830A
S11323A022E32F8320E32887242F22952F70205D9A
S11323B029874F70405D4A879B87909168009130D0
S11323C051F09DE49C8795E49D879AE59E8790E271
S11323D09F87988B0AC09DE49C8795E49D8793E52D
S11323E09E879AE59F8790E2988B90E087309105CD
S11323F008F078C0FC01E65DFF4F0C94FD3483E5E2
S1132400898B8FE68A8B8EE68B8B8C8B84E78D8B06
S113241081E68E8B87E68F8B188E64C08DE4898B62
S11324208FE68A8B8EE68B8B84E78C8B81E68D8B93
S113243087E68E8B1F8A56C084E4898B89E68A8B53
S113244085E68B8B8EE68C8B83E78D8B84E78E8B76
S113245081E68F8B87E6888F198E44C08DE4898B43
S113246089E68A8B84E78B8B8C8B87E78D8B8FE651
S11324708E8B83E68F8B88E6888F198E33C084E435
S1132480898B8FE68A8B8EE68B8B8C8B85E68D8B86
S113249082E78E8B83E78F8B84E7888F81E6898F31
S11324A087E68A8F1B8E1EC086E4898B82E78A8B1F
S11324B085E68B8B89E68C8B84E78D8B81E68E8B0E
S11324C087E68F8B188E0EC083E5898B81E68A8B15
S11324D09DE69B8B93E79C8B94E79D8B8E8B87E685
S11324E08F8B188E602FCE0101960E94ED106E9690
S11324F00FB6F894DEBF0FBECDBFDF91CF910F9121
S113250008951F93CF93DF93CDB7DEB7A6970FB689
S1132510F894DEBF0FBECDBF182F10922304109283
S1132520220428E434E03F932F932DB73EB726517D
S113253031090FB6F8943EBF0FBE2DBFADB7BEB77D
S1132540119686E1E2E3F4E001900D928A95E1F7B9
S11325500E94F3038091A5040FB6F894DEBF0FBE6A
S1132560CDBF80FF56C0409148045091490460910A
S11325704A0470914B0414161506160617064CF4FB
S113258088E1E5ECF0E0DE01119601900D928A9568
S1132590E1F77723C4F488E1EDEDF0E0DE01119674
S11325A001900D928A95E1F770956095509541954B
S11325B05F4F6F4F7F4F409348045093490460939B
S11325C04A0470934B0460914804709149048091CB
S11325D04A0490914B042AE030E040E050E00E942D
S11325E0DE349F938F937F936F935F934F933F93C7
S11325F02F9385EF90E09F938F93CE0101969F9345
S11326008F930E9460350FB6F894DEBF0FBECDBF26
S113261009C085E2E5E1F1E0DE01119601900D9239
S11326208A95E1F7612FCE0101960E94ED10A696DE
S11326300FB6F894DEBF0FBECDBFDF91CF911F91CF
S113264008953F924F925F926F927F928F929F92E2
S1132650AF92BF92CF92DF92EF92FF920F931F93AC
S1132660CF93DF93CDB7DEB7A6970FB6F894DEBF4E
S11326700FBECDBF382E10922304109222040F2EC9
S1132680FCE2AF2EF4E0BF2EF02D0F2EF0E3CF2EA0
S1132690F4E0DF2EF02D0F2EF8E4EF2EF4E0FF2E01
S11326A0F02D0F2EF3E08F2EF02D08E214E00F2E04
S11326B0F6E19F2EF02DBF92AF92DF92CF92FF9260
S11326C0EF928F921F930F932DB73EB72651310986
S11326D00FB6F8943EBF0FBE2DBFADB7BEB711966F
S11326E0E2E3F4E0892D01900D928A95E1F70E94CE
S11326F0D104609128047091290480912A04909156
S11327002B040E94BD332AE037ED43E25CE30E94D0
S113271021340E948A332B013C0160932804709376
S1132720290480932A0490932B04DC01CB0180526A
S11327309340A109B1090FB6F894DEBF0FBECDBF17
S11327408D329140A105B10508F0B5CF8091A50463
S113275080FF23C087E1EAE3F1E08E010F5F1F4FA2
S1132760D80101900D928A95E1F7F80101900020BB
S1132770E9F7BF01615071094AE0C2010E943B358B
S1132780D8010D900020E9F7119786E0E6E7F0E024
S113279001900D928A95E1F709C085E2E1E5F1E047
S11327A0DE01119601900D928A95E1F7632DCE0119
S11327B001960E94ED1010920B04A6960FB6F894A1
S11327C0DEBF0FBECDBFDF91CF911F910F91FF9060
S11327D0EF90DF90CF90BF90AF909F908F907F90BD
S11327E06F905F904F903F900895982F81E0890FEC
S11327F0282F2F702A3011F487E0890F681708F406
S113280080E008959FEF980F292F2F702F3011F437
S113281099EF980F892F691708F4862F0895CF939D
S1132820C82F811101C0C1E08C2F82958F7065E1A2
S1132830805D0E94690F8C2F8F706BE1805D0E9418
S1132840690FCF910895982F92959F70990F292F12
S1132850220F220F920F8F70890F0895CF93C82FE4
S1132860F89483E00E94920C88E00E94920C8C2FD2
S11328700E94920C7894CF9108951F93CF93DF9385
S11328800E94971080E090E00E94543780930A04DD
S1132890D0910A0412E0C1E080910B04833049F422
S11328A010920B040E94971080910A048F5F80930A
S11328B00A0480910B04843049F410920B040E94A2
S11328C0971080910A04815080930A0480910B042C
S11328D0823029F410920B040E94971069C08091F1
S11328E00A04833010F010930A0480910A048111C1
S11328F002C0C0930A0480910A04813019F0823026
S1132900A9F02BC06C2F8FE40E94690F67E08EE65C
S11329100E94690FD13029F46BE187EA0E94690FA4
S11329201CC06BE185E20E94690F17C06C2F8FE415
S11329300E94690F67E086E60E94690F6EE086E6F2
S11329400E94690FD23029F46BE187EA0E94690F73
S113295004C06BE185E20E94690F80910B0485300D
S113296009F09ACF10920B0480910A04813019F077
S1132970823061F015C08091160481608093160442
S11329806AE086E791E00E94ED100AC08091160487
S11329908E7F809316046AE086E791E00E94ED1032
S11329A00E94971060910A0480E090E00E945C37D6
S11329B010920B04DF91CF911F9108951F93CF9331
S11329C0DF930E94971083E090E00E945437809335
S11329D01204809112048093090482E090E00E9422
S11329E05437182FC1E0DFE090910B04933049F481
S11329F010920B040E949710809112048F5F8093B1
S1132A00120490910B04943049F410920B040E9428
S1132A109710909112049150909312049091120483
S1132A20911102C0C093120490911204903110F0DD
S1132A30D09312044091120450E0FA013197EF3020
S1132A40F10508F056C1EF5CFF4F0C94FD346C2F78
S1132A5081E30E94690F80EA0E94920C809109042C
S1132A60813029F46BE187EA0E94690F42C16BE16E
S1132A7085E20E94690F3DC16C2F82E30E94690FB9
S1132A8081EA0E94920C80910904823029F46BE15E
S1132A9087EA0E94690F2DC16BE185E20E94690FEC
S1132AA028C16C2F83E30E94690F82EA0E94920C72
S1132AB080910904833029F46BE187EA0E94690F4D
S1132AC018C16BE185E20E94690F13C16C2F84E386
S1132AD00E94690F83EA0E94920C80910904843059
S1132AE029F46BE187EA0E94690F03C16BE185E277
S1132AF00E94690FFEC06C2F85E30E94690F84EA6F
S1132B000E94920C80910904853029F46BE187EAD4
S1132B100E94690FEEC06BE185E20E94690FE9C073
S1132B206C2F86E30E94690F85EA0E94920C8091C3
S1132B300904863029F46BE187EA0E94690FD9C041
S1132B406BE185E20E94690FD4C06C2F87E30E9479
S1132B50690F86EA0E94920C80910904873029F457
S1132B606BE187EA0E94690FC4C06BE185E20E94B1
S1132B70690FBFC06C2F88E30E94690F87EA0E9427
S1132B80920C80910904883029F46BE187EA0E9451
S1132B90690FAFC06BE185E20E94690FAAC06C2F78
S1132BA089E30E94690F88EA0E94920C80910904CB
S1132BB0893029F46BE187EA0E94690F9AC06BE1BE
S1132BC085E20E94690F95C06C2F81E30E94690F12
S1132BD067E080E30E94690F89EA0E94920C809169
S1132BE009048A3029F46BE187EA0E94690F81C0E5
S1132BF06BE185E20E94690F7CC06C2F81E30E9427
S1132C00690F67E081E30E94690F8AEA0E94920CCF
S1132C10809109048B3029F46BE187EA0E94690FE3
S1132C2068C06BE185E20E94690F63C06C2F81E389
S1132C300E94690F67E082E30E94690F8BEA0E9499
S1132C40920C809109048C3029F46BE187EA0E948C
S1132C50690F4FC06BE185E20E94690F4AC06C2F77
S1132C6081E30E94690F67E083E30E94690F8CEAA5
S1132C700E94920C809109048D3029F46BE187EA5B
S1132C800E94690F36C06BE185E20E94690F31C072
S1132C906C2F81E30E94690F67E084E30E94690F4F
S1132CA08DEA0E94920C809109048E3029F46BE124
S1132CB087EA0E94690F1DC06BE185E20E94690FDB
S1132CC018C06C2F81E30E94690F67E085E30E94BE
S1132CD0690F8EEA0E94920C809109048F3029F4C6
S1132CE06BE187EA0E94690F04C06BE185E20E94F0
S1132CF0690F90910B04953009F06DC010920B048C
S1132D000E9497108091120490E0FC013197EF30FB
S1132D10F10508F04FC0E05CFF4F0C94FD3480EAED
S1132D200E94920C60EA47C081EA0E94920C61EA18
S1132D3042C082EA0E94920C62EA3DC083EA0E9489
S1132D40920C63EA38C084EA0E94920C64EA33C0AD
S1132D5085EA0E94920C65EA2EC086EA0E94920CD3
S1132D6066EA29C087EA0E94920C67EA24C088EACE
S1132D700E94920C68EA1FC089EA0E94920C69EAD8
S1132D801AC08AEA0E94920C6AEA15C08BEA0E9471
S1132D90920C6BEA10C08CEA0E94920C6CEA0BC095
S1132DA08DEA0E94920C6DEA06C08EEA0E94920C93
S1132DB06EEA01C060E082E090E00E945C376091BE
S1132DC0120483E090E00E945C376AE083E891E0BB
S1132DD00E94ED100CC090910B04923009F004CEC7
S1132DE010920B04812F0E94920C0E949710109253
S1132DF00B04DF91CF911F9108950F931F93CF93ED
S1132E00DF930E94971080916900E4E6F0E08083EC
S1132E1080916A00A5E6B0E08C936C9180810E9459
S1132E20EE0F0E947B1010920B04C4E6D0E005E67E
S1132E3010E080910B04833081F4109227041092E7
S1132E40260410920B04888163E20E94F5138883A0
S1132E50F801608188810E94EE0F80910B04843018
S1132E6081F4109227041092260410920B04888196
S1132E7063E20E9402148883F801608188810E94C1
S1132E80EE0F80910B04853019F410920B042FC0BF
S1132E90809126049091270484389340D0F01092B6
S1132EA027041092260461E080E60E94690F67E01F
S1132EB080E60E94690F2FEF81EE94E0215080405C
S1132EC09040E1F700C00000F801608188810E9411
S1132ED0EE0F80910B04823009F0ABCF10920B04FB
S1132EE00E94971080911604806480931604C5E6AE
S1132EF0D0E004E610E080910B04833081F410925A
S1132F0027041092260410920B04888169E50E941C
S1132F10F51388836881F80180810E94EE0F809107
S1132F200B04843081F4109227041092260410922A
S1132F300B04888169E50E94021488836881F80182
S1132F4080810E94EE0F80910B04853021F5109250
S1132F500B04C4E6D0E088810E942314888305E62C
S1132F6010E0F80180810E942314F80180834091CD
S1132F706600608188810E94210D6AE086E791E005
S1132F800E94ED1010922504109224041092010462
S1132F900E94971032C080912604909127048438AF
S1132FA09340D0F0109227041092260463E180E647
S1132FB00E94690F69E180E60E94690F2FEF81EE9C
S1132FC094E0215080409040E1F700C00000688107
S1132FD0F80180810E94EE0F80910B04823021F071
S1132FE08091160486FF87CF10920B040E949710DD
S1132FF0809116048F7B8093160410920B04DF914A
S1133000CF911F910F910895CF92DF92EF92FF928B
S11330100F931F93CF93DF930E94971081E00E9438
S11330200F1460E084E40E94690F66E081E60E9468
S1133030690F6CE089E70E94690F62E18AE30E94EC
S1133040690F81E08093600010920B04C0E6D0E029
S113305080910B04833071F410920B0410922704B6
S113306010922604888161E30E94F5138883888185
S11330700E940F1480910B04843071F410920B049D
S11330801092270410922604888161E30E9402149E
S1133090888388810E940F1480910B04853031F459
S11330A010920B0480E00E940F142DC0809126041E
S11330B09091270484389340C0F010922704109212
S11330C0260465E180E60E94690F6BE180E60E94B8
S11330D0690F8FEF91EEE4E081509040E040E1F71A
S11330E000C0000088810E940F1480910B0482307C
S11330F009F0AECF10920B040E9497108091160431
S113310080648093160460E08DE40E94690F66E099
S11331108FE60E94690F6CE08EE60E94690F62E1FF
S11331208AE30E94690F81E080936100C1E6D0E0E8
S113313080910B04833071F410920B0410922704D5
S113314010922604888162E10E94F51388838881A5
S11331500E940F1480910B04843071F410920B04BC
S11331601092270410922604888162E10E940214BE
S1133170888388810E940F1480910B04853031F478
S113318010920B0480E00E940F1430C0809126043A
S11331909091270484389340C0F010922704109231
S11331A0260465E180E60E94690F6BE180E60E94D7
S11331B0690F2FEF81EE94E0215080409040E1F7B9
S11331C000C0000088810E940F1480910B0482309B
S11331D021F08091160486FFABCF10920B040E945D
S11331E097108091160480648093160460E089E54A
S11331F00E94690F66E085E60E94690F6CE081E633
S11332000E94690F62E18AE30E94690F81E090E005
S11332109093630080936200C2E6D0E080910B0437
S1133220833071F410920B048881998169E90E94BA
S1133230F51390E099838883888199810E940F1403
S113324080910B04843071F410920B04888199816D
S113325069E90E94021490E09983888388819981A6
S11332600E940F1480910B04853029F410920B04F2
S11332700E94971031C080912604909127048438CD
S11332809340C8F0109227041092260465E180E66A
S11332900E94690F6BE180E60E94690FFFEF21EE47
S11332A084E0F15020408040E1F700C000008881B4
S11332B099810E940F1480910B04823021F0809137
S11332C0160486FFABCF10920B040E9497108091D6
S11332D01604806480931604C1E011E0D2E0C1308A
S11332E019F0C23091F01EC067E08DE40E94690FAE
S11332F06DE085E40E94690F63E183E50E94690F34
S113330069E18AE50E94690F10C06DE08DE40E94B6
S1133310690F63E185E40E94690F69E18AE50E940F
S1133320690F03C0C11101C0C12FC33008F0CD2FF4
S113333080910B04833029F410920B040E9497109F
S1133340CF5F80910B04843029F410920B040E9407
S11333509710C15080910B04853069F410920B04CE
S1133360C13021F481E08093680016C0C230A1F41A
S11333701092680011C080910B04823021F080917A
S1133380160486FFACCF10920B040E949710809114
S113339016048064809316048091160486FD05C08B
S11333A064E18BE991E00E94ED1081E08093670075
S11333B0C7E6D0E080910B04833049F410920B04EB
S11333C00E949710888166E00E94F513888380919B
S11333D00B04843049F410920B040E9497108881E6
S11333E066E00E940214888380910B04853009F002
S11333F04FC010920B040F2EF7E6EF2EF0E0FF2ED5
S1133400F02DF70180810E942314F701808300E6E8
S113341010E0F80180810E942314F80180830F2EAC
S1133420F1E6CF2EF0E0DF2EF02DF60180810E9430
S11334302314F6018083C2E6D0E0888199810E943A
S1133440231490E099838883888199818053984FCD
S11334509983888328813981F6014081F70160814D
S1133460F80180810E94700D6091680086E190E00F
S11334700E945C376AE086E791E00E94ED101092AA
S1133480250410922404109201040E9497105AC03B
S1133490888190E08730910508F043C0FC01E15B2E
S11334A0FF4F0C94FD3463E183E50E94690F69E1E9
S11334B08FE60E94690F35C063E18DE40E94690FB5
S11334C069E18FE60E94690F2CC063E184E40E94E5
S11334D0690F69E189E60E94690F23C063E18DE405
S11334E00E94690F69E189E60E94690F1AC063E1CD
S11334F084E40E94690F69E18FE60E94690F11C09C
S113350063E186E40E94690F69E182E70E94690F22
S113351008C063E183E50E94690F69E181E60E94C6
S1133520690F80910B04823021F08091160486FF8C
S113353041CF10920B040E949710809116048F7B48
S11335408093160410920B04DF91CF911F910F9179
S1133550FF90EF90DF90CF9008951F93CF93DF9368
S11335600E949710D091130412E0C1E080910B04E3
S1133570833049F410920B040E9497108091130435
S11335808F5F8093130480910B04843049F410926C
S11335900B040E94971080911304815080931304AC
S11335A080910B04823029F410920B040E9497102E
S11335B067C080911304833010F01093130480913A
S11335C01304811102C0C093130480911304813049
S11335D019F08230A9F02BC06C2F8FE40E94690F80
S11335E067E08EE60E94690FD13029F46BE187EA27
S11335F00E94690F1CC06BE185E20E94690F17C02D
S11336006C2F8FE40E94690F67E086E60E94690FC1
S11336106EE086E60E94690FD23029F46BE187EAF6
S11336200E94690F04C06BE185E20E94690F8091DA
S11336300B04853009F09ACF10920B048091130487
S1133640813019F0823061F015C0809116048260D7
S1133650809316046AE086E791E00E94ED100AC0A8
S1133660809116048D7F809316046AE086E791E0CA
S11336700E94ED106091130481E090E00E945C3799
S113368010920B04DF91CF911F910895CF93DF9394
S11336900E94971085E190E00E94543780930804BB
S11336A084E190E00E9454378093070460910704FA
S11336B0809108040E94EE0F0E947B1010920B046C
S11336C080910B04833099F410920B041092270418
S11336D0109226048091080463E20E94F5138093FB
S11336E0080460910704809108040E94EE0F809101
S11336F00B04843099F410920B0410922704109256
S113370026048091080463E20E9402148093080452
S113371060910704809108040E94EE0F80910B04CD
S1133720853019F410920B0430C0809126049091D6
S1133730270484389340D8F010922704109226046A
S113374061E080E60E94690F67E080E60E94690FED
S11337508FEF91EE24E0815090402040E1F700C0CB
S1133760000060910704809108040E94EE0F80918C
S11337700B04823009F0A4CF10920B040E9497101E
S11337808091160480648093160480910B04833026
S113379099F410920B04109227041092260480913D
S11337A0070469E50E94F5138093070460910704F8
S11337B0809108040E94EE0F80910B04843099F4E8
S11337C010920B041092270410922604809107048F
S11337D069E50E94021480930704609107048091B4
S11337E008040E94EE0F80910B04853059F4109266
S11337F00B041092250410922404109201040E94D8
S1133800971033C080912604909127048438934004
S1133810D8F0109227041092260463E180E60E94F7
S1133820690F69E180E60E94690F8FEF91EE24E051
S1133830815090402040E1F700C0000060910704EF
S1133840809108040E94EE0F80910B04823021F0D5
S11338508091160486FF99CF10920B040E94971052
S113386080911604806480931604C0E0D2E08091B5
S11338700B04833029F40E94971010920B04CF5F3D
S113388080910B04843029F40E94971010920B0449
S1133890C150CC2341F0C33008F0CD2FC13021F00A
S11338A0C230A1F028C0C1E061E081E40E94690F48
S11338B067E08EE60E94690F63E181E20E94690F6E
S11338C08091150481608093150415C061E081E442
S11338D00E94690F67E085E70E94690F6DE083E746
S11338E00E94690F63E181E20E94690F80911504CF
S11338F08E7F8093150480910B04853011F510920E
S11339000B046091080485E190E00E945C376091AB
S1133910070484E190E00E945C376091150485E01F
S113392090E00E945C376AE08FEA91E00E94ED101B
S11339301092250410922404109201040E949710FE
S113394011C080910B04823021F08091160486FF0F
S11339508ECF10920B040E949710809116048F7BD7
S11339608093160410920B04DF91CF910895CF93A6
S1133970DF930E94971083E190E00E945437809374
S1133980110482E190E00E94543780931004609106
S11339901004809111040E94EE0F0E947B1010927B
S11339A00B0480910B04833099F410920B04109251
S11339B02704109226048091110463E20E94F513F7
S11339C08093110460911004809111040E94EE0F01
S11339D080910B04843099F410920B041092270404
S11339E0109226048091110463E20E9402148093D1
S11339F0110460911004809111040E94EE0F8091D3
S1133A000B04853019F410920B0430C08091260405
S1133A109091270484389340D8F010922704109290
S1133A20260461E080E60E94690F67E080E60E9458
S1133A30690F8FEF91EE24E0815090402040E1F730
S1133A4000C0000060911004809111040E94EE0FE8
S1133A5080910B04823009F0A4CF10920B040E94D1
S1133A6097108091160480648093160480910B044F
S1133A70833099F410920B041092270410922604B8
S1133A808091100469E50E94F513809310046091FD
S1133A901004809111040E94EE0F80910B04843075
S1133AA099F410920B04109227041092260480912A
S1133AB0100469E50E9402148093100460911004BC
S1133AC0809111040E94EE0F80910B04853059F40B
S1133AD010920B04109225041092240410920104F5
S1133AE00E94971033C08091260490912704843853
S1133AF09340D8F0109227041092260463E180E6E4
S1133B000E94690F69E180E60E94690F8FEF91EED0
S1133B1024E0815090402040E1F700C00000609113
S1133B201004809111040E94EE0F80910B048230E6
S1133B3021F08091160486FF99CF10920B040E9405
S1133B40971080911604806480931604C0E0D2E03C
S1133B5080910B04833029F410920B040E94971077
S1133B60CF5F80910B04843029F410920B040E94DF
S1133B709710C150CC2341F0C33008F0CD2FC13091
S1133B8021F0C230A1F028C0C1E061E081E40E94CC
S1133B90690F67E08EE60E94690F63E181E20E948B
S1133BA0690F8091150482608093150415C061E04B
S1133BB081E40E94690F67E085E70E94690F6DE068
S1133BC083E70E94690F63E181E20E94690F80919B
S1133BD015048D7F8093150480910B04853011F5B5
S1133BE010920B046091110483E190E00E945C3711
S1133BF06091100482E190E00E945C3760911504AA
S1133C0085E090E00E945C376AE084EC91E00E94D9
S1133C10ED101092250410922404109201040E94C5
S1133C20971011C080910B04823021F0809116040A
S1133C3086FF8ECF10920B040E9497108091160479
S1133C408F7B8093160410920B04DF91CF9108951B
S1133C50CF93DF930E94971081E190E00E94543744
S1133C6080930F0480E190E00E94543780930E0407
S1133C7060910E0480910F040E94EE0F0E947B104D
S1133C8010920B0480910B04833099F410920B046E
S1133C90109227041092260480910F0463E20E947C
S1133CA0F51380930F0460910E0480910F040E9419
S1133CB0EE0F80910B04843099F410920B0410924F
S1133CC027041092260480910F0463E20E940214D8
S1133CD080930F0460910E0480910F040E94EE0FF4
S1133CE080910B04853019F410920B0433C0809139
S1133CF026049091270484389340D8F01092270426
S1133D001092260461E080E60E94690F67E080E675
S1133D100E94690F8FEF91EE24E081509040204083
S1133D20E1F700C0000060910E0480910F040E942E
S1133D30EE0F80910B04823021F08091160486FFEF
S1133D40A1CF10920B040E949710809116048064F6
S1133D508093160480910B04833099F410920B0421
S1133D60109227041092260480910E0469E50E94A3
S1133D70F51380930E0460910E0480910F040E9449
S1133D80EE0F80910B04843099F410920B0410927E
S1133D9027041092260480910E0469E50E940214FF
S1133DA080930E0460910E0480910F040E94EE0F24
S1133DB080910B04853029F410920B040E94971013
S1133DC033C0809126049091270484389340D8F01E
S1133DD0109227041092260463E180E60E94690F82
S1133DE069E180E60E94690F8FEF91EE24E0815033
S1133DF090402040E1F700C0000060910E048091E3
S1133E000F040E94EE0F80910B04823021F0809108
S1133E10160486FF9FCF10920B040E949710809186
S1133E201604806480931604C0E0D2E080910B04F1
S1133E30833029F410920B040E949710CF5F809175
S1133E400B04843029F410920B040E949710C15083
S1133E50CC2341F0C33008F0CD2FC13021F0C23063
S1133E60A1F028C0C1E061E081E40E94690F67E02D
S1133E708EE60E94690F63E181E20E94690F8091DE
S1133E80150484608093150415C061E081E40E94E8
S1133E90690F67E085E70E94690F6DE083E70E9480
S1133EA0690F63E181E20E94690F809115048B7FA1
S1133EB08093150480910B04853011F510920B0446
S1133EC060910F0481E190E00E945C3760910E04E0
S1133ED080E190E00E945C376091150485E090E0F9
S1133EE00E945C376AE08AED91E00E94ED10109226
S1133EF0250410922404109201040E94971011C00A
S1133F0080910B04823021F08091160486FF8ECFBD
S1133F1010920B040E949710809116048F7B80935B
S1133F20160410920B04DF91CF910895CF93DF9381
S1133F300E9497108FE090E00E94543780930D0404
S1133F408EE090E00E94543780930C0460910C043E
S1133F5080910D040E94EE0F0E947B1010920B04BE
S1133F6080910B04833099F410920B04109227046F
S1133F701092260480910D0463E20E94F51380934D
S1133F800D0460910C0480910D040E94EE0F809149
S1133F900B04843099F410920B04109227041092AD
S1133FA0260480910D0463E20E94021480930D04A0
S1133FB060910C0480910D040E94EE0F80910B041B
S1133FC0853019F410920B0430C08091260490912E
S1133FD0270484389340D8F01092270410922604C2
S1133FE061E080E60E94690F67E080E60E94690F45
S1133FF08FEF91EE24E0815090402040E1F700C023
S1134000000060910C0480910D040E94EE0F8091D9
S11340100B04823009F0A4CF10920B040E94971075
S11340208091160480648093160480910B0483307D
S113403099F410920B041092270410922604809194
S11340400C0469E50E94F51380930C0460910C0440
S113405080910D040E94EE0F80910B04843099F43A
S113406010920B04109227041092260480910C04E1
S113407069E50E94021480930C0460910C04809101
S11340800D040E94EE0F80910B04853049F41092C8
S11340900B0410922504109224040E94971033C03C
S11340A0809126049091270484389340D8F010928C
S11340B027041092260463E180E60E94690F69E1F7
S11340C080E60E94690F8FEF91EE24E081509040CA
S11340D02040E1F700C0000060910C0480910D04C1
S11340E00E94EE0F80910B04823021F0809116041F
S11340F086FF9BCF10920B040E94971080911604A8
S1134100806480931604C0E0D2E080910B04833075
S113411029F40E94971010920B04CF5F80910B0436
S1134120843029F40E94971010920B04C150CC23C0
S113413041F0C33008F0CD2FC13021F0C230A1F0DE
S113414028C0C1E061E081E40E94690F67E08EE667
S11341500E94690F63E181E20E94690F8091150456
S113416088608093150415C061E081E40E94690FA2
S113417067E085E70E94690F6DE083E70E94690F9D
S113418063E181E20E94690F80911504877F809327
S1134190150480910B04853011F510920B04609185
S11341A00D048FE090E00E945C3760910C048EE077
S11341B090E00E945C376091150485E090E00E94D5
S11341C05C376AE081EF91E00E94ED1010922504C3
S11341D010922404109201040E94971011C080913F
S11341E00B04823021F08091160486FF8ECF10924A
S11341F00B040E949710809116048F7B8093160401
S113420010920B04DF91CF9108950E94DF0D8091ED
S1134210150480FF25C080910804909169009813CB
S11342201AC08091070490916A00981314C0809179
S11342306B00823080F480911604886080931604A9
S11342408091150480618093150480911604806424
S11342508093160405C0809115048F7E8093150405
S11342608091150481FF25C080911104909169000B
S113427098131AC08091100490916A00981314C086
S113428080916B00823080F4809116048860809362
S1134290160480911504806280931504809116049D
S11342A080648093160405C0809115048F7D8093EB
S11342B015048091150482FF25C080910F0490910C
S11342C0690098131AC080910E0490916A009813A3
S11342D014C080916B00823080F480911604886051
S11342E08093160480911504806480931504809152
S11342F0160480648093160405C0809115048F7B96
S1134300809315048091150483FF25C080910D04CA
S11343109091690098131AC080910C0490916A00DE
S1134320981314C080916B00823080F4809116043D
S11343308860809316048091150480688093150426
S11343408091160480648093160405C0809115043E
S11343508F77809315048091160483FF05C08091A4
S113436016048064809316040895CF9380911604F4
S113437083FFDFC00E947B1089E00E94920C609151
S11343806A00809169000E94EE0F80911604846097
S113439080931604C5E099C08091160480FDC39AE9
S11343A02FEF33ED80E3215030408040E1F700C02F
S11343B00000C3988C2F94989091160490FDC39A92
S11343C09091160491FDC49A9FEF22E537E0915035
S11343D020403040E1F700C00000949AC398C4988C
S11343E09FEF22E537E0915020403040E1F700C0D4
S11343F000009A9B08C09B9B06C09C9B04C09D9B8D
S113440002C09E9923C080911604877F809316046E
S113441080911604806180931604809115048F7E28
S113442080931504809115048F7D809315048091E9
S113443015048F7B80931504809115048F778093E6
S11344401504809112040E942E1403C0815009F0B7
S1134450B2CF809114048F5F80931404809116046A
S11344608460809316049A9B08C09B9B06C09C9B07
S113447004C09D9B02C09E9928C080911604877F2A
S113448080931604809116048061809316048091B1
S113449016048B7F80931604809115048F7E80937D
S11344A01504809115048F7D809315048091150463
S11344B08F7B80931504809115048F778093150466
S11344C0809112040E942E140BC0909114048091C8
S11344D00204981708F460CF8091160484FD5CCF21
S11344E01092140480911604877F8093160480919F
S11344F016048F7E80931604809116048B7F80931C
S11345001604809115048F7E809315048091150400
S11345108F7D80931504809115048F7B80931504FF
S1134520809115048F7780931504809112040E9462
S11345302E14CF910895CF93C6E161E084E50E94E3
S1134540690F67E085E60E94690F6DE083E70E94CA
S1134550690F63E184E70E94690F6AE181E20E94C6
S1134560690F9C9926C09D9924C068E089E092E077
S11345700E94ED100E9469082DB73EB726513109FB
S11345800FB6F8943EBF0FBE2DBFADB7BEB71196A0
S1134590E2E3F4E08C2F01900D928A95E1F70E94FA
S11345A012078DB79EB746960FB6F8949EBF0FBEFE
S11345B08DBF80910B04823019F40E94971085C03E
S11345C080910B04853009F078C00E94A21085E028
S11345D0C39A9FEF23EC39E0915020403040E1F73B
S11345E000C00000C3989FEF21EE34E091502040BA
S11345F03040E1F700C00000815051F785E0C49AD3
S11346009FEF20E732E0915020403040E1F700C0B6
S11346100000C4989FEF25EA3EE0915020403040CE
S1134620E1F700C00000815051F7809116048460C6
S11346308093160485E094989FEF20E732E0915030
S113464020403040E1F700C00000949A9FEF25EA33
S11346503EE0915020403040E1F700C0000081501E
S113466051F7809116048B7F809316048EEE0E947E
S11346700502C82F0E941D02C11106C06AE08DE226
S113468092E00E94ED1005C06AE08CE392E00E9483
S1134690ED1082EA0E940502C82F0E941D02C1117A
S11346A006C06AE08CE492E00E94ED100EC06AE05D
S11346B08BE592E00E94ED1008C080911A0490915D
S11346C01B048131974208F438CF10920B04CF9128
S11346D00895CF93DF930E9497100E947B1010924D
S11346E019041092180410920504109206046AC06A
S11346F08091180490911904883E934058F01092C8
S11347001904109218048091050460E60E94F513C0
S113471080930504809105048A3548F010920504BD
S11347208091060469E50E94F51380930604609164
S11347300504809106040E94EE0F80910B048230E0
S113474029F410920B040E94971040C080910B042E
S11347508530C1F5C0911804D091190410920B044E
S113476080910B04853039F4D0931904C093180454
S113477010920B0427C080910B04823051F40E94E4
S1134780971010920B048091160480648093160491
S113479019C080910B04813019F710920B040E9408
S11347A09710109206041092190410921804109293
S11347B005040E947B1060910504809106040E9408
S11347C0EE0FCECF8091160486FF92CF809116040F
S11347D08F7B8093160410920B04DF91CF91089580
S11347E0EF92FF920F931F93CF93DF930091750085
S11347F0C091F8031C2F0E947B1080910B0483301E
S113480071F410920B04109227041092260469E5A7
S1134810802F0E94F513082F6C2F0E94EE0F8091B9
S11348200B04843071F410920B041092270410923C
S1134830260469E5802F0E940214082F6C2F0E9421
S1134840EE0F80910B04853029F410920B04C02FD5
S1134850D0E0A0C0209126043091270424383340AE
S1134860C8F0109227041092260461E080E60E94AA
S1134870690F67E080E60E94690F9FEF21EE34E044
S1134880915020403040E1F700C000006C2F802F91
S11348900E94EE0F80910B04823009F0AECF10928B
S11348A00B040E9497108091160480648093160470
S11348B0C02FCECF80910B04833079F410920B0477
S11348C0109227041092260469E5812F0E94F513A3
S11348D0182F682F8C2F0E94EE0F80910B048430C8
S11348E079F410920B04109227041092260469E5BF
S11348F0812F0E940214182F682F8C2F0E94EE0F14
S113490080910B04853021F410920B04FD2E47C0D6
S1134910209126043091270424383340C8F01092A3
S113492027041092260463E180E60E94690F69E17E
S113493080E60E94690F9FEF21EE34E09150204001
S11349403040E1F700C00000612F8C2F0E94EE0F71
S113495080910B04823059F410920B040E9497103A
S113496080911604806480931604FD2E18C0C11132
S113497006C011160CF4CEC08D2F846004C08D2F98
S11349808B7FC11105C0113019F4D82FD36002C038
S1134990D82FDC7F8091160486FF8CCFFD2EC09328
S11349A075001093F8031092190410921804111151
S11349B00CC0109219041092180469E58C2F0E94FF
S11349C0021469E50E94F513082FF2FE97C06AE00D
S11349D08BE692E00E94ED100E94F0239EC020918D
S11349E01804309119042A3C334048F010921904F9
S11349F01092180460E6812F0E940214182F0111EE
S1134A0003C011160CF0D160103631F469E5802F23
S1134A100E940214082F19E5011101C0D260612F10
S1134A20802F0E94EE0F8D2F8370833001F560E09C
S1134A3080E00E94EE0F8AE0C49AC39A9FEF2BEDA8
S1134A4035E0915020403040E1F700C00000C498A8
S1134A50C3989FEF20E732E0915020403040E1F7C7
S1134A6000C00000815041F70E94F02356C080919D
S1134A700B048530D1F5E0901804F09019041092DD
S1134A800B042FC090910B04953071F410920B0419
S1134A90F0921904E0921804109219041092180468
S1134AA0111123C0015021C090910B04923039F4AC
S1134AB00E94971010920B040E94F0232EC0909134
S1134AC00B04913071F410920B040E949710109112
S1134AD0F803009175000E947B10612F802F0E94C3
S1134AE0EE0F9091160496FFCDCF80910B04823087
S1134AF029F410920B040E94971004C080911604AC
S1134B0086FF6DCF809116048F7B809316041092DC
S1134B100B0403C08D2F8B7F36CFDF91CF911F9174
S1134B200F91FF90EF90089580916A00809399040B
S1134B309091990480919504981731F1809199048A
S1134B40809395048091690090919304891750F0A3
S1134B502091930490919704291721F080EA0E94F0
S1134B60920C089590919704891750F490919304AE
S1134B7080919704981721F080EA0E94920C08957E
S1134B80809112040E942E1408950E9497108DE0C3
S1134B9090E00E945437809393048BE090E00E944D
S1134BA05437809397048091930460E00E94EE0F41
S1134BB010920B0468E086E992E00E94ED100E94D6
S1134BC07B1080910B04833091F41092270410928F
S1134BD0260410920B048091930463E20E94F5135F
S1134BE0809393048091930460E00E94EE0F80917F
S1134BF00B04843091F4109227041092260410922E
S1134C000B048091930463E20E9402148093930442
S1134C108091930460E00E94EE0F809126049091AD
S1134C20270484389340D0F010922704109226046D
S1134C3061E080E60E94690F67E080E60E94690FE8
S1134C408FEF91EE24E0815090402040E1F700C0C6
S1134C5000008091930460E00E94EE0F80910B04A9
S1134C60823051F410920B040E9497108091160424
S1134C7080648093160415C080910B04853009F07C
S1134C80A0CF10920B04609193048DE090E00E94F9
S1134C905C371092250410922404109201040E949F
S1134CA0971068E088EA92E00E94ED100E947B1061
S1134CB080910B04833091F41092270410922604FF
S1134CC010920B048091970463E20E94F513809381
S1134CD097048091970460E00E94EE0F80910B048A
S1134CE0843091F4109227041092260410920B043D
S1134CF08091970463E20E94021480939704809148
S1134D00970460E00E94EE0F80912604909127049E
S1134D1084389340D0F0109227041092260461E066
S1134D2080E60E94690F67E080E60E94690F8FEFBA
S1134D3091EE24E0815090402040E1F700C0000053
S1134D408091970460E00E94EE0F80910B04823002
S1134D5051F410920B040E94971080911604806401
S1134D60809316041AC080910B04853009F0A0CFFB
S1134D7010920B04609197048BE090E00E945C37E2
S1134D806AE086E791E00E94ED10109225041092EB
S1134D902404109201040E9497109091930480912E
S1134DA09704981305C06AE08BEB92E00E94ED1023
S1134DB010920B04089564E18DEC92E00E94ED10D2
S1134DC064E183E093E00E94ED1010920B040895D7
S1134DD0CF930E94971060919D04809194040E9447
S1134DE0EE0F0E947B1010920B0480910B04833011
S1134DF099F4109227041092260410920B048091C7
S1134E00940463E20E94F5138093940460919D04DA
S1134E10809194040E94EE0F80910B04843099F4E5
S1134E20109227041092260410920B04809194048B
S1134E3063E20E9402148093940460919D04809123
S1134E4094040E94EE0F80910B04853019F41092A3
S1134E500B0430C080912604909127048438934039
S1134E60D8F0109227041092260461E080E60E9494
S1134E70690F67E080E60E94690F8FEF91EE24E0EE
S1134E80815090402040E1F700C0000060919D04F3
S1134E90809194040E94EE0F80910B04823009F0FB
S1134EA0A4CF10920B040E94971080911604806482
S1134EB080931604C0E180919404811106C080910E
S1134EC09D04803110F4C0939D0480910B048330C1
S1134ED099F4109227041092260410920B048091E6
S1134EE09D0469E50E94F51380939D0460919D04DF
S1134EF0809194040E94EE0F80910B048430E9F4B5
S1134F00109227041092260410920B0480919D04A1
S1134F1069E50E94021480939D0480919404811198
S1134F2006C080919D04803110F4C0939D0460916B
S1134F309D04809194040E94EE0F80910B048530AF
S1134F40E1F410920B046091940487E090E00E94D5
S1134F505C3760919D0486E090E00E945C376AE0D3
S1134F6086E791E00E94ED1010922504109224042B
S1134F70109201040E94971033C0809126049091EE
S1134F80270484389340D8F0109227041092260402
S1134F9063E180E60E94690F69E180E60E94690F7F
S1134FA08FEF91EE24E0815090402040E1F700C063
S1134FB0000060919D04809194040E94EE0F809102
S1134FC00B04823021F08091160486FF74CF109276
S1134FD00B040E949710809116048F7B8093160413
S1134FE01092210410922004109217041092A40429
S1134FF010920B04CF910895F89490919C04892306
S113500090919C04982790939C0478940895F89424
S113501090919804892390919804982790939804E8
S11350207894089583B39091A604809589279091EC
S1135030FC03982390959093FC032091FB03282371
S113504029272093FB03892382239091A604982780
S11350509093A6049091A60420919C048923822B0A
S113506080939C048091A6048C7721F481E380933F
S1135070FA0312C08091FA03815019F08093FA0365
S11350800BC08FE08093FA038091A604909198045A
S11350908C77892B8093980484E00E94FC278823D2
S11350A059F081E080930B04C49A8FE19EE4019748
S11350B0F1F700C00000C49888E00E94FC27882310
S11350C059F082E080930B04C49A8FE19EE4019727
S11350D0F1F700C00000C49880E10E94FC278823F7
S11350E059F084E080930B04C49A8FE19EE4019705
S11350F0F1F700C00000C49880E10E9407288823CB
S113510059F084E080930B04C49A8FE19EE40197E4
S1135110F1F700C00000C49880E20E9407288823A9
S113512059F083E080930B04C49A8FE19EE40197C5
S1135130F1F700C00000C49880E20E94FC27882395
S113514059F083E080930B04C49A8FE19EE40197A5
S1135150F1F700C00000C49880E40E94FC27882373
S113516059F085E080930B04C49A8FE19EE4019783
S1135170F1F700C00000C49808951F920F920FB673
S11351800F9211242F933F934F935F936F937F93C9
S11351908F939F93AF93BF93EF93FF9380912004DA
S11351A0909121040196909321048093200480918E
S11351B0FF038F5F8093FF03823340F080911604D6
S11351C0883021F01092FF030E9405218091510440
S11351D0811147C00E94740C0E94122880917000B3
S11351E0813009F03EC08091690087508C31C8F548
S11351F08091FD039091FE0301969093FE038093AA
S1135200FD038091160481FDC49A80911604846084
S11352108093160494988091FD039091FE03059762
S113522010F0C498949A8091FD039091FE034997DD
S113523050F08091160481FDC49A80911604846014
S11352408093160494988091FD039091FE034E97E9
S113525040F0109270001092FE031092FD03C49867
S1135260949AFF91EF91BF91AF919F918F917F910C
S11352706F915F914F913F912F910F900FBE0F90BF
S11352801F901895DF92EF92FF920F931F93CF9385
S1135290DF9382E00E94920C0E94971010921D04EA
S11352A010921C04109221041092200481E0809337
S11352B04D048093510448C08091160486FD49C072
S11352C080914F04882341F080914D04882321F07C
S11352D010924F040E94DC0B9B9B3BC080911E04E8
S11352E090911F0480369A4E78F110921F04109208
S11352F01E0480911C0490911D04019690931D043A
S113530080931C0480911C0490911D040397E0F089
S113531085E0C39A3FEF9AE623E031509040204065
S1135320E1F700C00000C3983FEF93EF21E0315054
S113533090402040E1F700C00000815051F71092E6
S11353401D0410921C0405C080914C04882309F4A8
S1135350B3CFE090600000916700D0906100C091ED
S11353606200D091630010916400F0906800809115
S1135370160486FF10C0C6E3D0E00F2EF8E3FF2E1C
S1135380F02D04E317E30F2EF5E3DF2EF02D0F2E9F
S1135390F3E3EF2EF02D10921F0410921E041092CE
S11353A01D0410921C04109221041092200481E028
S11353B080934D048093510410924C045BC08091FF
S11353C0160486FD6DC09B9B5BC080914F048823AF
S11353D041F080914D04882321F010924F040E94E3
S11353E0DC0B80911E0490911F0480369A4E08F4C1
S11353F041C010921F0410921E0480911C049091CD
S11354001D04019690931D0480931C0480911C0438
S113541090911D04039770F185E0C39A9FEF2AE6EB
S113542033E0915020403040E1F700C00000C398C1
S11354309FEF23EF31E0915020403040E1F700C06E
S11354400000815051F710921D0410921C04109218
S11354505104CCE3D0E00F2EFEE3FF2EF02D0AE33F
S11354601DE30F2EFBE3DF2EF02D0F2EF9E3EF2EBD
S1135470F02D16C080914C04882309F4A0CF10C0ED
S1135480CCE3D0E00F2EFEE3FF2EF02D0AE31DE364
S11354900F2EFBE3DF2EF02D0F2EF9E3EF2EF02D70
S11354A01092510410924C04809160008E1146C0F9
S11354B0809161008D1142C08091620090916300DF
S11354C08C179D07D9F580916400811337C08091B2
S11354D06700801333C0809168008F112FC081E072
S11354E0809399041092950480916700873011F499
S11354F010926700809116048B7F8093160440916C
S1135500660060916500809164000E94210D2091E5
S11355106200309163004091610060916700809166
S113552060000E94700D6091680086E190E00E9426
S11355305C37809112040E942E140EC080911604D0
S11355408B7F80931604809112040E942E1464E1D0
S113555080E493E00E94ED10809116048F7B809389
S11355601604DF91CF911F910F91FF90EF90DF9080
S1135570089585E090E00E9454378F3F29F460E05D
S113558085E090E00E945C37E199FECF81E090E0F5
S11355900E94543781508E3F28F061E081E090E012
S11355A00E945C37E199FECF82E090E00E9454377C
S11355B081508E3F28F06FE082E090E00E945C37DB
S11355C0E199FECF83E090E00E94543781508E3FF2
S11355D028F06FE083E090E00E945C37E199FECF11
S11355E080E090E00E94543781508E3F28F061E0C3
S11355F080E090E00E945C37E199FECF85E190E085
S11356000E9454378F3F29F469E085E190E00E94BD
S11356105C37E199FECF83E190E00E9454378F3FDD
S113562029F469E083E190E00E945C37E199FECFC0
S113563081E190E00E9454378F3F29F462E181E1D7
S113564090E00E945C37E199FECF8FE090E00E94E9
S113565054378F3F29F463E18FE090E00E945C3778
S1135660E199FECF84E190E00E9454378F3F29F402
S113567065E184E190E00E945C37E199FECF82E12C
S113568090E00E9454378F3F29F465E382E190E073
S11356900E945C37E199FECF80E190E00E9454378C
S11356A08F3F29F465E380E190E00E945C37E19943
S11356B0FECF8EE090E00E9454378F3F29F460E0E3
S11356C08EE090E00E945C37E199FECF86E190E0A5
S11356D00E9454378F3F29F460E086E190E00E94F5
S11356E05C37E199FECF87E090E00E9454378F3F0A
S11356F029F463E087E090E00E945C37E199FECFF3
S113570086E090E00E9454378F3F29F460E086E001
S113571090E00E945C37E199FECF89E090E00E941E
S113572054378F3F29F460E089E090E00E945C37B1
S1135730E199FECF88E090E00E9454378F3F29F42E
S113574069E588E090E00E945C37E199FECF84E04F
S113575090E00E9454378F3F29F465E084E090E0A4
S11357600E945C37E199FECF82E090E00E945437BA
S113577080931204E199FECF83E090E00E945437B5
S113578080930904E199FECF81E090E00E945437B0
S113579080931304E199FECF80E090E00E94543797
S11357A080930A04E199FECF85E090E00E9454378B
S11357B080931504E199FECF85E190E00E9454376F
S11357C080930804E199FECF83E190E00E9454376E
S11357D080931104E199FECF81E190E00E94543757
S11357E080930F04E199FECF8FE090E00E9454373C
S11357F080930D04E199FECF84E190E00E94543738
S113580080930704E199FECF82E190E00E9454372F
S113581080931004E199FECF80E190E00E94543718
S113582080930E04E199FECF8EE090E00E945437FD
S113583080930C04E199FECF8DE090E00E945437F0
S113584080939304E199FECF8CE090E00E9454375A
S113585080939B04E199FECF8BE090E00E94543743
S113586080939704E199FECF8AE090E00E94543738
S113587080939604E199FECF87E090E00E9454372C
S113588080939404E199FECF86E090E00E9454371F
S113589080939D04E199FECF86E190E00E94543705
S11358A091E0811101C090E090936800E199FECFEE
S11358B089E090E00E94543780930304E199FECF7D
S11358C084E090E00E94543780930204E199FECF73
S11358D088E090E00E945437809304040895CF93A5
S11358E00E94971089E090E00E945437809300044E
S11358F088E090E00E94543780930104609104048E
S1135900809103040E94EE0F10920B046CE080E778
S113591093E00E94ED100E947B1080910B04833071
S113592099F4109227041092260410920B0480918B
S1135930030469E50E94F513809303046091040451
S1135940809103040E94EE0F80910B04843099F43B
S1135950109227041092260410920B0480910304E1
S113596069E50E9402148093030460910404809109
S113597003040E94EE0F809126049091270484383A
S11359809340D8F0109227041092260461E080E638
S11359900E94690F67E080E60E94690F8FEF91EE25
S11359A024E0815090402040E1F700C00000609165
S11359B00404809103040E94EE0F80910B0485304F
S11359C009F0ABCF10920B046091030489E090E0DE
S11359D00E945C37C5E080910B048330E9F4109297
S11359E027041092260410920B048091040469E5A4
S11359F00E94F5138093040480910304811106C06E
S1135A0080910404853010F4C0930404609104046C
S1135A10809103040E94EE0F80910B048430E9F41A
S1135A20109227041092260410920B04809104040F
S1135A3069E50E9402148093040480910304811197
S1135A4006C080910404853010F4C093040460916E
S1135A500404809103040E94EE0F80912604909127
S1135A60270484389340D8F0109227041092260417
S1135A7063E180E60E94690F69E180E60E94690F94
S1135A808FEF91EE24E0815090402040E1F700C078
S1135A90000060910404809103040E94EE0F809141
S1135AA00B04823051F410920B040E9497108091E1
S1135AB016048064809316041CC080910B04853006
S1135AC009F089CF10920B046091040488E090E0FF
S1135AD00E945C3710922504109224041092010451
S1135AE0109200040E9497106AE086E791E00E94F9
S1135AF0ED10CF9108950E94971084E090E00E94E9
S1135B0054378093020460E083E40E94690F66E0E6
S1135B1089E70E94690F6CE083E60E94690F62E1E5
S1135B208AE30E94690F10920B0480910B04833066
S1135B3089F410920B041092270410922604809189
S1135B40020469E90E94F51380930204809102041F
S1135B500E940F1480910B04843089F410920B047A
S1135B6010922704109226048091020469E90E948D
S1135B70021480930204809102040E940F14809105
S1135B800B04853071F410920B046091020484E0DC
S1135B9090E00E945C376AE086E791E00E94ED1095
S1135BA00895809126049091270484389340C8F086
S1135BB0109227041092260465E180E60E94690F82
S1135BC06BE180E60E94690F8FEF91EE24E0815033
S1135BD090402040E1F700C00000809102040E9440
S1135BE00F1480910B04823009F09FCF10920B04A4
S1135BF00E9497108091160480648093160408957F
S1135C000F931F93CF93DF936AE084EA93E00E949B
S1135C10ED1010921B0410921A0410920B04809140
S1135C201604806280931604C1E012E005E001C00E
S1135C30C1E00E9494258C2F90E0FC013197ED3057
S1135C40F10508F08BC3EA5AFF4F0C94FD348091A0
S1135C50160480628093160461E084E50E94690F53
S1135C6067E089E60E94690F69E08DE60E94690F8A
S1135C706FE085E60E94690F80910B04853049F43A
S1135C8010920B04809116048F7D809316040E9459
S1135C90FD169A9966C39C9964C310920B040E94E2
S1135CA09B225FC38091160480628093160461E096
S1135CB084E40E94690F67E081E60E94690F6DE049
S1135CC084E70E94690F63E185E60E94690F809171
S1135CD00B04853009F045C310920B04809116041F
S1135CE08F7D809316040E9404183BC38091160490
